:020000040800F2
:100000000000022095470008E9200008ED200008C4
:10001000F1200008F5200008F92000080000000089
:10002000000000000000000000000000FD200008AB
:10003000012100080000000005210008D947000840
:10004000D9470008D9470008D9470008D947000810
:10005000D9470008D9470008D9470008D947000800
:10006000D9470008D9470008D9470008D9470008F0
:10007000D9470008D947000831360008D947000899
:10008000D9470008D9470008D9470008D9470008D0
:10009000D9470008D9470008D9470008D9470008C0
:1000A000D9470008D9470008D9470008D9470008B0
:1000B000D9470008D9470008D9470008D9470008A0
:1000C000D9470008D9470008D9470008D947000890
:1000D000D9470008D9470008D9470008D947000880
:1000E000D9470008D9470008D9470008D947000870
:1000F000D9470008D9470008D9470008D947000860
:10010000D9470008D9470008D9470008D94700084F
:10011000D9470008D9470008D9470008D94700083F
:10012000D9470008D9470008D9470008D94700082F
:10013000D9470008D9470008D9470008D94700081F
:10014000D9470008D9470008D9470008D94700080F
:10015000D9470008D9470008D9470008D9470008FF
:10016000D9470008D9470008D9470008D9470008EF
:10017000D9470008D9470008D9470008D9470008DF
:10018000D9470008D947000800000000000000001F
:1001900010B5044602F066FC2022002104F1100094
:1001A00004F01CFB00230022134914482063616300
:1001B0001348A363E363A4F8402023656365A4F8B0
:1001C000582021666166A3660E49E366A4F8702094
:1001D000C4F88030C4F88430A4F888200A4BE16762
:1001E0004FF0FF32A364E064A3676264E265626774
:1001F000C4F88C2010BD00BF9A99993ECDCC4C3FDD
:10020000CDCC0C3F9A99593F9A99193F10B48389E4
:10021000C489B0F808C0D0ED0A4A90ED0B4AD0ED81
:10022000083A90ED093A90ED067AD0ED077A90ED14
:10023000046AD0ED056A00EE103A00EE904A438958
:10024000848801EE10CAB0F806C02DED048B01EED3
:10025000903A9FEDD68A0388F8EE408A02EE104A63
:100260004488F8EE609A02EE90CAB0EE649A98EE76
:10027000889AF8EE410A05EE103AB8EE611A05EEDA
:10028000904AF0EE448AD9EE888A436CF8EE421A1E
:10029000B0EE630AB8EE622AF0EE439A90EE880A56
:1002A0009A4200EB0203D1EE089AF8EE452AF0EEEE
:1002B000470AB8EE655AB0EE671AD1EE880A92EE98
:1002C000081AF0EE461AB0EE662AD2EE881A95EEBB
:1002D000082ADFEDB75A9FEDB78AA0EEA57AE9EEBE
:1002E000084AE1EE257AA1EEA56AE2EE256AA8EEBB
:1002F000884AE0EE083AA9EE883AF6EE002A80ED48
:10030000067AC0ED077A80ED046A32EEC77A72EEA3
:10031000E77A32EEC66A32EEE69AC0ED0A4A80ED1E
:100320000B4AC0ED083A80ED093AC0ED056A00F0CD
:10033000278100EB8204C4ED0E4A002483F840407C
:10034000F0EE646A426474EEE68A9FED9B5AF4EE26
:10035000C58AF1EE10FA40F3CB804FF0010C83F820
:1003600040C000EB8204C4ED0C4AC46DA24200F010
:10037000CB8000EB820484ED144A002483F85840BB
:10038000F0EE444AC26574EE649ADFED8B0AF4EE37
:10039000E09AF1EE10FA00F3DE809FED881AF4EE99
:1003A000C19AF1EE10FA00F1D680446FA24200F03B
:1003B000DE8000EB8204C4ED1A3A002483F870401A
:1003C000B0EE634A426773EEC41A9FED7B2AF4EEE7
:1003D000C21AF1EE10FA00F3A8809FED788AF4EECD
:1003E000C81AF1EE10FA00F1A080D0F88C40A242B9
:1003F00000F0A88000EB820484ED203A002483F80A
:100400008840F0EE433AC0F88C2073EE635ADFED7B
:100410006A2AF4EEE25AF1EE10FA7DDCDFED676A4B
:10042000F4EEE65AF1EE10FA76D490ED0C3A37EE8F
:10043000037AB5EEC07AF1EE10FA00F1B480F7EE6F
:10044000008AB4EE687AF1EE10FAC8BFB0EE687AAE
:1004500090ED125A81ED037A77EE857AF5EEC07A47
:10046000F1EE10FA00F19C80B7EE000AF4EE407A4B
:10047000F1EE10FAC8BFF0EE407AD0ED184AC1EDA7
:10048000067A36EE246AB5EEC06AF1EE10FA00F193
:100490008480F7EE009AB4EE696AF1EE10FAD8BFE4
:1004A000F0EE469AD0ED1E0AC1ED019A39EE201AFF
:1004B000B5EEC01AF1EE10FA6CD4B7EE009AB4EEB5
:1004C000491AF1EE10FAC8BFB0EE491ABDEC048B20
:1004D000C46C436BD0F864C0C26F81ED0B1A8C60A2
:1004E0000B605DF8044BC1F830C08A6202F062BB59
:1004F0009FED320AF4EEC08AF1EE10FA3FF52DAF0F
:10050000C46DA2427FF435AF93F858403CBB00EB7A
:10051000820CDCED144A36E74FF0010C83F888C0FA
:1005200000EB820282ED1E3A7FE74FF0010C83F868
:1005300070C000EB8204C4ED183AD0F88C40A2429F
:100540007FF458AF93F88840002CE9D100EB820C7F
:10055000DCED203A59E74FF0010C83F858C000EB6E
:10056000820484ED124A446FA2427FF422AF93F8D2
:100570007040002CDDD100EB820C9CED1A4A22E782
:1005800093F84040002C7FF4ECAE00EB820CDCEDE5
:100590000E6AD8E69FED0A1A98E7DFED099A81E71F
:1005A000DFED077A69E79FED067A51E700008037B3
:1005B0000AD7A33DD044D83C0AD7A33B0AD7A3BB54
:1005C00000000000704700BF70B504460E46154697
:1005D00003F000F9601C03F053F80023C4E902653E
:1005E00023746382237570BD8169828B013110B5DC
:1005F0000346816112B1013A92B28283DFED367A0D
:1006000093ED087AB4EEE77AF1EE10FA06DC187D85
:10061000F8B14FF0FF0C6446604603E04FF0000C69
:100620006446FF204FF0000E111E60F3070E64F3C6
:100630000F2E18BF01214A4218466CF3174E62F381
:100640001F6EFF245C7140F801EFBDE8104003F01D
:100650008DB89C6804F5004C9CF83C010728D8D85C
:100660000FF2040C5CF820F0BB060008130600082B
:10067000CD06000889060008930600089D060008BC
:10068000A7060008B106000800244FF0FF0C204622
:10069000C8E74FF0FF0C00247820C3E74FF0FF0CB1
:1006A000C8240020BEE74FF0000CFF246046B9E7E5
:1006B0004FF0000C5024FF20B4E7084CA4FB014E7F
:1006C0005FEACE51A5D484460446ABE74FF0000C58
:1006D000B424FF20A6E700BF3333733FC5B3A29114
:1006E00010B5044603F08CF82378207C002B0CBF57
:1006F0000122002208D1B8B1608A4FF6FF739842F8
:100700000CD0013081B208E040B1618A40F2DB5C7C
:100710000020614520750AD900216182227420469B
:10072000BDE81040FFF760BF01212175F5E7A36820
:100730009FED107AD3ED007A0F4827EE870A03F574
:10074000005EFDEEC00ACEF85000CEED150A03F5AE
:10075000804C03F5C04E03F50043CCF89000CCED7F
:10076000250ACEF8D000CEED350AC3F81001C3ED4E
:10077000450AD1E70AD7233CEC51383ED0ED0D5A5B
:1007800090ED0E2AD0ED0C1A90ED0A1AD0ED0B0A5E
:10079000D0ED0F3A90ED104A002A00F019822DE9B1
:1007A000F043DFED082A2DED048B02F1FF3EF0EE61
:1007B000629AD0E90032B1EE655A01F1080CE1E12C
:1007C00000007042000000000000803900409245A7
:1007D0000000C842D0ED034AD0ED076A90ED040A4C
:1007E000D0ED088AC0ED024A94EE807AD6EEA87A5F
:1007F000B6EE009A34EE896A36EE893A80ED037AD5
:10080000C0ED077AC0ED066A1FED137A1FED139A4B
:100810001CED020AB2EE048AA6EE078A03F1640414
:10082000C4F30D041FED187AFDEEC87A0EF1FF3EF9
:1008300017EE905A5E19771CC7F30D08C6F30D0921
:1008400032F9181032F9195006EE101A04EE905AC7
:10085000F8EEC66AF8EEE48A26EE876AF8EEE77AE2
:10086000A8EEC76A03F17006C6F30D0738EE678A73
:100870005CED014A28EE066A70EE246AA8EE876AEB
:10088000C3F30D080CF1080C66EEA08A76EE097A27
:10089000BEF1FF3FB0EE678ABEEECA8AE7EE898AF4
:1008A00018EE101A01F30F0922F8149032F91750BC
:1008B00009EE105AB8EEC96A03F2131466EE077A0D
:1008C00003F17207E5EEA78AC7F30D01C4F30D0625
:1008D00003F20529F0EE686AFEEECA6AE5EE287AB0
:1008E000C9F30D0516EE904A04F30F0722F81870AD
:1008F00032F916601FED4B6A08EE906AB8EEE88A8E
:100900005FED4D8A68EE076AA3EE286A03F21514BC
:10091000C4F30D09E5EEA67A03F29537C7F30D048B
:10092000BDEEC68AB0EE679ABEEECA9AE5EE276AB9
:1009300019EE108A08F30F0622F8116032F915102B
:1009400007EE901AB8EEE73A03F2072523EE079A6E
:10095000C5F30D06E5EE896A18EE107AF0EE668AA8
:10096000FEEECA8AA5EE269A1F4407F5355118EE09
:10097000905A05F30F0522F8195032F9149006EE3B
:10098000909AF8EEE67A42F6525427EE873A2744D8
:10099000A5EE839A01F11301C1F30D08C7F30D0110
:1009A000F0EE498AFEEECA8AB8EEC88A18EE907A4E
:1009B00007F30F0522F8165032F9186032F911903A
:1009C00006EE906A36EE486A07EE909AB8EEE68A2E
:1009D000F8EEE78A68EE077AA5EE093A03F60B28E7
:1009E000C8F30D01E8EEC77A32F91150B0EE438A30
:1009F00026EE279A06EE105AA8EE879A03F297374A
:100A000003F59056F8EEC66AA1EE898AC7F30D0584
:100A100006F1020666EE878A78EE637A03F590584F
:100A2000E2EE273AC6F30D0108F10406C6F30D08FD
:100A3000B0EE639AA8EE859A03F60D27C7F30D0969
:100A400003F5FA57B0EE496ABEEECA6AE5EE898A46
:100A500007F11607C7F30D0716EE106A06F30F0627
:100A600022F8156032F9115006EE905AB8EEE68A77
:100A700003F51B5128EE079A01F11001E5EE898A72
:100A8000C1F30D0603F5FA5505F11805A8EE859A90
:100A90001C44C4F30D04FEEECA8A39EE096A18EE4E
:100AA000901A01F30F01F0EE498AFEEECA8A22F88D
:100AB000191018EE909A09F30F0122F8181032F964
:100AC000177032F9166006EE907AB8EEE68A07EEF5
:100AD000906A68EE078AB8EEE79AA1EEA83AC5F3E5
:100AE0000D0803F5355569EE077A33EE443A76EE94
:100AF000406AA2EE034A05F11005C5F30D06A6EE05
:100B0000810A03F51B5101F11201B0EE448AA5EEF2
:100B1000A78AC1F30D050CED040AB0EE480ABEEE3B
:100B2000CA0AE8EE057A10EE109A09F30F0722F8C8
:100B3000187032F9168009EE108AF8EEC98AE6EECE
:100B4000069A28EE877AE7EE057AA5EEA77AFEEEFA
:100B5000CA7A37EE076A17EE906A06F30F0176EE4F
:100B6000647ABEEECA7AE7EE814A22F8151017EED3
:100B7000107A07F30F05E6EE062A22F814504CED22
:100B8000034A15D0591E43BF03F57F533F3319461F
:100B90000B460160D90690ED027AD0ED067A3FF45B
:100BA00019AEB6EE008A37EE086A37EE883A2BE6C1
:100BB00079EEA25ABDEC048BB6EE002A65EE821ADD
:100BC000C0ED0F3A80ED104AC0ED111ABDE8F08378
:100BD0009FED043AC0ED0F3A80ED104A80ED113AD6
:100BE000704700BF000000002DE9F04F2DED0E8B87
:100BF0000446D0ED010A91B0B2EE060ACDE9072114
:100C000003F03EFED4ED047ADFEDF36AB2EE007A33
:100C100067EE870A60EE269ABDEEE00A04F5004909
:100C200010EE103A83F30302002B89F83C2140F3C5
:100C30005987EA4800EB021191ED03AA0D684E684E
:100C40008F680C950D960E97DDED0C2A99ED4E9A56
:100C500069EEA23AB3EE073AF4EE433AF1EE10FA37
:100C600048BFF0EE433A89EE23BAB1EE004AB4EE43
:100C7000C4BAF1EE10FA40F14C87B0EE44BADDEDA3
:100C80000DBA69EEAB8AB3EE07CAF4EE4C8A04F5EE
:100C90000052F1EE10FA099282ED10BA48BFF0EE60
:100CA0004C8AC9EE28AAF1EE00CAF4EEECAAF1EEE5
:100CB00010FA40F14787F0EE6CAADDED0E7A69EE8E
:100CC000A7EAF3EE076AF4EE66EAF1EE10FA04F52D
:100CD000804A48BFF0EE66EACAED20AA89EE2E7A75
:100CE000F1EE000AB4EEE07AF1EE10FA40F144873A
:100CF000B0EE607A29EE8A6AB3EE075AB4EE456A1E
:100D0000F1EE10FA04F5C04058BFB0EE465A80ED3F
:100D1000307AC9EE056AF1EE001AF4EEE16AF1EEFE
:100D200010FA40F14187F0EE616AC9ED406AD4EDF6
:100D3000022ADFEDAB3ADFEDAB5A09999FEDBD9A80
:100D40009FEDA9CA9FEDA9DA99EDC2EA99EDC07AA3
:100D5000B7EE003A33EE624AF6EE004A24EE248AF9
:100D6000E2EEA35A04F5A03604F5024273EE488A77
:100D7000C1ED115ACAED215AC0ED315AC9ED415A9F
:100D800081ED138AC1ED128A8AED238ACAED228A87
:100D900080ED338AC0ED328A89ED438AC9ED428AFB
:100DA000D4ED03AAD4ED0DCAD6EDE17A22EEA2AAC3
:100DB0006AEEAABA2AEE09BA67EEAC0AABEE8CBAB2
:100DC00004F5014B8032F3EE04DAA0EE8DBA0BF19C
:100DD00040084546F4EE6D9AF1EE10FA48BFF0EE89
:100DE0006D9A6EEE09EA81ED16BA94468AED26BA3E
:100DF000002380ED36BA89ED46BAC9EDC19A0133B8
:100E000000EE103AB8EEC01AB7EE006A21EE2E5A84
:100E100071EE461A69EE816AA5EE216ADFED863A27
:100E20009FED8A2A9FED8E3ADFED895A9FED848AE5
:100E3000DFED828A66EE862A22EE874AB4EEE34A26
:100E4000F1EE10FA09DC64EE044AA4EE823AE4EE14
:100E5000835A24EE258A68EE088AFCEC01AA9FEDED
:100E600076AADFED763ADFED766A85ED008AB7EE99
:100E7000009A89EE2ABA013305F1140EB0EE490A40
:100E8000ABEE080A0BEE903A30EE281AB8EEEBCA39
:100E900089EE016A6CEE2ECA3CEE49DAB0EE49EA00
:100EA000ACEE8DEA69EE8CDA85ED01BA6DEE8E7AE4
:100EB00085ED026A67EE870AF4EECA0AF1EE10FACF
:100EC0000FDC20EEA02A9FED615ADFED651A9FED41
:100ED000603AE2EE051AA2EE213A60EE836A66EE0F
:100EE000A63AFCEC015ACEED006AF7EE008AC8EE95
:100EF000A52A102B0EF11405B0EE684AA2EEA64A00
:100F0000CEED012A74EE234A88EEA48A8EED028A81
:100F10007FF475AF94ED069A9FED35AADFED35AA03
:100F200099EDC3BADFED34BA9FED34CA9FED34DAE0
:100F3000DFED347A9FED346A9FED340A89EDC49A6F
:100F4000E9EE0AAAC44693466BEE2BCA6BEE2ADA88
:100F50002BEE0CEA6CEEAA0A2BEE0D1A2EEE2A5A94
:100F60006BEE271AF4EEE8DA21EE2A3A2BEE062A87
:100F7000F1EE10FAF4EEE80A61EEAA6A6BEE003ABE
:100F8000D4BFF0EE685AF0EE6D5A9FED21DADFED36
:100F900021DA9FED216A9FED210AC9EDA05AF1EEF9
:100FA00010FAB4EEE85A62EE2A4AD4BFB0EE688A6C
:100FB000B0EE608AF1EE10FAB4EEE83A63EEAABA47
:100FC0002BEE0DEAD4BFF0EE682AF0EE452AF1EEE2
:100FD00010FAF4EEE86A45E000002042685100088B
:100FE0000AD7233CA4707D3F8FC2753CCDCCCC3C4E
:100FF0003333333F9A99993EEC51783FD7A3703FF2
:10100000C3F5683FAE47613F9A99593F85EB513F21
:10101000713D4A3F5C8F423F48E13A3F0AD7233F48
:101020001E852B3FCDCC0C3FF6281C3FE27A143FA7
:10103000CDCC4C3EA69B443C6666E63E2717354128
:10104000CF4F5740000048430000704249265F429E
:10105000DB0F49405555553F8FC2F53E0AD7A33C9B
:101060008FBA2141D4BFB0EE68CAB0EE43CA6BEE6E
:101070002D7AF1EE10FAF4EEE84A6EEE2A0AD4BFA9
:10108000F0EE68CAF0EE66CA6BEE061AF1EE10FAE0
:101090001FED1D5A1FED1DEAC9EDA4CAF4EEE8BA12
:1010A0002BEE0A4A27EEAA1AD8BFF0EE684AF1EEF4
:1010B00010FA21EEAA2AD8BFF0EE68BAF4EEE80AD8
:1010C0002BEE053AC9EDA54A5FED294AC9EDA6BA4E
:1010D00024EE2AAAF1EE10FA6BEE006AB4EEE81ADA
:1010E0005FED2EBA89EDA18A63EE2A5A6BEE24CA0F
:1010F000D8BFF0EE680AF1EE10FAB4EEE82A66EE18
:10110000AA3A2BEE2B4AD8BFB0EE681AF1EE10FACD
:10111000B4EEE8AA2CEEAADAD4BFB0EE688AB0EE3C
:10112000428A2BEE0EBAF1EE10FAF4EEE85A64EEB3
:101130002ADAD8BFB0EE68AAF1EE10FAF4EEE83A77
:101140006BEE2AAA89EDA3CAD4BFB0EE68CAB0EE8E
:1011500065CAF1EE10FAB4EEE8DAC9EDA22AD4BFFE
:10116000F0EE682AF0EE632AF1EE10FAF4EEE8DA17
:10117000D8BFB0EE68DAF1EE10FAF4EEE8AAD8BF04
:10118000F0EE68DAF1EE10FAD8BFF0EE68AAC9ED19
:10119000A70A89EDA81A89EDA98A89EDAAAA89ED7D
:1011A000ABCAC9EDAC2A89EDADDAC9EDAEDAC9ED4D
:1011B000AFAA0021013108EE901AB8EEE8AAF7EEC6
:1011C000007A6EEE8A0A3AEE671A29EE8A0AE0EE93
:1011D000817A1FED673A1FED636A1FED5F5A1FEDBD
:1011E000642A1FED698A1FED6BCA60EE276A66EEFE
:1011F000875AF4EEC35AF1EE10FA09DC65EEA53A0F
:10120000A3EE865AA3EE852A25EE828A28EE08CA26
:10121000FBEC014A5FED78BA1FED782A1FED780AE2
:101220008CED008AF7EE002AC2EEA4CA01310CF15F
:101230001407F0EE627AECEE887A04EE101A77EE7C
:101240008C0AB8EEC4DA82EEA01A6EEE8DDA3DEEAC
:1012500062EAF0EE62AAEDEE8EAA29EE8DBACCED2E
:1012600001CA6BEE2A8A8CED021A28EE87AAB4EE28
:10127000EBAAF1EE10FA0FDC6AEE0A1A1FED8D6A86
:101280001FED895A5FED8E5AA1EE865AE1EE855A1E
:101290002AEE250A20EE002AFBEC016A87ED000AFF
:1012A000B7EE003AC3EE263A102907F1140CB0EE5F
:1012B000438AA3EE808AC7ED013A38EE02CAC3EE34
:1012C0000C2AC7ED022A7FF475AF5FEDA7EA5FED48
:1012D000A7BA29EE2E9A454669EE2BCA89EDC29A25
:1012E0000023013304EE903AB8EEE44AB7EE00DA98
:1012F00064EE2CDA34EE4DEA69EE848AADEE8EDAD5
:101300005FEDB30A1FEDAFBA5FEDABAA1FEDB0AA58
:101310001FEDB55A5FEDB71A68EE8D7A27EE871A82
:10132000B4EEE01AF1EE10FA09DC21EE016AE6EE05
:101330000BAAA6EE2AAA21EE0A5A65EE051AB2EC0D
:10134000012A1FEDC30A1FEDC3AA5FEDC38A85ED15
:10135000005AF7EE005A85EE823A013305F1140E79
:10136000F0EE654AE3EE054A06EE903A34EEA14A05
:10137000B8EEE68A85EE84DA68EE2C3A38EE65CA75
:10138000F0EE65EAE3EE8CEA69EE882A85ED013A33
:1013900062EEAEBA85ED02DA2BEE879AB4EEC09A11
:1013A000F1EE10FA0FDC29EE09BA5FEDD8DA1FED85
:1013B000D4EA5FEDD9AAABEE2DEAEBEE0EAA69EE08
:1013C0002A8A28EEA8AAF2EC010ACEED008AB7EE2E
:1013D000008A88EE201A102B0EF11405F0EE487AE0
:1013E000E1EE287A8EED011A37EE8A6A88EE065A07
:1013F0008EED025A7FF475AFD4ED070A1FEDEF0AA8
:10140000019003F03DFA5FEDF09AD4ED00EA5FED54
:10141000F1CA1FEDF12A5FEDF15A94ED093A5FED43
:10142000F23A5FEDF26A0198C6EDDD5A20EE297AB4
:101430001FEDF50AC7EE2E1AF0EE48BA61EEA12AAA
:10144000E3EE236AA2EEAC0A2EEEA6DAA2EE802A22
:10145000B1EE00CA61EE820AB4EECCDAE0EEA5BAD3
:10146000F1EE10FAE0EEA0BAC6EDDC0A88EE2B6AC7
:1014700086EDDE6A00F1C6839FEDE29AB4EE49DAAA
:10148000F1EE10FAC8BFB0EE49DAD4ED0A4A94ED95
:101490000B4ADFEDDDDA9FEDDD3A9FEDDDEA079BDC
:1014A000226BDC49DC4F94ED082A86EDC6DAB6EEF5
:1014B00000BAF0EE4BAAA4EEAD3AC6F85023C6F837
:1014C0002013E4EE0EAAC6F85C13C6F8607386ED2E
:1014D000C73A86EDD5BAC6EDD6AA002B00F0D18268
:1014E000FDEECD8A089F94ED051AD6EDDF2A96ED24
:1014F000E04AD6EDC97A96EDE27AD6F814E3CDF853
:1015000028A0B8EEE8AA04F5005504F50241C03160
:101510003A1D07EBC30338357DEE4A3ABB468C468D
:101520000B90F1EE601ACDED058A0695049304F553
:1015300003479246494630469BED018ADFEDB7CA24
:101540009FEDB75A5AED019ADFEDB66AB64EDFED60
:10155000CC5A3268069BCDF80CA0B5EEC08AF1EEED
:1015600010FA48BFB1EE488AB4EEC78A38EE470A8F
:10157000F1EE10FAD8BFF0EE45CAA0EE2C7A4FF08B
:101580000009CDE901E869EEA64A80EDE27AC84695
:1015900093ED02CA1E68D3ED01BA93ED059A93ED5F
:1015A00004BABDEECCDA08EBC81E1DEE105A751B4E
:1015B00005F2FF7ACAF30A0505F2FF7ACAF30A0AAE
:1015C00005EB0E150AEB0E1E04EB850A04EB8E05E7
:1015D000DAED0EAA95ED0EAAD3F81CE0F8EECDDAFE
:1015E0003AEE6A8A3CEE6DEA69EE2B8AEEEE08AAC4
:1015F000BEF1000F4FEAC81AEAEE8B8AC3ED01AACA
:1016000040F3EE820EF1FF39C3F81C90DFF85CE284
:10161000DFF85C92DFED859AD3ED066A09FB02E202
:101620000CEE102AF8EE4CBAF0EE00CA2BEEA9DA56
:10163000BFEE000AADEE2C0A4FF0010926EE805AEB
:10164000D3ED086AF5EEC06AF1EE10FA7BDDDFF843
:101650002092DFF818E29FED75EA9FED75CADFED85
:1016600075DA9FED75BADFED75BADFED75AA9FEDFE
:1016700075AADFED75CA93ED0C9A09FB02E200EE44
:10168000102AB8EE40DAF0EE009A2DEE0EEABFEE28
:10169000008AAEEE298A4FF0010993ED09DA9FED39
:1016A0006B0ADFED6B9A93ED0DEA28EE0CCA28EE7B
:1016B0000BBAADEE2DCAD3ED0ADA93ED0EDA83ED57
:1016C00009CAADEEABBA68EE2ABA68EE0AAA93ED83
:1016D0000BAADFED60DA83ED0ABAEAEE2CBAE9EE86
:1016E00000AA68EE299A3CEE0B0ADFED5BCA9FED7B
:1016F0005B9AC3ED0BBAEEEE2C9A29EE48AA30EEB7
:101700002BEAADEE2DAA7EEE2ACA93ED0F9ADFEDFD
:1017100054DA9FED54EAC3ED0CAA3CEEA90AC3EDDE
:101720000D9A30EE0ADA83ED0EAA7DEE09CA9FED1E
:101730004E9AE8EE2DCA28EE098A2CEE8ECA83ED69
:101740000F8AA6EE8C5AC24406EB0A15D3ED036A43
:10175000A8EEA65A013608F1010804EB850A34EE1A
:10176000855AC6F30A06B8F1040F8AED0E5A75EED3
:10177000A85A1E6003F501537FF40AAFDDE901E8C2
:10178000DDF80CA0B9F1000F01D0274D2A60A7EBBE
:101790000C06F5EE004A750725EEA4BADFED38BA5F
:1017A0006246434670D5D8ED03AA98ED01AAD8ED5C
:1017B000008AD8ED04DAD8ED029AB0EE4B0AAAEE10
:1017C0006A0A08F11403AAEEE80A30EE6DDA2DEE8B
:1017D00029EAE8EE8EAAE8EEAADAF0EE6ACAE8EEA6
:1017E0008ECAE8EEAADAC8ED03CAC8ED04DAB2EC94
:1017F000018A2AEE2A9ABA42E8EE09BA00F09B80E2
:1018000042E000BF00FCBF469A99593FCDCC4C3D09
:1018100048E1FA3E3333333F9A99193FCDCC4C3EE1
:101820006F12033BCDCCCC3D000000200000802F88
:10183000BD66633D4AB57F3F65C1993D384A7E3FED
:10184000618B1D3EF8F79E3E6210783FF2D25D3FFD
:101850008E6F083F38F842BFCDCC0C3FAD6D8A3C4F
:101860006744093FAE47E13D9C6AED3D5FF36E3C46
:101870000D6619005555553FB91E253F00FEFF4620
:10188000000000000000003893ED03CA93ED015AF8
:10189000D3ED005AD3ED046A93ED08DAD3ED024A92
:1018A00093ED06EAD3ED05AAD3ED09CA93ED079AA5
:1018B000B0EE4BAAA5EE4CAA15462833ACEE65AAAD
:1018C0007AEE668AB0EE4BAA28EEA40AAEEE4DAAD6
:1018D000A5EE80CAADEE6AAAE5EE8C6A3AEE6C8A95
:1018E000E5EE8C6A65EE0C9AF0EE4CDA28EE09CA49
:1018F000B0EE4D5AAAEE8C5AE5EE80DAEAEE85CAD1
:10190000F0EE455A43ED07DA43ED066AEAEE8C5AEB
:10191000EAEE85CAF5EC01AA43ED025AEAEEA9BA4D
:1019200043ED01CAD2ED016A6EEE054A2A1DBA42A4
:10193000E6EEA4BAA8D1F6EE008A6BEEA8BA059A34
:101940001FED340A5FED34DA5FED33CA1FED35EA7F
:10195000F0EE4B5A45F6FF76AEEB0203E1EE2B5A62
:10196000334433409D19E2EEC05A354001EB45093E
:1019700001EB4302B9F91433B2F914531FED3FBA26
:10198000B64AE2EEA15A0BF1080B0AF1080A04EE7E
:10199000903A06EE905AF8EEE4AA35EEC4AAF8EEB4
:1019A000E68A6AEE8BBA2AEE069AE8EECBBA04EB28
:1019B0004E0303F50045E0EE892AB0EE44CA2BEE53
:1019C000A30AA0EEA2CAA8EE8B0A39EE4C5A70EE1A
:1019D000675AB0EE4C4AA5EE02CAE5EEAD7AB0EE1B
:1019E0004CBAA3EE27BAF3EE0B9AF0EE69DAB2EE38
:1019F00002DAEBEE0BDA2BEE0DDAA7EEACCAEBEE69
:101A00000D9A6BEE2DCAB0EE628A8CEEA9AAE0EEBA
:101A1000892A2AEE0EEAA0EE884ABDEECE9A19EE89
:101A2000109A9145B8BF91460EF1010202EA060EE6
:101A300047F6FF76B145A8BFB146049A0FFA89F37D
:101A4000A5F814330AED03CA0BED01CA5A457FF419
:101A500073AD0646079FC6EDDF2A86EDE04AC6ED68
:101A6000C97AA5F81433089DDDF828A00B98C6F8AC
:101A700014E38946791E05EBC10C8CED00CA8CED90
:101A800001CAB6F88E33002B00F0AD8003F1FF38A9
:101A9000A6F88E8304F5A139079C0899224609F51A
:101AA0009470FEF76BFE02EE904A96EDDB7AF8EE4C
:101AB000E27A87EE270AB5EE400AF1EE10FA00F15D
:101AC000C780F1EEC01AD6EDE13A9FED658A31EE9E
:101AD000E3CAECEE083AC6EDE13A11B0BDEC0E8B6C
:101AE000BDE8F08FB7EE001AF4EEC10AF1EE10FA7D
:101AF00065DD9FED5CAA9FED5C2ADFED5C5ACDEDC4
:101B00000D5A4FF07E58CDF830808DED0E2AFFF73C
:101B10009BB8DFED574AB4EEE4BAF1EE10FA7FF766
:101B2000AEA89DED0D8A69EE888A04F50053F4EEA7
:101B3000C38AF1EE10FA0993C3ED104A7FF5B1A8FC
:101B4000C9EE03AA9FED4ADAF4EECDAAF1EE10FA3F
:101B50007FF7B3A8DDED0EDA69EEADEAB3EE07EA82
:101B6000F4EECEEA04F5804AF1EE10FA8AED20DABE
:101B70007FF5B4A889EE0E7A9FED3D0AB4EEC07AE7
:101B8000F1EE10FA7FF7B6A829EE8A5AB3EE071ADB
:101B9000B4EEC15A04F5C040F1EE10FA80ED300AFF
:101BA0007FF5B7A8C9EE016A9FED312AF4EE426ACB
:101BB000F1EE10FAC8BFF0EE426AFFF7B6B89FED3B
:101BC0002D6A60EE861AB6EE005AF0EE415AB0EE7B
:101BD000412AE1EEC55AA1EE852A31EE81AA8EE7AF
:101BE0009FED255A2CE596F88C23D6EDE20A62B1DA
:101BF000DFED22EAF4EEEE0AF1EE10FA48BF86F8C5
:101C00008C3347E7B0EE4CDA3FE49FED1D6AF4EE0B
:101C1000C60AF1EE10FA7FF73DAF9FED1A3A099927
:101C2000194F0F652EEE832ABDEEC21A81ED151AEB
:101C3000CAF890708AED251AC0F8D07080ED351A78
:101C40001248C9F8107189ED451AC6F88C0321E7CE
:101C500002F074FEF0EE401A35E700BF0180FFFF8E
:101C6000CDCCCC3D3789813F9CC4803FC9767E3F37
:101C700000C0FF44A69B443C000000000AD7233D5F
:101C80008FC2F53D0AD7233CEC51383E01010F00CD
:101C9000F8B59F4C06460D4601469E481746FEF78E
:101CA00091FC9C48227D9C49FEF7B0FA2046FEF745
:101CB00017FD002F00F0FA81B90030460E1FB10861
:101CC000013111F00302954B4FEA870600EB870CB8
:101CD0004ED0012A31D0022A17D0B0F900E0B0F975
:101CE00002109FED8F7A07EE90EA01EE101AB8EE1F
:101CF000E70AF8EEC11A60EE070A21EE872AC3ED63
:101D0000000A83ED012A04300833B0F90020B0F94D
:101D100002E0DFED832A03EE102A04EE90EAF8EEEB
:101D2000C33AB8EEE45A23EEA24A65EE225A83ED96
:101D3000004AC3ED015A04300833B0F90010B0F97D
:101D400002209FED776A06EE901A00EE102AB8EE98
:101D5000E67AF8EEC00A67EE067A20EE861A0430BC
:101D60008445C3ED007A83ED011A03F1080356D0D0
:101D7000B0F900E0B0F90210B0F90420DFED682AF4
:101D800001EE90EA02EE101AB0F906E0B0F9081080
:101D900003EE902AB0F90A2005EE10EA05EE901A3B
:101DA000B0F90CE0B0F90E1006EE102A06EE90EA3B
:101DB00007EE101AB8EEE13AB8EEC24AF8EEE34A7E
:101DC000F8EEC57AB8EEE50AF8EEC60AB8EEE61AFD
:101DD000F8EEC71A23EE222A64EEA23A24EE223A43
:101DE00060EE224A27EEA24A20EEA25A61EE225A63
:101DF000103061EEA22A83ED002A83ED013AC3ED93
:101E0000023A83ED034AC3ED044A83ED055A844543
:101E100003F1200343ED025A43ED012AA8D13A46CB
:101E2000404F41483D49FEF7DFFE97F88D03002300
:101E300087F88D3308B1DC22A2837107374B9FED01
:101E40003B6A2A4605EB060040F1C38093ED000A89
:101E5000D3ED017AF0EE086A60EE260A27EEA67A44
:101E6000B3EE0B2AB2EE023AF0EE423AF0EE424AFC
:101E700020EE834AE0EEA03A2A1D0833E7EE074A37
:101E800027EE035AF0EE425AE4EE205AA5EE072A56
:101E900023EEA04A64EE872A84EE250AC2EE827AF7
:101EA000F5EEC00AF1EE10FACCBFB0EE601AB1EE5A
:101EB000601AB5EEC07AF1EE10FAB5EEC01ACCBFDA
:101EC000F0EE471AF1EE471ADFED190AF1EE10FABB
:101ED000C8BFB0EE416AB4EEE16A60EE206A27EE58
:101EE000A01AF1EE10FA48BFB0EE616ABDEEE67AD4
:101EF000FDEEC11A17EE106A11EE901A82422E8082
:101F0000698066D1D7F8847384ED086A6762F8BD8A
:101F1000140100203C010020D0010020100000200E
:101F200000000038CC410120CC010020000000005E
:101F300000FEFF46B0EE412AB3EE0B0AB2EE027A83
:101F4000F0EE403AB0EE404AE1EE013A0A1D0833A5
:101F500061EE072A61EE870AA1EEA14AB0EE403A8F
:101F6000A2EE813AA0EEA10A63EE817AF5EEC01AE4
:101F700024EE211AF1EE10FACCBFB0EE616AB1EE98
:101F8000616AC1EE005AC7EE831AB4EEE42A1FED6F
:101F9000185AF1EE10FAD4BFF0EE646AF0EE426A1D
:101FA00025EE850A21EE852AFDEEC03ABDEEC27A05
:101FB000F4EEC66AF1EE10FA17EE10CA13EE90EACC
:101FC00058BFB0EE666A8242A1F800C0A1F802E0F4
:101FD00098D093ED002AD3ED013AB0EE083A22EE04
:101FE000030A63EE837AF3EE0B0AF2EE025AF0EE86
:101FF000606AB0EE605A27EEA51AE0EE006A083378
:10200000111DA7EEA75A60EE252AF0EE601AE2EE47
:10201000801AE1EE270A26EE807A25EE272AB5EE11
:10202000C00AF1EE10FAD4BFB1EE404AB0EE404A19
:1020300087EE213A82EE200AF5EEC07A5FED443A4F
:10204000D3ED000AF1EE10FAB4EEC64AD4BFF1EEB9
:10205000674AF0EE674A63EE235AD3ED017AF1EE58
:1020600010FA60EE236AD8BFB0EE464AB0EE086AB6
:1020700020EE861A67EE861ABDEEE65ABDEEE56AD8
:10208000B4EEE44AF1EE10FA16EE105A15EE106AAC
:10209000B5EEC01A58BFF0EE444AF1EE10FA1580C2
:1020A00056803FF747AFB1EE412A45E73A460A4925
:1020B0000A48FEF799FD0A4B93F88D2383F88D7338
:1020C0000AB1DC20A083064F9FED066AD7F884731F
:1020D00084ED086A6762F8BD10000020CC01002082
:1020E000CC41012000000000704700BFFEE700BFA8
:1020F000FEE700BFFEE700BFFEE700BF704700BF7E
:10210000704700BF704700BF2DE9F043E848E94E33
:10211000E94D83B0002101F081FB0121022002F092
:1021200043F806F50044E54801224FF08073694604
:10213000CDE9002301F09EFDE148306005F501473F
:10214000C4F838010021A5F500504FF4005202F008
:1021500045FB4FF07C5800230021DFF8D0C3D9485D
:1021600029606B60C5F808C0E860C5F81080C5F844
:102170001480AB61E961EB63AB636B632B63EB6270
:10218000AB626B6205F50155BD42DBD1CE4ACF4F44
:10219000CF4DDFEDD03A9FEDD04ADFEDD04A9FED35
:1021A000D05ADFEDD05AD048D049C4F8C482B7EE37
:1021B000007AC4F80023C4F8C872CD4AC4F8D052DB
:1021C000DFF86C93DFF86C83DFF86CE3DFF86CC347
:1021D000C84D9FEDC96ADFEDC97AC4F840014FF0E0
:1021E0007657B5EE003AB4EE000AC4F84411C4F8CC
:1021F0005031C4F84C3184EDB07AC4F85401C4F8BD
:102200005811C4F86431C4F86031C4F86801C4F8E6
:102210006C11C4F87831C4F87431C4F87C01C4F886
:102220008011C4F88C31C4F88831C4F89001C4F826
:102230009411C4F8A031C4F89C31C4F8A401C4F8C6
:102240004821C4F85C21C4F87021C4F88421C4F882
:10225000982184EDB33AC4F8A811C4EDB53A84EDE1
:10226000B64AC4EDB84A84EDB95AC4F8AC21C4F8F2
:10227000B431C4F8B031C4F8B801C4F8BC11C4F822
:10228000C021C4F8C831C4F8C431C4F8CC01C4F8C2
:10229000D011C4F8D421C4F8DC31C4F8D831C4F862
:1022A000E001C4F8E411C4F8E821C4F8F031C4F83E
:1022B000EC31C4F8F401C4F8F811C4F8FC21C4F8F6
:1022C0000432C4F80032C4F80802C4F80C12C4F88E
:1022D0001022C4F8183284EDB70AC4F81432C4EDE1
:1022E000BA5AC4F8EC92C4F8F082C4F8F4E2C4F824
:1022F000F8C2C4F8FC72C4F80453C4F81C02C4F851
:102300002012C4F82422C4F82C32C4F82832C4F8AD
:102310003002C4F83412C4F83822C4F84032C4F889
:102320003C32C4F84402C4F84812C4F84C22C4F841
:102330005432C4F85032C4F85802C4F86C02C4F8DD
:102340005C12C4F86022C4F86832C4F86432C4F87D
:102350007012C4F87422C4F87C32C4F87832C4F81D
:102360000833D4EDC40AE0EE867AF3EE046A27EE71
:10237000A61AC4EDC36AB4EEC71AF1EE10FA40F320
:10238000F682DFED5F1A84EDA01A27EEA12AB4EEE3
:10239000C72AF1EE10FA40F32A83DFED5A2A84EDC2
:1023A000A12A67EEA26AF4EEC76AF1EE10FA40F3D2
:1023B000E2829FED556AC4EDA26A67EE863AF4EEBA
:1023C000C73AF1EE10FA40F3DA829FED504AC4EDBD
:1023D000A33A67EE844AF4EEC74AF1EE10FA40F3EE
:1023E000D282B3EE015A67EE855AC4EDA44AF4EEE8
:1023F000C75AF1EE10FA40F3CA829FED453AC4ED98
:10240000A55A27EE830AB4EEC70AF1EE10FA40F39C
:10241000C282DFED400A84EDA60A27EEA01AB4EED0
:10242000C71AF1EE10FA40F3BA82DFED3B1A84EDE1
:10243000A71A27EEA12AB4EEC72AF1EE10FA40F34C
:10244000B282DFED362A84EDA82A27EEA26AB7EE23
:10245000007AB4EEC76AF1EE10FA40F3A882F2EE09
:102460000C6A67EEA63A84EDA96AF4EEC73AF1EE7B
:1024700010FA40F3A0829FED2A4AC4EDAA3A67EE13
:10248000844AF4EEC74AF1EE10FA40F398829FEDC9
:10249000255AC4EDAB4A67EE855AF4EEC75AF1EE01
:1024A00010FA40F390829FED203AC4EDAC5A49E017
:1024B0005C450120CC0100200422002000040240E1
:1024C00000803B4752B87E3F3EC3AE37ABAAAA3E20
:1024D000CDCC4C3EABAA2A3E2549123E398EE33D77
:1024E000CDCCCC3D8C2EBA3D22BA003D0AD7233C40
:1024F000CAAA7F3F0000DC423333333F9A99993EAA
:1025000034339B41666696419A999141CDCC8C417A
:1025100033338341CDCC7C41333373419A99694144
:1025200066665641CCCC4C413433434100004843AD
:10253000ABAAAA3DD9899D3D2549923D8988883D10
:102540009A99394127EE830AB4EEC70AF1EE10FAE0
:1025500040F33D825FED060A84EDAD0A27EEA01A36
:10256000B4EEC71AF1EE10FA40F33582F2EE061A15
:1025700067EEA17AF4EEC77AF1EE10FAD8BFF0EE6A
:10258000477A9E4B84EDAE1AA3F5A079C4EDAF7ADD
:102590004D461A4600216BE061EEA17AE7EE844ACF
:1025A000E7EEA45A21EEA52A62EE022AB2EC017AE5
:1025B0009FED936A85ED002AF7EE006AC6EE873A32
:1025C000013105F1140704EE101AB8EEC45AF0EE0A
:1025D000660A25EE063AB0EE666AA3EE826A75EEEA
:1025E000664A36EE222AE3EE240AC6EE822ADFEDA0
:1025F000855A9FED851ADFED851A9FED853AC5ED69
:10260000013A25EE250AC5ED022A60EE207ADFEDBB
:10261000815A27EE814AB4EEE14AF1EE10FA0FDC5E
:1026200024EE045ADFED7C3ADFED7C6A9FED7C7A84
:10263000E5EE236AA5EE267A64EE075A25EEA53A62
:10264000B2EC010AC7ED005AF7EE004AC4EE800A68
:10265000102907F11405B0EE641AA0EEA51AC7ED13
:10266000010A71EE031AC4EEA17AC7ED027A2BD0EB
:10267000013102EE101A9FED626A9FED625A9FEDE2
:10268000620A9FED621A9FED644ADFED644ADFED56
:10269000645AF8EEC22AB7EE007A62EE866A72EEEB
:1026A000C73A22EE853AA6EEA37A9FED5A2A63EE48
:1026B000070A60EE801AF4EEC11AF1EE10FA7FF705
:1026C0006BAFDFED532A71E700206BE061EEA17A7A
:1026D000E7EE855AA7EEA53A21EE832A22EE026A9A
:1026E000F3EC013A89ED002AF7EE002AC2EEA36A64
:1026F000013009F11408F0EE623AE6EE823A05EE96
:10270000100A33EE862AB8EEC53A82EE826A9FED51
:102710003C4ADFED3C5A9FED3C1ADFED3C1AC9ED17
:10272000016A23EE047A73EE624AF0EE620AE7EE83
:10273000240A23EE250A9FED367ADFED365A89ED1D
:10274000026A60EE207A27EE814AB4EEE14AF1EEA9
:1027500010FA0FDC24EE045ADFED2F2ADFED2F6A8A
:102760009FED2F3AE5EE226AA5EE263A64EE035A73
:1027700025EEA57AB3EC010AC8ED005AF7EE004A3F
:10278000C4EE800A102808F11409B0EE641AA0EE15
:10279000A51AC8ED010A71EE071AC4EEA17AC8EDB8
:1027A000027A3FD0013004EE100A9FED156A9FEDCA
:1027B000157A9FED150A9FED151A9FED175ADFED5B
:1027C000175A9FED173AB8EEC42AF7EE002A62EEC8
:1027D000063A72EE626A62EE074AE3EEA62A9FEDBF
:1027E0000D2A64EEA20A60EE801AF4EEC11AF1EE30
:1027F00010FA7FF76BAF9FED066A71E74C840020FB
:10280000000000000000DC423EC3AE376666E63ED4
:1028100027173541CF4F574049265F428FBA214194
:10282000DB0F4940734D74484FF000094FF44042AC
:10283000002101F0D3FF4FF07C574FF000086F4BA1
:102840006F48C5F818334FF400424946C5F81C7369
:10285000C5F82073C5F82483C5F81493C5F82C0374
:1028600001F0BCFF67496848684A694B7162694971
:102870009FED694AF262C5F86003684AC5F85C03D7
:10288000C5F85803C5F870336548664BF160664972
:10289000C5F83473C5F84473C5F85073C5F854735C
:1028A000B762C5F87823614F614A3061736161484E
:1028B000614BC5F83C13C5F83013604985EDDD4A1E
:1028C000C5F83833C5F84813C5F86483C5F868837C
:1028D000C5F88083C5F87C83C6F820807760B76030
:1028E000B261F261C5F84C03C5F84003C5F82893FE
:1028F0003263D6ED003A776323EE842AA5F5604073
:10290000BDEEC26A4E4F80ED356AA5F58032A5F561
:102910009038C0F8D0704B4882ED256A84ED456A46
:1029200088ED156AC2F89070C4F81071C8F850703C
:10293000FDF72EFC444A4548A5F5A031FDF744FEBD
:102940000121434801F0A8FA0446B4EB090118BF7D
:10295000012140484BF6803200F098FC00B9FEE7B8
:102960003D4A3C48202100F0DBFCC8BBFEE784ED7B
:10297000A07A84EDA17A4FF07E53C4F888324FF0EC
:102980007E50C4F88C024FF07E51C4F890124FF084
:102990007E52C4F894224FF07E57C4F898724FF0DC
:1029A0007E55C4F89C524FF07E59C4F8A0924FF067
:1029B0007E58C4F8A4824FF07E5EC4F8A8E24FF0BF
:1029C0007E5CC4F8ACC24FF07E53C4F8B0324FF016
:1029D0007E50C4F8B402B7EE001AF0EE417AD0E5AA
:1029E0001C48182103B0BDE8F04300F017BD84ED8A
:1029F000A17AC0E7CC410120E08400200080BB45E3
:102A0000EC5D01203333B33E3333333F9A99593F62
:102A100022BA003DCDCC0C3F0AD7233CCAAA7F3F47
:102A2000CDCC4C3FCDCCCC3EE2FFFF3E9A99993EB7
:102A30009A99193FF5FFFF3EE2FFFF3FF5FFFF3F89
:102A4000EC51383E3C010020D00100201401002050
:102A50000004024060450120911C000808B5FFF702
:102A600053FBFEE72DE9F04301219DB004464FF4EE
:102A7000800001F099FB0121084601F095FB01213E
:102A80004FF48070002501F0A7FB4FF00308FF23EF
:102A900001A94548DFF8189101938DF80B508DF886
:102AA000088001F0E7F841480F944FF400524FF4CA
:102AB00080614FF48076CDE915264FF4003301266E
:102AC0000827CDE90D50CDE912514FF400640DA94E
:102AD000484617931494CDE91057CDE91A55189527
:102AE000199601F071F83146484601F099F84FF413
:102AF000403004904FF4706103A80691039505954A
:102B000000F048FF0B9404F1804404F58C3907A9C8
:102B10004846CDE909550795ADF820608DF830702D
:102B200000F00EFF324631464846072300F052FFC0
:102B3000022211464846072300F04CFF4246484611
:102B40000723042100F046FF41464846072304229C
:102B500000F040FF052211464846072300F03AFFE7
:102B6000062211464846072300F034FF0723294672
:102B70001A46484600F02EFF072319463A464846B3
:102B800000F028FF3146484600F07EFF31464846B7
:102B900000F016FF3146484600F06CFF484600F052
:102BA00063FF1DB0BDE8F083000002404C200140EF
:102BB00010640240014800F057BF00BF00200140F0
:102BC00030B5012183B0224C062001F0EDFA214BF3
:102BD0004FF4406269462046CDE9002301F04AF8EF
:102BE000204604220A2101F063F9042220460B2129
:102BF00001F05EF940F202254FF47040CDE9000586
:102C0000154D6946204601F035F8402369462846AF
:102C1000009301F02FF8204605220C2101F048F91D
:102C2000204605220D2101F043F9204605220F21FF
:102C300001F03EF9204605220E2101F039F928461F
:102C40000522062101F034F9012003B030BD00BF98
:102C500000040240020201000008024070B500209A
:102C600084B014460E4601F099FA002001F048FAAB
:102C70004BF680339C420CD04AF64440844267D0E5
:102C8000B4F5FA4F6AD038498C425BD0002004B0CA
:102C900070BD03214FF4817001F028FA012001F08A
:102CA0002FFA3B2001F0BCFA4FF4805548BB3B2083
:102CB00001F0B6FA02463B201ABB01F0B1FA034616
:102CC0003B20F3B901F0ACFA01463B20C9B901F051
:102CD000A7FA02463B20A2B901F0A2FA03463B2024
:102CE0007BB901F09DFA01463B2051B901F098FAF9
:102CF00002463B202AB901F093FA10B9083DD6D11B
:102D0000C4E701214FF4804001F05AFA174801F05E
:102D1000A1FA75020020AEB26946ADF80200ADF826
:102D20000400ADF80C0011480294ADF80060ADF855
:102D3000066001F0F7FA0E48694601F077FB0120C2
:102D400004B070BD042140F2891001F0CFF9A5E76D
:102D5000062140F20F1001F0C9F99FE704214FF45A
:102D6000D57001F0C3F999E7007701000038004001
:102D70000034004070B583480E464FF400311546CC
:102D800001F098F94FF4961400283AD04FF400312E
:102D90007C4801F08FF903464FF40031794883B342
:102DA00001F088F902464FF4003176484AB301F049
:102DB00081F903464FF40031724813B301F07AF9F8
:102DC00002464FF400316F48DAB101F073F903465F
:102DD0004FF400316B48A3B101F06CF902464FF497
:102DE000003168486AB101F065F903464FF40031DB
:102DF000644833B101F05EF918B1083CC6D1002037
:102E000070BD6048012101F01FF95F495D4801F084
:102E100043F94FF48054002831D15B49594801F0FF
:102E20003BF90246584957484ABB01F035F9034679
:102E3000554954481BBB01F02FF9024652495148ED
:102E4000EAB901F029F903464F494E48BBB901F0F0
:102E500023F902464C494B488AB901F01DF9034653
:102E6000494948485BB901F017F9024646494548C7
:102E70002AB901F011F910B9083CCED1BFE7414899
:102E80000022342101F0FCF840493E4801F004F9E9
:102E90004FF48054002831D13C493A4801F0FCF805
:102EA00003463A4937484BBB01F0F6F8024637492A
:102EB00034481ABB01F0F0F8034634493148EBB905
:102EC00001F0EAF8024631492E48BAB901F0E4F8B7
:102ED00003462E492B488BB901F0DEF802462B49F8
:102EE00028485AB901F0D8F80346284925482BB993
:102EF00001F0D2F810B9083CCED180E7C5F300212B
:102F000041EA46041F48E1B201F0C4F820491D48D7
:102F100001F0C2F84FF4805600283BD11C491948F3
:102F200001F0BAF802461A491648002A32D101F0D7
:102F3000B3F803461649134863BB01F0ADF80446E5
:102F40001349104834BB01F0A7F8024610490D4858
:102F500002BB01F0A1F803460D490A48D3B901F0BC
:102F60009BF804460A490748A4B901F095F80246BF
:102F70000749044872B901F08FF858B9083ECDD11D
:102F80003DE700BF00580040010003008200070039
:102F9000800007003E48E9B201F07CF83D493C481A
:102FA00001F07AF84FF48056002831D13949384879
:102FB00001F072F80546374935484DBB01F06CF811
:102FC0000346344932481BBB01F066F804463149D8
:102FD0002F48ECB901F060F802462E492C48BAB9E6
:102FE00001F05AF805462B4929488DB901F054F8EB
:102FF0000346284926485BB901F04EF804462549A6
:1030000023482CB901F048F810B9083ECED1F6E6B5
:1030100021491F4801F04EF84FF49616002831D18F
:103020001D491B4801F046F802461B4918484ABB97
:1030300001F040F80546184915481DBB01F03AF863
:10304000034615491248EBB901F034F80446124919
:103050000F48BCB901F02EF802460F490C488AB956
:1030600001F028F805460C4909485DB901F022F83D
:103070000346094906482BB901F01CF810B9083E6F
:10308000CED1BCE60248012100F0ECFF012070BD6A
:1030900000580040800007000400001070B515467D
:1030A0000E4600220F210446FFF764FE08B90020F7
:1030B00070BD172200212046FFF75CFE0028F6D0E5
:1030C000172201212046FFF755FE0028EFD00022ED
:1030D00002212046FFF74EFE0028E8D000220321FF
:1030E0002046FFF747FE0028E1D0122204212046A7
:1030F000FFF740FE0028DAD0002205212046FFF726
:1031000039FE0028D3D08EBB422206212046FFF78D
:1031100031FE0028CBD0422207212046FFF72AFEAD
:103120000028C4D04AF644439D421BD014DCB5F5B8
:10313000FA5F19D0B5F5FA4F14BF00221822082102
:103140002046FFF717FE0028B1D020460022BDE838
:1031500070400921FFF70EBE0F4A95420CBF1C229A
:103160000022ECE72022EAE70C22E8E762220621AF
:103170002046FFF7FFFD002899D0022207212046B4
:10318000FFF7F8FD002892D04AF64440291AB1FA18
:1031900081F56E097201D2E7007701002DE9F84F41
:1031A000344E044601214FF4001000F0FDFF0021D1
:1031B000304600F035FD304600F070FC2E4A002508
:1031C00040234FF4806B4FF4006A4FF400594FF4E2
:1031D00080784FF400374FF6FE70C4E90753C4E916
:1031E0000552C4E90905C4E91055C4E91255C4E9FA
:1031F0000CA9C4E90E87C4F82CB0304604F11401C0
:10320000183E00F0E1FC2946304600F009FD30464A
:1032100000F044FC194A6566C4E91655C4E91F5517
:10322000C4E921554FF6FE714FF0C065C4E9145250
:10323000C4E91ABAC4E91D872166C4F8709004F184
:103240005001304600F0C0FC0D4C304601221821E0
:1032500000F0F0FC4FF4804323600A480122022171
:1032600001F012F901220848114601F00DF9012080
:10327000BDE8F88F706002400C3800400C3400400C
:1032800000E100E0003800400034004070B51F4B02
:1032900084B01860002303614260017004460E464A
:1032A0001546FFF78DFC10B9002004B070BD012158
:1032B0004FF4800000F084FF154800F00DFE154A21
:1032C0001548164B00934FF48041CDE90120ADF82D
:1032D0000C100F48694600F035FE0D48012100F042
:1032E000A5FE2A4631462046FFF7B8FC0028DBD071
:1032F0002A4631462046FFF7D1FE0028D4D020468A
:1033000004B0BDE87040FFF749BF00BFECDD01200D
:10331000005800400000FFBF33000004A0860100F9
:10332000F8B517460E46012209210446FFF722FD93
:10333000054600283DD0602E53D82378002B3AD084
:1033400030482761818B4A0555D52F48828B53051C
:103350004DD5207804F18C0704F68C43E761A36512
:10336000B70078B962684BF6803C62453CD027498B
:103370008A4244D0B2F5FA4F04D106EB46008700EA
:10338000032300E00123E3602148A66004F1140157
:103390006762276600F018FC1E4804F1500100F037
:1033A00013FC1B48012100F03BFC1A48012100F0EE
:1033B00037FC2846F8BD18484FF4805100F06CFDEA
:1033C0000028F8D114484FF4805100F065FD002822
:1033D000B6D111484FF4805100F05EFD0028F1D0C5
:1033E000AEE700252846F8BDF7000223CBE7012110
:1033F00001F00EF8ADE7012101F00AF8A5E7370169
:103400000423C0E70038004000340040007701008A
:1034100070600240586002400004024038B58CB22F
:10342000224600210546FFF7A5FC00B938BD22461B
:1034300028460121BDE83840FFF79CBC0369002BFA
:1034400000F0E8802DE9F041D0E9022602FB01F10D
:1034500006FB01F4A400054604F68C408C34284495
:103460002C44002E6CD05100012969D900EB820E4A
:10347000AEF1020EAEEB000CACF102074FEA5708BA
:1034800008F1010C770000EB46011CF007068046AE
:103490002CD0012E23D0022E1CD0032E15D0042EAA
:1034A0000ED0052E07D0062E40F0BB80B1F900608B
:1034B00028F8026F3944B1F900C028F802CF394426
:1034C000B1F9006028F8026F3944B1F900C028F85A
:1034D00002CF3944B1F9006028F8026F3944B1F9DC
:1034E00000C028F802CFF045394429D0B1F9006076
:1034F000A8F8026031F907C0A8F804C031F91760D4
:10350000A8F8066001EB470101EB470631F907C057
:10351000A8F808C031F91710A8F80A1036F907C042
:10352000A8F80CC036F91710A8F80E1006EB4706DD
:1035300006EB470136F907C028F810CFF045D5D182
:1035400021469847EA68002A62D0A86883009E1E38
:1035500004EB800702FB06430234C2EBC2753A1B40
:10356000901E69004508013515F0070627D0012E89
:103570001FD0022E19D0032E13D0042E0DD0052EED
:1035800006D0062E47D137F9028DA3F800800B44F0
:1035900037F902CDA3F800C00B4437F9022D1A8089
:1035A0000B4437F9020D18800B4437F9025D1D807A
:1035B0000B4437F9026D1E80BC420B4428D037F90A
:1035C00002ECA3F800E037F9048C23F8018037F906
:1035D000062C23F8112003EB410C37F9083C2CF89A
:1035E000013037F90A0C2CF811000CEB410537F9C2
:1035F0000C6C6E5237F90E2C25F8112037F9103D5E
:1036000005EB410EBC422EF801300EEB4103D6D142
:10361000BDE8F081704737F902EDA3F800E00B44F4
:10362000B1E7B1F900C028F802CF39443EE700BF46
:1036300008B5114B1A6812F0C05F05D10E4B1A681D
:1036400012F0A05F0DD108BD0C484FF0C051996039
:1036500000680121FFF7F2FE074B1A6812F0A05F25
:10366000F1D006484FF0A05199600068BDE80840CD
:103670000021FFF7E3BE00BF00600240ECDD012047
:10368000F0B501218BB00646042000F08DFD01212C
:10369000022000F089FD0121042000F091FD304C52
:1036A0003048302301276946CDE9003700F0E2FABF
:1036B0004FF4E0700225694600902046019500F025
:1036C000D9FA2A462046062100F0F2FB2A46204677
:1036D000072100F0EDFB2A460821204600F0E8FB18
:1036E00002A8A4F5FE3400F033FFFF21002503916A
:1036F000204602A9ADF8105002958DF8125000F046
:10370000CDFE05A801F022F8174A059205A920462A
:103710000795ADF82050ADF8245000F03DFF20464D
:10372000082101F01BF805A9204600F079FF20468A
:10373000082101F01BF805A9204600F0BDFF204636
:10374000082101F01FF83946204600F009FF3946EC
:10375000204600F013FF3560B5800BB0F0BD00BF10
:1037600000040240000802406000010010B5174B41
:103770000278DA634178596382789A634179C37831
:103780001031CAB2FF2B0446427115D09A422CBFA9
:10379000002201220E48102100F084FB2079FF282E
:1037A0000CD062798242BDE8104009482CBF00224B
:1037B0000122202100F076BB0122EBE7BDE810409A
:1037C00003480122202100F06DBB00BF000800402B
:1037D0000008024010B5012182B00446022000F02A
:1037E000E3FC02224FF0807304486946CDE90023D0
:1037F00000F040FAFF20207002B010BD000402402B
:1038000038B5044602210448257800F045FB40EA1B
:103810004500207038BD00BF0004024001B9704768
:103820004FF400414FF0006000F080B83A483B4B45
:10383000D0F8882042F4700282B0C0F888201A685C
:10384000002142F001021A6099601A68A0F1BC2CB4
:1038500022F08472ACF1F00022F480321A605860D9
:10386000186820F480221A60D960009101911968CB
:1038700041F48030186003E0009AB2F5A04F0AD0FE
:10388000264B1A6802F40031019100980130009033
:10389000019B002BF0D02149086810F4003318BFB9
:1038A00001230193019A012A05D01B494FF00063BF
:1038B0008B6002B07047194B19491A6C194842F0D5
:1038C00080521A640A6842F440420A60996899601A
:1038D0009A6842F4004199609A6842F4A051996054
:1038E0005860186840F080721A600C4B19688A01A1
:1038F000FBD50D4840F205620260996821F0030093
:1039000098609A6842F002019960044B986800F050
:103910000C02082AF9D1C8E700ED00E000380240A7
:103920000070004008544007003C024021F0604114
:10393000024B21F07F0202439A60704700ED00E0E5
:1039400010B443680C790A6823F0407C2CF480732F
:1039500043EA04241443D1E9032313438A684460EF
:10396000846813430A4A22404C79134343EA4403D0
:103970008360097DC46A01F1FF3C24F470035FFA9F
:103980008CF243EA02515DF8044BC162704700BFFC
:10399000FDF7FFC042680368074910B413434C6841
:1039A000064A2240D0E902401343234303435DF813
:1039B000044B4B60704700BF00230140E030FCFF28
:1039C000836819B143F001028260704723F001015E
:1039D00081607047092910B52CD9A1F10A0E0EEBB0
:1039E0004E0CC4684FF0070E03FA0CF30EFA0CFCF1
:1039F00024EA0C042343C360062A0CD802F1FF3CDE
:103A0000446B0CEB8C021F23934024EA0304914087
:103A10002143416310BD0C2A1AD8A2F1070C036B95
:103A20000CEB8C021F24944023EA040391401943B9
:103A3000016310BD046901EB410E4FF0070C0CFA55
:103A40000EFC03FA0EF324EA0C0423430361D3E7CC
:103A50000D3AC36A02EB82021F24944023EA040356
:103A600091401943C16210BD836843F08041816079
:103A7000704700BF836819B143F480728260704759
:103A800023F4807181607047836819B143F4007238
:103A90008260704723F40071816070470268364984
:103AA00010B4002322F00102212488420260036046
:103AB00043608360C3600361446138D02F4B9842F8
:103AC0002ED02F4CA0423CD02E49884240D02E4BC5
:103AD000984232D02D4CA04241D02D49884246D048
:103AE0002C4B984217D02C4988423CD02B4B984203
:103AF00016D02B4CA04224D02A49884228D02A4BE9
:103B000098421AD0294CA04229D0294988422ED067
:103B1000284B984208D14FF03D5243F8AC2C03E0BB
:103B20004FF4746443F8204C5DF8044B704722490D
:103B30005DF8044B3D2088607047204843F8640CD2
:103B4000F2E74FF4741244F8382C5DF8044B7047D8
:103B50004FF074635DF8044B41F8503C70471849CE
:103B600044F87C1CE0E73D2041F8080CDCE7154CEC
:103B700041F8944CD8E700BF106002402860024032
:103B8000406002405860024070600240886002401D
:103B9000A0600240B8600240106402402864024005
:103BA00040640240586402407064024088640240ED
:103BB000A0640240B8640240006002403D00002062
:103BC000400F002000003D2030B40B68CC684A69EB
:103BD0002343D1E9065413432B43D1E9085223432D
:103BE0002B438C6A056813434A6B23438C6B134346
:103BF00023430A4CCA6A2C4023430D6B036043697C
:103C00000C692A43D1E9011523F0070C42EA0C03A1
:103C1000436144608160C56030BC70473F801CF0E8
:103C2000036819B143F001020260704723F00101FB
:103C3000016070470B060CD54369AAB143F08003BD
:103C4000802943610FD0026801F01E011143016019
:103C50007047802907D0002AF5D1036801F01E01C2
:103C600023EA01020260704723F08002802942614A
:103C7000F3D1704700232DE9F0430C689E4624E001
:103C80000EF1010C012606FA0CF939EA040503F1DC
:103C9000020300F0CF800CF101070122BA4032EAA2
:103CA000040603F1020500F08E800CF102070122E8
:103CB000BA4032EA040603F1040541D0BCF10D0F0D
:103CC0000CF1030E03F106037BD0012202FA0EF879
:103CD00038EA0405D4D1066803259D4026EA050785
:103CE000076091F80490D0F800C009FA03F609F1D2
:103CF000FF37EA43012F46EA0C05056014D88668B1
:103D0000324082604A7985689A402A4382604768D7
:103D100027EA0806466091F80680456808FA0EFC16
:103D20001FFA8CF22A434260C76803269E4027EAA6
:103D30000602C260CF79C5689F402F43C7609FE7E6
:103D400006684FF0030808FA05F926EA0906066036
:103D500091F804E06FEA0906D0F800900EFA05F831
:103D60000EF1FF3E48EA0909BEF1010FC0F80090CC
:103D700015D8D0F8088006EA080686604E79D0F893
:103D80000890AE4046EA09068660466826EA0202C6
:103D900042608E794268BE40B7B217434760C76839
:103DA0000326AE4027EA0602C260CF79C668AF405C
:103DB0003743BCF10D0FC7600CF1030E03F106038E
:103DC00083D1BDE8F083D0F800800326AE4028EA16
:103DD0000609C0F800906FEA060E0E79D0F8009040
:103DE00006FA05F8013E48EA0909012EC0F80090DC
:103DF00014D886680EEA060686604E79D0F808E088
:103E0000AE4046EA0E068660466826EA0202426036
:103E10008E794268BE40B7B217434760C768032631
:103E2000AE4027EA0602C260CF79C668AF4037438A
:103E3000C7603AE70268032707FA03F622EA060595
:103E4000056091F804E00268F7430EF1FF350EFAC1
:103E500003F61643012D066012D88268174087606A
:103E60004D7986689D4035438560426822EA09079E
:103E700047608D79476805FA0CF6B2B23A43426062
:103E8000C66803259D4026EA0502C260CF79C66850
:103E90009F403743C760FEE60369194214BF012003
:103EA000002070470AB1018370474183704700BF0B
:103EB000CB0800EB830001F00701036A89004FF093
:103EC0000F0C0CFA01FC23EA0C030362036A8A401C
:103ED0001A430262704700BF08B5174B984206D0DC
:103EE000164988420FD0164A904218D008BD0121C9
:103EF0004FF4001000F07CF9BDE8084000214FF4B9
:103F0000001000F075B901214FF4800000F070F945
:103F1000BDE8084000214FF4800000F069B901219C
:103F20004FF4000000F064F9BDE8084000214FF4B0
:103F3000000000F05DB900BF005400400058004090
:103F4000005C004070B5868884B026F03F020446CD
:103F5000130468461E0C0D4600F0D8F8304802994C
:103F6000A0FB013246EA9243A380268826F0010096
:103F700003041E0C26802B682A4EB3424FEA92405F
:103F800026D85B00B1FBF3F6B1B20130042938BF8B
:103F900004212084A1832288A9886E8990B240F0F0
:103FA000010CA4F800C0B4F800E02EF4816323F003
:103FB000020231431004AE892D89030C2E430B43BA
:103FC00099B21FFA86FC2180A4F808C004B070BD25
:103FD000B5F806C04BF6FF7EF4451AD003EB83021A
:103FE00002EB8203B1FBF3F18EB246F4804ECEF3C6
:103FF0000B0109B94EF0010E0B4E4FF4967303FB03
:1040000000F0A6FB0020820901324EF40041228418
:10401000C0E703EB4302B1FBF2FC1FFA8CFEE6E7BC
:1040200083DE1B43A0860100D34D6210038821B1BB
:1040300099B241F001020280704723F001010A04A5
:10404000130C0380704700BF038821B199B241F47B
:1040500080720280704723F480710A04130C03807D
:10406000704700BF038821B199B241F40072028009
:10407000704723F400710A04130C0380704700BFDB
:104080001AB141F001010182704701F0FE01018285
:10409000704700BF01827047838A028B98B240EA62
:1040A00002430B4023F07F42511AB1FA81F04009DC
:1040B000704700BF82B000230A0F00930193019064
:1040C0000092009B21F07F4153B1019B1433019377
:1040D000019A13680B4214BF0120002002B0704700
:1040E000019A1832090C0192F2E700BF034B09074D
:1040F00041EA8010C3F88400704700BF00380240D6
:10410000014B9866704700BF000047421F4A936802
:1041100003F00C01042910B436D008291BD01C4B25
:104120001A4A036094681B49C4F3031C11F80C403D
:10413000E34043609468C4F3822C11F80C4023FAE6
:1041400004F484609268C2F34234095D5DF8044B64
:10415000CB40C360704754685368516803F03F0C0C
:104160000A4B14F4800FC1F38814596814BF0A4A2B
:10417000074AB2FBFCF202FB04F4C1F30142013234
:104180005300B4FBF3F3CBE7034BC9E7003802401D
:104190000024F400E851000800127A00014BC3F833
:1041A0005C01704700004742044A136B11B103439E
:1041B0001363704723EA0000106370470038024021
:1041C000044A136C11B103431364704723EA0000DF
:1041D0001064704700380240044A536C11B1034325
:1041E0005364704723EA000050647047003802406F
:1041F000044A136A11B103431362704723EA0000B3
:104200001062704700380240044A536A11B10343F8
:104210005362704723EA0000506270470038024042
:104220004309012B0BD00A49022B0CBF096F496FC0
:1042300000F01F0021FA00F303F001007047044A68
:10424000116800F01F0021FA00F303F0010070472D
:104250000038024008B52D4B98421BD02C498842AB
:1042600024D02C4A90422DD02B4B984206D02B497B
:10427000884233D02A4A90423CD008BD01214FF4F5
:104280000050FFF7C1FFBDE8084000214FF4005087
:10429000FFF7BABF01214FF48050FFF7B5FFBDE82B
:1042A000084000214FF48050FFF7AEBF01214FF4CA
:1042B0008040FFF79DFFBDE8084000214FF480409B
:1042C000FFF796BF01214FF40040FFF791FFBDE8D3
:1042D000084000214FF40040FFF78ABF01214FF44E
:1042E0008010FFF791FFBDE8084000214FF48010D7
:1042F000FFF78ABF01214FF40010FFF785FFBDE8EB
:10430000084000214FF40010FFF77EBF003001404D
:1043100000380040003C00400034014000500140A3
:1043200000540140838BB1F804C023F47B622DE973
:10433000F04322F00F0425042E0C022786838C689C
:104340000784838BB1F806E0022C9AB23BD02C4E46
:10435000B568BCF1000F14BF4FF002084FF0010820
:104360002D0244D4264DD5F88460D5F88470C7F367
:1043700002736F68D5F8049019F4800F07F03F05B9
:10438000C6F3881614BF1F4F1F4FB7FBF5F7BEF5D6
:10439000007F06FB07F7B7FBF3F60EBF360A4FEABE
:1043A0004818B6FBF8F606EB86035D00174EB5FB22
:1043B000F4F40534A7B2A6FB07431C09A51EFD2D86
:1043C000C3F3C00718D90226B1F800904C88898938
:1043D0004CEA09031A4322430A4397B246EA0E08FD
:1043E00047F40065A0F820808583BDE8F083B768B6
:1043F00027F40003B360B5E744EA0726E4E700BF0B
:104400000038024000127A000024F400CDCCCCCC5D
:10441000838B21B199B241F480628283704723F487
:1044200080610A04130C8383704700BF838B23F4DD
:104430007B6222F00F031A04130C4FF0020C00B53C
:1044400083830B88A0F820C0B0F81CE0B1F802C04C
:10445000B3F5007F1FFA8EF218BFB3FA83F3B1F8F9
:1044600004E089891ABF5B091B024FF480734CEA90
:104470000E0C43EA0C030B4313439AB242F400615F
:1044800081835DF804FB00BF83889BB212B10B43AC
:104490008380704723EA01018180704730B4284D42
:1044A00003884C680A88A8429BB23CD0254DA8429C
:1044B00018D0B0F1804F27D0A5F5803C604523D0BF
:1044C0000CF58065A8421FD005F5806C60452DD0A5
:1044D0001D4DA8422FD10380C4620285012230BC49
:1044E0008282704723F07005ABB24D882B430D8953
:1044F00023F440732B430380C46202858C7A0486C4
:10450000012230BC828270474D8823F070039BB239
:104510002B43098923F4407C1FFA8CF30B4303805F
:10452000C4620285DAE723F07003DEE74D8823F0EA
:1045300070032B43EDE7054DA842CCD0E9E700BF5F
:104540000000014000040140001000400014004041
:1045500000234FF0FF324260038103608372704793
:10456000038821B199B241F080020280704723F0A4
:1045700080010A04130C0380704700BF038821B137
:1045800099B241F001020280704723F001010A0450
:10459000130C0380704700BF038C23F0010210B599
:1045A0001404230C0384048CB0F804C0B0F818E0A1
:1045B00024F002031C042EF07302230CB1F80CE06B
:1045C0004C8812044EEA040E0C88120C2243134C41
:1045D00043EA0E03A0421FFA8CFC9BB20AD004F5FA
:1045E0008064A04206D08968A0F804C002834163B9
:1045F000038410BDCC89B1F810E023F008032343F5
:104600004C8A2CF4407C4EEA040E4CEA0E041FFA4D
:1046100084FC8C8823F004032343E4E7000001407A
:10462000038C23F0100210B51404230C0384048CB3
:10463000B0F804C0B0F818E02EF4E64224F02003ED
:104640001404220CB1F80CE04C884EEA040E0C88DD
:104650001B0442EA0422174C1B0C43EA0E13A0422F
:104660001FFA8CFC9BB292B20AD004F58064A0427F
:1046700006D08968A0F804C002838163038410BD5A
:1046800023F0800ECB894C8A4EEA0313B1F810E078
:104690002CF4406C4EEA04044CEA84044FF6BF7ECE
:1046A0001FFA84FC8C8803EA0E0343EA041E1FFAF7
:1046B0008EF3DEE700000140038C23F4807210B516
:1046C0001404230C0384048CB0F804C0B0F81CE07C
:1046D00024F400731C042EF07302230CB1F80CE0D8
:1046E0004C8812044EEA040E0C88120C2243164C1D
:1046F00043EA0E23A0421FFA8CFC9BB20AD004F5B9
:104700008064A04206D08968A0F804C08283C16397
:10471000038410BD23F4006ECB894C8A4EEA032338
:10472000B1F810E02CF4405C4EEA04044CEA0414A6
:104730004FF6FF3E1FFA84FC8C8803EA0E0343EA1F
:10474000042E1FFA8EF3DEE7000001400023C0E9CB
:104750000233036083800361704700BF038B23F043
:10476000080213041A0C0A4302837047038B23F4D4
:10477000006213041A0C42EA01211FFA81FCA0F81E
:1047800018C07047838B23F0080213041A0C0A43E5
:1047900082837047002103E00A4B5B584350043189
:1047A00009480A4B42189A42F6D3094A02E000230C
:1047B00042F8043B074B9A42F9D3FFF737F8FEF76C
:1047C0004DF9704720520008000000201000002022
:1047D00010000020F0DD0120FEE70000830730B567
:1047E00047D0541E002A3ED0CAB2034601E0013C25
:1047F00039D303F8012B9D07F9D1032C2CD9CDB265
:1048000005EB05250F2C05EB054535D9A4F1100264
:1048100022F00F0C03F1100EE6444FEA121C1A4668
:10482000C2E90055C2E9025510327245F8D10CF1C7
:10483000010214F00C0F03EB021204F00F0C13D062
:10484000ACF1040323F003030433134442F8045B84
:104850009342FBD10CF003042CB1C9B21C4403F801
:10486000011BA342FBD130BD64461346002CF4D19A
:10487000F9E703461446C0E71A46A446E0E700BF3E
:1048800008B52DED048BB0EE608AB0EE409A00F0D2
:1048900085F8B4EE488AF1EE10FAF0EE408A0BD6B5
:1048A000B5EE409AF1EE10FA17D1B5EE408AF1EE6E
:1048B00010FA06D1F7EE008AB0EE680ABDEC048B60
:1048C00008BDB0EE480A00F05BF80028F4D0B5EE61
:1048D000C08AF1EE10FAEFD525E000F051F888B16A
:1048E000F5EE408AF1EE10FAE6D1B0EE490A00F09A
:1048F00047F80028E0D0B0EE480A00F041F8002860
:10490000DAD010E0B0EE490A00F03AF80028E7D01B
:10491000B0EE480A00F034F80028E1D0F4EE688ADE
:10492000F1EE10FA04D600F074EC22230360C3E722
:1049300000F06EEC21230360BEE700BF08B52DED4B
:10494000028BB0EE408A00F025F8B4EE488AF1EE12
:1049500010FA06D6DFED098AB4EEE88AF1EE10FA15
:1049600002D4BDEC028B08BD00F052EC88EEA80A20
:10497000BDEC028B2123036008BD00BF00000000D6
:1049800010EE103A23F00040B0F1FF4FACBF002012
:1049900001207047B1EEC00A704700BF2DE9F04317
:1049A0002DED028B83B0CDED010A8DED000ADDE91E
:1049B000004535F0004610D184F48004640014F5FD
:1049C000000F1BD9DDED007A9DED017A37EE870AE5
:1049D00003B0BDEC028BBDE8F08324F00047B7F1D3
:1049E000FF4F02D8B6F1FF4F0FD9B4F17E5FE9D186
:1049F00085F480056D0015F5000FE3D8B7EE000AC9
:104A000003B0BDEC028BBDE8F083002CB84616DB8A
:104A1000B6F1FF4F00F0F780B6F17E5F00F026811F
:104A2000B5F1804F00F04681B5F17C5F40F03881F0
:104A300003B0BDEC028BBDE8F043FFF7ABBFB6F1AE
:104A4000974F80F0F080B6F17E5F80F01981B5F16C
:104A5000804F00F02F81B5F17C5F40F0218100F0A4
:104A60007BFBB7F1FF4FB3D04FF00009002F00F0F0
:104A7000F280B7F17E5F00F0E580E20F013A59EA7B
:104A8000020300F02181B6F19A4F40F24581924B2A
:104A90009F4240F23E82914B9F4200F24782F7EEE6
:104AA000007A30EE670A9FED8E6ADFED8E5AF5EEE2
:104AB000007AA0EE676AF6EE006AE6EE406A20EE43
:104AC000007ADFED897A9FED896A27EE267A67EE14
:104AD000C77AE0EE257AF0EE676AE0EE066A16EE37
:104AE000903A6FF30B0306EE903AB0EE667AA0EEC2
:104AF000467A77EEC77A6FF30B0507EE105A9DEDF5
:104B0000016ADDED015A36EE476A67EEA57A26EEB8
:104B1000877AE6EE267A09F1FF3959EA0209BFEEF3
:104B2000008A77EE876AB7EE006A16EE903A18BFF1
:104B3000B0EE468A002B23F0004240F3B981B2F177
:104B4000864F00F2388200F01C82B2F17C5F00F2E6
:104B50000082002210466FF30B0305EE903A75EECB
:104B6000C76A9FED637A9FED633A9FED632ADFED9D
:104B7000633A9FED634ADFED634A9FED635A77EE38
:104B8000E67A25EE877ADFED616AA7EEA67AF0EE87
:104B9000002AF0EE476AE5EE836AB7EE000A26EED9
:104BA000A66AF0EE667AE6EE023AE5EEC37AF0EE39
:104BB000445AE3EE865A77EE677AB0EE647AA5EE51
:104BC000867AF0EE455AE7EE065AB0EE667AA5EE22
:104BD000C67AE6EEA77A66EE875A37EE626A85EE07
:104BE000867A77EE677A77EEE67A30EE670A10EE2D
:104BF000103A1344B3F5000FC0F2958100EE103A5D
:104C000020EE080AE4E6B7F17E5F3FF4F7AE32D952
:104C10009FED3F0ADDED017A002DB8BFF0EE407A3E
:104C2000B0EE670AD4E6B6F1FF4FECD04FF00209C0
:104C30009DED000A00F090FAB7F1FF4F02D0002F6F
:104C40007FF417AF002DBCBFF7EE007A87EE800A25
:104C5000002CBFF6BDAEA7F17E5757EA090740F01A
:104C6000208170EE407A87EEA70AB1E6002D1ADBAC
:104C70009DED000AACE6002D21DB9FED250AA7E69D
:104C8000F315C3F1960346FA03F202FA03F3B342B3
:104C900000F0FA80B6F17E5FE8D0B5F1804F09D020
:104CA0004FF00009C4E79DED007AF7EE007A87EE39
:104CB000870A8DE6DDED007A27EEA70A88E6DDEDAE
:104CC000017AB1EE670A83E6DDED007A77EEE77AE6
:104CD00087EEA70A7CE600BFF3FF7F3F0700803F17
:104CE000ABAAAA3E70A5EC363BAAB83F00AAB83FD3
:104CF0008CBEBF350072313F4CBB31330EEADDB59F
:104D000055B38A38610B36BBABAA2A3E1872313FC5
:104D1000000000000000804B14F0FF4F40F0F780CF
:104D20005FED047A60EE277A6FF0170317EE908A32
:104D3000A9484FEAE851C8F316087F39804519445D
:104D400048F07E5340F3DB80A448804540F3F88070
:104D50009FEDA35A0131F0EE453AA3F50003F7EEBB
:104D6000005A002006EE103A76EE257AB7EE007A69
:104D700087EE270A5B1043F0005303F580230344BA
:104D800076EE656A07EE901A26EE803AB8EEE77A7C
:104D900013EE101A07EE903A924BDFED930A9FED57
:104DA000938A9FED931ADFED932ADFED931A9FED1F
:104DB000932A77EEE55A194004EE901A36EE656AAA
:104DC00063EE035AE4EEE76AF0EE607AE5EE887A85
:104DD000E4EEC66AA7EEA51A66EE806AE1EE252A21
:104DE00073EE247AE2EEA51A25EEA58AA1EEA52A95
:104DF00067EEA67AB0EE084AB0EE446AE8EE027AB0
:104E0000A4EEA46ADFED7E0A9FED7E1ADFED7E2A16
:104E100036EE276A16EE101A194006EE101A76EED4
:104E2000445AE4EEE45A77EEE57A67EE837AE6EEEA
:104E3000867AF0EE675AE4EE865A15EE901A19401B
:104E400005EE901AF0EE656AE4EEC66A77EEE67A51
:104E500067EEA07AE5EE817A77EEA37AF0EE676AE4
:104E6000E5EEA26A76EE856A76EE876A16EE901A0D
:104E7000194006EE901A36EEC77A37EE457AA5EE5F
:104E8000E27A77EEC77A36E6B6F17E5F3FF4EEAEB1
:104E9000B5F1804F3FF40EAF02F00102C2F10209FA
:104EA000C6E6B9F1010F7FF493ADB1EE400A8FE58C
:104EB00056498A4200F287807FF447AE76EEC76A91
:104EC000F4EEE76AF1EE10FA7DDA03F50043504A9A
:104ED000C3F3C7517F39C3F316000A4140F4000001
:104EE000C1F117011A400841404206EE902A37EE00
:104EF000667AC20577EE876A16EE903A2BE69FED4A
:104F0000385AF7EE005AF0EE453A00202AE700231F
:104F10000EE7002D0CDB002003B0BDEC028BBDE8DA
:104F2000F04300F09BB800F0A5F869E6002DF2DD33
:104F3000002003B0BDEC028BBDE8F04300F094B854
:104F40009FED345ADFED343AF7EE085A4FF4001073
:104F500008E7D2157E3A4FF40001114119442C4A5A
:104F6000C1F3C7547F3CC1F31600224140F4000056
:104F7000C4F11704002B40FA04F002EA0102B4DA8B
:104F8000B2E79FED266A76EEC76A37EE866AB4EE20
:104F9000E66AF1EE10FA0EDC03F500431C4AD9155F
:104FA0007F39C3F316000A4140F40000C1F1170134
:104FB0001A40084199E7B5EEC08AF1EE10FA4CBFED
:104FC00001200020B5E7B5EEC08AF1EE10FA4CBF23
:104FD00001200020A0E700BF71C41C00D6B35D0013
:104FE0000000000000F0FFFF55326C3E42F1533EDE
:104FF00005A38B3EABAAAA3EB76DDB3E9A99193F3B
:105000004F38763FA0C39D360038763F00001643E8
:10501000000080FF00C0153FDCCFD1353CAA3833FB
:1050200010B52DED028BB0EE408A044600F0F0E89A
:10503000B0EE480ABDEC028B046010BD30B1F1EE59
:10504000407A27EE800A2220FFF7EABFF0EE407A8E
:1050500027EE800A2220FFF7E3BF00BF9FED010A81
:10506000FFF7ECBF000000109FED010AFFF7E6BF5D
:105070000000007010EE103A33F000411A4627D0BD
:10508000B1F1FF4F21D213F0FF4F22D1DFED2B7A88
:105090002B4A60EE277A904217EE903A33DB4CF2BF
:1050A000503CC3F3C75160451A46A1F1190116DD02
:1050B000DFED247ADFED246A002BB0EE677AB8BF0B
:1050C000F0EE667A27EE870A704730EE000A7047E6
:1050D00070474CF2503C60454FEAD151E8DC014446
:1050E000FE29E5DC002915DC11F1160F19DB193159
:1050F00022F0FF4242EAC15207EE902A9FED130AC6
:1051000027EE800A7047DFED127A07EE103A27EE9D
:10511000270A704722F0FF4242EAC15300EE103ADC
:105120007047DFED0B7ADFED0B6A002BB0EE677A8C
:10513000B8BFF0EE667A27EE870A70470000004C91
:10514000B03CFFFFCAF24971CAF249F100000033D6
:105150006042A20D6042A28D10EE103A23F000438F
:1051600000EE103A704700BF000000000000000091
:1051700000000000000000000000803F0000004030
:1051800000000040000080400000803F0000C03F61
:1051900000000040000040400000803F9A99993F85
:1051A0000000C03F000000400000803F9A99993FF6
:1051B0000000C03F6666E63F0000803FBE9FAA3FFA
:1051C0000000C03F000000400000803F0000A03F02
:1051D0000000C03F000000400000803F0000A03FF2
:1051E0000000C03F0000F03F000000000102030487
:1051F0000102030406070809F8B500BFF8BC08BCA3
:105200009E467047F8B500BFF8BC08BC9E46704784
:1052100004F01FE510010020000000000000000065
:10522000210000000000000000000000000000005D
:040000050800479513
:00000001FF
