:020000040800F2
:1000000000000220895F0008693F00086D3F00087A
:10001000713F0008753F0008793F000800000000AC
:100020000000000000000000000000007D3F00080C
:10003000813F000800000000853F0008CD5F0008F8
:10004000CD5F0008CD5F0008CD5F0008CD5F0008E0
:10005000CD5F0008CD5F0008CD5F0008CD5F0008D0
:10006000CD5F0008CD5F0008CD5F0008CD5F0008C0
:10007000CD5F0008CD5F0008654C0008CD5F00082B
:10008000CD5F0008CD5F0008CD5F0008CD5F0008A0
:10009000CD5F0008CD5F0008CD5F0008CD5F000890
:1000A000CD5F0008CD5F0008CD5F0008CD5F000880
:1000B000CD5F0008CD5F0008CD5F0008CD5F000870
:1000C000CD5F0008CD5F0008CD5F0008CD5F000860
:1000D000CD5F0008CD5F0008CD5F0008CD5F000850
:1000E000CD5F0008CD5F0008CD5F0008CD5F000840
:1000F000CD5F0008CD5F0008CD5F0008CD5F000830
:10010000CD5F0008CD5F0008CD5F0008CD5F00081F
:10011000CD5F0008CD5F0008CD5F0008CD5F00080F
:10012000CD5F0008CD5F0008CD5F0008CD5F0008FF
:10013000CD5F0008CD5F0008CD5F0008CD5F0008EF
:10014000CD5F0008CD5F0008CD5F0008CD5F0008DF
:10015000CD5F0008CD5F0008CD5F0008CD5F0008CF
:10016000CD5F0008CD5F0008CD5F0008CD5F0008BF
:10017000CD5F0008CD5F0008CD5F0008CD5F0008AF
:10018000CD5F0008CD5F0008000000000000000007
:100190002DE9F04F0446A5B0DFF854A3016303F046
:1001A0007BFF00224FF07C5322626262A262E26215
:1001B000A361E36123616361BAE80F000DF11009E7
:1001C000A9E80F009AE80F00DFF82883DFF828C3BA
:1001D000C34EDFF810B389E80F00B8E80F000DF147
:1001E000300EAEE80F0098E80F008EE80F00BCE874
:1001F0000F0014AF0FC79CE80F0087E80F000FCE69
:100200001CAD0FC596E80F0085E80F00DBF8000075
:10021000431C6FD0BBF800104DF67522914260D19F
:100220005B461E884DF67527BE4264D15D881F2D42
:1002300061D815F0070909D0E80809EBC00A0DF1EB
:10024000900808EB8A0E59684EF8801C1F894DF6FD
:1002500075260833B7429C464DD15A881F2A4AD882
:1002600012F0070B08D0D50858680BEBC50924AB72
:1002700003EB890A4AF8800CBCF808704DF6752823
:1002800047450CF1080336D159881F2933D811F09E
:10029000070E09D0CE080EEBC6020DF1900B0BEB4A
:1002A00082095D6849F8805CBCF810004DF675273E
:1002B000B8420CF110031ED159881F291BD811F028
:1002C000070A08D0CE085D680AEBC60224AB03EB30
:1002D000820848F8805C0CF11803B3F1016FA0D1DB
:1002E00009E004F0E1FFF32004F0EEFF02215820C2
:1002F00005F04CF87B4BC4F86431204603F074FFE2
:1003000000200390039F78498F4207D800BF039EC7
:10031000754A01360396039D9542F7D9B4F80CC08F
:10032000B4F80EE09FED717AB4F80890B4F80AA022
:1003300007EE90CA01EE10EAB8EE670AF8EE411A2D
:1003400060EE070A21EE872ACDED040A8DED0C2A16
:1003500002EE909A04EE10AA0DF1100BBBE80F000C
:10036000B8EE623AF8EE444A63EE073A24EE875A52
:10037000CDED143A8DED1C5A6063A163E2632364F2
:10038000BBE80F00C4ED0A0A84ED0B2AC4ED083A5D
:1003900084ED095A6064A164E26423652822002187
:1003A00004F1540005F014FEBBE80F00C4F880000F
:1003B000C4F88410C4F88820C4F88C30BBE80F005F
:1003C0004FF0FF37C4F89000C4F89410C4F8982098
:1003D000C4F89C3028220021E76704F1A00005F052
:1003E000F7FDBBE80F00C4F8CC00C4F8D010C4F887
:1003F000D420C4F8D830BBE80F00C4F8C870C4F8E3
:10040000DC00C4F8E010C4F8E420C4F8E830282286
:10041000002104F1EC0005F0DBFDBBE80F00C4F89F
:100420001801C4F81C11C4F82021C4F82431BBE819
:100430000F00C4F81471C4F82801C4F82C11C4F8D2
:100440003021C4F834310021282204F59C7005F0D5
:10045000BFFD6FF4B37004F28711C4F8607104F249
:1004600067130191001B00EB03085D1C00EB050EF8
:1004700041194746464608F1620B0EF1620908F140
:10048000660A08F1650E673701F1630868360022D5
:1004900040F2EE21DD1D5A70054444F82B109A708D
:1004A00044F82910DA7044F828101A7144F82E1014
:1004B0005A7144F82A109A7144F82710DA71019F92
:1004C00044F8261003F8082F6235BB4244F8251083
:1004D000C9D1C4F8082284F80C2225B0BDE8F08FF9
:1004E000086C000800000E089F860100000080379D
:1004F000686C0008486C0008286C0008F0B5C589D5
:100500008489D0ED0B5AC688DFED786A90ED0A6ACF
:10051000D0ED077A0788B0F808E090ED042AB0F82B
:1005200002C0D0ED083A9FED723AD0ED051A90ED79
:10053000095A90ED067A04EE105A04EE904AB8EE8D
:10054000440A2DED028BF0EE650A08EE106AD0EE3B
:10055000260A44898588DFED678AC66FF8EE642A2B
:10056000B8EE484AB0EE461A92EEA61AB0EE670A06
:1005700094EE260A04EE907AE0EEA85A00EE90EA95
:10058000F8EE642AA1EE286AF8EE604A01EE10CA7D
:10059000B0EE428A92EEA68AE0EE037AB0EE630AEB
:1005A00094EEA60AB8EE414A04EE905A01EE104AC3
:1005B000F0EE612AD4EE262A43EA42051C46B8EE44
:1005C000414AB8EE641AA8EE032A00EB8503B5424F
:1005D000F0EE450AB0EE478AD4EE260A91EE268A5E
:1005E000F0EE636AE2EE831AE0EE286AA0EEA85A03
:1005F000A8EE037A80ED0A6AC0ED0B5AC0ED086AD6
:1006000080ED095A80ED067AC0ED077A80ED042A64
:10061000C0ED051AD3ED0D8AD3ED203A93ED333AB0
:10062000D3ED462A18D046194FF0000C83ED156A19
:10063000B0EE460A86F874C0C56736EE404ADFED74
:100640002E4AB4EEE44AF1EE10FA40F356824FF02F
:10065000010E86F874E005E0461996F87470002FD4
:1006600000F0A48283ED0D6AD0F8C870BD4218D0A6
:100670004FF0000CC3ED285AB0EE656A86F8C0C092
:10068000C0F8C85035EEC61A9FED1B8AB4EEC81AE2
:10069000F1EE10FA40F34B824FF0010E86F8C0E005
:1006A00004E096F8C070002F00F07D82C3ED205A60
:1006B000D0F81471BD4221D04FF0000CC3ED3B6A5D
:1006C000F0EE665A86F80CC1C0F8145136EEE54AD1
:1006D000DFED094AB4EEE44AF1EE10FA40F31A8273
:1006E0004FF0010E86F80CE10DE000BF00008037EE
:1006F0000AD7A33DD044D83C0AD7A33B96F80C7147
:10070000002F00F05682C3ED336AD0F86071BD420D
:1007100000F0D1814FF0000C83ED4E5AF0EE456AA7
:1007200086F858C1C0F8605135EE661A1FED0E6AA2
:10073000B4EEC61AF1EE10FA40F306824FF0010E45
:1007400086F858E183ED465A7DB393ED0D5A93ED4B
:10075000200AD3ED335A93ED464AB4EE685AF1EECF
:1007600010FA05D00125002786F86851C3F8887172
:10077000B4EE630AF1EE10FA06D04FF0010C00253A
:1007800086F870C1C3F8A851F4EE435AF1EE10FA9E
:1007900005D00127002586F87871C3F8C851B4EE5A
:1007A000624AF1EE10FA40F0DC8100F2671E00F2BE
:1007B00087159EF801300EF1010C8BB1AEEB0007EE
:1007C0006FF4B37E774400EB870340F2ED26D3F855
:1007D0008871B74204D8D3F888610136C3F88861BC
:1007E0009CF801300CF1010E8BB16FF4B377ACEBD8
:1007F00000063E4400EB860340F2ED26D3F88871F4
:10080000B74204D8D3F888710137C3F888719CF8CF
:1008100002600CF102038EB16FF4B377AEEB000E01
:10082000BE4400EB8E0E40F2ED26DEF88871B74232
:1008300004D8DEF888710137CEF888719CF803601F
:100840000CF1030E86B16FF4B3771B1A3B4400EB37
:10085000830340F2ED26D3F88871B74204D8D3F869
:1008600088710137C3F888719CF804600CF10403A7
:100870008EB16FF4B377AEEB000EBE4400EB8E0E7C
:1008800040F2ED26DEF88871B74204D8DEF88871B0
:100890000137CEF888719CF805600CF1050E86B121
:1008A0006FF4B3771B1A3B4400EB830340F2ED2651
:1008B000D3F88871B74204D8D3F888710137C3F8E8
:1008C00088719CF806600CF106038EB16FF4B37763
:1008D000AEEB000EBE4400EB8E0E40F2ED26DEF8CD
:1008E0008871B74204D8DEF888710137CEF8887174
:1008F0009CF807600CF1070E8EB1A3EB000C6FF4AF
:10090000B3739C4400EB8C0740F2ED2CD7F8886160
:10091000664504D8D7F888310133C7F88831AE4529
:100920007FF447AFF6EE008A38EEC77AD0ED0D3A85
:10093000D0F8085277EE232A0135F5EEC02AF1EE01
:1009400010FA78EEE77A78EEE11AC0F8085200F172
:100950002181B7EE003AF4EE432AF1EE10FAC8BF57
:10096000F0EE432AD0ED204AC1ED002A77EEA46ACA
:10097000F5EEC06AF1EE10FA00F10981F7EE000A17
:10098000F4EE606AF1EE10FAC8BFF0EE606A90ED26
:10099000338AC1ED016AB5EEC08AF1EE10FA00F1BA
:1009A000F380B7EE001AB4EE418AF1EE10FAC8BF38
:1009B000B0EE418A90ED466A81ED068A31EE860AF4
:1009C000B5EEC00AF1EE10FA00F1DB80B7EE005A86
:1009D000B4EE450AF1EE10FAC8BFB0EE450A076B57
:1009E00081ED030A002F00F0C38097ED007AD7ED68
:1009F000018AE2EE078A866BD0F884E0D0F8D0C096
:100A0000D0F81C31C56BD0F888700E61C1F814E0C5
:100A1000D0F8D460D0F820E1C1F808C0D0F840C0C8
:100A2000CB610D62D0F88C30D0F8D8504F628E6216
:100A3000D0F82471466CC1F82CE0C1F830C0D0F871
:100A400090E0D0F8DCC0C1ED1F8A4B638D63CF63AB
:100A50000E64C1F844E0C1F848C0002A32D10CB994
:100A600080ED4A6ABDEC028B846CD0F89430D0F8EB
:100A7000E020D0F82C51C76CD0F89860D0F8E4E0B2
:100A8000D0F830C14C65CB64046DD0F89C300A6559
:100A90008D65D0F8E820D0F83451CF650E66C1F8E6
:100AA00064E0CC668D67C1F868C0BDE8F0400B67B4
:100AB0004A6703F099BB96F85871002F70D083ED08
:100AC000465A41E6022ACDD1002CCBD1D0ED4A3A8C
:100AD00071EEA31AC0ED463AF5EEC01AF1EE10FA27
:100AE0005BD4F7EE007AF4EE671AF1EE10FAC8BFA5
:100AF000F0EE671AC1ED031AB4E7DFED2F0AB4EE8A
:100B0000E04AF1EE10FA7FF5AFAD4FF0010E86F836
:100B100074E0A7E5DFED280AB4EEE04AF1EE10FA42
:100B20007FF5F3AD4FF0010E86F80CE1EBE59FED9C
:100B3000220AB4EEC01AF1EE10FA7FF5B9AD4FF00B
:100B4000010E86F8C0E0B1E59FED1B8AB4EEC81A2D
:100B5000F1EE10FA7FF5F8AD4FF0010E86F858E18E
:100B6000F0E5012786F880710026C3F8E8611CE6ED
:100B7000F6EE005A35EEC22A9FED104A62EE048A64
:100B800039E79FED0F0A2AE79FED0D8A12E7DFEDA7
:100B90000C6AFCE6DFED0A2AE4E6DFED091AA9E7B4
:100BA000D3ED4E6AC0E593ED286A6BE593ED150A27
:100BB00043E5D3ED3B5A89E50AD7A3BB0000F042D9
:100BC000000000002DE9F04F90F80C32012B83B0AB
:100BD000044600F0A880022B00F08880002B40F033
:100BE000828000F2671600F28717314648784B1C66
:100BF00060B16FF4B3752D1B6A1802F1620940F2FF
:100C0000ED2A54F82900504500F2A1805A78591C69
:100C100062B16FF4B3752D1BEA1802F1620B40F25A
:100C2000ED2854F82BC0C44500F291809A78981CA6
:100C300062B16FF4B3752D1B6A1802F1620940F2BC
:100C4000ED2154F829A08A4500F28180DA78D91C78
:100C50005AB16FF4B3752D1B2A1802F1620B40F2E2
:100C6000ED2854F82BC0C44571D81A79181D5AB113
:100C70006FF4B3752D1B6A1802F1620940F2ED2181
:100C800054F829A08A4562D85A79591D5AB16FF48F
:100C9000B3752D1B2A1802F1620B40F2ED2854F8AF
:100CA0002BC0C44553D89A79981D5AB16FF4B375C7
:100CB0002D1B6A1802F1620940F2ED2154F829A0B7
:100CC0008A4544D8DA79D91D5AB16FF4B3731D1B24
:100CD0002A1802F1620040F2ED2B54F8200058452A
:100CE00035D8B94282D103B0BDE8F08FD0F80862A0
:100CF000D0F82072BE42F6D0D0F81402D4F80832F0
:100D0000D4F81C12C4F82032043004F06DFBD4F87F
:100D1000102222444FF0000882F8688184F80C8287
:100D200003B0BDE8F08FD0F80822D0F8200282424C
:100D3000D9D0D4F80852C4F82052D4E9850104F07F
:100D400053FB022184F80C1203B0BDE8F08FD4F8F5
:100D5000640100F10801B1F1016F2BD8D71002F046
:100D60000706022F04EB860E00F0C480032F00F06C
:100D7000BE80012F14BFDEF83470DEF88070C4F836
:100D800064114DF6752C4CEA0243C4E98420C4F882
:100D90001832C4F81C7204F087FAF32004F094FAB5
:100DA000D4F80822C4F82022012584F80C5203B09C
:100DB000BDE8F08F04F078FAF32004F085FA022100
:100DC000582004F0E3FAB91B4C48C4F8640111F050
:100DD000070351D0012B42D0022B37D0032B2BD04D
:100DE000042B20D0052B14D0062B09D0A819623073
:100DF0004FF0010840F2EE2206F8018F44F820205F
:100E0000A9196231012340F2EE2006F8013F44F8AF
:100E10002100A91962314FF0010940F2EE2206F8D3
:100E2000019F44F82120AB196233012040F2EE21EA
:100E300006F8010F44F82310AB1962334FF0010A92
:100E400040F2EE2206F801AF44F82320A8196230E0
:100E5000012140F2EE2306F8011F44F820304FF044
:100E6000010BA81906F801BF623040F2EE22BE4223
:100E700044F820203FF437AF0197711C05EB060EB4
:100E8000AF1905EB060C6B180EF1620BA81907F1F0
:100E9000650E05EB0108AF190CF1660A673703F11F
:100EA000630C683008F16209012240F2EE23F11D63
:100EB0007270294444F82B30B27044F82930F27033
:100EC00044F82C30327144F82E30727144F82A30D4
:100ED000B27144F82730F271019F44F8203006F8CF
:100EE000082F6231BE4244F82130C6D1FBE6DEF85D
:100EF000187144E7DEF8CC7041E700BF00000E082F
:100F0000704700BFF8B505460C461E46174603F06D
:100F10007BFF681C03F0CEFE069BAC600024C5E995
:100F2000037611486B616C83AC83EC85022104F07D
:100F3000ADFB80B91027284603F07CFF013FFAD1B2
:100F40002978B1FA81F60122700985F82C202876DB
:100F500085F83820F8BD2046224685F82C402876B2
:100F600085F83820F8BD00BF0004024038B590F87D
:100F70002C300269012BD2ED047A04464FD0D0ED1B
:100F80000D6A37EEE60ABEEE007AB4EEC70AF1EE5D
:100F900010FA07DC042040F6980C84F82C00A4F822
:100FA0002EC038BDDFED210AB4EEE00AF1EE10FAF2
:100FB000F0D5B3EE081AC1EE001A4569C5ED001A66
:100FC00090ED0C2A61EEC22AC5ED012A04F06CF9FD
:100FD000F32004F079F90221102004F0D7F92968F0
:100FE000134804F001FA6968124804F0FDF92A7800
:100FF0006978AB7810481144EA7819442B79114488
:101000006A7919441144AA79ED791144294481F48B
:101010007F4181F0FF0104F007FA0320BBE70220C3
:10102000C4ED0D7A84F82C0038BD00BFCDCC4CBD8A
:10103000008000080480000808800008036A828C91
:10104000013310B503620AB1511E8184DFED597A74
:1010500090ED0A7AB4EEE77AF1EE10FA22DC047F22
:10106000002C60D0417F002978D1846804F5004EBF
:101070009EF8D121052A76D84F4C504914F802E049
:101080004F4C11F802C0A15C90F82C2080F801E0D0
:10109000541E80F802C0C170032C3BD8DFE804F076
:1010A000142D16244FF0000C6146FF2290F82CE01E
:1010B00042700EF1FF32817080F803C0032A0ED80F
:1010C000DFE802F0021B0412DA0523D50024FF2119
:1010D00004714171BDE81040013003F061BE437FEF
:1010E000022B0CD0032B13D1FF240021047141717A
:1010F000BDE81040013003F053BEDB050AD5FF24E4
:10110000DC2104714171BDE81040013003F048BE9C
:10111000012BDBD000210C4604714171BDE8104069
:10112000013003F03DBEC2689FED260AD2ED000AF1
:10113000816820EE801A01F5004CFCEEC11A9CF883
:10114000D04111EE90EA621EAEF17401C9B2042AD8
:101150002DD8DFE802F00C281D130F004FF0FF0C14
:1011600061466246A2E7FF218C468E468CE78C469C
:1011700000229BE70A4600218C4697E7124C8A0022
:10118000A4FB02244FF0000C0A46C4F3C7018DE70C
:101190000D4AC1EBC104A2FB04244FF0000C0A4627
:1011A000C4F3C70182E74FF0000C62467EE78C462D
:1011B0000A467BE73333733F986C0008906C000855
:1011C000886C00080000E642CDCCCCCC38B5044693
:1011D00003F030FE2278002A0CBF0125002521D122
:1011E000207E94F82C3088B1002B55D01046114643
:1011F000013B012B35D9E28D002A3FD0501EE085FE
:1012000025762046BDE83840FFF718BF0121002BA6
:10121000EED121770133638325762046BDE838403F
:10122000FFF70CBF94F82C30207EABB90028E7D034
:10123000608B2377B0F5967F04D2617F013101F096
:10124000030262774FF0000CA4F81AC025762046FE
:10125000BDE83840FFF7F2BE013B012B4FF0000123
:10126000C9D894F838308BB10028C9D021694FF023
:10127000000C0A69226384F838C0C1E784F82C2086
:1012800025762046BDE83840FFF7D8BE0029B7D004
:101290002046FFF76BFEB3E7638B4FF6FF7E734587
:1012A000AED0B7E700F5005393ED027A1968D3ED9D
:1012B000015A93ED052AD3ED042AFDEEC76A70B4F6
:1012C00016EE902A8C1A04F2FF75C5F30A0606F290
:1012D000FF72C2F30A0400EB860C00EB8405DCED20
:1012E000007A95ED006A93F82860F8EEE60A36EE8B
:1012F000671A77EE601A22EE255AE1EE217A2DED7B
:10130000028BA2EEA75AF0EE404AC3ED017A002EFE
:1013100040F0AF80DFED8F8A93ED0B3AB5EEC03A27
:10132000F1EE10FA40F391808B4C8C4D8C4A26687C
:101330009FED8C7ADFED8C7A9FED8C1A9FED8C8A75
:1013400093ED0E0ADFED8B2A9FED8B2AD3ED0F0A6A
:10135000DFED8A3A05FB062606EE106AF8EE466ACD
:10136000FFEE005A66EE871AB0EE004AF0EE656AAC
:10137000E1EE846A05FB0625256093ED0D6AD3ED49
:10138000111A66EEA77A26EE822AE6EE087A26EE93
:10139000818A9FED7B1A9FED7B6AC3ED0D7AA0EEEB
:1013A000228AA0EEA32A93ED100ADFED770ADFED83
:1013B000773A83ED0E8A66EE812A66EEA33AE0EE76
:1013C000202A9FED731AD3ED120A9FED720A83ED66
:1013D0000F2A77EE887AE1EE813A66EE661A37EEEA
:1013E000821A06EE105AE0EE801A31EE220AF8EE6A
:1013F000460A70EE237A20EE877A37EEA10AE7EEEE
:10140000045A93ED134A9FED641A93ED0C6ADFEDD5
:10141000637AC3ED102A70EE040A26EE254AE6EE42
:10142000810AB7EE001A31EE467A20EEA70ADFED08
:101430005C5AC3ED113AA7EE004A66EEA56AE3EEE8
:10144000048AC3ED121AC3ED136A93ED033AE3EE77
:10145000058A4C1C00EB8100B0EE450A38EEA45A18
:10146000BDEC028BC4F30A0180ED005A70BC196018
:101470007047D3E9072C624503DB002483F828403A
:1014800048E700EE10CA04EE102AB8EEC03AB8EEF3
:10149000C48AD3ED097ADFED435AC8EE038AF7EE2A
:1014A000003AB6EE007AF4EEC78A73EEE86AF1EE1F
:1014B00010FAF4EEE57A4CBF38EEA88A36EEA68A2A
:1014C000F1EE10FA30D49FED386AF4EEC67AF1EE00
:1014D00010FA34D577EEE52AB0EE080A38EE663A0F
:1014E00062EE803AB0EE668AA3EE238A1A4C1B4E57
:1014F0002568DFED1C5AD3ED066A0132DA61184A1D
:1015000006FB052500EE905AB8EE601AB0EE006AB0
:1015100061EE251AFFEE007AE1EE867A256028EE6C
:10152000268A68EE278AF7E6B7EE008AB0EE084A08
:1015300076EEC88A27EE847AA8EE878AD6E777EE19
:10154000C60AB0EE081A78EEC81A20EE812AA1EE7B
:10155000828ACBE700000000000000200D66190021
:101560005FF36E3C0000802FBD66633D65C1993D11
:101570004AB57F3F384A7E3F618B1D3E6210783FFF
:10158000F8F79E3EAD6D8A3CF2D25D3F8E6F083F0C
:10159000CDCC0C3F38F842BF6744093FAE47E13D30
:1015A0009C6AED3D9FAAAA3EB0AA2A3FF1EE087AB6
:1015B00021EE271A2DE9F041FDEEC11A9FEDCA2A4E
:1015C00011EE903A2DED028B052BA8BF052300F5F7
:1015D0000045F4EEC20A0646F1EE10FA23EAE37083
:1015E00088B0B0EE408A85F8450140F1DC804FF0CC
:1015F0007E51002385F844310791069105910491AD
:101600009DED040A95ED507A28EE003AF3EE072A94
:10161000B4EE623AF1EE10FA48BFB0EE623AC7EEAD
:10162000037AF1EE000AF4EEE07AF1EE10FA64D5F6
:10163000F0EE607A9DED054A68EE044AB3EE075A73
:10164000F4EE454A06F50057F1EE10FAC7ED027ABE
:1016500048BFF0EE454A85ED520AC7EE248AB1EE46
:10166000006AF4EEC68AF1EE10FA5ED5F0EE468A14
:10167000DDED065A28EE251AB3EE070AB4EE401A3D
:1016800006F58048F1EE10FAC8ED168A48BFB0EEB4
:10169000401A85ED534A87EE012AF1EE002AB4EE96
:1016A000E22AF1EE10FA5AD5B0EE622ADDED070A11
:1016B00060EE883AF3EE078AF4EE683A06F5C04029
:1016C000F1EE10FA80ED2A2A48BFF0EE683AC5ED37
:1016D000545AC7EE234AB1EE007AF4EEC74AF1EE4F
:1016E00010FA56D5F0EE474AC5ED3E4AC5ED550A0B
:1016F00008B0BDEC028BBDE8F081DFED7C3AF4EE82
:10170000E37AF1EE10FA95DD9DED054A68EE044AA4
:1017100006F5005CF4EEE24AF1EE10FACCED023A86
:1017200085ED520A99D5C7EE228ADFED706AF4EE94
:10173000E68AF1EE10FA9BDDDDED065A25EE881AF9
:10174000F3EE071AB4EEE11A06F58044F1EE10FA52
:10175000C4ED166A85ED534A9DD587EE212A9FED8B
:10176000633AB4EEC32AF1EE10FA9FDDDDED070A0D
:1017700060EE883AB3EE074AF4EEC43A06F5C0428A
:10178000F1EE10FA82ED2A3AC5ED545AA1D5C7EE12
:10179000044A9FED568AF4EE484AF1EE10FAC8BFAB
:1017A000F0EE484AA0E79FED527AF4EEC70AF1EE58
:1017B00010FA1FD570EEC24A9FED4E5A24EE856A8C
:1017C000F7EE008AB4EEE86A0122F1EE10FA85F82D
:1017D000442177DD9FED481ADFED481A9FED482A36
:1017E0008DED052A4FF07E500490CDED061A8DED5B
:1017F000071A05E79FED430AF4EEC00AF1EE10FA6E
:1018000022D5414C07014FF00C08E1594FF0020E70
:101810000023CDE9011885F844E10093414404AF69
:1018200003916C46B846F4EC010ADFED383AB8EEA5
:10183000E04AB0EE000A64EE230A04F07DFC444561
:10184000A7EC010AEFD1DBE6DFED312AF4EEE20A84
:10185000F1EE10FA26D49FED2F3AF4EEC30AF1EE22
:1018600010FA10D50101284C6758019704EB0018B5
:101870000022D8F80430D8F808100293042085F824
:1018800044010092CBE7204A010102EB00145758B3
:10189000A368E168019705200022029385F84401BE
:1018A0000092BCE7184C010104EB001C6758DCF8FF
:1018B000043003220020CDE90173009085F8442113
:1018C0000C21ACE7DFED146A66EE267AF6EE005ADC
:1018D000B0EE682AF0EE681AA7EEE52AE7EEA51A40
:1018E00037EEA81A7CE700BF8FC2F53C00C0FF446A
:1018F000CDCCCC3E15F92C406F12833F3789813F08
:1019000091ED7C3FCDCC0C3FA06C0008ABAAAA3D6A
:101910003333333F9A99593FA69BC43C2DE9F0439A
:10192000D0ED0E5A90ED0F2AD0ED0D1A90ED0B1A56
:10193000D0ED123A90ED134A2DED068B90ED0C8A06
:10194000002A00F01B82D0ED100A9FED0A0ADFED9D
:101950000A7ADFED0B2A036860EE80AA02F1FF3EEF
:1019600060EEA70A4268B0EE623AB1EE655A01F144
:10197000080CDDE1000070420000C8420000803920
:101980000000000000409245D0ED038AD0ED076AC8
:10199000D0ED049A90ED08AAC0ED028A98EEA97ADB
:1019A00096EE8A9AF6EE007A78EEA74A36EEA70A05
:1019B00080ED037A80ED079AC0ED066AB2EE046A04
:1019C000AAEEA46A03F16404C4F30D041FED157AB2
:1019D0001FED15AA5CED028AFDEEC64A0EF1FF3E30
:1019E00014EE905A5E19771CC7F30D08C6F30D0963
:1019F00032F9181032F9195009EE101A06EE905A01
:101A0000F8EEC97AF8EEE69A27EE879AF8EEE44AFD
:101A1000A9EEC79A03F17006C6F30D0736EE646AA5
:101A20005CED014A66EE097A78EEA46AE9EE877AFF
:101A3000C3F30D080CF1080C66EE889A37EE8A6A3B
:101A4000BEF1FF3FB0EE469ABEEECA9AE6EE0A9AA3
:101A500019EE101A01F30F0922F8149032F91750F9
:101A60000AEE105AF8EECA7A03F2131427EE876AC8
:101A700003F17207E5EE869AC7F30D01C4F30D0674
:101A800003F20529F0EE696AFEEECA6AA5EE296A3C
:101A9000C9F30D0516EE904A04F30F0722F81870EB
:101AA00032F9166009EE906AB8EEE99A03F29537BA
:101AB00029EE07AAC7F30D06A5EE8A6A03F21514EC
:101AC000C4F30D091FED519AF0EE467AFEEECA7A84
:101AD000A5EE06AA03F2072417EE907A07F30F0784
:101AE00022F8117032F9158006EE108AA0EE809A65
:101AF000C4F30D07B8EEC60ABDEEC96A60EE077AF8
:101B000016EE101AA5EEA7AA194401F5355505F1F0
:101B10001305F0EE4A6AFEEECA6AE5EE0A7A16EEA0
:101B2000904A04F30F0422F8194032F9166009EEC6
:101B3000906AB8EEE9AAC5F30D092AEE070A42F643
:101B40005254E5EE807A2144C1F30D01B8EEC66A25
:101B5000F0EE676AFEEECA6A39EE469A16EE906AB1
:101B600006F30F0622F8176032F9197032F9118066
:101B70000AEE107A09EE908AB8EECA6AF8EEE96ABF
:101B800026EE07AAA5EE270A03F60B25C5F30D09D5
:101B9000A6EEC7AA32F91910B0EE406A29EE0A9AE9
:101BA00007EE901AA6EE879A03F29736C6F30D0554
:101BB000F8EEE79AA1EE896A03F60D2603F5905731
:101BC00069EE876A36EE63AAC6F30D09E2EE0A3AB9
:101BD00007F1020703F5905803F5FA56F0EE637A21
:101BE000E6EE857AC7F30D0106F1160608F1040743
:101BF000B0EE679ABEEECA9AC7F30D08C6F30D079A
:101C000019EE106A06F30F0622F8156032F911502A
:101C100009EE905AE5EEA76A03F51B5101F1100198
:101C2000B8EEE96AC1F30D0526EE07AA03F5FA56E8
:101C3000E5EE8A6A06F11806C6F30D061C44A6EE08
:101C400085AAC4F30D04FEEECA6A7AEE0A9A16EE6D
:101C5000901A01F30F01F0EE4A6AFEEECA6A22F80A
:101C6000191016EE909A09F30F0122F8181032F9A4
:101C7000177032F9155009EE107AB8EEC96A07EEFE
:101C8000905A66EE076AB8EEE7AAA1EEA60A03F537
:101C9000355101F110016AEE077A30EE440A39EE4F
:101CA000E89AA2EE004AC1F30D0803F51B57E9EECE
:101CB000018A07F11207C7F30D09B0EE446AA5EED9
:101CC000A76A4CED048AF0EE468AFEEECA8AE6EE7A
:101CD000057A18EE905A05F30F0122F8161032F922
:101CE00018600AEE106AF8EECA6AA9EEA93A26EE62
:101CF000877AE7EE057AA5EEA77AFEEECA7A77EE46
:101D0000079A17EE907A07F30F0579EEE47ABEEEA4
:101D1000CA7AE7EE814A22F8195017EE108A08F3C2
:101D20000F09E9EEA92A22F814904CED034A15D0C8
:101D3000591E43BF03F57F533F3319460B460160DD
:101D4000D90690ED027A90ED069A3FF41DAEB6EEFC
:101D5000006A77EE064A39EE060A2FE673EE225A3B
:101D6000B6EE002A25EE823ABDEC068BC0ED123AA3
:101D700080ED134A80ED143ABDE8F0839FED013AFF
:101D8000F2E700BF000000002DE9F0419FEDE97A85
:101D90002DED048BF7EE007AB0EE408AC7EE808A14
:101DA00000F5004400F5025500F5214807460E46AF
:101DB000283508F1E80887EE080A80ED008AC0EDB2
:101DC000018A80ED020A84ED738AA5F500504FF474
:101DD000005200211C3804F0FBF8002300224FF0D1
:101DE0007C5CDFF8BCE3D44845F81C2C0121C5E934
:101DF000002145F8183C45F814EC45F8100C45F85E
:101E00000CCC45F808CC45F8043CAB602A732B6336
:101E1000EB62AB626B622B62EB61AB6105F5015566
:101E200010354545D1D1C54DC4F86C53C44DC54896
:101E3000C549C64AC4F87453F7EE000AC44DC4F845
:101E4000F431C4F8F031C4F80832C4F80432C4F8EC
:101E50001C32C4F81832C4F83032C4F82C32C4F83A
:101E60004432C4F84032C4F8E401C4F8F801C4F8BC
:101E70000C02C4F82002C4F83402C4F84802C4F8C2
:101E8000E811C4F8FC11C4F81012C4F82412C4F804
:101E90003812C4F84C12C4F8EC21C4F80022C4F87B
:101EA0001422C4F82822C4F83C22C4F85022C4EDFD
:101EB000E98AC4EDD90AC4F85832C4F87C53A54D58
:101EC000C4F88453A44DC4F85432C4F85C02C4F876
:101ED0006012C4F86422C4F86C32C4F86832C4F8E2
:101EE0007002C4F87412C4F87822C4F88032C4F8BE
:101EF0007C32C4F88402C4F88812C4F88C22C4F876
:101F00009432C4F89032C4F89802C4F89C12C4F811
:101F1000A022C4F8A832C4F8A432C4F8AC02C4F8B1
:101F2000B012C4F8B422C4F8BC32C4F8B832C4F851
:101F3000C002C4F8C412C4F8C8229FED886A9FED9D
:101F4000881AC4F88C53C4F8D032D4EDED5AC4F8D2
:101F5000CC32A5EE861AC4F8D402C4F8D812F3EE37
:101F6000046A61EE261AC4F8DC22F4EEE01AC4F822
:101F7000E432C4F8E032C4F8E802C4F8EC12C4F861
:101F8000F022C4F8F832C4F8F432C4F8FC02C4F801
:101F90001003C4F800137348C4F81413C4F80423DE
:101FA000C4F80C33C4F80833C4F81823C4F8203339
:101FB0006D4AC4F81C331021C4F8AC33F1EE10FAAA
:101FC0006A4BC4F8BCC3C4F8A803C4F8B813C4ED82
:101FD000EC6AC4F89423C4F89C3340F3AA839FEDC1
:101FE000642AC4EDC91A61EE022AF4EEE02AF1EE89
:101FF00010FA40F31D849FED5F3AC4EDCA2A61EEEA
:10200000033AF4EEE03AF1EE10FA40F396839FEDD6
:102010005A4AC4EDCB3A61EE044AF4EEE04AF1EEDE
:1020200010FA40F38E839FED555AC4EDCC4A21EE51
:10203000059AB4EEE09AF1EE10FA40F38683F3EEDF
:10204000019A21EE297A84EDCD9AB4EEE07AF1EE90
:1020500010FA40F37E83DFED4A7A84EDCE7A21EEEA
:10206000270AB4EEE00AF1EE10FA40F376839FED12
:10207000456A84EDCF0A61EE065AF4EEE05AF1EEBD
:1020800010FA40F36E83DFED406AC4EDD05A61EE82
:10209000261AF4EEE01AF1EE10FA40F36683DFED53
:1020A0003B0AC4EDD11A61EE202AB7EE002AF4EE05
:1020B000C22AF1EE10FA40F35C83B2EE0C3A61EE04
:1020C000033AC4EDD22AF4EEC23AF1EE10FA40F32C
:1020D00054839FED2F4AC4EDD33A61EE044AF4EEE7
:1020E000C24AF1EE10FA40F34C839FED2A5AC4ED38
:1020F000D44A21EE059AB4EEC29AF1EE10FA40F3FA
:102100004483DFED259A84EDD59A21EE297AB4EE49
:10211000C27AF1EE10FA40F33C83DFED207A84EDD1
:10212000D67A21EE270AB4EEC20AF1EE10FA40F395
:10213000348347E00000004252B87E3FABAAAA3E7B
:10214000CDCC4C3E22BA003D0AD7233CCAAA7F3FE1
:102150002549123E398EE33D8C2EBA3D3333333F51
:102160009A99993E0000DC42D9899D3D8988883D35
:1021700034339B41666696419A999141CDCC8C410E
:1021800033338341CDCC7C41333373419A996941D8
:1021900066665641CCCC4C41343343419A9939411F
:1021A00000004843000000000000DC42CF4F5740D1
:1021B0006666E63E2717354149265F428FBA2141C0
:1021C000DB0F4940B2EE066A21EE061AB4EEC21ADF
:1021D000F1EE10FAD8BFB0EE421A07F5034307F547
:1021E00001402433E43084EDD70A84EDD81A8446C4
:1021F00098460021013105EE901A5FED166A1FED39
:10220000164A1FED155A1FED143A5FED143A5FEDB3
:10221000144A1FED1A0A1FED196AF8EEE51AF7EED7
:10222000000A21EEA62A71EEE02A21EE849AE2EE5F
:10223000220A69EE209A69EEA87AF4EEC57AF1EEE8
:1022400010FA09DC27EEA77AE7EE033AE7EE234A15
:1022500027EEA40A20EE006AF8EC015A8CED000A81
:10226000B7EE001AC1EE256A01310CF1140EF0EE42
:10227000417AE6EE807A00EE901A37EE860AB8EEE2
:10228000E02A81EE006A5FED391A5FED392A1FED11
:10229000389A5FED3A0ACCED016A22EE213A72EEED
:1022A000413AF0EE414AE3EE234A22EE224A8CED17
:1022B000026A24EE245A1FED412A65EE289AF4EEB4
:1022C000C99AF1EE10FA0FDC69EEA95A1FED461A11
:1022D0005FED461A1FED467AE5EE811AA5EEA17A6A
:1022E00069EE870A20EEA02AF8EC012ACEED000A5A
:1022F000F7EE006A86EEA23A10290EF1140CF0EE09
:10230000663AE3EE203A8EED013A33EE824AC6EEAB
:10231000844ACEED024A7FF46DAF0025013509EE07
:10232000105A5FED609A5FED605A1FED5F2A1FED56
:102330005E1A5FED5E1A5FED5E0A1FED624AB8EE4F
:10234000C95AB7EE000A65EE297A35EE406A25EEE5
:10235000257AA7EE860A1FED6B9A67EE006A66EE95
:10236000A82AF4EEC22AF1EE10FA09DC22EEA23A13
:10237000E3EE011AE3EE210A22EEA09A29EE094AC1
:10238000F3EC014A80ED009AF7EE009A89EEA45A28
:10239000013500F11402F0EE696AE5EE096A00EE1B
:1023A000105A36EE843AF8EEC07A89EE839A5FEDE1
:1023B000833A1FED836A1FED822A1FED840A80EDA8
:1023C000015A27EEA31A77EEE91AF0EE695AE1EE08
:1023D000215A67EE860A80ED029A20EEA57A1FED5B
:1023E0008B6A67EE282AF4EEC22AF1EE10FA0FDCAF
:1023F00062EEA23A1FED904A5FED909A5FED904A2F
:10240000E3EE849AE3EEA94A22EEA40A20EE006AE3
:10241000B3EC015A82ED000AB7EE009A89EE051A74
:10242000102D02F11400F0EE497AE1EE007A82ED0F
:10243000011A77EE861AC9EE210AC2ED020A7FF46C
:102440006DAFDA48DA4BDB49C4F86803C4F870337F
:10245000C4F87813D84BD94DD94ADA48DA49C4F8C8
:10246000A033C4F88053C4F88823C4F89003C4F898
:10247000981307F5034007F5A0344FF440420021BC
:10248000C03003F0A5FDF6EE008A4FF00008CF4AF9
:10249000C4F8D863304600263146C4F8C423C4F8D3
:1024A000C0634FF40042C4EDF28AC4EDF38AC4F86D
:1024B000D08303F08DFDC8EE885A04F5826004F2E3
:1024C0000C41C4F8D463C24D07F5A23304F581660C
:1024D00004F204429FEDBF2ADFEDBF2A84EDFF8A9C
:1024E000C2EE086A05600D6004F21C4104F58360C9
:1024F000BDEE007AB0EE478AA5EEA28AC3ED008A4F
:10250000B5EEC08A04F58463C2ED008AF1EE10FADC
:10251000356004F2144585ED009AA6EEA27A80EDAE
:10252000009AC1F80080C3F8008000F1E180B4EEA9
:10253000E88AF1EE10FA40F3BB8038EE686AB0EE3C
:10254000005AA6EE459AB3EE001A66EE017AF5EE51
:10255000001A29EE279AC4EDF88A69EE210A84ED63
:10256000F99AC4EDFA0AC4EDF70AB6EE003AB4EEF1
:10257000C37AF1EE10FA40F3158137EE437AB3EEE9
:10258000004AF7EE009AF0EE003AF0EE694AE7EE04
:10259000634A04F5856E04F23C4227EE040AB5EE68
:1025A000006A20EE245A002525EE061A4FF07C58CA
:1025B0008A4E8B488B4984EDFD5A84EDFE1A84EDDA
:1025C000FB1AC4F8F08304F58A63CEF80060CEF8F5
:1025D0000400CEF81050CEF80C50CEF8081016605B
:1025E000506004F25C4604F25440DFF83CE2916033
:1025F0001561D56004F58C611D603560C0F800E0A0
:1026000004F58B6EDFF824C20D6004F28443CEF82B
:1026100000C004F2744204F2644C04F58E6604F5C2
:102620008F60CCF80050012115601D603560056099
:1026300004F27C45C5ED009A802284F8801407F1ED
:102640000C00002103F0C4FCC7ED089ABDEC048B1C
:10265000654C664A664B674E6748684D68493C6101
:10266000FA60BC65674A684C7E61BD61674E684D23
:10267000F961386467496848FC62FA64674C684AE3
:102680007B65BB66674BC7F82480C7F834803E6320
:102690003865FD63C7F88080C7F88480F965FC66FB
:1026A0003A67C7F87880C7F87C807B64BDE8F08122
:1026B000B0EE003AA8EE439ABBEE004A68EE049AE8
:1026C000F5EE003A69EE294AB5EEC07A24EEA30A87
:1026D000F1EE10FAC4EDF88AC4EDF94A84EDFA0A75
:1026E00084EDF70A5ED5B1EE477AB3EE004A48E7CB
:1026F000B0EE002AA8EE029AF3EE002A68EE625AC3
:10270000F5EE006A25EE898AC4EDF88AB5EEC07A46
:1027100068EE268AF1EE10FA84EDF98AC4EDFA8AA1
:10272000C4EDF78A7FF521AFB1EE477AB3EE004AE8
:1027300027E7C4EDC90AC4EDCA0A4FF07E55C4F8B4
:102740002C534FF07E50C4F830034FF07E51C4F844
:1027500034134FF07E52C4F838234FF07E58C4F83B
:102760003C834FF07E5EC4F840E34FF07E5CC4F8DB
:1027700044C34FF07E53C4F848334FF07E55C4F83D
:102780004C534FF07E50C4F850034FF07E51C4F8C4
:1027900054134FF07E52C4F85823B7EE000AB0EE3F
:1027A000401A1AE5BBEE004AEBE600BFCFCC4C3E28
:1027B000D1CCCC3D8988883DDBCCCC3CD4CC4C3DC5
:1027C00016D7233D8A88083DC10EEA3C0080BB45F0
:1027D0003333333F9A99993E0000004222BA003DBC
:1027E0000AD7233CCAAA7F3F48E13A3F48E1FA3E74
:1027F000CDCCCC3EC3F5283FA4707D3FAE47E13E33
:10280000C3F5683F52B85E3F5C8F423E7B142E3F5B
:102810008FC2F53C3333B33E5C8F423F9A99193FE8
:10282000CDCC4C3E9A99593FFA7EAA3EFA7E2A3F79
:10283000C4EDCA0A81E700BF2DE9F04F00F5A034CE
:10284000D0ED097AD4F88C3490ED220A9FED762AE7
:10285000B1EE087A67EE870A01EE103AFDEEE01A53
:10286000F8EEC12A11EE905A70EE626A2DED0A8BD5
:10287000F5EEC06A052DA8BF0525F1EE10FA48BF98
:10288000F1EE666A89B090ED058A0391F4EEC26AB2
:10289000B2EE086AF1EE10FA68EE068A80460192FE
:1028A00009DD03F0E7FBBDEEC00A10EE100AF8EEFA
:1028B000C02AC4F88C0403EE105AF8EEC33AB2EE04
:1028C000084AE3EE848A08F5004508F58046DFED06
:1028D000574A9FED57AADFED57AA38EEA25AB0EE3D
:1028E000000A65EE240A03F027FCDFED535A98ED49
:1028F000071AD8ED030A20EE259A08F18C00B0EEF5
:10290000490A0290FEF752FE98ED108A9FED4B7A2D
:10291000DFED4B0A9FED4B1A0096F7EE009A39EE69
:10292000C8BAF6EE00BA2BEE2BCAE8EE0AAA08F5F2
:10293000005108F5C04279EECCCAC1ED26AAC6ED19
:102940003AAAC2ED4EAAC5ED62AA81ED28CAC1ED30
:1029500027CA86ED3CCAC6ED3BCA82ED50CAC2ED1D
:102960004FCA85ED64CAC5ED63CAD8F84870C1F88E
:10297000BC70C6F80C71C2F85C71D5ED757AC5F8FB
:10298000AC7169EE276AD8ED018A059126EEAB6A33
:1029900004F25C4966EE281A04F58C6AC9ED001A47
:1029A00095ED762A049269EE022A04F2644B22EE37
:1029B000AB3A28EE810A63EE073A23EEA84A8AED85
:1029C000004AD5ED774A29EE245A65EE2B5AF3EEEC
:1029D0000EBA65EEA0AA2AEEA8BA8BED00BA03F0F3
:1029E0006FFB98ED0DCA009805996CEE0CCA39EE94
:1029F000C00A6CEEAB0A04F26C43F4EECA0AF1EEC4
:102A000010FA83ED000AD4F890341DDD41F26F76A0
:102A1000B34200F2C08604F274420027176001330B
:102A2000C4F8903419E000BF6666263FABAAAA3D01
:102A30000AD7233CA4707D3FDFCF02420326803FAC
:102A40009F8E7F3F959E6BC504F2744E4FF0000C35
:102A5000CEF800C0EF4A9342E1D998ED0E7ADFED4F
:102A6000EE6AD8ED161A9FEDED3ADFEDED3A049BD4
:102A700095EDEB6AD5EDE9AA68EE087A04F58E6B60
:102A80009BED004A98ED068A27EE072A67EEA62AF4
:102A900064EE214AE2EE032A08F5014C0CF1E40948
:102AA00064EE885AB3EE04AAE5EEA32ACA460026CD
:102AB000B4EE4A9AC1ED2E2AF1EE10FAC0ED422A88
:102AC000C3ED562A08F5034358BFB0EE49AA243394
:102AD00026EE265AC5ED6A2A85EDEAAA9E460136FB
:102AE00009EE106AF8EEC99AB7EE00BA69EE85BA37
:102AF00039EECBCA6AEE290AABEE8CBA9FEDDA7AD0
:102B00009FEDDC0ADFEDDCCA9FEDDC1A9FEDD86A91
:102B1000DFEDD62A60EE8B6A66EEAA7AF4EEC77A0B
:102B2000F1EE10FA09DC67EEA71AE1EE80CAA1EE19
:102B3000AC1A27EE816A66EE062ABEEC013A9FEDDA
:102B4000CA2A8AED006AF7EE005AC5EE833A0136CA
:102B50000AF11407F0EE65CAE3EE86CA04EE106AC5
:102B60007CEEA20AF8EEC44A85EEA01A24EE859AFD
:102B700074EEE59AF0EE65BAE9EE29BA2AEE24BAC7
:102B80009FEDBA3A9FEDBA4ACAED013A2BEE2BCA35
:102B90008AED021A2CEE2A0AB4EEC20AF1EE10FAFD
:102BA0000FDC60EE001A9FEDB37ADFEDB37ADFED54
:102BB000B36AE1EE877AE1EEA76A20EE264A24EEB8
:102BC000043AFEEC012A87ED004AB7EE006A86EE71
:102BD000222A102E07F1140AF0EE465AE2EE045AA9
:102BE00087ED012A75EE833AC6EE234AC7ED024A05
:102BF0007FF475AF95EDEC9ADFED8A9A8A4AC5F8B5
:102C0000B42329EE29BAB4EEC6BAF1EE10FA40F3B5
:102C1000E685DFED86BA85EDC9BA29EE2BCA2CEE22
:102C2000290AB4EEC60AF1EE10FA40F3DA85DFEDB8
:102C300080CA85EDCA0A69EE2C0A20EEA91AB4EE04
:102C4000C61AF1EE10FA40F3D0859FED7A7A85ED41
:102C5000CB1A69EE077A67EEA91AF4EEC61AF1EEFE
:102C600010FA40F3C685DFED746AC5EDCC1A29EE83
:102C7000264A24EE293AB4EEC63AF1EE10FA40F3B1
:102C8000BC85DFED6E2A85EDCD3A29EE222A62EE73
:102C9000295AF4EEC65AF1EE10FA40F3B285DFED90
:102CA000683AC5EDCE5A69EE234A24EEA9BAB4EECD
:102CB000C6BAF1EE10FA40F3A885DFED62BA85EDF1
:102CC000CFBA29EE2BCA2CEE290AB4EEC60AF1EED1
:102CD00010FA40F39E85DFED5CCA85EDD00A69EEFF
:102CE0002C0A60EEA99AF4EEC69AF1EE10FA40F3BF
:102CF00094859FED566A9FED4B1AC5EDD19A29EE4A
:102D0000067AF7EE001A67EE017AF4EEE17AF1EE58
:102D100010FA40F38685DFED4E6AC5EDD27A29EED2
:102D2000264A24EE013AB4EEE13AF1EE10FA40F30D
:102D30007C85DFED482A85EDD33A29EE222A62EE22
:102D4000015AF4EEE15AF1EE10FA40F37285DFED2C
:102D5000423AC5EDD45A69EE234A24EE81BAB4EE64
:102D6000E1BAF1EE10FA40F36885DFED3CBA85ED8B
:102D7000D5BA29EE2BCA2CEE010AB4EEE10AF1EE27
:102D800010FA40F35E85DFED36CA85EDD60A69EEAE
:102D90002C0A60EE819AF4EEE19AF1EE10FA40F31B
:102DA00054859FED306A29EE069A29EE011AB4EE99
:102DB000E11AF1EE10FAD8BFB0EE611AC5EDD79A5C
:102DC00085EDD81ACB461A460026013607EE106A62
:102DD000F8EEC71AF7EE006A65EE217A71EEE62A80
:102DE0002AEE212AE7EEA26ADFED1F3A9FED213A93
:102DF0009FED214ADFED215A9FED1DCA9FED1B0A71
:102E000022EE26BA6BEE2ABAF4EEE3BAF1EE10FA2D
:102E100040DC35E03F420F00A69B443CCDCC4C3D0E
:102E2000CDCCCC3DEC51383F9A99193FEC51783FCD
:102E3000D7A3703FC3F5683FAE47613F9A99593FAA
:102E400085EB513F713D4A3F5C8F423F48E13A3F3D
:102E50003333333F1E852B3F0AD7233FF6281C3FD1
:102E6000E27A143FCDCC0C3F6666E63E271735412B
:102E7000CF4F574049265F428FBA2141DB0F49406F
:102E80006BEEAB4AA4EE834AE4EE845A2BEEA5CA5D
:102E90002CEE0C0AF2EC019A5FED0D0A8BED00CAE4
:102EA000F7EE00CA8CEEA96A01360BF11407F0EEBA
:102EB0006C5AE6EE0C5A09EE106A75EE803AB8EEDE
:102EC000C91A8CEEA3BA25EE017A71EE6C1AF0EEF7
:102ED0006C2AE7EE212A6AEE017A1FED1C9A5FED5B
:102EE0001C9A8BED016A27EEA24A8BED02BA24EE02
:102EF0002A2AB4EEE02AF1EE10FA0FDC62EE024A62
:102F00001FED243A5FED24BA5FED246AE4EE83BA44
:102F1000E4EEAB6A62EE269A29EEA99AB2EC010AB7
:102F2000C7ED009AB7EE00CACCEE00CA102E07F12A
:102F3000140BF0EE4C0AECEEA90AC7ED01CA30EE14
:102F4000896A8CEE061A87ED021A7FF43EAFEC4ACE
:102F5000C5F8AC23CE460022013205EE102ADFED83
:102F6000E91ADFEDE9BA9FEDE92ADFEDE93ADFED95
:102F7000E95ADFEDE99A9FEDE99AB8EEC57AF7EEE6
:102F8000002A67EE217A37EE624A2AEE07BAE7EEA8
:102F9000842A2BEE223A63EE2A4AF4EEEB4AF1EE53
:102FA00010FA09DC64EEA46AE6EE823AE6EEA35A71
:102FB00064EEA59A29EEA99AF3EC01CA9FEDD10A15
:102FC0009FEDD17ACEED009AB7EE00CACCEE2C0A76
:102FD00001320EF1140CB0EE4CBAA0EEA9BA06EE16
:102FE000102A7BEE095AB8EEC61ACCEE25BA21EEAD
:102FF000005A71EE4C1AF0EE4C7AE5EE217A6AEE48
:10300000012ADFEDC6CA9FEDC40ACEED010A22EE09
:10301000A74ACEED02BA24EE2A2AB4EEC72AF1EE70
:1030200010FA0FDC62EE024ADFEDB83A9FEDB83AD3
:10303000DFEDB86AA4EEA33AE4EE836A22EE260A34
:1030400060EE00CAF3EC019A8CED000AB7EE009A2C
:1030500089EE29CA102A0CF1140EF0EE490AECEEA2
:10306000000A8CED01CA30EEAC6A89EE061A8CEDCE
:10307000021A7FF471AF05910090A949A948D8EDD3
:10308000040AA94BA94EAA4FC5F8B823C5F878037E
:10309000A84AC5F89C03C5F86813A748A749DFEDFF
:1030A000A8AAC5F86C33C5F87063A64BC5F874734D
:1030B000C5F87C23C5F88003A34AA448C5F8841347
:1030C000A34EA449A44FC5F898034FF07C5AC5F805
:1030D000A013C5F88833C5F89423B0EE6A0A85EDCD
:1030E000D99AC5F88C63C5F89073C5F8BCA303F0F2
:1030F00023F898ED085A9FED997A79EE450AB0EEDB
:1031000040AA9FED970A2AEE07BA03F015F8DFED03
:10311000951AD8ED110A00980599F4EEE10AF3EE3C
:10312000042AF1EE10FA60EE22BAC0F2948301266E
:1031300084F880649FED8C0AD8ED0A3A9FED8B3AB3
:103140009FED736A9FED719ADFED72AA98ED17AA51
:10315000D8ED131AD8ED147A9FED854A019EF0EE52
:10316000404AE3EE834A04F5856C04F23C4EF7EEE8
:1031700000CA8CEEA4CA08F5A23704F2044204F592
:10318000816A04F20C4B04F5826368EE8B9A68EE58
:10319000AB8A69EEA96A68EEA80AB0EE461AA6EEF6
:1031A000891AA0EE896AB0EE6A7AA6EE817AE0EE1C
:1031B00086AA69EE879A28EEAA9AB0EE6C2AF0EEFB
:1031C0006C5AA9EE8C2AE9EE0C5AA9EEA92AE9EE6E
:1031D000095A8CEE82BACCEEA5AADFED66BAD8ED1C
:1031E000153A9FED657ACCED009AB0EE6B3AF0EEB1
:1031F0006BCAF6EE002AAAEE223AE1EE80CAE7EEAA
:1032000084BAA3EE807A8CED01CA8CED02BA8EED01
:10321000009A8EED01CACEED02AA87ED008A82EDFA
:10322000003ACAED00CACBED00BA83ED007A002E59
:1032300000F07E82CDE9058008F5014C08F50347D2
:1032400008F5034E0022039E07910CF1CC0B07F109
:10325000A40AB1EE4CAA2F46F1EE698AB1EE498A72
:103260000EF1640C154696ED010ADFED436ADFEDC1
:10327000430AD6ED004A9FED42CADDF808E0DFEDD3
:1032800047BA009404F28448B5EEC00A98ED001ADB
:10329000F1EE10FA48BFB1EE400AB4EEC01A30EEBB
:1032A000416AF1EE10FA58BFF0EE606AA6EE261AF7
:1032B000744664EE8CCA88ED001AE0462046B0EEF3
:1032C0006C0AFDF7EFFF04F501541034A3457BEEC3
:1032D00080BAF3D1009C9FED313A04F58A6004F284
:1032E0005C4190ED002AD1ED005A04F2544304F5FC
:1032F0008C6272EE253AD3ED004AD2ED006A51E0BD
:103300008FC2F53D62BEBC3A6666E63E49265F4224
:103310008FBA2141DB0F4940CF4F57402717354126
:10332000CFCC4C3E8988883DABAAAA3ED1CCCC3DBF
:10333000CDCC4C3E2549123ED4CC4C3D398EE33D9C
:103340000000484316D7233DD9899D3DC10EEA3C74
:103350008C2EBA3DDBCCCC3C8A88083D0000704204
:103360000000484477BE7F3F3333333FCDCC144118
:103370006666263F9A99993ECDCC4C3E6F12033B30
:10338000CDCCCC3D9A99193EABAAAA3ECDCCCC3E31
:103390009A99593FCDCC4C3D000000380000000008
:1033A00000FEFF465FED095AC446F7EE001AB5EE7F
:1033B000005A04F2644004F58B6874EEA60AF4EE39
:1033C000E13A98ED006A6BEE857A90ED005AF1EEE5
:1033D00010FAB7EE000AA8BF73EEE13AF4EEC00AA5
:1033E00076EE051AF1EE10FAB0EE004AB7EE001ACA
:1033F000FFEE002AE3EE842A04F58A6E04F58D635D
:10340000A8BF70EEC00AF4EEC11AF1EE10FAB0EEE9
:1034100000CAFFEE00CAA8BF71EEC11AE0EE8CCA66
:1034200004F26C4204F25441CEED003AB0EE002AB0
:10343000FFEE003A32EE837AE1EE823AAAEB0C001C
:1034400004F58B6E77EE2CBA93ED000A5FED322A0D
:10345000D2ED004AC1ED000A33EEAB3AB0EE407A4D
:1034600093EE227A41076246CEED001AA4EE870A57
:103470001FED364A83ED000AE0EE257A4B462BD548
:10348000D9ED030A99ED01CAD9ED00CA99ED041AE4
:10349000D9ED02BAF0EE676AECEE606A09F1140346
:1034A000E0EEEC6A36EEC16A26EE2B5AECEE850AA7
:1034B000ACEEA01AF0EE601AECEE851AACEEA01A93
:1034C000C9ED031A89ED041AF2EC013A2CEE202A18
:1034D0009245A3EE824A54D0D3ED032A93ED013AEC
:1034E00093ED000AD3ED040AD3ED08BA93ED065A22
:1034F000D3ED024AD3ED055A93ED096A93ED072AFD
:10350000B0EE677AA3EE627A11462833F0EE671ABE
:10351000A2EEC07AE5EE6B1A37EE60CAEBEEE51A62
:103520006CEE24CA71EEC63AE0EE2C2AE0EE220AD6
:1035300023EE221AE0EE220AF0EE626A63EE822A9D
:10354000E0EE2C6AE5EEA2BA43ED076AA5EEAB6A9F
:10355000B0EE6B3A43ED060AA5EEA23AA5EEAB6AD1
:10356000F1EC010A03ED023AA0EE814A03ED016A93
:1035700092ED017A25EE2B0A0A1D9245A7EE004A2C
:10358000AAD1F6EE004A24EE244A5FED805A94F860
:103590008004E4EE257A78B904F58F6898ED00CAC6
:1035A00004F27C4E77EECCCADEED006AF0EE4C7A87
:1035B000E6EEAC7AC8ED007A04F5856292ED033A46
:1035C000D2ED046A94EDF35A5FED8F1A5FED8F2A06
:1035D00094EDF11AD4EDF43A94EDF24A5FED92BA1B
:1035E0005FED924A5FED92CAE3EE0A7A45F6FF710B
:1035F0000135E5EE212A0836E3EE287AB0EE665A68
:1036000077EEE60ABDEEC12A20EE8B7AB8EEC26AEA
:10361000A9EE873A31EE460AA9EE835AB0EE431A74
:10362000B0EE456AA9EE871AA9EE836A82ED031A05
:1036300082ED046A12EE103AD4F8C023D31A0B4478
:103640000B405818084007EB400807EB430EB8F949
:10365000C033BEF9C00302EE103A03EE100AF8EED2
:10366000C21AF8EEC37A61EEAB6A04F23C48E7EEA8
:10367000EB6AC448D8ED040A20EE260AB3EE0BCA62
:10368000A7EEAB0A07EB42030132F2EE025A70EEEC
:1036900063BA0A40E2EEAB3A47F6FF71D8ED032A6F
:1036A000A2EE8A5AA2EE885A35EE607A27EE2A1ADE
:1036B000B0EE415AA3EE845AB0EE414AA3EEA44ABA
:1036C000F0EE4C4AE5EE054A65EE255A25EE246AF1
:1036D000A5EE25CAE9EE012AC6EE0C1AE9EE220A89
:1036E000B0EE622AA9EE012AE9EE220A88ED032A49
:1036F000C8ED040AC4EDF43A61EEAC3ABDEEE3CA9B
:103700001CEE10EA8645B8BF86468E45A8BF8E4699
:10371000A3F8C0E3C4F8C023019A06ED024AAA4206
:1037200006ED014A7FF49FADDDE9058007993D462E
:10373000B4F88A74002F40D07E1EA4F88A64019FDA
:10374000039908F5A13C09EE107A3A460CF5EA70A7
:1037500004F22448FEF7E2F8B8EEC9BAD8ED00AAA0
:103760008AEE8B0AB5EE400AF1EE10FA00F1E7811D
:10377000B1EEC0AA04F58E64D4ED008A9FED888A6C
:103780007AEE68CAECEE888AC4ED008A09B0BDEC16
:103790000A8BBDE8F08F04F2744998ED021A99ED96
:1037A000007AA1EE207AB4EEE97AF1EE10FA80F216
:1037B000018189ED007AFFF74DB994F8882404F26D
:1037C0008449D9ED009A002A69D09FED6F9AF4EEF2
:1037D000C99AF1EE10FA48BF84F88874AFE785ED16
:1037E000C96A4FF07E56C5F828634FF07E57C5F87A
:1037F0002C734FF07E5BC5F830B34FF07E5CC5F89C
:1038000034C34FF07E5EC5F838E34FF07E5AC5F8FA
:103810003CA34FF07E52C5F840234FF07E56C5F8CA
:1038200044634FF07E57C5F848734FF07E5BC5F890
:103830004CB34FF07E5CC5F850C34FF07E5EC5F8C8
:1038400054E34FF07E5AC5F858A3F7EE009AB0EE55
:10385000691AFFF7B3BA4FF0000B9FED4C0A84F8DA
:1038600080B40591009002F067FCDFED497A20EE0C
:103870002A4A24EE272A22EE280A02F021FC79EEB9
:10388000405A04F27C43F5EEC05AF1EE10FA48BFFC
:10389000DFED475A00980599C3ED005A4AE49FEDC1
:1038A0003DBAF4EECB9AF1EE10FA7FF748AF98EDFF
:1038B0000B3ADFED3A7AD8ED0FAA9FED39AAD8ED91
:1038C0000C8A9FED388ADFED38CAB4EEE73AF1EEA4
:1038D00010FAE8EE88CA6AEE8A6A00F1F1809FED7C
:1038E000330AD8ED00BAC1ED296A7CEEC02AF7EEA2
:1038F000000A32EE807AB4EEE03A27EE2B1ABDEEE3
:10390000C15A15EE106A012EB8BF0126F1EE10FA69
:10391000C1F8AC6040F30281C1F8A820B0EE60CAE3
:10392000C1ED2C0AF0EE609A4FF0010B81F8B4B0B3
:10393000B0EE4C3AC0ED3D6AC0F8FC6000224FF09A
:10394000010A80ED40CAC0F8F82080F804A104986C
:10395000C0ED516AC0F84C61C0ED549AC0F84821DE
:1039600080F854A1C5F89C6185F8A4A1C5ED656AED
:1039700085ED683AC5F89821074DC4F89024C4F83D
:103980008854DCE60180FFFF0AD7233D0000A042F7
:10399000DB0FC9C08FC2F53D01010F009FAAAA3EEF
:1039A000CDCCCC3DEC51183F0AD7A33B0AD7233CE2
:1039B00000000000D8ED0B3A1FED086AD8ED0F6A41
:1039C0005FED091A98ED0C2A5FED0A2A1FED0A3AFD
:1039D00077EE697AF4EEC63AF1EE10FAA2EE223AE8
:1039E00066EEA1AAC9ED007A4BD5F0EE089A23EE57
:1039F000A9BA73EE4ABA98ED00CA1FED131AC1EDC9
:103A000029AAABEE2BAAF4EEC13A2AEE0C0AFDEE7F
:103A1000C0CA1CEE902A012AB8BF0122F1EE10FAAA
:103A2000C1F8AC2073D5F0EE410A81ED2C1AF0EE0E
:103A3000603A0026C1F8A8600127049E81F8B4709E
:103A40004FF0010A0027C0ED3DAAC0F8FC20C0EDF0
:103A5000400AC0F8F87080F804A1C6ED51AAC6F873
:103A60004C2186ED541AC6F8487186F854A1C5E970
:103A7000667285F8A4A1C5ED65AAC5ED683AFEF7A2
:103A8000E9BF33EE4A4AD8ED004AC1ED29AA34EE27
:103A90000AAAF4EEE93A2AEE245AFDEEC55A15EECA
:103AA000902A012AB8BF0122F1EE10FAC1F8AC2029
:103AB0002DDDF0EE690AC1ED2C9AB0EE691AB6E779
:103AC0001FED464A98ED002A5FED479AC1ED296A3D
:103AD000F0EE084A63EE245A3CEEC46AB4EEE93ACA
:103AE000A5EE864A64EE021AFDEEE13A13EE906A04
:103AF000012EB8BF0126F1EE10FAC1F8AC600DD569
:103B0000C1F8A820B0EE69CAC1ED2C9A0CE7C1ED4E
:103B10002C3AF0EE630AB0EE631A8AE7002301271D
:103B200081ED2C3AC1F8A83081F8B470B0EE43CAE8
:103B3000F0EE439AC0ED3D6AC0F8FC60FEE602F08C
:103B400059FBB0EE40AA15E62DE9F0419B4D8046A9
:103B50000F4601469A481646FDF7D2F998482B7F42
:103B60006A7F9849FCF7CAFC2846FDF72FFB002E18
:103B700000F0E381B1000A1F9108934C01314046E7
:103B800011F003024FEA860800EB860E23464FD061
:103B9000012A32D0022A18D0B0F900C0B0F90230A0
:103BA0009FED8A7A01EE103A07EE90CAF8EEC11A3C
:103BB000B8EEE70A21EE872A60EE070A0430C4ED6A
:103BC000000A84ED012A04F10803B0F90010B0F9ED
:103BD0000220DFED7E2A03EE101A04EE902AF8EEA2
:103BE000C33AB8EEE45A23EEA24A65EE225A83EDB8
:103BF000004AC3ED015A04300833B0F900C0B0F9EF
:103C000002109FED726A06EE90CA00EE101AB8EE2E
:103C1000E67AF8EEC00A67EE067A20EE861A0430DD
:103C20008645C3ED007A83ED011A03F1080356D0EF
:103C3000B0F90020B0F902C0B0F904109FED632A7A
:103C400001EE902A03EE10CAB0F90620B0F90CC0BC
:103C5000F8EEE12AB8EEC34A05EE101AB0F90810E2
:103C600062EE823A64EE024A06EE902A00EE101AE4
:103C7000B0F90A20B0F90E10C3ED003AF8EEC55ABB
:103C8000C3ED014A01EE902A03EE90CA04EE901AA9
:103C900025EE826AB8EEE67AF8EEC00AF8EEE12A7E
:103CA000B8EEE34AF8EEE45A67EE027A20EE821AA2
:103CB00022EE823A24EE025A103025EE822A864500
:103CC00083ED026AC3ED037A83ED041A83ED053AAE
:103CD00083ED065A83ED072A03F12003A8D13A4960
:103CE0003B4832463B4EFEF7A7FD002018F0040F7C
:103CF000DFED395A86F889043B4607EB080100F0EE
:103D0000BB8094ED007AD4ED017A9FED345AF3EE46
:103D10000B6AB2EE020AF0EE660AB0EE661AE7EE41
:103D2000070A3B1D0834A7EEA71A67EE001A67EED4
:103D3000802AB0EE663AA1EE873AE2EEA76AB5EEC7
:103D4000C07AF1EE10FA20EE874AF5EEC07A61EE05
:103D5000274ACCBFB0EE476AB1EE476AF1EE10FADF
:103D6000CCBFF0EE673AF1EE673A84EE032AC4EE78
:103D7000A67AB5EE406AF1EE10FAC8BFF0EE465AE8
:103D800022EE057A27EE856AFDEEC76AFDEEC67A59
:103D9000F4EE635AF1EE10FA16EE908A17EE90EAFE
:103DA00048BFF0EE635A8B42A7F80080A7F802E004
:103DB00062D1C5ED0A5ABDE8F08100BF14010020B0
:103DC0005001002080030020100000200000003877
:103DD00074030020744301200000000000FEFF4631
:103DE000F0EE663AB3EE0B2AB2EE023AB0EE427A49
:103DF000F0EE424AA6EEA67A3B1D0834E1EE014AF7
:103E000066EE832A21EE035AB0EE420AA2EEA60A1B
:103E1000A5EE012AB5EEC01A67EE260A24EE816AE5
:103E2000F1EE10FACCBFF0EE415AF1EE415AC0EE7D
:103E3000806A86EE021AF4EE673AF1EE10FAC8BF15
:103E4000F0EE637AF4EE657A5FED1C1AF1EE10FA8B
:103E500058BFF0EE675A26EEA14A61EE217ABDEE18
:103E6000C42AFDEEE77A12EE10CA17EE900A8B42D2
:103E7000A7F800C078809CD094ED000AD4ED010A28
:103E80001FED2A6AD4ED026AB3EE0B1AF2EE021AA3
:103E9000B0EE414AF0EE414AA0EE004A08341F1D40
:103EA00060EE212A20EEA12AE0EEA04AB0EE413ACF
:103EB000A2EE803AA2EE201AB5EEC00AF1EE10FA98
:103EC00024EE005AF5EEC00A24EEA07AD4BFF1EE3B
:103ED000407AF0EE407AF1EE10FAD4BFF1EE603A9B
:103EE000F0EE603A85EE030AC7EE010AF4EE657A59
:103EF000F1EE10FAD8BFF0EE657AF4EE637AF1EEE7
:103F000010FA48BFF0EE637A60EE861A60EE063A69
:103F1000BDEEE14AFDEEE35A14EE106A15EE902A6A
:103F2000F5EEC06AF1EE10FA94ED011A1A805E8087
:103F30003FF756AFF1EE663A54E707490748324675
:103F4000FEF77AFC064BDFED075A83F88964C5ED6E
:103F50000A5ABDE8F08100BF100000207403002061
:103F60007443012000000000704700BFFEE700BF5F
:103F7000FEE700BFFEE700BFFEE700BF704700BFDF
:103F8000704700BF704700BF10B53048304C84B058
:103F9000002100F05DFF0121022001F0FFFC012261
:103FA0004FF080732B4802A9CDE9022301F05CFA9F
:103FB000294A92E8030084E8030060782378A17816
:103FC00012890344E0780B442179034460790B445F
:103FD000A1790344E0790B44034483F47F4383F0E5
:103FE000FF018A4203D01D481D4A206062609FED98
:103FF0001D0A1D491D48FDF7C7FE15491C48FCF761
:10400000C7F81C4A1A4B1C480094A2F10C01FCF79B
:1040100079FF01210F4801F039FB0446211E18BF2A
:10402000012116484BF6803200F04AFC00B9FEE749
:10403000134A1248202100F08DFC00B9FEE70F481A
:10404000182104B0BDE8104000F002BD1048012066
:104050000848012000040240008000080000F0C26F
:104060000000704200803B47A060012074030020E4
:10407000500100208003002014010020144801207A
:10408000493B000808B5FFF77FFF0248FCF79AFD9F
:10409000FBE700BF500100202DE9F04301219DB056
:1040A00004464FF4800001F079FC0121084601F03C
:1040B00075FC01214FF48070002501F087FC4FF062
:1040C0000308FF2301A94548DFF8189101938DF8F3
:1040D0000B508DF8088001F0C7F941480F944FF458
:1040E00000524FF480614FF48076CDE915264FF4ED
:1040F000003301260827CDE90D50CDE912514FF4C8
:1041000000640DA9484617931494CDE91057CDE9E2
:104110001A551895199601F071F83146484601F084
:1041200099F84FF4403004904FF4706103A8069161
:104130000395059500F048FF0B9404F1804404F5C5
:104140008C3907A94846CDE909550795ADF8206097
:104150008DF8307000F00EFF324631464846072396
:1041600000F052FF022211464846072300F04CFFA0
:10417000424648460723042100F046FF4146484690
:104180000723042200F040FF05221146484607237A
:1041900000F03AFF062211464846072300F034FF9C
:1041A000072329461A46484600F02EFF07231946E2
:1041B0003A46484600F028FF3146484600F07EFF68
:1041C0003146484600F016FF3146484600F06CFF85
:1041D000484600F063FF1DB0BDE8F08300000240D8
:1041E0004C20014010640240014800F057BF00BF5E
:1041F0000020014030B5012183B0224C062001F09F
:10420000CDFB214B4FF4406269462046CDE90023A7
:1042100001F02AF9204604220A2101F043FA04227F
:1042200020460B2101F03EFA40F202254FF4704087
:10423000CDE90005154D6946204601F015F94023EA
:1042400069462846009301F00FF9204605220C210B
:1042500001F028FA204605220D2101F023FA20461C
:1042600005220F2101F01EFA204605220E2101F041
:1042700019FA28460522062101F014FA012003B09C
:1042800030BD00BF000402400202010000080240ED
:1042900070B5002084B014460E4601F079FB002072
:1042A00001F028FB4BF680339C420CD04AF6444088
:1042B000844267D0B4F5FA4F6AD038498C425BD05B
:1042C000002004B070BD03214FF4817001F008FBA1
:1042D000012001F00FFB3B2001F09CFB4FF48055C7
:1042E00048BB3B2001F096FB02463B201ABB01F085
:1042F00091FB03463B20F3B901F08CFB01463B20C8
:10430000C9B901F087FB02463B20A2B901F082FB4C
:1043100003463B207BB901F07DFB01463B2051B9B0
:1043200001F078FB02463B202AB901F073FB10B97B
:10433000083DD6D1C4E701214FF4804001F03AFB9B
:10434000174801F081FB75020020AEB26946ADF856
:104350000200ADF80400ADF80C0011480294ADF86D
:104360000060ADF8066001F0D7FB0E48694601F029
:1043700057FC012004B070BD042140F2891001F007
:10438000AFFAA5E7062140F20F1001F0A9FA9FE766
:1043900004214FF4D57001F0A3FA99E700770100EA
:1043A000003800400034004070B583480E464FF49A
:1043B0000031154601F078FA4FF4961400283AD0EF
:1043C0004FF400317C4801F06FFA03464FF400319E
:1043D000794883B301F068FA02464FF40031764819
:1043E0004AB301F061FA03464FF40031724813B347
:1043F00001F05AFA02464FF400316F48DAB101F089
:1044000053FA03464FF400316B48A3B101F04CFA64
:1044100002464FF4003168486AB101F045FA03469C
:104420004FF40031644833B101F03EFA18B1083C52
:10443000C6D1002070BD6048012101F0FFF95F493D
:104440005D4801F023FA4FF48054002831D15B49D4
:10445000594801F01BFA0246584957484ABB01F037
:1044600015FA0346554954481BBB01F00FFA0246A2
:1044700052495148EAB901F009FA03464F494E48FA
:10448000BBB901F003FA02464C494B488AB901F026
:10449000FDF90346494948485BB901F0F7F902467E
:1044A000464945482AB901F0F1F910B9083CCED186
:1044B000BFE741480022342101F0DCF940493E4881
:1044C00001F0E4F94FF48054002831D13C493A48D6
:1044D00001F0DCF903463A4937484BBB01F0D6F905
:1044E0000246374934481ABB01F0D0F90346344933
:1044F0003148EBB901F0CAF9024631492E48BAB940
:1045000001F0C4F903462E492B488BB901F0BEF9DE
:1045100002462B4928485AB901F0B8F90346284900
:1045200025482BB901F0B2F910B9083CCED180E78B
:10453000C5F3002141EA46041F48E1B201F0A4F9A5
:1045400020491D4801F0A2F94FF4805600283BD1C4
:104550001C49194801F09AF902461A491648002ADE
:1045600032D101F093F903461649134863BB01F0B9
:104570008DF904461349104834BB01F087F902460F
:1045800010490D4802BB01F081F903460D490A4864
:10459000D3B901F07BF904460A490748A4B901F0F0
:1045A00075F902460749044872B901F06FF958B924
:1045B000083ECDD13DE700BF005800400100030098
:1045C00082000700800007003E48E9B201F05CF974
:1045D0003D493C4801F05AF94FF48056002831D14A
:1045E0003949384801F052F90546374935484DBB3D
:1045F00001F04CF90346344932481BBB01F046F93F
:10460000044631492F48ECB901F040F902462E49E1
:104610002C48BAB901F03AF905462B4929488DB919
:1046200001F034F90346284926485BB901F02EF918
:104630000446254923482CB901F028F910B9083E51
:10464000CED1F6E621491F4801F02EF94FF4961617
:10465000002831D11D491B4801F026F902461B49AB
:1046600018484ABB01F020F90546184915481DBBFA
:1046700001F01AF9034615491248EBB901F014F993
:10468000044612490F48BCB901F00EF902460F4921
:104690000C488AB901F008F905460C4909485DB98A
:1046A00001F002F90346094906482BB901F0FCF86C
:1046B00010B9083ECED1BCE60248012101F0CCF889
:1046C000012070BD00580040800007000400001069
:1046D00070B515460E4600220F210446FFF764FE12
:1046E00008B9002070BD172200212046FFF75CFEAC
:1046F0000028F6D0172201212046FFF755FE00289A
:10470000EFD0002202212046FFF74EFE0028E8D01D
:10471000002203212046FFF747FE0028E1D01222A5
:1047200004212046FFF740FE0028DAD000220521B0
:104730002046FFF739FE0028D3D08EBB4222062147
:104740002046FFF731FE0028CBD042220721204629
:10475000FFF72AFE0028C4D04AF644439D421BD0EE
:1047600014DCB5F5FA5F19D0B5F5FA4F14BF002285
:10477000182208212046FFF717FE0028B1D0204656
:104780000022BDE870400921FFF70EBE0F4A954296
:104790000CBF1C220022ECE72022EAE70C22E8E70B
:1047A000622206212046FFF7FFFD002899D0022251
:1047B00007212046FFF7F8FD002892D04AF6444032
:1047C000291AB1FA81F56E097201D2E7007701006A
:1047D0002DE9F84F344E044601214FF4001001F04A
:1047E000DDF80021304600F035FD304600F070FC69
:1047F0002E4A002540234FF4806B4FF4006A4FF49B
:1048000000594FF480784FF400374FF6FE70C4E93A
:104810000753C4E90552C4E90905C4E91055C4E9C0
:104820001255C4E90CA9C4E90E87C4F82CB030466F
:1048300004F11401183E00F0E1FC2946304600F076
:1048400009FD304600F044FC194A6566C4E9165576
:10485000C4E91F55C4E921554FF6FE714FF0C065FC
:10486000C4E91452C4E91ABAC4E91D872166C4F820
:10487000709004F15001304600F0C0FC0D4C304601
:104880000122182100F0F0FC4FF4804323600A4815
:104890000122022101F0F2F901220848114601F03B
:1048A000EDF90120BDE8F88F706002400C3800403F
:1048B0000C34004000E100E00038004000340040CB
:1048C00070B51F4B84B01860002303614260017013
:1048D00004460E461546FFF78DFC10B9002004B0C3
:1048E00070BD01214FF4800001F064F8154800F01C
:1048F000EDFE154A1548164B00934FF48041CDE963
:104900000120ADF80C100F48694600F015FF0D4866
:10491000012100F085FF2A4631462046FFF7B8FC0A
:104920000028DBD02A4631462046FFF7D1FE00287A
:10493000D4D0204604B0BDE87040FFF749BF00BFA7
:10494000A0E00120005800400000FFBF3300000439
:10495000A0860100F8B517460E460122092104463B
:10496000FFF722FD054600283DD0602E53D823785E
:10497000002B3AD030482761818B4A0555D52F4806
:10498000828B53054DD5207804F18C0704F68C43B7
:10499000E761A365B70078B962684BF6803C624571
:1049A0003CD027498A4244D0B2F5FA4F04D106EBF5
:1049B00046008700032300E00123E3602148A6604E
:1049C00004F114016762276600F018FC1E4804F128
:1049D000500100F013FC1B48012100F03BFC1A4879
:1049E000012100F037FC2846F8BD18484FF48051EB
:1049F00000F04CFE0028F8D114484FF4805100F02C
:104A000045FE0028B6D111484FF4805100F03EFE1B
:104A10000028F1D0AEE700252846F8BDF7000223B4
:104A2000CBE7012101F0EEF8ADE7012101F0EAF852
:104A3000A5E737010423C0E70038004000340040F8
:104A4000007701007060024058600240000402409C
:104A500038B58CB2224600210546FFF7A5FC00B907
:104A600038BD224628460121BDE83840FFF79CBCEE
:104A70000369002B00F0E8802DE9F041D0E902261F
:104A800002FB01F106FB01F4A400054604F68C408C
:104A90008C3428442C44002E6CD05100012969D953
:104AA00000EB820EAEF1020EAEEB000CACF1020791
:104AB0004FEA570808F1010C770000EB46011CF0A3
:104AC000070680462CD0012E23D0022E1CD0032EA8
:104AD00015D0042E0ED0052E07D0062E40F0BB8038
:104AE000B1F9006028F8026F3944B1F900C028F824
:104AF00002CF3944B1F9006028F8026F3944B1F9A6
:104B000000C028F802CF3944B1F9006028F8026FDC
:104B10003944B1F900C028F802CFF045394429D012
:104B2000B1F90060A8F8026031F907C0A8F804C024
:104B300031F91760A8F8066001EB470101EB470661
:104B400031F907C0A8F808C031F91710A8F80A1001
:104B500036F907C0A8F80CC036F91710A8F80E10DF
:104B600006EB470606EB470136F907C028F810CFD9
:104B7000F045D5D121469847EA68002A62D0A86856
:104B800083009E1E04EB800702FB06430234C2EB47
:104B9000C2753A1B901E69004508013515F00706DD
:104BA00027D0012E1FD0022E19D0032E13D0042E91
:104BB0000DD0052E06D0062E47D137F9028DA3F869
:104BC00000800B4437F902CDA3F800C00B4437F93D
:104BD000022D1A800B4437F9020D18800B4437F967
:104BE000025D1D800B4437F9026D1E80BC420B44F0
:104BF00028D037F902ECA3F800E037F9048C23F849
:104C0000018037F9062C23F8112003EB410C37F90A
:104C1000083C2CF8013037F90A0C2CF811000CEB89
:104C2000410537F90C6C6E5237F90E2C25F811201E
:104C300037F9103D05EB410EBC422EF801300EEB6A
:104C40004103D6D1BDE8F081704737F902EDA3F8F2
:104C500000E00B44B1E7B1F900C028F802CF3944B5
:104C60003EE700BF08B5114B1A6812F0C05F05D1CE
:104C70000E4B1A6812F0A05F0DD108BD0C484FF022
:104C8000C051996000680121FFF7F2FE074B1A68D6
:104C900012F0A05FF1D006484FF0A0519960006873
:104CA000BDE808400021FFF7E3BE00BF00600240FE
:104CB000A0E00120F0B501218BB00646042000F0F1
:104CC0006DFE0121022000F069FE0121042000F0A8
:104CD00071FE304C3048302301276946CDE900375A
:104CE00000F0C2FB4FF4E0700225694600902046B8
:104CF000019500F0B9FB2A462046062100F0D2FCBF
:104D00002A462046072100F0CDFC2A4608212046ED
:104D100000F0C8FC02A8A4F5FE3401F013F8FF214E
:104D200000250391204602A9ADF8105002958DF898
:104D3000125000F0ADFF05A801F002F9174A0592E4
:104D400005A920460795ADF82050ADF8245001F094
:104D50001DF82046082101F0FBF805A9204601F0C6
:104D600059F82046082101F0FBF805A9204601F07A
:104D70009DF82046082101F0FFF83946204600F052
:104D8000E9FF3946204600F0F3FF3560B5800BB0EF
:104D9000F0BD00BF000402400008024060000100B6
:104DA00010B5174B0278DA634178596382789A63B9
:104DB0004179C3781031CAB2FF2B0446427115D035
:104DC0009A422CBF002201220E48102100F064FC00
:104DD0002079FF280CD062798242BDE81040094852
:104DE0002CBF00220122202100F056BC0122EBE75B
:104DF000BDE8104003480122202100F04DBC00BF57
:104E0000000800400008024010B5012182B00446AD
:104E1000022000F0C3FD02224FF08073044869466F
:104E2000CDE9002300F020FBFF20207002B010BD70
:104E30000004024038B5044602210448257800F0F9
:104E400025FC40EA4500207038BD00BF0004024048
:104E500001B970474FF400414FF0006000F080B896
:104E60003A483B4BD0F8882042F4700282B0C0F838
:104E700088201A68002142F001021A6099601A68BD
:104E8000A0F1BC2C22F08472ACF1F00022F480324C
:104E90001A605860186820F480221A60D960009166
:104EA0000191196841F48030186003E0009AB2F56E
:104EB000A04F0AD0264B1A6802F4003101910098E5
:104EC00001300090019B002BF0D02149086810F4BC
:104ED000003318BF01230193019A012A05D01B4911
:104EE0004FF000638B6002B07047194B19491A6C80
:104EF000194842F080521A640A6842F440420A603B
:104F0000996899609A6842F4004199609A6842F4FD
:104F1000A05199605860186840F080721A600C4B7C
:104F200019688A01FBD50D4840F205620260996854
:104F300021F0030098609A6842F002019960044BE6
:104F4000986800F00C02082AF9D1C8E700ED00E0EB
:104F5000003802400070004008544007003C024006
:104F600021F06041024B21F07F0202439A607047BA
:104F700000ED00E010B443680C790A6823F0407C2F
:104F80002CF4807343EA04241443D1E9032313432C
:104F90008A684460846813430A4A22404C79134368
:104FA00043EA44038360097DC46A01F1FF3C24F4B1
:104FB00070035FFA8CF243EA02515DF8044BC16260
:104FC000704700BFFDF7FFC042680368074910B48F
:104FD00013434C68064A2240D0E90240134323435E
:104FE00003435DF8044B4B60704700BF0023014052
:104FF000E030FCFF836819B143F001028260704722
:1050000023F0010181607047092910B52CD9A1F165
:105010000A0E0EEB4E0CC4684FF0070E03FA0CF3A9
:105020000EFA0CFC24EA0C042343C360062A0CD8B5
:1050300002F1FF3C446B0CEB8C021F23934024EAEB
:10504000030491402143416310BD0C2A1AD8A2F1F8
:10505000070C036B0CEB8C021F24944023EA04031F
:1050600091401943016310BD046901EB410E4FF0FB
:10507000070C0CFA0EFC03FA0EF324EA0C0423438B
:105080000361D3E70D3AC36A02EB82021F24944006
:1050900023EA040391401943C16210BD836843F0C1
:1050A00080418160704700BF836819B143F480720A
:1050B0008260704723F4807181607047836819B102
:1050C00043F400728260704723F40071816070477E
:1050D0000268364910B4002322F0010221248842DC
:1050E0000260036043608360C3600361446138D041
:1050F0002F4B98422ED02F4CA0423CD02E498842B4
:1051000040D02E4B984232D02D4CA04241D02D4958
:10511000884246D02C4B984217D02C4988423CD02C
:105120002B4B984216D02B4CA04224D02A498842BF
:1051300028D02A4B98421AD0294CA04229D029497C
:1051400088422ED0284B984208D14FF03D5243F868
:10515000AC2C03E04FF4746443F8204C5DF8044B2E
:10516000704722495DF8044B3D2088607047204815
:1051700043F8640CF2E74FF4741244F8382C5DF8ED
:10518000044B70474FF074635DF8044B41F8503C9A
:105190007047184944F87C1CE0E73D2041F8080CB2
:1051A000DCE7154C41F8944CD8E700BF1060024092
:1051B0002860024040600240586002407060024037
:1051C00088600240A0600240B86002401064024063
:1051D0002864024040640240586402407064024007
:1051E00088640240A0640240B8640240006002404B
:1051F0003D000020400F002000003D2030B40B682F
:10520000CC684A692343D1E9065413432B43D1E9BF
:10521000085223432B438C6A056813434A6B23438C
:105220008C6B134323430A4CCA6A2C4023430D6BF7
:10523000036043690C692A43D1E9011523F0070C87
:1052400042EA0C03436144608160C56030BC704732
:105250003F801CF0036819B143F0010202607047FF
:1052600023F00101016070470B060CD54369AAB118
:1052700043F08003802943610FD0026801F01E01D2
:10528000114301607047802907D0002AF5D10368D7
:1052900001F01E0123EA01020260704723F0800240
:1052A00080294261F3D17047044B1A69002A03DA5E
:1052B0000349044859605860704700BF003C0240F1
:1052C00023016745AB89EFCD014BD860704700BF24
:1052D000003C02400E4BDA68D20310D4D968C906EC
:1052E0000FD4DA68D20510D4D96811F0E00F0AD1D2
:1052F000DB6813F0020F0CBF092008207047012063
:10530000704706207047072070470220704700BF93
:10531000003C024000B583B009238DF80730FFF749
:10532000D9FF8DF807009DF80700012813D022E06F
:10533000D868C20524D4DA6812F0E00F22D1DB6805
:1053400013F0020F0CBF092208228DF807209DF8E8
:10535000071001290FD10C4BD968C8034FF0010287
:10536000F3D4DA68D106E3D506228DF807209DF83C
:1053700007100129EFD09DF8070003B05DF804FB8A
:105380000222E2E70722E0E7003C024070B5022972
:1053900094BF0C024FF440740546FFF7BBFF092889
:1053A00000D070BD0F4E336923F440703061316915
:1053B00021433161326922F0F804346133692B43AF
:1053C00043F002053561306940F480313161FFF707
:1053D000A1FF326922F002043461336923F0F80539
:1053E000356170BD003C024070B505460C46FFF7C4
:1053F00091FF092800D070BD0A4E336923F4407034
:105400003061316941F400723261336943F0010067
:1054100030612C60FFF77EFF356925F001043461AF
:1054200070BD00BF003C024070B505460C46FFF75A
:1054300071FF092800D070BD0A4E336923F4407013
:105440003061316941F480723261336943F00100A7
:1054500030612C80FFF75EFF356925F0010434616F
:1054600070BD00BF003C024000232DE9F0430C68F2
:105470009E4624E00EF1010C012606FA0CF939EAE9
:10548000040503F1020300F0CF800CF101070122B3
:10549000BA4032EA040603F1020500F08E800CF1F6
:1054A00002070122BA4032EA040603F1040541D0A2
:1054B000BCF10D0F0CF1030E03F106037BD00122AA
:1054C00002FA0EF838EA0405D4D1066803259D4097
:1054D00026EA0507076091F80490D0F800C009FAA1
:1054E00003F609F1FF37EA43012F46EA0C05056090
:1054F00014D88668324082604A7985689A402A4387
:105500008260476827EA0806466091F80680456889
:1055100008FA0EFC1FFA8CF22A434260C768032681
:105520009E4027EA0602C260CF79C5689F402F439C
:10553000C7609FE706684FF0030808FA05F926EAF6
:105540000906066091F804E06FEA0906D0F80090B9
:105550000EFA05F80EF1FF3E48EA0909BEF1010F07
:10556000C0F8009015D8D0F8088006EA08068660D2
:105570004E79D0F80890AE4046EA09068660466843
:1055800026EA020242608E794268BE40B7B21743F3
:105590004760C7680326AE4027EA0602C260CF799B
:1055A000C668AF403743BCF10D0FC7600CF1030E66
:1055B00003F1060383D1BDE8F083D0F80080032611
:1055C000AE4028EA0609C0F800906FEA060E0E7990
:1055D000D0F8009006FA05F8013E48EA0909012EC4
:1055E000C0F8009014D886680EEA060686604E79E8
:1055F000D0F808E0AE4046EA0E068660466826EA25
:10560000020242608E794268BE40B7B217434760DB
:10561000C7680326AE4027EA0602C260CF79C66893
:10562000AF403743C7603AE70268032707FA03F63B
:1056300022EA0605056091F804E00268F7430EF1DE
:10564000FF350EFA03F61643012D066012D8826864
:10565000174087604D7986689D4035438560426874
:1056600022EA090747608D79476805FA0CF6B2B25D
:105670003A434260C66803259D4026EA0502C2609F
:10568000CF79C6689F403743C760FEE60369194279
:1056900014BF0120002070470AB101837047418385
:1056A000704700BFCB0800EB830001F00701036ADD
:1056B00089004FF00F0C0CFA01FC23EA0C03036283
:1056C000036A8A401A430262704700BF08B5174B4D
:1056D000984206D0164988420FD0164A904218D0F8
:1056E00008BD01214FF4001000F07CF9BDE808402E
:1056F00000214FF4001000F075B901214FF4800033
:1057000000F070F9BDE8084000214FF4800000F07F
:1057100069B901214FF4000000F064F9BDE80840C8
:1057200000214FF4000000F05DB900BF00540040BC
:1057300000580040005C004070B5868884B026F0B8
:105740003F020446130468461E0C0D4600F0D8F8CC
:1057500030480299A0FB013246EA9243A380268892
:1057600026F0010003041E0C26802B682A4EB3424B
:105770004FEA924026D85B00B1FBF3F6B1B201309C
:10578000042938BF04212084A1832288A9886E8936
:1057900090B240F0010CA4F800C0B4F800E02EF480
:1057A000816323F0020231431004AE892D89030C7A
:1057B0002E430B4399B21FFA86FC2180A4F808C03F
:1057C00004B070BDB5F806C04BF6FF7EF4451AD0A4
:1057D00003EB830202EB8203B1FBF3F18EB246F4DA
:1057E000804ECEF30B0109B94EF0010E0B4E4FF473
:1057F000967303FB00F0A6FB0020820901324EF4F1
:1058000000412284C0E703EB4302B1FBF2FC1FFA24
:105810008CFEE6E783DE1B43A0860100D34D6210B9
:10582000038821B199B241F001020280704723F050
:1058300001010A04130C0380704700BF038821B1E3
:1058400099B241F480720280704723F480710A0497
:10585000130C0380704700BF038821B199B241F453
:1058600000720280704723F400710A04130C038055
:10587000704700BF1AB141F001010182704701F089
:10588000FE010182704700BF01827047838A028B4C
:1058900098B240EA02430B4023F07F42511AB1FA1A
:1058A00081F04009704700BF82B000230A0F0093C7
:1058B000019301900092009B21F07F4153B1019B25
:1058C00014330193019A13680B4214BF0120002086
:1058D00002B07047019A1832090C0192F2E700BF3A
:1058E000034B090741EA8010C3F88400704700BFEA
:1058F00000380240014B9866704700BF00004742E5
:105900001F4A936803F00C01042910B436D008290B
:105910001BD01C4B1A4A036094681B49C4F3031C38
:1059200011F80C40E34043609468C4F3822C11F8F2
:105930000C4023FA04F484609268C2F34234095D97
:105940005DF8044BCB40C36070475468536851689E
:1059500003F03F0C0A4B14F4800FC1F3881459680C
:1059600014BF0A4A074AB2FBFCF202FB04F4C1F37B
:10597000014201325300B4FBF3F3CBE7034BC9E719
:10598000003802400024F400006D000800127A0084
:10599000014BC3F85C01704700004742044A136B97
:1059A00011B103431363704723EA0000106370478B
:1059B00000380240044A136C11B10343136470476A
:1059C00023EA00001064704700380240044A536C18
:1059D00011B103435364704723EA000050647047D9
:1059E00000380240044A136A11B10343136270473E
:1059F00023EA00001062704700380240044A536AEC
:105A000011B103435362704723EA000050627047AC
:105A1000003802404309012B0BD00A49022B0CBF6E
:105A2000096F496F00F01F0021FA00F303F0010035
:105A30007047044A116800F01F0021FA00F303F0D8
:105A4000010070470038024008B52D4B98421BD02A
:105A50002C49884224D02C4A90422DD02B4B98427E
:105A600006D02B49884233D02A4A90423CD008BD08
:105A700001214FF40050FFF7C1FFBDE808400021AD
:105A80004FF40050FFF7BABF01214FF48050FFF7E9
:105A9000B5FFBDE8084000214FF48050FFF7AEBFCE
:105AA00001214FF48040FFF79DFFBDE80840002131
:105AB0004FF48040FFF796BF01214FF40040FFF7FD
:105AC00091FFBDE8084000214FF40040FFF78ABF76
:105AD00001214FF48010FFF791FFBDE8084000213D
