:020000040800F2
:1000000000000220C95E0008A93E0008AD3E0008BD
:10001000B13E0008B53E0008B93E000800000000EF
:10002000000000000000000000000000BD3E0008CD
:10003000C13E000800000000C53E00080D5F00083A
:100040000D5F00080D5F00080D5F00080D5F0008E0
:100050000D5F00080D5F00080D5F00080D5F0008D0
:100060000D5F00080D5F00080D5F00080D5F0008C0
:100070000D5F00080D5F0008A54B00080D5F00082C
:100080000D5F00080D5F00080D5F00080D5F0008A0
:100090000D5F00080D5F00080D5F00080D5F000890
:1000A0000D5F00080D5F00080D5F00080D5F000880
:1000B0000D5F00080D5F00080D5F00080D5F000870
:1000C0000D5F00080D5F00080D5F00080D5F000860
:1000D0000D5F00080D5F00080D5F00080D5F000850
:1000E0000D5F00080D5F00080D5F00080D5F000840
:1000F0000D5F00080D5F00080D5F00080D5F000830
:100100000D5F00080D5F00080D5F00080D5F00081F
:100110000D5F00080D5F00080D5F00080D5F00080F
:100120000D5F00080D5F00080D5F00080D5F0008FF
:100130000D5F00080D5F00080D5F00080D5F0008EF
:100140000D5F00080D5F00080D5F00080D5F0008DF
:100150000D5F00080D5F00080D5F00080D5F0008CF
:100160000D5F00080D5F00080D5F00080D5F0008BF
:100170000D5F00080D5F00080D5F00080D5F0008AF
:100180000D5F00080D5F0008000000000000000087
:100190002DE9F04F0446A5B0DFF854A3016303F046
:1001A0001BFF00224FF07C5322626262A262E26275
:1001B000A361E36123616361BAE80F000DF11009E7
:1001C000A9E80F009AE80F00DFF82883DFF828C3BA
:1001D000C34EDFF810B389E80F00B8E80F000DF147
:1001E000300EAEE80F0098E80F008EE80F00BCE874
:1001F0000F0014AF0FC79CE80F0087E80F000FCE69
:100200001CAD0FC596E80F0085E80F00DBF8000075
:10021000431C6FD0BBF800104DF67522914260D19F
:100220005B461E884DF67527BE4264D15D881F2D42
:1002300061D815F0070909D0E80809EBC00A0DF1EB
:10024000900808EB8A0E59684EF8801C1F894DF6FD
:1002500075260833B7429C464DD15A881F2A4AD882
:1002600012F0070B08D0D50858680BEBC50924AB72
:1002700003EB890A4AF8800CBCF808704DF6752823
:1002800047450CF1080336D159881F2933D811F09E
:10029000070E09D0CE080EEBC6020DF1900B0BEB4A
:1002A00082095D6849F8805CBCF810004DF675273E
:1002B000B8420CF110031ED159881F291BD811F028
:1002C000070A08D0CE085D680AEBC60224AB03EB30
:1002D000820848F8805C0CF11803B3F1016FA0D1DB
:1002E00009E004F081FFF32004F08EFF0221582082
:1002F00004F0ECFF7B4BC4F86431204603F014FF9C
:1003000000200390039F78498F4207D800BF039EC7
:10031000754A01360396039D9542F7D9B4F80CC08F
:10032000B4F80EE09FED717AB4F80890B4F80AA022
:1003300007EE90CA01EE10EAB8EE670AF8EE411A2D
:1003400060EE070A21EE872ACDED040A8DED0C2A16
:1003500002EE909A04EE10AA0DF1100BBBE80F000C
:10036000B8EE623AF8EE444A63EE073A24EE875A52
:10037000CDED143A8DED1C5A6063A163E2632364F2
:10038000BBE80F00C4ED0A0A84ED0B2AC4ED083A5D
:1003900084ED095A6064A164E26423652822002187
:1003A00004F1540005F0B4FDBBE80F00C4F8800070
:1003B000C4F88410C4F88820C4F88C30BBE80F005F
:1003C0004FF0FF37C4F89000C4F89410C4F8982098
:1003D000C4F89C3028220021E76704F1A00005F052
:1003E00097FDBBE80F00C4F8CC00C4F8D010C4F8E7
:1003F000D420C4F8D830BBE80F00C4F8C870C4F8E3
:10040000DC00C4F8E010C4F8E420C4F8E830282286
:10041000002104F1EC0005F07BFDBBE80F00C4F8FF
:100420001801C4F81C11C4F82021C4F82431BBE819
:100430000F00C4F81471C4F82801C4F82C11C4F8D2
:100440003021C4F834310021282204F59C7005F0D5
:100450005FFD6FF4B37004F28711C4F8607104F2A9
:1004600067130191001B00EB03085D1C00EB050EF8
:1004700041194746464608F1620B0EF1620908F140
:10048000660A08F1650E673701F1630868360022D5
:1004900040F2EE21DD1D5A70054444F82B109A708D
:1004A00044F82910DA7044F828101A7144F82E1014
:1004B0005A7144F82A109A7144F82710DA71019F92
:1004C00044F8261003F8082F6235BB4244F8251083
:1004D000C9D1C4F8082284F80C2225B0BDE8F08FF9
:1004E000486B000800000E089F860100000080375E
:1004F000A86B0008886B0008686B000830B5C589D8
:100500008489D0ED0B4AB0F806C0DFED793A90ED62
:100510000A4A90ED077AB0F800E0D0ED041ADFED5A
:10052000752AD0ED087A90ED053A90ED096AD0ED84
:10053000066A05EE105A05EE904AB8EE450A2DED12
:10054000028BB8EE652A08EE10CAF0EE640AD0EE0F
:10055000230A05894488DFED688AB0F80AC0B0EE46
:10056000441A92EE231A43EA420300EB8302B8EEE8
:10057000485AB0EE470A95EE230AE0EEA84A05EE87
:1005800090EA00EE905AA1EE284AB0F804E001EE9D
:10059000104AB8EE652AF8EE605AA0EE227AC46FCF
:1005A000B8EE415AB0EE618A01EE10CAB0EE670AA9
:1005B00092EE238AA34200EB030495EEA30AB0EE69
:1005C000432A05EE90EA95EE232AB8EE415AF0EE62
:1005D000460AB8EE651AD5EE230AB0EE615AF0EE7F
:1005E000661AD1EE231AE0EE287AA0EEA86AF0EEA1
:1005F000438AA8EE225AE2EE228AE1EEA26A80ED58
:100600000A4AC0ED0B4AC0ED087A80ED096AC0EDD8
:10061000066A80ED077A80ED045AC0ED058A92EDF6
:100620000D3AD2ED202A92ED338A92ED462A17D068
:100630004FF0000C82ED154AF0EE443A84F874C095
:10064000C36734EE630ADFED2D5AB4EEE50AF1EE2E
:1006500010FA40F331824FF0010E84F874E004E0A8
:1006600094F87450002D00F0668282ED0D4AD0F8A7
:10067000C850AB4218D04FF0000CC2ED284AB0EE83
:10068000644A84F8C0C0C0F8C83034EEC41ADFED44
:100690001B1AB4EEE11AF1EE10FA40F300824FF0AB
:1006A000010E84F8C0E004E094F8C050002D00F082
:1006B0003F82C2ED204AD0F81451AB4220D04FF017
:1006C000000CC2ED3B7AF0EE674A84F80CC1C0F82A
:1006D000143137EEE40ADFED095AB4EEE50AF1EE23
:1006E00010FA40F3CF814FF0010E84F80CE10CE0DA
:1006F000000080370AD7A33DD044D83C0AD7A33B9B
:1007000094F80C51002D00F01082C2ED337AD0F82D
:100710006051AB4200F0AF814FF0000C82ED4E6AA9
:10072000F0EE467A84F858C1C0F8603136EE674A78
:100730001FED0E1AB4EEC14AF1EE10FA40F3D0816B
:100740004FF0010E84F858E182ED466A7BB3D2ED9A
:100750000D3AD2ED204A92ED336A92ED460AF4EE5C
:10076000433AF1EE10FA05D00123002584F86831F0
:10077000C2F88851F4EE624AF1EE10FA06D04FF05A
:10078000010C002384F870C1C2F8A831B4EE486AA5
:10079000F1EE10FA05D00125002384F87851C2F853
:1007A000C831B4EE420AF1EE10FA40F0928100F244
:1007B000671200F2871E5578531C85B1121A6FF428
:1007C000B37C624400EB820240F2ED24D2F88851FF
:1007D000A54204D8D2F888410134C2F888415D7836
:1007E0005A1C8DB16FF4B374A3EB000CA44400EB5E
:1007F0008C0C40F2ED24DCF88851A54204D8DCF8DA
:1008000088410134CCF888419D7803F1020C85B110
:100810006FF4B374121A224400EB820240F2ED240A
:10082000D2F88851A54204D8D2F888410134C2F8E0
:100830008841DD78DA1C8DB16FF4B374ACEB000C39
:10084000A44400EB8C0C40F2ED24DCF88851A54266
:1008500004D8DCF888410134CCF888411D7903F1D3
:10086000040C85B16FF4B374121A224400EB8202B7
:1008700040F2ED24D2F88851A54204D8D2F888413C
:100880000134C2F888415D795A1D8DB16FF4B3749B
:10089000ACEB000CA44400EB8C0C40F2ED24DCF833
:1008A0008851A54204D8DCF888410134CCF888414D
:1008B0009D7903F1060C85B16FF4B374121A2244CA
:1008C00000EB820240F2ED24D2F88851A54204D810
:1008D000D2F888410134C2F88841DD79DA1D8DB142
:1008E000ACEB00036FF4B37C634400EB830340F292
:1008F000ED24D3F88851A54204D8D3F888410134B7
:10090000C3F8884172457FF456AFB6EE003A73EEF5
:10091000666AD0ED0D2AD0F8082236EEA22A0132FE
:10092000B5EEC02AF1EE10FA33EE477A73EE688A1C
:10093000C0F8082200F1F380B7EE008AB4EE482A2E
:10094000F1EE10FAC8BFB0EE482AD0ED205A81ED82
:10095000002A77EE257AF5EEC07AF1EE10FA00F172
:10096000DB80F7EE000AF4EE607AF1EE10FAC8BF11
:10097000F0EE607A90ED331AC1ED017AB5EEC01A4F
:10098000F1EE10FA00F1C580B7EE004AB4EE441A59
:10099000F1EE10FAC8BFB0EE441AD0ED461A81ED60
:1009A000021A78EEA14AF5EEC04AF1EE10FA00F113
:1009B000AD80F7EE003AF4EE634AF1EE10FAC8BFEC
:1009C000F0EE634A036BC1ED034A002B00F0958003
:1009D000D3ED006A93ED013AA5EE263A856BD0F887
:1009E00084E0D0F8D040C26BD0F81CC1D0F8D4302D
:1009F0000D61C1F814E0D0F88850D0F820E18C6186
:100A00000A62446C026CC1F81CC04D62D0F8DCC0B4
:100A1000D0F890508B62C1F82CE0D0F82831D0F893
:100A200048E0CA65CC63D0F89420D0F8E0400D646B
:100A3000C1F844C08B64C1F84CE00A6581ED1F3AEF
:100A40004C65BDEC028BD0F82C51D0F898E0D0F872
:100A50004CC0D0F8E430D0F83021D0F834418D6566
:100A6000C1F86CE08C67C1F868C0BDE830400B6726
:100A70004A6703F059BB94F85851002D52D082EDCB
:100A8000466A63E6DFED2D0AB4EEE00AF1EE10FAF5
:100A90007FF53DAE4FF0010E84F80CE135E6DFED59
:100AA000273AB4EEE31AF1EE10FA7FF504AE4FF0F8
:100AB000010E84F8C0E0FCE5DFED200AB4EEE00AA8
:100AC000F1EE10FA7FF5D3AD4FF0010E84F874E02B
:100AD000CBE5012584F880510024C2F8E84166E6A0
:100AE000DFED161AB4EEE14AF1EE10FA7FF52EAE04
:100AF0004FF0010E84F858E126E6B6EE006A36EEB5
:100B0000455A9FED0F0A25EE003A67E7DFED0D4AE3
:100B100058E79FED0C1A40E7DFED0A7A2AE79FEDD0
:100B2000092A12E7D2ED4E7A00E6D2ED3B4AD0E533
:100B300092ED284AA9E5D2ED153A82E50AD7A3BB82
:100B40000000F042000000002DE9F04F90F80C3258
:100B5000012B83B0044600F0A880022B00F08880AF
:100B6000002B40F0828000F2671600F287173146B2
:100B700048784B1C60B16FF4B3752D1B6A1802F1F5
:100B8000620940F2ED2A54F82900504500F2A18094
:100B90005A78591C62B16FF4B3752D1BEA1802F133
:100BA000620B40F2ED2854F82BC0C44500F291804E
:100BB0009A78981C62B16FF4B3752D1B6A1802F114
:100BC000620940F2ED2154F829A08A4500F28180A3
:100BD000DA78D91C5AB16FF4B3752D1B2A1802F1BB
:100BE000620B40F2ED2854F82BC0C44571D81A7935
:100BF000181D5AB16FF4B3752D1B6A1802F1620902
:100C000040F2ED2154F829A08A4562D85A79591D3D
:100C10005AB16FF4B3752D1B2A1802F1620B40F222
:100C2000ED2854F82BC0C44553D89A79981D5AB171
:100C30006FF4B3752D1B6A1802F1620940F2ED21C1
:100C400054F829A08A4544D8DA79D91D5AB16FF4ED
:100C5000B3731D1B2A1802F1620040F2ED2B54F809
:100C60002000584535D8B94282D103B0BDE8F08F95
:100C7000D0F80862D0F82072BE42F6D0D0F8140244
:100C8000D4F80832D4F81C12C4F82032043004F02E
:100C90004BFBD4F8102222444FF0000882F8688100
:100CA00084F80C8203B0BDE8F08FD0F80822D0F8A9
:100CB00020028242D9D0D4F80852C4F82052D4E994
:100CC000850104F031FB022184F80C1203B0BDE869
:100CD000F08FD4F8640100F10801B1F1016F2BD855
:100CE000D71002F00706022F04EB860E00F0C48036
:100CF000032F00F0BE80012F14BFDEF83470DEF841
:100D00008070C4F864114DF6752C4CEA0243C4E9B6
:100D10008420C4F81832C4F81C7204F065FAF32079
:100D200004F072FAD4F80822C4F82022012584F8CD
:100D30000C5203B0BDE8F08F04F056FAF32004F033
:100D400063FA0221582004F0C1FAB91B4C48C4F8D8
:100D5000640111F0070351D0012B42D0022B37D090
:100D6000032B2BD0042B20D0052B14D0062B09D01D
:100D7000A81962304FF0010840F2EE2206F8018F08
:100D800044F82020A9196231012340F2EE2006F830
:100D9000013F44F82100A91962314FF0010940F2E6
:100DA000EE2206F8019F44F82120AB19623301209E
:100DB00040F2EE2106F8010F44F82310AB1962331C
:100DC0004FF0010A40F2EE2206F801AF44F823206A
:100DD000A8196230012140F2EE2306F8011F44F801
:100DE00020304FF0010BA81906F801BF623040F225
:100DF000EE22BE4244F820203FF437AF0197711C29
:100E000005EB060EAF1905EB060C6B180EF1620B25
:100E1000A81907F1650E05EB0108AF190CF1660A78
:100E2000673703F1630C683008F16209012240F270
:100E3000EE23F11D7270294444F82B30B27044F84F
:100E40002930F27044F82C30327144F82E3072712F
:100E500044F82A30B27144F82730F271019F44F807
:100E6000203006F8082F6231BE4244F82130C6D146
:100E7000FBE6DEF8187144E7DEF8CC7041E700BF0E
:100E800000000E08704700BFF8B505460C461E4628
:100E9000174603F059FF681C03F0ACFE069BAC60DC
:100EA0000024C5E9037611486B616C83AC83EC8543
:100EB000022104F08BFB80B91027284603F05AFF6B
:100EC000013FFAD12978B1FA81F60122700985F83B
:100ED0002C20287685F83820F8BD2046224685F853
:100EE0002C40287685F83820F8BD00BF0004024069
:100EF00038B590F82C300269012BD2ED047A044603
:100F00004FD0D0ED0D6A37EEE60ABEEE007AB4EEB1
:100F1000C70AF1EE10FA07DC042040F6980C84F8BA
:100F20002C00A4F82EC038BDDFED210AB4EEE00A93
:100F3000F1EE10FAF0D5B3EE081AC1EE001A4569C9
:100F4000C5ED001A90ED0C2A61EEC22AC5ED012A0A
:100F500004F04AF9F32004F057F90221102004F0BC
:100F6000B5F92968134804F0DFF96968124804F0FC
:100F7000DBF92A786978AB7810481144EA7819448B
:100F80002B7911446A7919441144AA79ED791144F5
:100F9000294481F47F4181F0FF0104F0E5F9032049
:100FA000BBE70220C4ED0D7A84F82C0038BD00BFE9
:100FB000CDCC4CBD008000080480000808800008EB
:100FC000026A838C013210B502620BB1591E818412
:100FD000DFED727A90ED0A7AB4EEE77AF1EE10FA6C
:100FE00017DC047F002C4FD0417F002967D1846833
:100FF00004F5004E9EF8CDC1BCF1050F5FD8684BDB
:101000006849694C13F80C3011F80C1014F80CC036
:1010100003E04FF0000C6146FF2390F82CE0437092
:101020000EF1FF33817080F803C0032B6FD8DFE827
:1010300003F020140B020023FF2202714371BDE86C
:101040001040013003F04CBEFF23002202714371B7
:10105000BDE81040013003F043BE12F480730BD0A2
:10106000DC23FF2202714371BDE81040013003F020
:1010700037BE42F30022D3B2002202714371BDE8B1
:101080001040013003F02CBEC3689FED480AD3ED39
:10109000000A816820EE801A01F5004CFCEEC11AAE
:1010A0009CF8CC4111EE90EA631EAEF17401C9B216
:1010B000042B29D8DFE803F00824190F0B004FF0A8
:1010C000FF0C61466346A8E78C460023A5E70B4664
:1010D00000218C46A1E7364C8B00A4FB03344FF073
:1010E000000C0B46C4F3C70197E7314BC1EBC104B9
:1010F000A3FB04344FF0000C0B46C4F3C7018CE78C
:101100004FF0000C634688E78C460B4685E7C2F338
:101110000B0140F6FF74120548BF611A02EE101A67
:10112000DFED242A437FBAEEEA2A022B22EE223A8E
:10113000FCEEC33A13EE902A02F10D02D2B209D0AE
:10114000032B1DD0012B4FF0FF3118BF0021CBB274
:10115000002272E7C4689FED184AD4ED126AF4EEDB
:10116000C46AF1EE10FA3FF77BAFDFED144A22EECE
:10117000245AFCEEC55A15EE901A0B31CBB25CE73F
:10118000C4689FED0D6AD4ED1A7AF4EEC67AF1EEDA
:1011900010FA4FF00003C8BFFF224EE73333733F0E
:1011A000D86B0008D06B0008C86B00080000E6424E
:1011B000CDCCCCCC000018420AD7A33B000004429F
:1011C00038B5044603F0D6FD2278002A0CBF01256D
:1011D000002521D1207E94F82C3088B1002B55D0E9
:1011E00010461146013B012B35D9E28D002A3FD034
:1011F000501EE08525762046BDE83840FFF7E0BE6A
:101200000121002BEED1217701336383257620461F
:10121000BDE83840FFF7D4BE94F82C30207EABB93F
:101220000028E7D0608B2377B0F5967F04D2617FEA
:10123000013101F0030262774FF0000CA4F81AC0EC
:1012400025762046BDE83840FFF7BABE013B012BAA
:101250004FF00001C9D894F838308BB10028C9D0BC
:1012600021694FF0000C0A69226384F838C0C1E795
:1012700084F82C2025762046BDE83840FFF7A0BE34
:101280000029B7D02046FFF733FEB3E7638B4FF654
:10129000FF7E7345AED0B7E700F5005393ED027AB9
:1012A0001968D3ED015A93ED052AD3ED042AFDEE1A
:1012B000C76A70B416EE902A8C1A04F2FF75C5F353
:1012C0000A0606F2FF72C2F30A0400EB860C00EB7A
:1012D0008405DCED007A95ED006A93F82860F8EE5D
:1012E000E60A36EE671A77EE601A22EE255AE1EE2C
:1012F000217A2DED028BA2EEA75AF0EE404AC3ED03
:10130000017A002E40F0AF80DFED8F8A93ED0B3A2B
:10131000B5EEC03AF1EE10FA40F391808B4C8C4D53
:101320008C4A26689FED8C7ADFED8C7A9FED8C1AC3
:101330009FED8C8A93ED0E0ADFED8B2A9FED8B2AB1
:10134000D3ED0F0ADFED8A3A05FB062606EE106A9A
:10135000F8EE466AFFEE005A66EE871AB0EE004AD3
:10136000F0EE656AE1EE846A05FB0625256093EDE3
:101370000D6AD3ED111A66EEA77A26EE822AE6EE02
:10138000087A26EE818A9FED7B1A9FED7B6AC3ED7A
:101390000D7AA0EE228AA0EEA32A93ED100ADFEDCB
:1013A000770ADFED773A83ED0E8A66EE812A66EEE4
:1013B000A33AE0EE202A9FED731AD3ED120A9FEDB7
:1013C000720A83ED0F2A77EE887AE1EE813A66EEB3
:1013D000661A37EE821A06EE105AE0EE801A31EEE7
:1013E000220AF8EE460A70EE237A20EE877A37EE6C
:1013F000A10AE7EE045A93ED134A9FED641A93EDA8
:101400000C6ADFED637AC3ED102A70EE040A26EE53
:10141000254AE6EE810AB7EE001A31EE467A20EE52
:10142000A70ADFED5C5AC3ED113AA7EE004A66EE5B
:10143000A56AE3EE048AC3ED121AC3ED136A93EDB5
:10144000033AE3EE058A4C1C00EB8100B0EE450A3E
:1014500038EEA45ABDEC028BC4F30A0180ED005AA9
:1014600070BC19607047D3E9072C624503DB002488
:1014700083F8284048E700EE10CA04EE102AB8EEC0
:10148000C03AB8EEC48AD3ED097ADFED435AC8EE0C
:10149000038AF7EE003AB6EE007AF4EEC78A73EEEE
:1014A000E86AF1EE10FAF4EEE57A4CBF38EEA88A5D
:1014B00036EEA68AF1EE10FA30D49FED386AF4EEDB
:1014C000C67AF1EE10FA34D577EEE52AB0EE080AC6
:1014D00038EE663A62EE803AB0EE668AA3EE238A70
:1014E0001A4C1B4E2568DFED1C5AD3ED066A0132FB
:1014F000DA61184A06FB052500EE905AB8EE601A2C
:10150000B0EE006A61EE251AFFEE007AE1EE867A0F
:10151000256028EE268A68EE278AF7E6B7EE008A6D
:10152000B0EE084A76EEC88A27EE847AA8EE878A5B
:10153000D6E777EEC60AB0EE081A78EEC81A20EEA3
:10154000812AA1EE828ACBE7000000000000002083
:101550000D6619005FF36E3C0000802FBD66633D91
:1015600065C1993D4AB57F3F384A7E3F618B1D3E3C
:101570006210783FF8F79E3EAD6D8A3CF2D25D3F37
:101580008E6F083FCDCC0C3F38F842BF6744093F0F
:10159000AE47E13D9C6AED3D9FAAAA3EB0AA2A3F14
:1015A000F1EE087A21EE271A2DE9F041FDEEC11A7D
:1015B0009FEDCA2A11EE903A2DED028B052BA8BFA4
:1015C000052300F50045F4EEC20A0646F1EE10FAD6
:1015D00023EAE37088B0B0EE408A85F8450140F117
:1015E000DC804FF07E51002385F84431079106914D
:1015F000059104919DED040A95ED507A28EE003A8C
:10160000F3EE072AB4EE623AF1EE10FA48BFB0EEFC
:10161000623AC7EE037AF1EE000AF4EEE07AF1EEF8
:1016200010FA64D5F0EE607A9DED054A68EE044A42
:10163000B3EE075AF4EE454A06F50057F1EE10FAFC
:10164000C7ED027A48BFF0EE454A85ED520AC7EE73
:10165000248AB1EE006AF4EEC68AF1EE10FA5ED585
:10166000F0EE468ADDED065A28EE251AB3EE070A9B
:10167000B4EE401A06F58048F1EE10FAC8ED168A6D
:1016800048BFB0EE401A85ED534A87EE012AF1EECD
:10169000002AB4EEE22AF1EE10FA5AD5B0EE622A30
:1016A000DDED070A60EE883AF3EE078AF4EE683A59
:1016B00006F5C040F1EE10FA80ED2A2A48BFF0EEA0
:1016C000683AC5ED545AC7EE234AB1EE007AF4EEFB
:1016D000C74AF1EE10FA56D5F0EE474AC5ED3E4A3C
:1016E000C5ED550A08B0BDEC028BBDE8F081DFED19
:1016F0007C3AF4EEE37AF1EE10FA95DD9DED054AC1
:1017000068EE044A06F5005CF4EEE24AF1EE10FAE7
:10171000CCED023A85ED520A99D5C7EE228ADFED6B
:10172000706AF4EEE68AF1EE10FA9BDDDDED065A02
:1017300025EE881AF3EE071AB4EEE11A06F5804496
:10174000F1EE10FAC4ED166A85ED534A9DD587EE89
:10175000212A9FED633AB4EEC32AF1EE10FA9FDD21
:10176000DDED070A60EE883AB3EE074AF4EEC43ABC
:1017700006F5C042F1EE10FA82ED2A3AC5ED545A50
:10178000A1D5C7EE044A9FED568AF4EE484AF1EE21
:1017900010FAC8BFF0EE484AA0E79FED527AF4EE87
:1017A000C70AF1EE10FA1FD570EEC24A9FED4E5AED
:1017B00024EE856AF7EE008AB4EEE86A0122F1EEC3
:1017C00010FA85F8442177DD9FED481ADFED481ABD
:1017D0009FED482A8DED052A4FF07E500490CDED07
:1017E000061A8DED071A05E79FED430AF4EEC00ACD
:1017F000F1EE10FA22D5414C07014FF00C08E159E7
:101800004FF0020E0023CDE9011885F844E1009362
:10181000414404AF03916C46B846F4EC010ADFED95
:10182000383AB8EEE04AB0EE000A64EE230A04F05B
:1018300023FC4445A7EC010AEFD1DBE6DFED312ABA
:10184000F4EEE20AF1EE10FA26D49FED2F3AF4EE10
:10185000C30AF1EE10FA10D50101284C6758019720
:1018600004EB00180022D8F80430D8F808100293CE
:10187000042085F844010092CBE7204A010102EBE5
:1018800000145758A368E1680197052000220293CD
:1018900085F844010092BCE7184C010104EB001CE0
:1018A0006758DCF8043003220020CDE90173009072
:1018B00085F844210C21ACE7DFED146A66EE267A48
:1018C000F6EE005AB0EE682AF0EE681AA7EEE52AA6
:1018D000E7EEA51A37EEA81A7CE700BF8FC2F53CE9
:1018E00000C0FF44CDCCCC3E15F92C406F12833F95
:1018F0003789813F91ED7C3FCDCC0C3FE06B0008F8
:10190000ABAAAA3D3333333F9A99593FA69BC43CB7
:10191000D0ED167A90ED0E7ADFED176AD0ED0F1A42
:10192000DFED162A90ED0D1AD0ED0B0AD0ED123A2C
:1019300090ED134AD0ED144A90ED155A37EE670A30
:101940002DE9F043E0EE267A2DED048B90ED0C0AA4
:10195000C0ED167A61EEA29A002A00F03C829FED5B
:10196000092A541EF0EE422AD0E90032B1EE677A1D
:1019700001F1080E05E200BF0AD7A33C9A99193F6E
:101980000000704200000000000020420000FA4405
:1019900090ED039AD0ED078AD0ED085A90ED048AB5
:1019A00080ED029AD8EEA56A99EE086AB6EE003A82
:1019B00079EE035A38EE833A80ED036AC0ED076A88
:1019C000C0ED068A90ED106A1FED139A1FED138A81
:1019D00066EE098AF2EE046AE8EEA56A03F164078E
:1019E000C7F30D0502EB8508BDEEE66A03F170064C
:1019F00016EE101A19444F1CC7F30D0CC1F30D0954
:101A000002EB890102EB8C05D1ED005A95ED009AAD
:101A1000B8EEC66A79EE658A76EEC66AC6F30D063A
:101A2000E6EEA85A02EB8607C3F30D0903F2131C76
:101A300075EE885A02EB8905C8ED005A1EED029A30
:101A40005EED018A97ED006A79EE286ACCF30D0805
:101A500026EE809A02EB8801A5EE889A03F17206C1
:101A6000C6F30D0703F20529A7EE869A02EB870C51
:101A7000C9F30D0802EB8806A9EE076A013C0EF1D6
:101A8000080E85ED009A91ED008A1FED419AF0EE67
:101A9000466AE7EE886A03F21515C5F30D0703F2EF
:101AA0009331A6EE878A02EB870903F20725CCED76
:101AB000006AD6ED006A1FED4B6AA7EEA68AC1F355
:101AC0000D0602EB860CC5F30D07E8EE076A02EB84
:101AD000870803F2CB4689ED008ADCED005AE7EE79
:101AE000A56AC6F30D0943F2B53102EB890CC8EDC6
:101AF000006AD0ED108A28EE898AE6EE875A03F252
:101B00009537F0EE466AE8EE036A9CED003ABDEECA
:101B1000E66A16EE105A05EB030808F54E563636FF
:101B20008844C8F30D09C6F30D0502EB890C02EBDE
:101B300085089CED008A98ED009AF8EEC68A39EE89
:101B4000486A76EEE86AB0EE659AA6EE868AC7F332
:101B50000D0603F2EF6502EB860CA1EE089AC5F3C1
:101B60000D0902EB890703F2CD4639EE638AC6F30D
:101B70000D05E1EE883A03F62D2802EB8509C8F33E
:101B80000D0673EEE48A02EB8606E9EEA84A03F23C
:101B9000F16803F58355C8F30D08B0EE646AA3EE4F
:101BA000076A153502EB8808C5F30D05A7EE863ADE
:101BB00002EB850519448CED006AD7ED006AA7EEAB
:101BC000A63A03F62F2C03F5C257CCF30D0CE3EE27
:101BD000076A1737C1F30D0189ED003A96ED003A17
:101BE000E3EE076A02EB8C09C7F30D0602EB8607EA
:101BF000A7EEA63A03F583561736C8ED006A95EDB1
:101C0000009AA7EE893A03F5C2551935C6F30D08B7
:101C1000A3EE079AC5F30D0602EB880C89ED003A96
:101C200097ED008AA8EE079A02EB860903F5F157B3
:101C30001337A7EE898AC7F30D0502EB85088CEDF3
:101C4000009A89ED008A5EED048A38EE086A03F591
:101C5000FD5676EE686A0F36E6EEA08AC6F30D07EB
:101C600002EB870C03F5F1564EED048A98ED003A2D
:101C70009CED009AE1EE035A03F508551536273519
:101C800075EEC45AC6F30D07A1EEA54AC5F30D06BD
:101C900002EB870902EB860834EE458A03F5FD5C0A
:101CA000A9EE885A0CF1110703F51655C7F30D0676
:101CB000F0EE458AE7EE898A3F3502EB860703F5A9
:101CC000085CA8EE879A0CF1290603F54E5CC9ED75
:101CD000008A98ED003AA3EE079AC5F30D0902EBCE
:101CE000890803F53055A7EE893A3F3587ED009A0C
:101CF000D8ED006AA7EEA63AC6F30D0702EB8709F6
:101D0000C5F30D06E3EE076A02EB860803F51755E7
:101D100089ED003A98ED009AE9EE076A0135C5F3BE
:101D20000D070CF1330602EB8709C6F30D05A7EE8C
:101D3000A69A02EB850803F5315CC9ED006A98EDBF
:101D4000008AA7EE889A0CF10107C7F30D0602EB93
:101D50008105A9EE078A02EB8609611C89ED009ACC
:101D600085ED008A5EED035A78EE088AE6EE062AD3
:101D700038EEE53AA8EEA82AE3EE205A4EED035AD3
:101D800015D0591E45BF03F57F533F330B46194607
:101D9000DD0690ED026AD0ED066A01603FF4F8AD11
:101DA000B6EE008A76EE085A36EE883A0AE672EE09
:101DB000821AF6EE007A21EEA73ABDEC048BC0ED54
:101DC000123A80ED134AC0ED144A80ED155A80EDA9
:101DD000173ABDE8F0839FED013AEEE700000000FE
:101DE0002DE9F041F7EE007A2DED048BC7EE808AE5
:101DF00000F5004400F5025500F5214807460E465F
:101E0000243508F1E40880ED000AC0ED018AB0EE47
:101E1000408A84ED720AA5F500504FF4005200216B
:101E20001C3804F075F8002300224FF07C5CDFF8CA
:101E300018E4EB4845F81C2C0121C5E9002145F8C0
:101E4000183C45F814EC45F8100C45F80CCC45F856
:101E500008CC45F8043CAB602A732B63EB62AB62A1
:101E60006B622B62EB61AB6105F5015510354545A1
:101E7000D1D1DC4DC4F86853DB4DDC48DC49DD4A88
:101E8000C4F87053B7EE007ADB4DC4F8F031C4F8F3
:101E9000EC31C4F80432C4F80032C4F81832C4F883
:101EA0001432C4F82C32C4F82832C4F84032C4F8D2
:101EB0003C32C4F8E001C4F8F401C4F80802C4F8E4
:101EC0001C02C4F83002C4F84402C4F8E411C4F897
:101ED000F811C4F80C12C4F82012C4F83412C4F873
:101EE0004812C4EDE88A84EDD87AC4F8E821C4F831
:101EF000FC21C4F81022C4F82422C4F83822C4F803
:101F00004C22C4F85432C4F87853BC4DC4F8805302
:101F1000BB4DC4F85032C4F85802C4F85C12C4F87F
:101F20006832C4F86432C4F86C02C4F87012C4F8A1
:101F30007C32C4F87832C4F88002C4F88412C4F841
:101F40009032C4F88C32C4F89402C4F89812C4F8E1
:101F5000A432C4F8A032C4F8A802C4F8AC12C4F881
:101F6000B832C4F8B432C4F8BC02C4F8C0129FED51
:101F7000A56A9FEDA50AC4F86022C4F87422C4F8CB
:101F80008822C4F89C22C4F8B022C4F8C422C4F841
:101F90008853C4F8CC32D4EDEC5AC4F8C832A5EE5C
:101FA000860AC4F8D002C4F8D412F3EE046A60EED4
:101FB000260AC4F8E032F4EEC70AC4F8DC32C4F8EA
:101FC000E402C4F8E812C4F8F432C4F8F032C4F8F9
:101FD000F802C4F80C03C4F8FC128C48C4F81013BF
:101FE000C4F808338A49C4F80433C4F81C33C4F86D
:101FF0001833F1EE10FA874BC4F8B8C3C4F8D822EE
:10200000C4F8EC22C4F80023C4F81423C4F8A403D1
:10201000C4EDEB6AC4F89013C4F8983340F35485C8
:102020009FED7D1AC4EDC80A60EE011AF4EEC71ADE
:10203000F1EE10FA40F385859FED782AC4EDC91AB8
:1020400060EE022AF4EEC72AF1EE10FA40F3408562
:102050009FED733AC4EDCA2A60EE033AF4EEC73A34
:10206000F1EE10FA40F338859FED6E4AC4EDCB3A9D
:1020700060EE044AF4EEC74AF1EE10FA40F3308500
:10208000B3EE015A20EE059AC4EDCC4AB4EEC79ADD
:10209000F1EE10FA40F32885DFED639A84EDCD9AD6
:1020A00060EE297AF4EEC77AF1EE10FA40F320855B
:1020B0009FED5E6AC4EDCE7A60EE065AF4EEC75A22
:1020C000F1EE10FA40F31885DFED596AC4EDCF5AEE
:1020D00060EE260AF4EEC70AF1EE10FA40F310851E
:1020E0009FED541AC4EDD00A60EE011AB7EE007AE3
:1020F000F4EEC71AF1EE10FA40F30685B2EE0C2AA0
:1021000060EE022AC4EDD11AF4EEC72AF1EE10FAFD
:1021100040F3FE849FED483AC4EDD22A60EE033AC4
:10212000F4EEC73AF1EE10FA40F3F6849FED434A1D
:10213000C4EDD33A60EE044AF4EEC74AF1EE10FA69
:1021400040F3EE849FED3E5AC4EDD44A20EE059A4A
:10215000B4EEC79AF1EE10FA40F3E684DFED399A57
:1021600084EDD59A60EE295AF4EEC75AF1EE10FAD2
:1021700040F3DE84F2EE067A20EE270AB4EEC70AB8
:10218000F1EE10FAD8BFB0EE470A07F5034307F5A2
:1021900001402033E030C4EDD65A84EDD70A84469E
:1021A00098460022013206EE102ADFED286A9FEDE4
:1021B000283ADFED294A9FED2A2ADFED2A2ADFEDB2
:1021C0002A3A9FED240AF8EEC60AB7EE001A20EE6E
:1021D000A67A70EEC11A20EE834AA7EE211A45E0D6
:1021E00052B87E3FABAAAA3ECDCC4C3E22BA003DAF
:1021F0000AD7233CCAAA7F3F2549123E398EE33DC8
:102200008C2EBA3D3333333F9A99993E0000DC421D
:10221000D9899D3D8988883D34339B4166669641C6
:102220009A999141CDCC8C4133338341CDCC7C41C3
:10223000333373419A99694166665641CCCC4C411F
:10224000343343419A99394100004843000000006B
:102250000000DC42CF4F57406666E63E2717354107
:1022600049265F428FBA2141DB0F49401FED056AC5
:1022700024EE015A25EE289AB4EEE49AF1EE10FA13
:1022800009DC69EE099AE9EE822AE9EEA23A29EE22
:10229000230A20EE006AF8EC015A8CED000AF7EEF2
:1022A000000A80EEA51A01320CF1140EF0EE609ACD
:1022B000E1EE009A07EE902A39EE860AF8EEE71A68
:1022C00080EE806A5FED1F6A1FED1F2A5FED1E3AE8
:1022D0008CED011A21EEA67A71EEE02AB0EE604A8A
:1022E000A7EE224A21EE823A8CED026A23EE045ACE
:1022F0001FED262A5FED291A25EE289AB4EEE39AFF
:10230000F1EE10FA0FDC69EE096A5FED2B4A5FED22
:102310002B0A5FED2B5AE6EEA40AE6EEA05A69EE10
:10232000251A21EEA12AF8EC017ACEED001AB7EEBB
:10233000001A81EE277A102A0EF1140CF0EE412AD1
:10234000E7EE212A8EED017A32EE823A81EE034ADF
:102350008EED024A7FF426AF0546984600210131F2
:1023600003EE901A1FED479A5FED475A1FED462A7C
:102370005FED454A5FED450A5FED456A5FED4B2A2B
:102380001FED4A3AB8EEE35AF7EE009A25EE090A35
:1023900035EE696A65EE251AE0EE069A21EEA91A75
:1023A00061EE287AF4EEC27AF1EE10FA09DC27EE3B
:1023B000A77AE7EE240AE7EE206A67EEA62A22EE65
:1023C000A23AB8EC019AC5ED002AB7EE004A84EEB5
:1023D000095A013105F11402F0EE447AE5EE227A51
:1023E00009EE901A77EE832AB8EEE90A84EE223AD3
:1023F0005FED6A3A1FED6A6A5FED691A5FED6B9AED
:1024000085ED015A60EE230A70EE444AF0EE445A1C
:10241000E0EEA45A60EE066A85ED023A26EEA52AA1
:102420001FED720A22EE281AB4EEE11AF1EE10FA4C
:102430000FDC21EE019A1FED764A5FED763A1FED33
:10244000767AE9EE043AA9EE237A61EE079A29EE4C
:10245000A90AF8EC010AC2ED009AB7EE005A85EE1F
:10246000206A102902F11405F0EE454AE6EE294AE9
:1024700082ED016A74EE806AC5EE265AC2ED025AF8
:102480007FF46DAFE249E34AE34DC4F86413E349D6
:10249000C4F86C23C4F87453E14AE24DC4F87C13C9
:1024A000E149C4F88423C4F88C53E04AE04DC4F8F1
:1024B00094130821C4F89C23C4F8A853C4F8B41397
:1024C00080469E460022013201EE902A9FEDD91AE5
:1024D0009FEDD94A9FEDD90ADFEDD93A9FEDD99A00
:1024E000DFEDD99AB8EEE12AF7EE002A62EE017A22
:1024F00032EE623A22EE047AE7EE832ADFEDD31A57
:102500009FEDD32A27EE225A65EE280AF4EEC00A80
:10251000F1EE10FA09DC20EEA06AA6EE239AE6EEB0
:10252000099A60EEA91A21EEA12AFEEC015AC8ED23
:10253000001AF7EE006A86EEA51A013208F1140CB3
:10254000F0EE660AE1EE210A02EE902A30EE826A8F
:10255000F8EEE27AC6EE861ADFEDB64A9FEDB63A9D
:102560009FEDB60ADFEDB92A88ED011A67EEA43AAD
:1025700037EEE69AF0EE669AE3EE899A27EE834A02
:10258000C8ED021A24EE297A9FEDB13A27EE285AB7
:10259000B4EEC05AF1EE10FA0FDC65EE054A9FED7D
:1025A000A82ADFEDA86ADFEDA85AE4EE826AE4EE1D
:1025B000A65A65EE252A22EEA23AFEEC017ACCED6F
:1025C000002AB7EE001AC1EE273A102A0CF11408BF
:1025D000B0EE419AA3EEA29ACCED013A39EE034A4D
:1025E000C1EE049ACCED029A7FF46DAF994D9A49F1
:1025F0009A4AC4F8B053C4F82013994D9949C4F8C5
:102600002423C4F82853984A984DC4F82C139849A9
:10261000C4F83023C4F83453964A974DC4F838139D
:102620009649C4F83C23C4F84053954A954DC4F8E4
:1026300044139549C4F84823C4F84C53934A944D25
:10264000C4F850139349C4F85423C4F85853C4F839
:102650005C130022013200EE102ADFED760ADFED76
:10266000765A9FED763A9FED762ADFED764ADFEDDA
:10267000766A9FED769A9FED764AB8EEC05AB7EE2D
:10268000007A65EE201A35EE476A65EE252AA1EE3E
:10269000867A22EE871A61EE287AF4EEC37AF1EE9A
:1026A00010FA09DC67EEA73AE3EE824AE3EEA46A89
:1026B00027EEA69A29EE094AF3EC010A80ED009A6A
:1026C000F7EE009A89EEA05A013200F1140EF0EEF6
:1026D000697AE5EE097A07EE102A77EE843AF8EE89
:1026E000C71A89EEA39A9FED530A9FED536ADFED57
:1026F000532A9FED567A80ED015A21EE802A71EE21
:10270000E94AF0EE695AE2EE245A61EE866A80EDFB
:10271000029A26EEA53ADFED4E1A23EE281AB4EE01
:10272000E21AF1EE10FA0FDC21EE010A9FED444AA5
:10273000DFED449ADFED440AE0EE049AE0EE290A68
:1027400021EE207A67EE071AB3EC015A8EED007A7B
:10275000B7EE009A89EE056A102A0EF11400B0EE69
:10276000492AA6EE072A8EED016A72EE214AC9EEC9
:10277000246ACEED026A7FF46DAFF6EE008AC4F8EB
:10278000C0634FF480320021304603F0C1FB88EE75
:10279000883A414BC4F8F833C4F8F433C4F8F03342
:1027A00004F2044504F5816104F20C4304F58262ED
:1027B0000026002007F50448C4F8BC03DFED372AE3
:1027C0009FED371A84EDF98AC2EE885ABDEE007A81
:1027D000B0EE478AA3EE018AC4EDFA8AB5EEC08A4C
:1027E000F1EE10FAC4EDFB8A84EDFF9AA5EE817A32
:1027F00088ED009A2E600E601E60166000F1438125
:10280000B4EEE88AF1EE10FA40F31D814CE000BF0F
:10281000CFCC4C3ED1CCCC3D8988883DD4CC4C3DEE
:1028200016D7233D8A88083DC10EEA3CDBCCCC3C60
:102830009A99193EFBEDEB3A0000DC426666E63EF3
:1028400049265F428FBA2141DB0F4940CF4F5740A5
:10285000271735419A99193F67666641EF7C5F41BA
:1028600075935841FDA9514184C04A410BD743415A
:1028700092ED3C4119043641A01A2F4128312841DC
:10288000AE472141355E1A41BC741341458B0C4162
:10289000CBA10541A470FD403333333F9A99993E53
:1028A00000000042DB6FF5C678EE681AB0EE005A01
:1028B000A1EEC59AB3EE006A21EE862AF5EE004A33
:1028C00022EE099AC4EDF28A69EE246A84EDF39A45
:1028D000C4EDF46AC4EDF16AF6EE007AB4EEE77A7C
:1028E000F1EE10FA40F32A8137EE677AF3EE003A00
:1028F000F7EE009AB0EE004AB0EE690AA7EE440A7D
:102900004FF07C56C4F8D86367EE230AF5EE001A40
:1029100020EE805A07F5404825EE216A08F27C4EE9
:1029200084EDF56A97ED012A5FED224A86488749D2
:10293000874B84EDF75A04F21C4C08F5936200258E
:1029400084EDF86A22EE240ACCF80000CCF80410DA
:10295000CCF81050CCF80C50CCF80830CEF8185009
:10296000CEF81450CEF81050CEF80C50CEF80850D7
:10297000CEF80450CEF80050156003F041FB39EE5C
:10298000C09A08F29C4383ED009A04F5866371486F
:102990001D6004F23C43704A1D6004F23443002180
:1029A000186004F5886004F5876305601A6004F513
:1029B000896004F2444204F24C431560056004F55A
:1029C0008A6204F254401D60166008F58E6306604A
:1029D00008F2A442A4F8581408F594640120256074
:1029E0001D60156008F59565C5ED009A802288F890
:1029F000AC0407F1080003F08BFAC7ED079AC7EDA6
:102A00001D9AC7ED1E9ABDEC048B544B5449554A90
:102A1000554D564C5648B9607A615649564A3D65FF
:102A2000FB64564D7B66564B3E623E61BC64B861AA
:102A3000B9627A643E66BC663D64BE63FE633B6316
:102A4000FE60BDE8F081F0EE007AA8EE679AFBEE3A
:102A5000003A28EE234AF5EE009A24EE090AB5EE74
:102A6000C07A60EE290AF1EE10FAC4EDF28A84ED24
:102A7000F30AC4EDF40AC4EDF10A5FD5B1EE477A6A
:102A8000F3EE003A34E7F0EE002AA8EE229AB3EE15
:102A9000003A68EE435AB5EE001A25EE898AC4ED75
:102AA000F28AB5EEC07A68EE018AF1EE10FA84ED92
:102AB000F38AC4EDF48AC4EDF18A7FF50DAFB1EE6F
:102AC000477AF3EE003A13E784EDC87A84EDC97AC9
:102AD0004FF07E52C4F828234FF07E55C4F82C5393
:102AE0004FF07E50C4F830034FF07E51C4F83413D9
:102AF0004FF07E58C4F838834FF07E5EC4F83CE354
:102B00004FF07E5CC4F840C34FF07E53C4F84433AA
:102B10004FF07E52C4F848234FF07E55C4F84C5312
:102B20004FF07E50C4F850034FF07E51C4F8541358
:102B3000F7EE005AB0EE650AFFF727BBFBEE003A4E
:102B4000D6E684EDC97AC3E722BA003D0AD7233C12
:102B5000CAAA7F3FFA7EAA3EFA7E2A3FCDCCCC3E5F
:102B600048E1FA3E48E13A3FAE47E13E9A99193FC3
:102B7000C3F5683FA4707D3F52B85E3FCDCC4C3E5C
:102B80009A99593F2DE9F04F00F54046D0ED047A6F
:102B9000D6F8B43490ED210A9FEDF22AB1EE087A0E
:102BA00067EE870A01EE103AFDEEE01AF8EEC12A50
:102BB00011EE904A70EE626A2DED0A8BF5EEC06A56
:102BC000052CA8BF0524F1EE10FA48BFF1EE666AA5
:102BD00085B090ED088A0291F4EEC26AB2EE086AFE
:102BE000F1EE10FA68EE068A0546009209DD03F060
:102BF000E1F9BDEEC00A10EE100AF8EEC02AC6F8E0
:102C0000B40403EE104AF8EEC33AB2EE084AE3EE1B
:102C1000848ADFEDD54A38EEA25AB0EE000A65EE9E
:102C2000240A03F029FADFEDD15A95ED061AD5ED05
:102C3000020A20EE25BA05F18800B0EE4B0A019099
:102C4000FEF7AEFCD5ED0AAAB6EE009AF4EEC9AADC
:102C5000F1EE10FA40F1C3857AEEAA0AB7EE007AD7
:102C60009FEDC38ADFEDD36A9FEDC2CAB0EE471A6B
:102C7000A0EEC81AA0EEA6CA61EE097A77EE67CA7E
:102C800005F5004405F5005905F5804805F5C047F0
:102C900089ED25CA88ED39CA87ED4DCA84ED61CA30
:102CA000C9ED277AC9ED26CAC8ED3B7AC8ED3ACA04
:102CB000C7ED4F7AC7ED4ECAC4ED637AC4ED62CA60
:102CC000E96AC9F8B810C8F80811C7F8581194EDA6
:102CD000740AC4F8A8116BEE002AB6EE006A95EDEE
:102CE000019ADFEDA51ADFEDA58A9FEDA52A9FEDDC
:102CF000B18A22EE863A04F23C4263EE093A04F5C8
:102D0000886AC2ED003A94ED754A6BEE044A04F20B
:102D1000444B24EE865A29EE020A65EE215A65EEEE
:102D2000899ACAED009A94ED76AA6BEE0ABA04F27B
:102D30004C4A2BEE86CA6CEE28CAF7EE008A6CEE7F
:102D4000897ACBED007A03F05BF9D5ED030A38EE12
:102D5000C07AF4EEC80A06F58F63F1EE10FA83ED3F
:102D6000007AACBF0123002384F86434B1EE040A76
:102D7000039303F081F904F25C4104F58C60D1ED1A
:102D8000001A90ED002A9FED7F1ADFED7F0AB4F85C
:102D90005824039B60EE016A32EE610A29EE266A2E
:102DA000E0EE201A013292B24A2A71EEA82AC1ED51
:102DB000001A26EE22AA8AED00AA00F2DC84A4F80A
:102DC0005824D5ED0D8ADFED710A95ED161A9FEDA9
:102DD0007E6AD5ED14BADFED831A94EDEA0AD4EDDC
:102DE000E82A6AEEAAAA06F59460D0ED003A28EE29
:102DF000A87A6AEEA06A23EE814AE7EE066A05F534
:102E00000342203264EE2B4AB3EE042AE4EEA16AB8
:102E10000021B4EE42BAC9ED2D6AF1EE10FA05F5C3
:102E20000149C8ED416A48BFB0EE42BA09F1E00875
:102E300020EE203AC7ED556AC446C4ED696A84EDB8
:102E4000E9BA013105EE101AF8EEC59AB7EE00CADC
:102E500069EE83CA39EECC8A6BEE297AACEE88CA69
:102E6000DFED4BAADFED528ADFED555ADFED530A55
:102E70009FED486ADFED481A27EE8C1A61EE226A50
:102E8000F4EEEA6AF1EE10FA09DC26EEA67AE7EE35
:102E9000285AE7EE250A26EEA06A66EE061AF2EC3C
:102EA000013A9FED3B2A8CED006AB7EE000AC0EEB6
:102EB000234A01310CF11407F0EE405AE4EE865A31
:102EC00004EE101A75EEA10AB8EEC45AC0EE20AA9C
:102ED00065EE039A35EE40CAB0EE408AA9EE8C8AC0
:102EE0006BEE05CA9FED2C4ADFED2A3ACCED014A84
:102EF0006CEE888ACCED02AA68EEA27AF4EEC27A71
:102F0000F1EE10FA0FDC27EEA76A9FED291ADFED2C
:102F10002C6A9FED2A7AE6EE016AA6EE267A67EE23
:102F2000873A23EEA34AF2EC011AC7ED003AB7EE56
:102F300000CA8CEE210A102907F1140CB0EE4C2ABD
:102F4000A0EE232A87ED010A72EE044A8CEE245A81
:102F500087ED025A7FF475AF95ED058A9FED0FBAA4
:102F6000039347E06666263FABAAAA3DDFCF024245
:102F7000EC51783FA4707D3F0326803F9F8E7F3FBA
:102F8000959E6BC5000048420AD7A33CA69B443CD3
:102F90006666E63ECF4F574027173541000048434D
:102FA00077BE7F3F000070423333333FCDCC1441B6
:102FB00049265F420AD7A33B00803B45DB0F4940CF
:102FC0008FBA2141CDCC4C3D9A99193ECDCC4C3E87
:102FD000D7A3303F9A99993E3333733F6F12833AA8
:102FE000CDCCCC3CCDCCCC3D0AD7233DABAAAA3E20
:102FF00000000000F0EE480AB0EE4B0A03F03CF887
:10300000D5ED0C0A5FED1A2A1FED1A3A039BF4EE78
:10301000E20AF1EE10FA60EE039AC0F23984012060
:1030200086F8AC045FED20AAD5ED090A1FED211A40
:103030005FED213A1FED1E4A5FED201A1FED230AB6
:1030400095ED15BA5FED244A5FED17CA95ED182A84
:10305000D5ED175AF0EE6A6AE0EE816A06F26C4E20
:1030600006F5966AB7EE007A29EE29CA87EE269A07
:1030700005F5044904F21C4205F503412CEE0C6AE7
:10308000B0EE475AA6EE234ADEED006A5FED330A42
:103090005FED333AE6EE041AF4EEC0BA6CEE218A24
:1030A000F1EE10FAA8EE895AB5EE003AA8EEA85A49
:1030B000B0EE661AC7EE059AC8BFF0EE47CA9BEE9F
:1030C000241A95ED137A1FED3FBA95ED11CA1FED45
:1030D000406A5FED401AD5ED124AF7EE0C2AF0EE89
:1030E000437AE2EE227AA7EE2ABADAED00AA1FEDC1
:1030F000462A3CEEEA4AF4EE607AF1EE10FAE4EE8B
:1031000000AAE5EE833A99ED000AC2ED008AE1EEED
:10311000206AECEE061A48BFF0EE607A64EE82CACE
:10312000B4EE670AF1EE10FA82ED019AC2ED029A4E
:10313000CEED006ACAED00AA01F1BC0EC4EDFABAE8
:10314000C4EDFB3AC4EDFC1AC4EDFDCA84EDFEBA31
:1031500040F0C0830098002800F0E182029ACDF888
:103160000CE005F5014C0CF1C80902F1040A4FF01E
:10317000000B04F58A6704F5896E04F2544197ED5B
:1031800000CADEED000AD1ED007A1FED6C1A1AEDCF
:10319000015A3AEE20AA37EECC6AF7EE005AB4EEA6
:1031A000E5AAA6EE01CA04F58960F1EE10FAA8BFFF
:1031B0003AEE65AA80ED00AA87ED00CA002B00F068
:1031C0008582D0ED003AB4EEE3CAB7EE00BAFFEE66
:1031D000001AF1EE10FAC8BFF0EE4B1AD5ED074A0F
:1031E0001FED817A5FED816A5FED7FCA019F24EE5A
:1031F000872A65EE26AAE2EE21AA384607F501578E
:10320000B0EE6A0AFEF748F810374F457CEE80CAE8
:10321000F3D104F23C4304F5866C93ED004A9CED37
:10322000003A1FED8D5A04F5886204F2344174EEC1
:10323000032A92ED001A91ED006AD4F8B4131FED41
:10324000963AF7EE00BA04F5876004F24443F4EED0
:10325000EB2A71EE061AD0ED004A93ED007AF1EEFA
:1032600010FAB5EE000AB7EE00CAA8BF72EEEB2A5C
:103270002CEE80AAF4EECC1A74EE87CAF1EE10FAA6
:10328000F0EE005AB7EE002AFFEE000AE2EEA50AC1
:1032900006F2744C04F5866EA8BF71EECC1AF4EEFB
:1032A000C2CAF1EE10FAF0EE003ABFEE00BAA8BFC3
:1032B0007CEEC2CAA1EEA3BA04F2344704F58762D9
:1032C000F0EE006ABFEE004AACEEA64A002970EEAE
:1032D000857A9CED007A1FEDBB0ACEED002A7BEECD
:1032E00027AAF0EE472A74EE2ABA06F58F6EDBEEB7
:1032F000802ADEED005AC7ED001AA5EEA27AC2EDD3
:1033000000CAA7EE03AA8CED007A40F3318205F5DE
:103310000342603202EB8100C9071FEDCB1A47461A
:103320002BD598ED03CAD8ED017A98ED006AD8ED57
:10333000043A98ED025AF0EE4A1AE7EECC1A08F178
:103340001407ECEE461A31EEE3BA6BEE054AA6EE30
:1033500024CAE6EE0C3AB0EE4C2AA6EE242AE6EE9B
:103360000C3A88ED032AC8ED043AF2EC01CA67EE84
:103370008CAA9042ACEEAA1A54D097ED030AD7ED6E
:1033800001BA97ED003AD7ED087AD7ED061AD7EDD6
:10339000050AD7ED046A97ED024AD7ED093A97ED91
:1033A00007BAF0EE4A2AEBEEC02A13462837B0EEF1
:1033B0004A5AE0EE432AA1EEE75A72EEE65AA7EE29
:1033C000E05A25EE847A75EE634AA3EE070A24EEEE
:1033D0008B2AE3EE006AE0EE827AB0EE40CAE3EEBA
:1033E000006AA3EE07CAE0EEA73AF0EE67AA07ED7F
:1033F00007CA47ED066AE0EE82AAE0EEA73A2BEE96
:10340000806AB3EC010A47ED02AAA0EE061A47ED66
:10341000013AD2ED01BA61EEA7CA1A1D9042ABEE95
:10342000AC1AAAD1B6EE003A61EE030A95ED191A6C
:1034300096F8AC14F0EE4A7AE1EE207A79B906F209
:10344000A44C9CED00AA06F5956E77EECA2ADEED37
:10345000006AF0EE4A7AE6EEA27ACCED007A9FEDB1
:10346000E84AB4EEC48AF1EE10FAC0F23581E54FB5
:10347000E5493B68E54ADFEDE6CA9FEDE61ADFED78
:10348000E63ADFEDE6BA9FEDE6BA9FEDE64ADFEDFC
:10349000E6AA9FEDE65A9FEDE6AADFEDE65A9FED1C
:1034A000E60A9FEDE66ADFEDE60A95ED1C3ADFEDF0
:1034B000E51ADFEDE54A9FEDE52ADFEDE52A01FBA0
:1034C000032007EE100AB8EE477AB0EE00CA67EEA6
:1034D0002CCAFFEE006AECEE8C6A06F27C4C06F514
:1034E000936E9CED017A9CED00CA386026EE811A3D
:1034F00066EEA33AACEE2B1A06F29C47E7EE0B3AC7
:1035000066EE84BA9CED02BA9CED034A8CED001A7B
:10351000EBEE2ABA26EE855ADCED04AACCED013A90
:10352000A4EE0A5A66EEA55A71EE23CAEAEE805A54
:103530009CED05AACCED02BA26EE660A3CEEAB6A1B
:10354000AAEE200A36EE057ADCED060A8CED035A67
:1035500037EE25CA66EEA44A3CEE004AB4EEE23AE3
:1035600034EE201AF1EE10FAA6EEA11ADEED001AE2
:10357000CCED045AF0EE616AD1EE026A97ED002AB2
:103580008CED050AE2EE261ACCED064ACEED001AC5
:1035900040F39F8033EE033AF7EE002AB4EE623A2E
:1035A000F1EE10FAC8BFB0EE623AD5ED1F3ADFED8A
:1035B000A9BA9FEDA95AD6F8680423EEABBA06F56E
:1035C0008E636BEE035AD3ED00AAE1EEA57A06F204
:1035D0006C41A0F57072B0EE6A6A37EEEA0AF3EE5B
:1035E0000BCAA0EE056A0BF1010BF0EE6C0A77EE48
:1035F000C67AB2EE02AAE7EEA70A27EE8A7A27EE8B
:10360000A0CAE7EE87CA91ED004A83ED006ACCEECE
:103610002C4A42F21A11BDEEC41AF0EE645A11EEB1
:10362000107AC31BD21BC3F30B0C03F6FF778C4439
:10363000C7F30B0E8E4405EB8C0302F6FF7C05EB03
:103640008E07C2F30B02CCF30B0E0A448E440144E6
:1036500005EB8101C1ED004AD3ED006A97ED003A18
:10366000009905EB820305EB8E07D3ED002AD7ED19
:10367000003AF8EEC11A73EE66BA34EE612A33EE00
:10368000E2BAEBEE826A06F5966C0130EBEE022AA6
:103690005246C0F30B00DCED00CA76EEE4AA32EE2F
:1036A000E45AEAEEAC5A59450AF1080AE5EE2C4A0A
:1036B0004AED035AC2ED004AC6F868042DD004F260
:1036C0004C4393ED00AA94F8643452E5DFED6D1A93
:1036D00084E59FED6C3A68E704F21C40D0ED030AE4
:1036E000D0ED045AE9EE607AE8EEE07A37EEE57A5A
:1036F000F0EE657A27EE29CAE8EE8C0AE8EEA07AA9
:10370000B0EE606AF0EE671AA8EE8C6AE8EEA01AD6
:1037100080ED036AC0ED041AA9E6DDF80CE0009D17
:10372000029908EE105A70462A4604F58364FEF7A3
:10373000EFF8B8EEC89AD4ED008A88EE890AB5EEA3
:10374000400AF1EE10FA00F13D81F1EEC09A06F563
:10375000946696ED00AA9FED410A39EECA6AA6EE7C
:1037600000AA86ED00AA05B0BDEC0A8BBDE8F08F7B
:10377000DFED440A5AE6DFF88CC02449DCF800206B
:10378000DFF884E09FED223ADFED354A9FED354AC0
:103790009FED355A0EFB021B0EFB0B1205EE90BA85
:1037A0000BEE902AF8EE659AB8EE6BCAFEEE003A80
:1037B000ECEE033A002104F2544A69EE83CAB0EEFB
:1037C000648AACEE848AA4F85814CCF8002063EE26
:1037D000857A8AED008AC0ED007AFFF7F2BA7AEEB8
:1037E000C99A9FED22AA9FED22CADFED22CADFED22
:1037F000227A79EEA9BAABEE8ACAFFF741BA00BFC6
:1038000077BE7F3F000000200D6619005FF36E3C1D
:103810000000802FBD66633D65C1993D4AB57F3F7D
:10382000384A7E3F618B1D3E6210783FF8F79E3E1E
:10383000F2D25D3F8E6F083FCDCC0C3FAD6D8A3C20
:1038400038F842BF6744093F9C6AED3DAE47E13D11
:103850000AD7A33BCDCC4C3D3480373ACDCCCC3DC0
:10386000CDCCCC3ECDCC4C3E0AD7233C6F12833B13
:1038700052B87E3FF6287C3F80C2753C0000A042D3
:10388000DB0FC9C0000000009A99993E0000004279
:103890000393002386F8AC341FED080A5FED08CAD5
:1038A00002F0EAFB60EE0B8A06F5956B68EEAC7AE7
:1038B00027EE890A02F0A4FB7CEE405A039BF5EE4A
:1038C000C05AF1EE10FA48BF5FED125ACBED005A24
:1038D000FFF7A8BBF6EE00BA94EDF93A5FED155A82
:1038E000C9ED007A67EEAB2AFDEE000A82EE835A3C
:1038F000E5EE250AF5EEC00AF1EE10FA58D4F4EE22
:10390000EB0AF1EE10FAC6BF70EEEB0AF3EE003AE6
:10391000FBEE003A1FED241A1FED24BA67EE817A00
:10392000B0EE00CAC7EE831AB7EE006AA0EECC6A0A
:10393000FDEE004AE1EE8B4A60EEA33AF5EE006A36
:1039400023EE867AF5EEC04A67EE26AAB6EE002A86
:10395000F1EE10FA84EDF37AC4EDF4AAC4EDF1AA05
:1039600084EDF22A29D4F4EEC24AF1EE10FACABF6D
:1039700074EEC24ABBEE002AB3EE002AB0EE004A53
:10398000F7EE00CAE4EEC4CA4FF07C57C4F8D8730F
:1039900024EE820AF5EE00BA20EE2C3A63EE2B2AD2
:1039A00084EDF73AC4EDF82AC4EDF52AFFF7D2BB4F
:1039B000F1EE600AF3EE003AACE7F1EE644AB3EEE2
:1039C000002ADBE702F0B6FBF0EE409ABFE600BF4C
:1039D0002DE9F041A54D2DED068B06460C4601461E
:1039E000A3481746FDF74EFAA1482B7F6A7FA149ED
:1039F000FCF784FD2846FDF7E3FB002F00F024824E
:103A0000B800021F90080130314610F003029A4BB3
:103A10004FEA870601EB870C4ED0012A31D0022AEB
:103A200017D0B1F900E0B1F902809FED947A00EE71
:103A300010EA01EE908AF8EEC00AB8EEE12A20EE14
:103A4000871A62EE072A83ED001AC3ED012A0431BA
:103A50000833B1F90000B1F902209FED883A03EE76
:103A6000900A05EE102AB8EEE34AF8EEC55A64EE65
:103A7000034A25EE836AC3ED004A83ED016A0431EF
:103A80000833B1F900E0B1F90280DFED7C6A08EE9D
:103A900090EA0AEE108AB8EEE89AF8EECAAA69EE41
:103AA000269A6AEEA67A04316145C3ED009AC3ED09
:103AB000017A03F1080356D0B1F90000B1F90220F0
:103AC000B1F904E0B1F906809FED6C0A08EE100A26
:103AD00007EE102AB1F90800B1F90A2001EE10EA48
:103AE00002EE908AB1F90CE0B1F90E8003EE100AF3
:103AF00003EE902A04EE10EA04EE908AF8EEC80A6B
:103B0000F8EEC71AB8EEC12AB8EEE25AF8EEC35A78
:103B1000B8EEE36AF8EEC46AF8EEE48A20EE809A22
:103B200061EE809A22EE00AA65EE00AA25EE808A58
:103B300026EE007A66EE800A68EE807A103183ED18
:103B4000009AC3ED019A83ED02AAC3ED03AA83EDA7
:103B5000048A83ED057A614503F1200343ED020AEF
:103B600043ED017AA8D1DFF8248143493A46404623
:103B7000FFF708F89FED420A98ED1C8AB4EEC08A60
:103B8000F1EE10FA00F38C809FED3E8A3A4FDFEDA4
:103B90003D8A2644D7ED009AD7ED01AA9FED3A4A17
:103BA000B3EE0B9AB2EE02AAF0EE490AE9EEA90AC8
:103BB0000434083729EE8A0AB0EE493AB0EE495A81
:103BC000A9EE803AAAEEAA5A6AEE8A2A29EEA02A1B
:103BD000AAEEA29AC2EE037A6AEE854A39EEE76A45
:103BE00084EE897AE8EE067A7AEEC76AF5EEC07A54
:103BF000A8EE267AF1EE10FAF1EE671AB5EEC07A69
:103C0000C8BFF0EE671A67EE843AF1EE10FA67EE7D
:103C1000045AF4EEE81AB0EE491AD4BFB1EE471ACE
:103C2000B0EE471AF1EE10FAC8BFF0EE618AFDEE71
:103C3000E39ABDEEE59AF4EEC18AF1EE10FA19EEC0
:103C4000900A00F30F0119EE103A03F30F0824F85D
:103C5000041C24F8028C48BFF0EE418AA64299D198
:103C6000C5ED0A8ABDEC068BBDE8F0811401002089
:103C7000500100207C0300201000002000000038CC
:103C80000AD7A33B0000000000FEFF46740300209B
:103C9000CDCCCC3E0000B442000048431F4209B9DD
:103CA00098ED201A5FED061A98ED1D2AD8ED1E0A30
:103CB0001FED080A61EE218AF7EE00AAF0EE6A2AEB
:103CC000E8EEA82AB2EE003AF1EEE23AB2EE065A77
:103CD000A2EE435AF0EE6A9A88EEA3AAE5EE089A9D
:103CE0003AEEC29A02F0C8F95FED155A1FED154A77
:103CF00020EE256A26EE040A02F082F97AEEC00A66
:103D0000002F00F0B280DFF89081DFF890E1DFF85B
:103D100090C15A4E5A485B495B4B98ED003A9EED74
:103D2000002A9CED005AD6ED002A90ED000AD1ED54
:103D300000AA03EBC702F0EE434AF0EE457A93ED9A
:103D4000003A93ED015ADFED516A33EE647A35EEB5
:103D5000671AA2EE267AA2EEA61AF0EE684AB0EE34
:103D6000686AE9EE874AA9EE816AF7EE003AF0EE5A
:103D7000631AF0EE636AE4EEA41AE6EE066AF1EE68
:103D8000E17AF0EE412AB1EEE61AF4EEE34AF1EE02
:103D900010FAB0EE472AC6EE011A84EEA77AFFEEBB
:103DA000005AB0EE634A08DCF4EE654AF1EE10FA10
:103DB0004CBFB0EE654AB0EE644AF7EE005AB4EE7E
:103DC000E56AF1EE10FAFFEE003A08DCB4EE636A41
:103DD000F1EE10FA4CBFF0EE635AF0EE465A74EE74
:103DE000474A35EEE16AA9EE247A08339342E9EEB8
:103DF000061A77EE4A6A71EECA7A36EEC01A37EEC4
:103E0000EA7AA0EE810AE0EE87AA70EE431A3AEE53
:103E1000C54AF0EE433AF0EE455AE8EE213AE8EEB4
:103E2000045A43ED023A43ED015A84D1C6ED002A0B
:103E300088ED003A8EED002A8CED005A80ED000AE4
:103E4000C1ED00AABE00A1E6DFF858800E493A464F
:103E50004046FEF797FEDFED0E7A98ED1C8AB4EE31
:103E6000E78AF1EE10FA3FF71BAFDFED0A8AC5EDE6
:103E70000A8ABDEC068BBDE8F08100BFCCE00020D3
:103E8000C8E00020C4E00020100000203BDF7F3F9E
:103E90000AD7A33B00000000D8E00020D4E00020B7
:103EA000D0E0002074030020704700BFFEE700BF91
:103EB000FEE700BFFEE700BFFEE700BF704700BFA0
:103EC000704700BF704700BF10B53048304C84B019
:103ED000002100F05DFF0121022001F0FFFC012222
:103EE0004FF080732B4802A9CDE9022301F05CFA60
:103EF000294A92E8030084E8030060782378A178D7
:103F000012890344E0780B442179034460790B441F
:103F1000A1790344E0790B44034483F47F4383F0A5
:103F2000FF018A4203D01D481D4A206062609FED58
:103F30001D0A1D491D48FDF753FF15491C48FCF794
:103F400027F91C4A1A4B1C480094A2F10801FCF7FF
:103F50009BFF01210F4801F039FB0446211E18BFC9
:103F6000012116484BF6803200F04AFC00B9FEE70A
:103F7000134A1248202100F08DFC00B9FEE70F48DB
:103F8000182104B0BDE8104000F002BD34C8002084
:103F90002CC8002000040240008000080000F0C28D
:103FA0000000704200803B470000001074030020B6
:103FB000500100207C0300201401002038C800209C
:103FC000D139000808B5FFF77FFF0248FCF7BCFDB8
:103FD000FBE700BF500100202DE9F04301219DB017
:103FE00004464FF4800001F079FC0121084601F0FD
:103FF00075FC01214FF48070002501F087FC4FF023
:104000000308FF2301A94548DFF8189101938DF8B3
:104010000B508DF8088001F0C7F941480F944FF418
:1040200000524FF480614FF48076CDE915264FF4AD
:10403000003301260827CDE90D50CDE912514FF488
:1040400000640DA9484617931494CDE91057CDE9A3
:104050001A551895199601F071F83146484601F045
:1040600099F84FF4403004904FF4706103A8069122
:104070000395059500F048FF0B9404F1804404F586
:104080008C3907A94846CDE909550795ADF8206058
:104090008DF8307000F00EFF324631464846072357
:1040A00000F052FF022211464846072300F04CFF61
:1040B000424648460723042100F046FF4146484651
:1040C0000723042200F040FF05221146484607233B
:1040D00000F03AFF062211464846072300F034FF5D
:1040E000072329461A46484600F02EFF07231946A3
:1040F0003A46484600F028FF3146484600F07EFF29
:104100003146484600F016FF3146484600F06CFF45
:10411000484600F063FF1DB0BDE8F0830000024098
:104120004C20014010640240014800F057BF00BF1E
:104130000020014030B5012183B0224C062001F05F
:10414000CDFB214B4FF4406269462046CDE9002368
:1041500001F02AF9204604220A2101F043FA042240
:1041600020460B2101F03EFA40F202254FF4704048
:10417000CDE90005154D6946204601F015F94023AB
:1041800069462846009301F00FF9204605220C21CC
:1041900001F028FA204605220D2101F023FA2046DD
:1041A00005220F2101F01EFA204605220E2101F002
:1041B00019FA28460522062101F014FA012003B05D
:1041C00030BD00BF000402400202010000080240AE
:1041D00070B5002084B014460E4601F079FB002033
:1041E00001F028FB4BF680339C420CD04AF6444049
:1041F000844267D0B4F5FA4F6AD038498C425BD01C
:10420000002004B070BD03214FF4817001F008FB61
:10421000012001F00FFB3B2001F09CFB4FF4805587
:1042200048BB3B2001F096FB02463B201ABB01F045
:1042300091FB03463B20F3B901F08CFB01463B2088
:10424000C9B901F087FB02463B20A2B901F082FB0D
:1042500003463B207BB901F07DFB01463B2051B971
:1042600001F078FB02463B202AB901F073FB10B93C
:10427000083DD6D1C4E701214FF4804001F03AFB5C
:10428000174801F081FB75020020AEB26946ADF817
:104290000200ADF80400ADF80C0011480294ADF82E
:1042A0000060ADF8066001F0D7FB0E48694601F0EA
:1042B00057FC012004B070BD042140F2891001F0C8
:1042C000AFFAA5E7062140F20F1001F0A9FA9FE727
:1042D00004214FF4D57001F0A3FA99E700770100AB
:1042E000003800400034004070B583480E464FF45B
:1042F0000031154601F078FA4FF4961400283AD0B0
:104300004FF400317C4801F06FFA03464FF400315E
:10431000794883B301F068FA02464FF400317648D9
:104320004AB301F061FA03464FF40031724813B307
:1043300001F05AFA02464FF400316F48DAB101F049
:1043400053FA03464FF400316B48A3B101F04CFA25
:1043500002464FF4003168486AB101F045FA03465D
:104360004FF40031644833B101F03EFA18B1083C13
:10437000C6D1002070BD6048012101F0FFF95F49FE
:104380005D4801F023FA4FF48054002831D15B4995
:10439000594801F01BFA0246584957484ABB01F0F8
:1043A00015FA0346554954481BBB01F00FFA024663
:1043B00052495148EAB901F009FA03464F494E48BB
:1043C000BBB901F003FA02464C494B488AB901F0E7
:1043D000FDF90346494948485BB901F0F7F902463F
:1043E000464945482AB901F0F1F910B9083CCED147
:1043F000BFE741480022342101F0DCF940493E4842
:1044000001F0E4F94FF48054002831D13C493A4896
:1044100001F0DCF903463A4937484BBB01F0D6F9C5
:104420000246374934481ABB01F0D0F903463449F3
:104430003148EBB901F0CAF9024631492E48BAB900
:1044400001F0C4F903462E492B488BB901F0BEF99F
:1044500002462B4928485AB901F0B8F903462849C1
:1044600025482BB901F0B2F910B9083CCED180E74C
:10447000C5F3002141EA46041F48E1B201F0A4F966
:1044800020491D4801F0A2F94FF4805600283BD185
:104490001C49194801F09AF902461A491648002A9F
:1044A00032D101F093F903461649134863BB01F07A
:1044B0008DF904461349104834BB01F087F90246D0
:1044C00010490D4802BB01F081F903460D490A4825
:1044D000D3B901F07BF904460A490748A4B901F0B1
:1044E00075F902460749044872B901F06FF958B9E5
:1044F000083ECDD13DE700BF005800400100030059
:1045000082000700800007003E48E9B201F05CF934
:104510003D493C4801F05AF94FF48056002831D10A
:104520003949384801F052F90546374935484DBBFD
:1045300001F04CF90346344932481BBB01F046F9FF
:10454000044631492F48ECB901F040F902462E49A2
:104550002C48BAB901F03AF905462B4929488DB9DA
:1045600001F034F90346284926485BB901F02EF9D9
:104570000446254923482CB901F028F910B9083E12
:10458000CED1F6E621491F4801F02EF94FF49616D8
:10459000002831D11D491B4801F026F902461B496C
:1045A00018484ABB01F020F90546184915481DBBBB
:1045B00001F01AF9034615491248EBB901F014F954
:1045C000044612490F48BCB901F00EF902460F49E2
:1045D0000C488AB901F008F905460C4909485DB94B
:1045E00001F002F90346094906482BB901F0FCF82D
:1045F00010B9083ECED1BCE60248012101F0CCF84A
:10460000012070BD00580040800007000400001029
:1046100070B515460E4600220F210446FFF764FED2
:1046200008B9002070BD172200212046FFF75CFE6C
:104630000028F6D0172201212046FFF755FE00285A
:10464000EFD0002202212046FFF74EFE0028E8D0DE
:10465000002203212046FFF747FE0028E1D0122266
:1046600004212046FFF740FE0028DAD00022052171
:104670002046FFF739FE0028D3D08EBB4222062108
:104680002046FFF731FE0028CBD0422207212046EA
:10469000FFF72AFE0028C4D04AF644439D421BD0AF
:1046A00014DCB5F5FA5F19D0B5F5FA4F14BF002246
:1046B000182208212046FFF717FE0028B1D0204617
:1046C0000022BDE870400921FFF70EBE0F4A954257
:1046D0000CBF1C220022ECE72022EAE70C22E8E7CC
:1046E000622206212046FFF7FFFD002899D0022212
:1046F00007212046FFF7F8FD002892D04AF64440F3
:10470000291AB1FA81F56E097201D2E7007701002A
:104710002DE9F84F344E044601214FF4001001F00A
:10472000DDF80021304600F035FD304600F070FC29
:104730002E4A002540234FF4806B4FF4006A4FF45B
:1047400000594FF480784FF400374FF6FE70C4E9FB
:104750000753C4E90552C4E90905C4E91055C4E981
:104760001255C4E90CA9C4E90E87C4F82CB0304630
:1047700004F11401183E00F0E1FC2946304600F037
:1047800009FD304600F044FC194A6566C4E9165537
:10479000C4E91F55C4E921554FF6FE714FF0C065BD
:1047A000C4E91452C4E91ABAC4E91D872166C4F8E1
:1047B000709004F15001304600F0C0FC0D4C3046C2
:1047C0000122182100F0F0FC4FF4804323600A48D6
:1047D0000122022101F0F2F901220848114601F0FC
:1047E000EDF90120BDE8F88F706002400C38004000
:1047F0000C34004000E100E000380040003400408C
:1048000070B51F4B84B018600023036142600170D3
:1048100004460E461546FFF78DFC10B9002004B083
:1048200070BD01214FF4800001F064F8154800F0DC
:10483000EDFE154A1548164B00934FF48041CDE923
:104840000120ADF80C100F48694600F015FF0D4827
:10485000012100F085FF2A4631462046FFF7B8FCCB
:104860000028DBD02A4631462046FFF7D1FE00283B
:10487000D4D0204604B0BDE87040FFF749BF00BF68
:10488000DCE00020005800400000FFBF33000004BF
:10489000A0860100F8B517460E46012209210446FC
:1048A000FFF722FD054600283DD0602E53D823781F
:1048B000002B3AD030482761818B4A0555D52F48C7
:1048C000828B53054DD5207804F18C0704F68C4378
:1048D000E761A365B70078B962684BF6803C624532
:1048E0003CD027498A4244D0B2F5FA4F04D106EBB6
:1048F00046008700032300E00123E3602148A6600F
:1049000004F114016762276600F018FC1E4804F1E8
:10491000500100F013FC1B48012100F03BFC1A4839
:10492000012100F037FC2846F8BD18484FF48051AB
:1049300000F04CFE0028F8D114484FF4805100F0EC
:1049400045FE0028B6D111484FF4805100F03EFEDC
:104950000028F1D0AEE700252846F8BDF700022375
:10496000CBE7012101F0EEF8ADE7012101F0EAF813
:10497000A5E737010423C0E70038004000340040B9
:10498000007701007060024058600240000402405D
:1049900038B58CB2224600210546FFF7A5FC00B9C8
:1049A00038BD224628460121BDE83840FFF79CBCAF
:1049B0000369002B00F0E8802DE9F041D0E90226E0
:1049C00002FB01F106FB01F4A400054604F68C404D
:1049D0008C3428442C44002E6CD05100012969D914
:1049E00000EB820EAEF1020EAEEB000CACF1020752
:1049F0004FEA570808F1010C770000EB46011CF064
:104A0000070680462CD0012E23D0022E1CD0032E68
:104A100015D0042E0ED0052E07D0062E40F0BB80F8
:104A2000B1F9006028F8026F3944B1F900C028F8E4
:104A300002CF3944B1F9006028F8026F3944B1F966
:104A400000C028F802CF3944B1F9006028F8026F9D
:104A50003944B1F900C028F802CFF045394429D0D3
:104A6000B1F90060A8F8026031F907C0A8F804C0E5
:104A700031F91760A8F8066001EB470101EB470622
:104A800031F907C0A8F808C031F91710A8F80A10C2
:104A900036F907C0A8F80CC036F91710A8F80E10A0
:104AA00006EB470606EB470136F907C028F810CF9A
:104AB000F045D5D121469847EA68002A62D0A86817
:104AC00083009E1E04EB800702FB06430234C2EB08
:104AD000C2753A1B901E69004508013515F007069E
:104AE00027D0012E1FD0022E19D0032E13D0042E52
:104AF0000DD0052E06D0062E47D137F9028DA3F82A
:104B000000800B4437F902CDA3F800C00B4437F9FD
:104B1000022D1A800B4437F9020D18800B4437F927
:104B2000025D1D800B4437F9026D1E80BC420B44B0
:104B300028D037F902ECA3F800E037F9048C23F809
:104B4000018037F9062C23F8112003EB410C37F9CB
:104B5000083C2CF8013037F90A0C2CF811000CEB4A
:104B6000410537F90C6C6E5237F90E2C25F81120DF
:104B700037F9103D05EB410EBC422EF801300EEB2B
:104B80004103D6D1BDE8F081704737F902EDA3F8B3
:104B900000E00B44B1E7B1F900C028F802CF394476
:104BA0003EE700BF08B5114B1A6812F0C05F05D18F
:104BB0000E4B1A6812F0A05F0DD108BD0C484FF0E3
:104BC000C051996000680121FFF7F2FE074B1A6897
:104BD00012F0A05FF1D006484FF0A0519960006834
:104BE000BDE808400021FFF7E3BE00BF00600240BF
:104BF000DCE00020F0B501218BB00646042000F077
:104C00006DFE0121022000F069FE0121042000F068
:104C100071FE304C3048302301276946CDE900371A
:104C200000F0C2FB4FF4E070022569460090204678
:104C3000019500F0B9FB2A462046062100F0D2FC7F
:104C40002A462046072100F0CDFC2A4608212046AE
:104C500000F0C8FC02A8A4F5FE3401F013F8FF210F
:104C600000250391204602A9ADF8105002958DF859
:104C7000125000F0ADFF05A801F002F9174A0592A5
:104C800005A920460795ADF82050ADF8245001F055
:104C90001DF82046082101F0FBF805A9204601F087
:104CA00059F82046082101F0FBF805A9204601F03B
:104CB0009DF82046082101F0FFF83946204600F013
:104CC000E9FF3946204600F0F3FF3560B5800BB0B0
:104CD000F0BD00BF00040240000802406000010077
:104CE00010B5174B0278DA634178596382789A637A
:104CF0004179C3781031CAB2FF2B0446427115D0F6
:104D00009A422CBF002201220E48102100F064FCC0
:104D10002079FF280CD062798242BDE81040094812
:104D20002CBF00220122202100F056BC0122EBE71B
:104D3000BDE8104003480122202100F04DBC00BF17
:104D4000000800400008024010B5012182B004466E
:104D5000022000F0C3FD02224FF080730448694630
:104D6000CDE9002300F020FBFF20207002B010BD31
:104D70000004024038B5044602210448257800F0BA
:104D800025FC40EA4500207038BD00BF0004024009
:104D900001B970474FF400414FF0006000F080B857
:104DA0003A483B4BD0F8882042F4700282B0C0F8F9
:104DB00088201A68002142F001021A6099601A687E
:104DC000A0F1BC2C22F08472ACF1F00022F480320D
:104DD0001A605860186820F480221A60D960009127
:104DE0000191196841F48030186003E0009AB2F52F
:104DF000A04F0AD0264B1A6802F4003101910098A6
:104E000001300090019B002BF0D02149086810F47C
:104E1000003318BF01230193019A012A05D01B49D1
:104E20004FF000638B6002B07047194B19491A6C40
:104E3000194842F080521A640A6842F440420A60FB
:104E4000996899609A6842F4004199609A6842F4BE
:104E5000A05199605860186840F080721A600C4B3D
:104E600019688A01FBD50D4840F205620260996815
:104E700021F0030098609A6842F002019960044BA7
:104E8000986800F00C02082AF9D1C8E700ED00E0AC
:104E9000003802400070004008544007003C0240C7
:104EA00021F06041024B21F07F0202439A6070477B
:104EB00000ED00E010B443680C790A6823F0407CF0
:104EC0002CF4807343EA04241443D1E903231343ED
:104ED0008A684460846813430A4A22404C79134329
:104EE00043EA44038360097DC46A01F1FF3C24F472
:104EF00070035FFA8CF243EA02515DF8044BC16221
:104F0000704700BFFDF7FFC042680368074910B44F
:104F100013434C68064A2240D0E90240134323431E
:104F200003435DF8044B4B60704700BF0023014012
:104F3000E030FCFF836819B143F0010282607047E2
:104F400023F0010181607047092910B52CD9A1F126
:104F50000A0E0EEB4E0CC4684FF0070E03FA0CF36A
:104F60000EFA0CFC24EA0C042343C360062A0CD876
:104F700002F1FF3C446B0CEB8C021F23934024EAAC
:104F8000030491402143416310BD0C2A1AD8A2F1B9
:104F9000070C036B0CEB8C021F24944023EA0403E0
:104FA00091401943016310BD046901EB410E4FF0BC
:104FB000070C0CFA0EFC03FA0EF324EA0C0423434C
:104FC0000361D3E70D3AC36A02EB82021F249440C7
:104FD00023EA040391401943C16210BD836843F082
:104FE00080418160704700BF836819B143F48072CB
:104FF0008260704723F4807181607047836819B1C3
:1050000043F400728260704723F40071816070473E
:105010000268364910B4002322F00102212488429C
:105020000260036043608360C3600361446138D001
:105030002F4B98422ED02F4CA0423CD02E49884274
:1050400040D02E4B984232D02D4CA04241D02D4919
:10505000884246D02C4B984217D02C4988423CD0ED
:105060002B4B984216D02B4CA04224D02A49884280
:1050700028D02A4B98421AD0294CA04229D029493D
:1050800088422ED0284B984208D14FF03D5243F829
:10509000AC2C03E04FF4746443F8204C5DF8044BEF
:1050A000704722495DF8044B3D20886070472048D6
:1050B00043F8640CF2E74FF4741244F8382C5DF8AE
:1050C000044B70474FF074635DF8044B41F8503C5B
:1050D0007047184944F87C1CE0E73D2041F8080C73
:1050E000DCE7154C41F8944CD8E700BF1060024053
:1050F00028600240406002405860024070600240F8
:1051000088600240A0600240B86002401064024023
:1051100028640240406402405864024070640240C7
:1051200088640240A0640240B8640240006002400B
:105130003D000020400F002000003D2030B40B68EF
:10514000CC684A692343D1E9065413432B43D1E980
:10515000085223432B438C6A056813434A6B23434D
:105160008C6B134323430A4CCA6A2C4023430D6BB8
:10517000036043690C692A43D1E9011523F0070C48
:1051800042EA0C03436144608160C56030BC7047F3
:105190003F801CF0036819B143F0010202607047C0
:1051A00023F00101016070470B060CD54369AAB1D9
:1051B00043F08003802943610FD0026801F01E0193
:1051C000114301607047802907D0002AF5D1036898
:1051D00001F01E0123EA01020260704723F0800201
:1051E00080294261F3D17047044B1A69002A03DA1F
:1051F0000349044859605860704700BF003C0240B2
:1052000023016745AB89EFCD014BD860704700BFE4
:10521000003C02400E4BDA68D20310D4D968C906AC
:105220000FD4DA68D20510D4D96811F0E00F0AD192
:10523000DB6813F0020F0CBF092008207047012023
:10524000704706207047072070470220704700BF54
:10525000003C024000B583B009238DF80730FFF70A
:10526000D9FF8DF807009DF80700012813D022E030
:10527000D868C20524D4DA6812F0E00F22D1DB68C6
:1052800013F0020F0CBF092208228DF807209DF8A9
:10529000071001290FD10C4BD968C8034FF0010248
:1052A000F3D4DA68D106E3D506228DF807209DF8FD
:1052B00007100129EFD09DF8070003B05DF804FB4B
:1052C0000222E2E70722E0E7003C024070B5022933
:1052D00094BF0C024FF440740546FFF7BBFF09284A
:1052E00000D070BD0F4E336923F4407030613169D6
:1052F00021433161326922F0F804346133692B4370
:1053000043F002053561306940F480313161FFF7C7
:10531000A1FF326922F002043461336923F0F805F9
:10532000356170BD003C024070B505460C46FFF784
:1053300091FF092800D070BD0A4E336923F44070F4
:105340003061316941F400723261336943F0010028
:1053500030612C60FFF77EFF356925F00104346170
:1053600070BD00BF003C024070B505460C46FFF71B
:1053700071FF092800D070BD0A4E336923F44070D4
:105380003061316941F480723261336943F0010068
:1053900030612C80FFF75EFF356925F00104346130
:1053A00070BD00BF003C024000232DE9F0430C68B3
:1053B0009E4624E00EF1010C012606FA0CF939EAAA
:1053C000040503F1020300F0CF800CF10107012274
:1053D000BA4032EA040603F1020500F08E800CF1B7
:1053E00002070122BA4032EA040603F1040541D063
:1053F000BCF10D0F0CF1030E03F106037BD001226B
:1054000002FA0EF838EA0405D4D1066803259D4057
:1054100026EA0507076091F80490D0F800C009FA61
:1054200003F609F1FF37EA43012F46EA0C05056050
:1054300014D88668324082604A7985689A402A4347
:105440008260476827EA0806466091F8068045684A
:1054500008FA0EFC1FFA8CF22A434260C768032642
:105460009E4027EA0602C260CF79C5689F402F435D
:10547000C7609FE706684FF0030808FA05F926EAB7
:105480000906066091F804E06FEA0906D0F800907A
:105490000EFA05F80EF1FF3E48EA0909BEF1010FC8
:1054A000C0F8009015D8D0F8088006EA0806866093
:1054B0004E79D0F80890AE4046EA09068660466804
:1054C00026EA020242608E794268BE40B7B21743B4
:1054D0004760C7680326AE4027EA0602C260CF795C
:1054E000C668AF403743BCF10D0FC7600CF1030E27
:1054F00003F1060383D1BDE8F083D0F800800326D2
:10550000AE4028EA0609C0F800906FEA060E0E7950
:10551000D0F8009006FA05F8013E48EA0909012E84
:10552000C0F8009014D886680EEA060686604E79A8
:10553000D0F808E0AE4046EA0E068660466826EAE5
:10554000020242608E794268BE40B7B2174347609C
:10555000C7680326AE4027EA0602C260CF79C66854
:10556000AF403743C7603AE70268032707FA03F6FC
:1055700022EA0605056091F804E00268F7430EF19F
:10558000FF350EFA03F61643012D066012D8826825
:10559000174087604D7986689D4035438560426835
:1055A00022EA090747608D79476805FA0CF6B2B21E
:1055B0003A434260C66803259D4026EA0502C26060
:1055C000CF79C6689F403743C760FEE6036919423A
:1055D00014BF0120002070470AB101837047418346
:1055E000704700BFCB0800EB830001F00701036A9E
:1055F00089004FF00F0C0CFA01FC23EA0C03036244
:10560000036A8A401A430262704700BF08B5174B0D
:10561000984206D0164988420FD0164A904218D0B8
:1056200008BD01214FF4001000F07CF9BDE80840EE
:1056300000214FF4001000F075B901214FF48000F3
:1056400000F070F9BDE8084000214FF4800000F040
:1056500069B901214FF4000000F064F9BDE8084089
:1056600000214FF4000000F05DB900BF005400407D
:1056700000580040005C004070B5868884B026F079
:105680003F020446130468461E0C0D4600F0D8F88D
:1056900030480299A0FB013246EA9243A380268853
:1056A00026F0010003041E0C26802B682A4EB3420C
:1056B0004FEA924026D85B00B1FBF3F6B1B201305D
:1056C000042938BF04212084A1832288A9886E89F7
:1056D00090B240F0010CA4F800C0B4F800E02EF441
:1056E000816323F0020231431004AE892D89030C3B
:1056F0002E430B4399B21FFA86FC2180A4F808C000
:1057000004B070BDB5F806C04BF6FF7EF4451AD064
:1057100003EB830202EB8203B1FBF3F18EB246F49A
:10572000804ECEF30B0109B94EF0010E0B4E4FF433
:10573000967303FB00F0A6FB0020820901324EF4B1
:1057400000412284C0E703EB4302B1FBF2FC1FFAE5
:105750008CFEE6E783DE1B43A0860100D34D62107A
:10576000038821B199B241F001020280704723F011
:1057700001010A04130C0380704700BF038821B1A4
:1057800099B241F480720280704723F480710A0458
:10579000130C0380704700BF038821B199B241F414
:1057A00000720280704723F400710A04130C038016
:1057B000704700BF1AB141F001010182704701F04A
:1057C000FE010182704700BF01827047838A028B0D
:1057D00098B240EA02430B4023F07F42511AB1FADB
:1057E00081F04009704700BF82B000230A0F009388
:1057F000019301900092009B21F07F4153B1019BE6
:1058000014330193019A13680B4214BF0120002046
:1058100002B07047019A1832090C0192F2E700BFFA
:10582000034B090741EA8010C3F88400704700BFAA
:1058300000380240014B9866704700BF00004742A5
:105840001F4A936803F00C01042910B436D00829CC
:105850001BD01C4B1A4A036094681B49C4F3031CF9
:1058600011F80C40E34043609468C4F3822C11F8B3
:105870000C4023FA04F484609268C2F34234095D58
:105880005DF8044BCB40C36070475468536851685F
:1058900003F03F0C0A4B14F4800FC1F388145968CD
:1058A00014BF0A4A074AB2FBFCF202FB04F4C1F33C
:1058B000014201325300B4FBF3F3CBE7034BC9E7DA
:1058C000003802400024F400406C000800127A0006
:1058D000014BC3F85C01704700004742044A136B58
:1058E00011B103431363704723EA0000106370474C
:1058F00000380240044A136C11B10343136470472B
:1059000023EA00001064704700380240044A536CD8
:1059100011B103435364704723EA00005064704799
:1059200000380240044A136A11B1034313627047FE
:1059300023EA00001062704700380240044A536AAC
:1059400011B103435362704723EA0000506270476D
:10595000003802404309012B0BD00A49022B0CBF2F
:10596000096F496F00F01F0021FA00F303F00100F6
:105970007047044A116800F01F0021FA00F303F099
:10598000010070470038024008B52D4B98421BD0EB
:105990002C49884224D02C4A90422DD02B4B98423F
:1059A00006D02B49884233D02A4A90423CD008BDC9
:1059B00001214FF40050FFF7C1FFBDE8084000216E
:1059C0004FF40050FFF7BABF01214FF48050FFF7AA
:1059D000B5FFBDE8084000214FF48050FFF7AEBF8F
:1059E00001214FF48040FFF79DFFBDE808400021F2
:1059F0004FF48040FFF796BF01214FF40040FFF7BE
:105A000091FFBDE8084000214FF40040FFF78ABF36
:105A100001214FF48010FFF791FFBDE808400021FD
:105A20004FF48010FFF78ABF01214FF40010FFF7F9
:105A300085FFBDE8084000214FF40010FFF77EBF4E
:105A40000030014000380040003C0040003401407C
:105A50000050014000540140838BB1F804C023F48E
:105A60007B622DE9F04322F00F0425042E0C02275F
:105A700086838C680784838BB1F806E0022C9AB287
:105A80003BD02C4EB568BCF1000F14BF4FF002089C
:105A90004FF001082D0244D4264DD5F88460D5F886
:105AA0008470C7F302736F68D5F8049019F4800FFF
:105AB00007F03F05C6F3881614BF1F4F1F4FB7FBF3
:105AC000F5F7BEF5007F06FB07F7B7FBF3F60EBF51
:105AD000360A4FEA4818B6FBF8F606EB86035D0077
