:020000040800F2
:1000000000000220255D0008053D0008093D0008AC
:100010000D3D0008113D0008153D000800000000DE
:10002000000000000000000000000000193D000872
:100030001D3D000800000000213D0008695D00082A
:10004000695D0008695D0008695D0008695D000878
:10005000695D0008695D0008695D0008695D000868
:10006000695D0008695D0008695D0008695D000858
:10007000695D0008695D0008014A0008695D0008C3
:10008000695D0008695D0008695D0008695D000838
:10009000695D0008695D0008695D0008695D000828
:1000A000695D0008695D0008695D0008695D000818
:1000B000695D0008695D0008695D0008695D000808
:1000C000695D0008695D0008695D0008695D0008F8
:1000D000695D0008695D0008695D0008695D0008E8
:1000E000695D0008695D0008695D0008695D0008D8
:1000F000695D0008695D0008695D0008695D0008C8
:10010000695D0008695D0008695D0008695D0008B7
:10011000695D0008695D0008695D0008695D0008A7
:10012000695D0008695D0008695D0008695D000897
:10013000695D0008695D0008695D0008695D000887
:10014000695D0008695D0008695D0008695D000877
:10015000695D0008695D0008695D0008695D000867
:10016000695D0008695D0008695D0008695D000857
:10017000695D0008695D0008695D0008695D000847
:10018000695D0008695D00080000000000000000D3
:100190002DE9F04F0446A5B0DFF854A3016303F046
:1001A00049FE00224FF07C5322626262A262E26248
:1001B000A361E36123616361BAE80F000DF11009E7
:1001C000A9E80F009AE80F00DFF82883DFF828C3BA
:1001D000C34EDFF810B389E80F00B8E80F000DF147
:1001E000300EAEE80F0098E80F008EE80F00BCE874
:1001F0000F0014AF0FC79CE80F0087E80F000FCE69
:100200001CAD0FC596E80F0085E80F00DBF8000075
:10021000431C6FD0BBF800104DF67522914260D19F
:100220005B461E884DF67527BE4264D15D881F2D42
:1002300061D815F0070909D0E80809EBC00A0DF1EB
:10024000900808EB8A0E59684EF8801C1F894DF6FD
:1002500075260833B7429C464DD15A881F2A4AD882
:1002600012F0070B08D0D50858680BEBC50924AB72
:1002700003EB890A4AF8800CBCF808704DF6752823
:1002800047450CF1080336D159881F2933D811F09E
:10029000070E09D0CE080EEBC6020DF1900B0BEB4A
:1002A00082095D6849F8805CBCF810004DF675273E
:1002B000B8420CF110031ED159881F291BD811F028
:1002C000070A08D0CE085D680AEBC60224AB03EB30
:1002D000820848F8805C0CF11803B3F1016FA0D1DB
:1002E00009E004F0AFFEF32004F0BCFE0221582028
:1002F00004F01AFF7B4BC4F86431204603F042FE41
:1003000000200390039F78498F4207D800BF039EC7
:10031000754A01360396039D9542F7D9B4F80CC08F
:10032000B4F80EE09FED717AB4F80890B4F80AA022
:1003300007EE90CA01EE10EAB8EE670AF8EE411A2D
:1003400060EE070A21EE872ACDED040A8DED0C2A16
:1003500002EE909A04EE10AA0DF1100BBBE80F000C
:10036000B8EE623AF8EE444A63EE073A24EE875A52
:10037000CDED143A8DED1C5A6063A163E2632364F2
:10038000BBE80F00C4ED0A0A84ED0B2AC4ED083A5D
:1003900084ED095A6064A164E26423652822002187
:1003A00004F1540005F0E2FCBBE80F00C4F8800043
:1003B000C4F88410C4F88820C4F88C30BBE80F005F
:1003C0004FF0FF37C4F89000C4F89410C4F8982098
:1003D000C4F89C3028220021E76704F1A00005F052
:1003E000C5FCBBE80F00C4F8CC00C4F8D010C4F8BA
:1003F000D420C4F8D830BBE80F00C4F8C870C4F8E3
:10040000DC00C4F8E010C4F8E420C4F8E830282286
:10041000002104F1EC0005F0A9FCBBE80F00C4F8D2
:100420001801C4F81C11C4F82021C4F82431BBE819
:100430000F00C4F81471C4F82801C4F82C11C4F8D2
:100440003021C4F834310021282204F59C7005F0D5
:100450008DFC6FF4B37004F28711C4F8607104F27C
:1004600067130191001B00EB03085D1C00EB050EF8
:1004700041194746464608F1620B0EF1620908F140
:10048000660A08F1650E673701F1630868360022D5
:1004900040F2EE21DD1D5A70054444F82B109A708D
:1004A00044F82910DA7044F828101A7144F82E1014
:1004B0005A7144F82A109A7144F82710DA71019F92
:1004C00044F8261003F8082F6235BB4244F8251083
:1004D000C9D1C4F8082284F80C2225B0BDE8F08FF9
:1004E000A469000800000E089F8601000000803704
:1004F000046A0008E4690008C469000830B5C589C9
:100500008489D0ED0B4AB0F806C0DFED793A90ED62
:100510000A4A90ED077AB0F800E0D0ED041ADFED5A
:10052000752AD0ED087A90ED053A90ED096AD0ED84
:10053000066A05EE105A05EE904AB8EE450A2DED12
:10054000028BB8EE652A08EE10CAF0EE640AD0EE0F
:10055000230A05894488DFED688AB0F80AC0B0EE46
:10056000441A92EE231A43EA420300EB8302B8EEE8
:10057000485AB0EE470A95EE230AE0EEA84A05EE87
:1005800090EA00EE905AA1EE284AB0F804E001EE9D
:10059000104AB8EE652AF8EE605AA0EE227AC46FCF
:1005A000B8EE415AB0EE618A01EE10CAB0EE670AA9
:1005B00092EE238AA34200EB030495EEA30AB0EE69
:1005C000432A05EE90EA95EE232AB8EE415AF0EE62
:1005D000460AB8EE651AD5EE230AB0EE615AF0EE7F
:1005E000661AD1EE231AE0EE287AA0EEA86AF0EEA1
:1005F000438AA8EE225AE2EE228AE1EEA26A80ED58
:100600000A4AC0ED0B4AC0ED087A80ED096AC0EDD8
:10061000066A80ED077A80ED045AC0ED058A92EDF6
:100620000D3AD2ED202A92ED338A92ED462A17D068
:100630004FF0000C82ED154AF0EE443A84F874C095
:10064000C36734EE630ADFED2D5AB4EEE50AF1EE2E
:1006500010FA40F334824FF0010E84F874E004E0A5
:1006600094F87450002D00F0698282ED0D4AD0F8A4
:10067000C850AB4218D04FF0000CC2ED284AB0EE83
:10068000644A84F8C0C0C0F8C83034EEC41ADFED44
:100690001B1AB4EEE11AF1EE10FA40F303824FF0A8
:1006A000010E84F8C0E004E094F8C050002D00F082
:1006B0004282C2ED204AD0F81451AB4220D04FF014
:1006C000000CC2ED3B7AF0EE674A84F80CC1C0F82A
:1006D000143137EEE40ADFED095AB4EEE50AF1EE23
:1006E00010FA40F3D2814FF0010E84F80CE10CE0D7
:1006F000000080370AD7A33DD044D83C0AD7A33B9B
:1007000094F80C51002D00F01382C2ED337AD0F82A
:100710006051AB4200F0B2814FF0000C82ED4E6AA6
:10072000F0EE467A84F858C1C0F8603136EE674A78
:100730001FED0E1AB4EEC14AF1EE10FA40F3D38168
:100740004FF0010E84F858E182ED466A7BB3D2ED9A
:100750000D3AD2ED204A92ED336A92ED460AF4EE5C
:10076000433AF1EE10FA05D00123002584F86831F0
:10077000C2F88851F4EE624AF1EE10FA06D04FF05A
:10078000010C002384F870C1C2F8A831B4EE486AA5
:10079000F1EE10FA05D00125002384F87851C2F853
:1007A000C831B4EE420AF1EE10FA40F0958100F241
:1007B000671200F2871E5578531C85B1121A6FF428
:1007C000B37C624400EB820240F2ED24D2F88851FF
:1007D000A54204D8D2F888410134C2F888415D7836
:1007E0005A1C8DB16FF4B374A3EB000CA44400EB5E
:1007F0008C0C40F2ED24DCF88851A54204D8DCF8DA
:1008000088410134CCF888419D7803F1020C85B110
:100810006FF4B374121A224400EB820240F2ED240A
:10082000D2F88851A54204D8D2F888410134C2F8E0
:100830008841DD78DA1C8DB16FF4B374ACEB000C39
:10084000A44400EB8C0C40F2ED24DCF88851A54266
:1008500004D8DCF888410134CCF888411D7903F1D3
:10086000040C85B16FF4B374121A224400EB8202B7
:1008700040F2ED24D2F88851A54204D8D2F888413C
:100880000134C2F888415D795A1D8DB16FF4B3749B
:10089000ACEB000CA44400EB8C0C40F2ED24DCF833
:1008A0008851A54204D8DCF888410134CCF888414D
:1008B0009D7903F1060C85B16FF4B374121A2244CA
:1008C00000EB820240F2ED24D2F88851A54204D810
:1008D000D2F888410134C2F88841DD79DA1D8DB142
:1008E000ACEB00036FF4B37C634400EB830340F292
:1008F000ED24D3F88851A54204D8D3F888410134B7
:10090000C3F8884172457FF456AFB6EE003A73EEF5
:10091000666AD0ED0D2AD0F8082236EEA22A0132FE
:10092000B5EEC02AF1EE10FA33EE477A73EE688A1C
:10093000C0F8082200F1F680B7EE008AB4EE482A2B
:10094000F1EE10FAC8BFB0EE482AD0ED205A81ED82
:10095000002A77EE257AF5EEC07AF1EE10FA00F172
:10096000DE80F7EE000AF4EE607AF1EE10FAC8BF0E
:10097000F0EE607A90ED331AC1ED017AB5EEC01A4F
:10098000F1EE10FA00F1C880B7EE004AB4EE441A56
:10099000F1EE10FAC8BFB0EE441AD0ED461A81ED60
:1009A000021A78EEA14AF5EEC04AF1EE10FA00F113
:1009B000B080F7EE003AF4EE634AF1EE10FAC8BFE9
:1009C000F0EE634A036BC1ED034A002B00F0988000
:1009D000D3ED006A93ED013AA5EE263A856BD0F887
:1009E000D0E0D0F81C41D0F88820D0F83CC0D0F836
:1009F00020310D61C1F814E0D0F8D450D0F840E0B7
:100A00008C614A62D0F89040426CC1F820C08D627F
:100A1000D0F828C1D0F8DC50CB62C1F860E0836C1C
:100A2000D0F894E00A644C64D0F8E020D0F82C416F
:100A30008D64C1F84CC00B65C1F854E08A6581ED46
:100A4000203ACC65BDEC028BD0F89850D0F830E15C
:100A5000D0F8E4C0D0F89C40036DD0F8E8204D6693
:100A6000D0F83451C1F86CE04C67CD67C1F868C06C
:100A7000BDE830400B678A6703F084BA94F8585198
:100A8000002D52D082ED466A60E6DFED2E0AB4EE0C
:100A9000E00AF1EE10FA7FF53AAE4FF0010E84F85D
:100AA0000CE132E6DFED273AB4EEE31AF1EE10FA8C
:100AB0007FF501AE4FF0010E84F8C0E0F9E5DFEDFF
:100AC000210AB4EEE00AF1EE10FA7FF5D0AD4FF056
:100AD000010E84F874E0C8E5012584F880510024F3
:100AE000C2F8E84163E6DFED171AB4EEE14AF1EE31
:100AF00010FA7FF52BAE4FF0010E84F858E123E693
:100B0000B6EE006A36EE455A9FED0F0A25EE003A22
:100B100064E7DFED0E4A55E79FED0C1A3DE7DFED88
:100B20000B7A27E79FED092A0FE7D2ED4E7AFDE514
:100B3000D2ED3B4ACDE592ED284AA6E5D2ED153A35
:100B40007FE500BF0AD7A3BB0000F0420000000011
:100B50002DE9F04F90F80C32012B83B0044600F0E1
:100B6000A880022B00F08880002B40F0828000F2E9
:100B7000671600F28717314648784B1C60B16FF456
:100B8000B3752D1B6A1802F1620940F2ED2A54F880
:100B90002900504500F2A1805A78591C62B16FF4C7
:100BA000B3752D1BEA1802F1620B40F2ED2854F8E0
:100BB0002BC0C44500F291809A78981C62B16FF402
:100BC000B3752D1B6A1802F1620940F2ED2154F849
:100BD00029A08A4500F28180DA78D91C5AB16FF4D5
:100BE000B3752D1B2A1802F1620B40F2ED2854F860
:100BF0002BC0C44571D81A79181D5AB16FF4B3755A
:100C00002D1B6A1802F1620940F2ED2154F829A067
:100C10008A4562D85A79591D5AB16FF4B3752D1BA4
:100C20002A1802F1620B40F2ED2854F82BC0C4459B
:100C300053D89A79981D5AB16FF4B3752D1B6A1861
:100C400002F1620940F2ED2154F829A08A4544D806
:100C5000DA79D91D5AB16FF4B3731D1B2A1802F14A
:100C6000620040F2ED2B54F82000584535D8B942C7
:100C700082D103B0BDE8F08FD0F80862D0F82072BE
:100C8000BE42F6D0D0F81402D4F80832D4F81C12C0
:100C9000C4F82032043004F075FAD4F8102222444B
:100CA0004FF0000882F8688184F80C8203B0BDE838
:100CB000F08FD0F80822D0F820028242D9D0D4F8A0
:100CC0000852C4F82052D4E9850104F05BFA0221ED
:100CD00084F80C1203B0BDE8F08FD4F8640100F181
:100CE0000801B1F1016F2BD8D71002F00706022FCF
:100CF00004EB860E00F0C480032F00F0BE80012FAD
:100D000014BFDEF83470DEF88070C4F864114DF65C
:100D1000752C4CEA0243C4E98420C4F81832C4F8A4
:100D20001C7204F08FF9F32004F09CF9D4F8082227
:100D3000C4F82022012584F80C5203B0BDE8F08FDE
:100D400004F080F9F32004F08DF90221582004F01A
:100D5000EBF9B91B4C48C4F8640111F0070351D0FA
:100D6000012B42D0022B37D0032B2BD0042B20D0C9
:100D7000052B14D0062B09D0A81962304FF00108BA
:100D800040F2EE2206F8018F44F82020A9196231C2
:100D9000012340F2EE2006F8013F44F82100A91992
:100DA00062314FF0010940F2EE2206F8019F44F84B
:100DB0002120AB196233012040F2EE2106F8010F29
:100DC00044F82310AB1962334FF0010A40F2EE22CF
:100DD00006F801AF44F82320A8196230012140F23F
:100DE000EE2306F8011F44F820304FF0010BA8193C
:100DF00006F801BF623040F2EE22BE4244F82020E5
:100E00003FF437AF0197711C05EB060EAF1905EBE8
:100E1000060C6B180EF1620BA81907F1650E05EBB5
:100E20000108AF190CF1660A673703F1630C6830EB
:100E300008F16209012240F2EE23F11D727029448B
:100E400044F82B30B27044F82930F27044F82C305A
:100E5000327144F82E30727144F82A30B27144F87D
:100E60002730F271019F44F8203006F8082F6231D4
:100E7000BE4244F82130C6D1FBE6DEF8187144E7E3
:100E8000DEF8CC7041E700BF00000E08704700BFDD
:100E9000F8B505460C461E46174603F083FE681C4F
:100EA00003F0D6FD069BAC600024C5E9037611482B
:100EB0006B616C83AC83EC85022104F0B5FA80B9D8
:100EC0001027284603F084FE013FFAD12978B1FAB1
:100ED00081F60122700985F82C20287685F83820C3
:100EE000F8BD2046224685F82C40287685F8382023
:100EF000F8BD00BF0004024038B590F82C300269FC
:100F0000012BD2ED047A04464FD0D0ED0D6A37EEB6
:100F1000E60ABEEE007AB4EEC70AF1EE10FA07DC7C
:100F2000042040F6980C84F82C00A4F82EC038BD9C
:100F3000DFED210AB4EEE00AF1EE10FAF0D5B3EEDF
:100F4000081AC1EE001A4569C5ED001A90ED0C2A89
:100F500061EEC22AC5ED012A04F074F8F32004F012
:100F600081F80221102004F0DFF82968134804F00A
:100F700009F96968124804F005F92A786978AB78AC
:100F800010481144EA7819442B7911446A791944BC
:100F90001144AA79ED791144294481F47F4181F00B
:100FA000FF0104F00FF90320BBE70220C4ED0D7A26
:100FB00084F82C0038BD00BFCDCC4CBD00800008AB
:100FC0000480000808800008036A828C013310B591
:100FD00003620AB1511E8184DFED597A90ED0A7ADD
:100FE000B4EEE77AF1EE10FA22DC047F002C60D038
:100FF000417F002978D1846804F5004E9EF8D52100
:10100000052A76D84F4C504914F802E04F4C11F89D
:1010100002C0A15C90F82C2080F801E0541E80F8FA
:1010200002C0C170032C3BD8DFE804F0142D162455
:101030004FF0000C6146FF2290F82CE042700EF158
:10104000FF32817080F803C0032A0ED8DFE802F077
:10105000021B0412DA0523D50024FF21047141711B
:10106000BDE81040013003F069BD437F022B0CD076
:10107000032B13D1FF24002104714171BDE81040FE
:10108000013003F05BBDDB050AD5FF24DC210471D0
:101090004171BDE81040013003F050BD012BDBD0A1
:1010A00000210C4604714171BDE81040013003F08D
:1010B00045BDC2689FED260AD2ED000A816820EE88
:1010C000801A01F5004CFCEEC11A9CF8D44111EED7
:1010D00090EA621EAEF17401C9B2042A2DD8DFE88D
:1010E00002F00C281D130F004FF0FF0C6146624602
:1010F000A2E7FF218C468E468CE78C4600229BE7B8
:101100000A4600218C4697E7124C8A00A4FB022471
:101110004FF0000C0A46C4F3C7018DE70D4AC1EB3E
:10112000C104A2FB04244FF0000C0A46C4F3C7011B
:1011300082E74FF0000C62467EE78C460A467BE76A
:101140003333733F346A00082C6A0008246A0008AD
:101150000000E642CDCCCCCC38B5044603F038FDD7
:101160002278002A0CBF0125002521D1207E94F889
:101170002C3088B1002B55D010461146013B012B75
:1011800035D9E28D002A3FD0501EE08525762046D5
:10119000BDE83840FFF718BF0121002BEED12177C1
:1011A0000133638325762046BDE83840FFF70CBF46
:1011B00094F82C30207EABB90028E7D0608B2377E1
:1011C000B0F5967F04D2617F013101F003026277AE
:1011D0004FF0000CA4F81AC025762046BDE8384030
:1011E000FFF7F2BE013B012B4FF00001C9D894F884
:1011F00038308BB10028C9D021694FF0000C0A6942
:10120000226384F838C0C1E784F82C202576204674
:10121000BDE83840FFF7D8BE0029B7D02046FFF719
:101220006BFEB3E7638B4FF6FF7E7345AED0B7E737
:1012300000F5005393ED027A1968D3ED015A93ED4E
:10124000052AD3ED042AFDEEC76A70B416EE902A83
:101250008C1A04F2FF75C5F30A0606F2FF72C2F398
:101260000A0400EB860C00EB8405DCED007A95EDBA
:10127000006A93F82860F8EEE60A36EE671A77EE11
:10128000601A22EE255AE1EE217A2DED028BA2EEB4
:10129000A75AF0EE404AC3ED017A002E40F0AF802D
:1012A000DFED8F8A93ED0B3AB5EEC03AF1EE10FA0E
:1012B00040F391808B4C8C4D8C4A26689FED8C7A44
:1012C000DFED8C7A9FED8C1A9FED8C8A93ED0E0AE0
:1012D000DFED8B2A9FED8B2AD3ED0F0ADFED8A3AE3
:1012E00005FB062606EE106AF8EE466AFFEE005A87
:1012F00066EE871AB0EE004AF0EE656AE1EE846AA7
:1013000005FB0625256093ED0D6AD3ED111A66EEF7
:10131000A77A26EE822AE6EE087A26EE818A9FEDEB
:101320007B1A9FED7B6AC3ED0D7AA0EE228AA0EEB8
:10133000A32A93ED100ADFED770ADFED773A83ED0C
:101340000E8A66EE812A66EEA33AE0EE202A9FED31
:10135000731AD3ED120A9FED720A83ED0F2A77EE0E
:10136000887AE1EE813A66EE661A37EE821A06EE68
:10137000105AE0EE801A31EE220AF8EE460A70EEBC
:10138000237A20EE877A37EEA10AE7EE045A93ED2E
:10139000134A9FED641A93ED0C6ADFED637AC3ED97
:1013A000102A70EE040A26EE254AE6EE810AB7EE10
:1013B000001A31EE467A20EEA70ADFED5C5AC3ED43
:1013C000113AA7EE004A66EEA56AE3EE048AC3ED81
:1013D000121AC3ED136A93ED033AE3EE058A4C1C2F
:1013E00000EB8100B0EE450A38EEA45ABDEC028B4A
:1013F000C4F30A0180ED005A70BC19607047D3E94C
:10140000072C624503DB002483F8284048E700EE00
:1014100010CA04EE102AB8EEC03AB8EEC48AD3ED72
:10142000097ADFED435AC8EE038AF7EE003AB6EECA
:10143000007AF4EEC78A73EEE86AF1EE10FAF4EE81
:10144000E57A4CBF38EEA88A36EEA68AF1EE10FA9D
:1014500030D49FED386AF4EEC67AF1EE10FA34D546
:1014600077EEE52AB0EE080A38EE663A62EE803A88
:10147000B0EE668AA3EE238A1A4C1B4E2568DFED78
:101480001C5AD3ED066A0132DA61184A06FB0525BB
:1014900000EE905AB8EE601AB0EE006A61EE251ABE
:1014A000FFEE007AE1EE867A256028EE268A68EE65
:1014B000278AF7E6B7EE008AB0EE084A76EEC88AC9
:1014C00027EE847AA8EE878AD6E777EEC60AB0EED2
:1014D000081A78EEC81A20EE812AA1EE828ACBE79C
:1014E00000000000000000200D6619005FF36E3C54
:1014F0000000802FBD66633D65C1993D4AB57F3FC1
:10150000384A7E3F618B1D3E6210783FF8F79E3E61
:10151000AD6D8A3CF2D25D3F8E6F083FCDCC0C3F63
:1015200038F842BF6744093FAE47E13D9C6AED3D54
:101530009FAAAA3EB0AA2A3FF1EE087A21EE271A06
:101540002DE9F041FDEEC11A9FEDCA2A11EE903A45
:101550002DED028B052BA8BF052300F50045F4EE09
:10156000C20A0646F1EE10FA23EAE37088B0B0EE44
:10157000408A85F8450140F1DC804FF07E51002320
:1015800085F8443107910691059104919DED040A77
:1015900095ED507A28EE003AF3EE072AB4EE623A5F
:1015A000F1EE10FA48BFB0EE623AC7EE037AF1EE00
:1015B000000AF4EEE07AF1EE10FA64D5F0EE607A0B
:1015C0009DED054A68EE044AB3EE075AF4EE454A2B
:1015D00006F50057F1EE10FAC7ED027A48BFF0EEBB
:1015E000454A85ED520AC7EE248AB1EE006AF4EE50
:1015F000C68AF1EE10FA5ED5F0EE468ADDED065AA7
:1016000028EE251AB3EE070AB4EE401A06F5804814
:10161000F1EE10FAC8ED168A48BFB0EE401A85ED1B
:10162000534A87EE012AF1EE002AB4EEE22AF1EEE7
:1016300010FA5AD5B0EE622ADDED070A60EE883A5C
:10164000F3EE078AF4EE683A06F5C040F1EE10FAC0
:1016500080ED2A2A48BFF0EE683AC5ED545AC7EE2D
:10166000234AB1EE007AF4EEC74AF1EE10FA56D5ED
:10167000F0EE474AC5ED3E4AC5ED550A08B0BDEC4F
:10168000028BBDE8F081DFED7C3AF4EEE37AF1EE17
:1016900010FA95DD9DED054A68EE044A06F5005CFA
:1016A000F4EEE24AF1EE10FACCED023A85ED520A80
:1016B00099D5C7EE228ADFED706AF4EEE68AF1EE84
:1016C00010FA9BDDDDED065A25EE881AF3EE071AB7
:1016D000B4EEE11A06F58044F1EE10FAC4ED166A94
:1016E00085ED534A9DD587EE212A9FED633AB4EEEE
:1016F000C32AF1EE10FA9FDDDDED070A60EE883AAD
:10170000B3EE074AF4EEC43A06F5C042F1EE10FA21
:1017100082ED2A3AC5ED545AA1D5C7EE044A9FED91
:10172000568AF4EE484AF1EE10FAC8BFF0EE484A85
:10173000A0E79FED527AF4EEC70AF1EE10FA1FD53A
:1017400070EEC24A9FED4E5A24EE856AF7EE008A8B
:10175000B4EEE86A0122F1EE10FA85F8442177DD53
:101760009FED481ADFED481A9FED482A8DED052AB6
:101770004FF07E500490CDED061A8DED071A05E767
:101780009FED430AF4EEC00AF1EE10FA22D5414C67
:1017900007014FF00C08E1594FF0020E0023CDE98C
:1017A000011885F844E10093414404AF03916C466D
:1017B000B846F4EC010ADFED383AB8EEE04AB0EE94
:1017C000000A64EE230A04F085FB4445A7EC010AF5
:1017D000EFD1DBE6DFED312AF4EEE20AF1EE10FAAA
:1017E00026D49FED2F3AF4EEC30AF1EE10FA10D58D
:1017F0000101284C6758019704EB00180022D8F823
:101800000430D8F808100293042085F844010092AF
:10181000CBE7204A010102EB00145758A368E168A6
:10182000019705200022029385F844010092BCE74D
:10183000184C010104EB001C6758DCF8043003224B
:101840000020CDE90173009085F844210C21ACE71C
:10185000DFED146A66EE267AF6EE005AB0EE682ADC
:10186000F0EE681AA7EEE52AE7EEA51A37EEA81AF9
:101870007CE700BF8FC2F53C00C0FF44CDCCCC3E1E
:1018800015F92C406F12833F3789813F91ED7C3FE2
:10189000CDCC0C3F3C6A0008ABAAAA3D3333333FA2
:1018A0009A99593FA69BC43C2DE9F043D0ED0F1AFD
:1018B000DFEDE42AD0ED0E6A90ED0D1AD0ED0B0AA3
:1018C00090ED0C0AD0ED123A90ED134AD0ED144A87
:1018D00090ED155A2DED048B61EEA29A002A00F0CE
:1018E000AD819FEDD92A541EF0EE422AD0E9003294
:1018F000B1EE666A01F1080E76E190ED039AD0ED43
:10190000078AD0ED085A90ED048A80ED029AD8EE4D
:10191000A57A99EE087AB6EE003A79EE035A38EED7
:10192000833A80ED037AC0ED077AC0ED068A90ED28
:10193000107A9FEDC69A9FEDC48A67EE098AF2EE8F
:10194000047AE8EEA57A03F16407C7F30D0502EB0C
:101950008508BDEEE77A03F1700617EE101A1944F8
:101960004F1CC7F30D0CC1F30D0902EB890102EB0B
:101970008C05D1ED005A95ED009AB8EEC77A79EE54
:10198000658A77EEC77AC6F30D06E7EEA85A02EB32
:101990008607C3F30D0903F2131C75EE885A02EB98
:1019A0008905C8ED005A1EED029A5EED018A97ED99
:1019B000007A79EE287ACCF30D0827EE809A02EBB4
:1019C0008801A5EE889A03F17206C6F30D0703F2AB
:1019D0000529A6EE879A02EB8708C9F30D0602EBEC
:1019E000860CA9EE067A0EF1080E013C85ED009AF0
:1019F00091ED008A9FED969ADFED965AF0EE477AC8
:101A0000E6EE887A03F21515C5F30D0703F295315A
:101A1000A7EE868A02EB8709C1F30D06C8ED007AAE
:101A2000DCED007AA6EEA78A02EB860803F2072512
:101A3000C5F30D07E8EE067A02EB870C03F60B26DA
:101A400089ED008A98ED007AE6EE877AC6F30D09F3
:101A500042F6525102EB8908CCED007AD0ED108AA3
:101A600028EE898AA7EE867A03F29737C7F30D0727
:101A7000F0EE657AE8EE037A98ED003AFDEEE75A6B
:101A800015EE905A05EB030C0CF5355613368C44C5
:101A9000C6F30D08CCF30D0902EB890C02EB8805A7
:101AA0009CED008A95ED009AF8EEE58A79EE485AA9
:101AB00077EEE87AB0EE479AA7EEA58A03F590563E
:101AC000023602EB8709A1EE089AC6F30D0502EB78
:101AD000850603F5905839EE638A08F1040CE1EEAF
:101AE000883A03F60D27C7F30D05CCF30D0773EE07
:101AF000E48A02EB8708E9EEA84A02EB850503F5C4
:101B0000FA571637F0EE645AE3EE065AC7F30D0C97
:101B100002EB8C0703F51B5CA6EEA53A1944C1F352
:101B20000D01C9ED005AD6ED007AA6EEA73A0CF1E8
:101B30001006C6F30D0602EB8609E3EE067A03F5FE
:101B4000FA56183685ED003AC8ED007A1EED043AD3
:101B500037EEA79A03F5355539EE438AC6F30D08DB
:101B6000A8EE203A103502EB8806C5F30D0C0EEDF9
:101B7000043AD7ED008AD9ED005AA1EE287A02EB9B
:101B80008C0503F51B57E9EE092A1237C7F30D0739
:101B900037EE447A02EB8108A1EE874A02EB87090F
:101BA000611C74EE457AA9EEA75AB0EE453AA6EE4E
:101BB000A53AE3EE065A86ED003A95ED009AE9EE75
:101BC000065AA6EEA59AC9ED005A88ED009A1EEDB8
:101BD000038A79EE098A38EEC87AA8EEA82AA7EE19
:101BE000208A0EED038A15D0591E45BF03F57F5399
:101BF0003F330B461946DD0690ED027AD0ED067AAA
:101C000001603FF47AAEB6EE008A77EE085A37EEFE
:101C1000883A8CE672EE821AF6EE006A21EEA63A57
:101C2000BDEC048BC0ED123A80ED134AC0ED144AAE
:101C300080ED155A80ED163ABDE8F0839FED023A2B
:101C4000EEE700BF9A99193F0000000000007042C3
:101C50000000C842004092452DE9F0419FEDE97A2D
:101C60002DED048BF7EE007AB0EE408AC7EE808A45
:101C700000F5004400F5025500F5214807460E46E0
:101C80002C3508F1EC0887EE080A80ED008AC0EDDB
:101C9000018A80ED020A84ED748AA5F500504FF4A4
:101CA000005200211C3804F061F8002300224FF09C
:101CB0007C5CDFF8BCE3D44845F81C2C0121C5E965
:101CC000002145F8183C45F814EC45F8100C45F88F
:101CD0000CCC45F808CC45F8043CAB602A732B6368
:101CE000EB62AB626B622B62EB61AB6105F5015598
:101CF00010354545D1D1C54DC4F87053C44DC548C4
:101D0000C549C64AC4F87853F7EE000AC44DC4F872
:101D1000F831C4F8F431C4F80C32C4F80832C4F80D
:101D20002032C4F81C32C4F83432C4F83032C4F85B
:101D30004832C4F84432C4F8E801C4F8FC01C4F8DD
:101D40001002C4F82402C4F83802C4F84C02C4F8E3
:101D5000EC11C4F80012C4F81412C4F82812C4F824
:101D60003C12C4F85012C4F8F021C4F80422C4F89C
:101D70001822C4F82C22C4F84022C4F85422C4ED1E
:101D8000EA8AC4EDDA0AC4F85C32C4F88053A54D7F
:101D9000C4F88853A44DC4F85832C4F86002C4F89B
:101DA0006412C4F86822C4F87032C4F86C32C4F803
:101DB0007402C4F87812C4F87C22C4F88432C4F8DF
:101DC0008032C4F88802C4F88C12C4F89022C4F897
:101DD0009832C4F89432C4F89C02C4F8A012C4F833
:101DE000A422C4F8AC32C4F8A832C4F8B002C4F8D3
:101DF000B412C4F8B822C4F8C032C4F8BC32C4F873
:101E0000C402C4F8C812C4F8CC229FED886A9FEDC2
:101E1000881AC4F89053C4F8D432D4EDEE5AC4F8FA
:101E2000D032A5EE861AC4F8D802C4F8DC12F3EE5C
:101E3000046A61EE261AC4F8E022F4EEE01AC4F84F
:101E4000E832C4F8E432C4F8EC02C4F8F012C4F882
:101E5000F422C4F8FC32C4F8F832C4F80003C4F821
:101E60001403C4F804137348C4F81813C4F80823FF
:101E7000C4F81033C4F80C33C4F81C23C4F824335A
:101E80006D4AC4F820331021C4F8B033F1EE10FAD3
:101E90006A4BC4F8C0C3C4F8AC03C4F8BC13C4EDA7
:101EA000ED6AC4F89823C4F8A03340F3F5839FED9E
:101EB000642AC4EDCA1A61EE022AF4EEE02AF1EEB9
:101EC00010FA40F325849FED5F3AC4EDCB2A61EE12
:101ED000033AF4EEE03AF1EE10FA40F3E1839FEDBD
:101EE0005A4AC4EDCC3A61EE044AF4EEE04AF1EE0F
:101EF00010FA40F3D9839FED555AC4EDCD4A21EE37
:101F0000059AB4EEE09AF1EE10FA40F3D183F3EEC5
:101F1000019A21EE297A84EDCE9AB4EEE07AF1EEC0
:101F200010FA40F3C983DFED4A7A84EDCF7A21EECF
:101F3000270AB4EEE00AF1EE10FA40F3C1839FEDF8
:101F4000456A84EDD00A61EE065AF4EEE05AF1EEED
:101F500010FA40F3B983DFED406AC4EDD15A61EE67
:101F6000261AF4EEE01AF1EE10FA40F3B183DFED39
:101F70003B0AC4EDD21A61EE202AB7EE002AF4EE35
:101F8000C22AF1EE10FA40F3A783B2EE0C3A61EEEA
:101F9000033AC4EDD32AF4EEC23AF1EE10FA40F35C
:101FA0009F839FED2F4AC4EDD43A61EE044AF4EECC
:101FB000C24AF1EE10FA40F397839FED2A5AC4ED1E
:101FC000D54A21EE059AB4EEC29AF1EE10FA40F32A
:101FD0008F83DFED259A84EDD69A21EE297AB4EE2F
:101FE000C27AF1EE10FA40F38783DFED207A84EDB8
:101FF000D77A21EE270AB4EEC20AF1EE10FA40F3C6
:102000007F8347E00000004252B87E3FABAAAA3E61
:10201000CDCC4C3E22BA003D0AD7233CCAAA7F3F12
:102020002549123E398EE33D8C2EBA3D3333333F82
:102030009A99993E0000DC42D9899D3D8988883D66
:1020400034339B41666696419A999141CDCC8C413F
:1020500033338341CDCC7C41333373419A99694109
:1020600066665641CCCC4C41343343419A99394150
:1020700000004843000000000000DC42CF4F574002
:102080006666E63E2717354149265F428FBA2141F1
:10209000DB0F4940B2EE066A21EE061AB4EEC21A10
:1020A000F1EE10FAD8BFB0EE421A07F5034307F578
:1020B00001402833E83084EDD80A84EDD91A8446EB
:1020C00098460021013105EE901A5FED166A1FED6A
:1020D000164A1FED155A1FED143A5FED143A5FEDE5
:1020E000144A1FED1A0A1FED196AF8EEE51AF7EE09
:1020F000000A21EEA62A71EEE02A21EE849AE2EE91
:10210000220A69EE209A69EEA87AF4EEC57AF1EE19
:1021100010FA09DC27EEA77AE7EE033AE7EE234A46
:1021200027EEA40A20EE006AF8EC015A8CED000AB2
:10213000B7EE001AC1EE256A01310CF1140EF0EE73
:10214000417AE6EE807A00EE901A37EE860AB8EE13
:10215000E02A81EE006A5FED391A5FED392A1FED42
:10216000389A5FED3A0ACCED016A22EE213A72EE1E
:10217000413AF0EE414AE3EE234A22EE224A8CED48
:10218000026A24EE245A1FED412A65EE289AF4EEE5
:10219000C99AF1EE10FA0FDC69EEA95A1FED461A42
:1021A0005FED461A1FED467AE5EE811AA5EEA17A9B
:1021B00069EE870A20EEA02AF8EC012ACEED000A8B
:1021C000F7EE006A86EEA23A10290EF1140CF0EE3A
:1021D000663AE3EE203A8EED013A33EE824AC6EEDD
:1021E000844ACEED024A7FF46DAF0025013509EE39
:1021F000105A5FED609A5FED605A1FED5F2A1FED88
:102200005E1A5FED5E1A5FED5E0A1FED624AB8EE80
:10221000C95AB7EE000A65EE297A35EE406A25EE16
:10222000257AA7EE860A1FED6B9A67EE006A66EEC6
:10223000A82AF4EEC22AF1EE10FA09DC22EEA23A44
:10224000E3EE011AE3EE210A22EEA09A29EE094AF2
:10225000F3EC014A80ED009AF7EE009A89EEA45A59
:10226000013500F11402F0EE696AE5EE096A00EE4C
:10227000105A36EE843AF8EEC07A89EE839A5FED12
:10228000833A1FED836A1FED822A1FED840A80EDD9
:10229000015A27EEA31A77EEE91AF0EE695AE1EE39
:1022A000215A67EE860A80ED029A20EEA57A1FED8C
:1022B0008B6A67EE282AF4EEC22AF1EE10FA0FDCE0
:1022C00062EEA23A1FED904A5FED909A5FED904A60
:1022D000E3EE849AE3EEA94A22EEA40A20EE006A15
:1022E000B3EC015A82ED000AB7EE009A89EE051AA6
:1022F000102D02F11400F0EE497AE1EE007A82ED41
:10230000011A77EE861AC9EE210AC2ED020A7FF49D
:102310006DAFC548C54BC649C4F86C03C4F87433E7
:10232000C4F87C13C34BC44DC44AC548C549C4F85E
:10233000A433C4F88453C4F88C23C4F89403C4F8B9
:102340009C1307F5034007F5A0344FF440420021E9
:10235000C43003F00BFD4FF00008F6EE008ABA4AD5
:10236000C4F8DC63304600263146C4F8C823C4F8FC
:10237000C4634FF48032C4EDF38AC4EDF48AC4F828
:10238000D48303F0F3FCC8EE885A07F5A230C4F8F2
:10239000D86304F2144104F58263AC4D04F20442A4
:1023A00004F581669FEDAA2ADFEDAA2A80ED008A56
:1023B000C2EE086A04F20C400D601D6004F2244372
:1023C00004F21C41BDEE007AB0EE478AA5EEA28A67
:1023D000C2ED008AB5EEC08AC6ED008A04F58462BB
:1023E000056004F5856604F22C4004F58365F1EE82
:1023F00010FA85ED009AA6EEA27A81ED009AC2F855
:102400000080C3F80080C6F80080C0F8008000F1AA
:10241000E980B4EEE88AF1EE10FA40F3C28038EEBB
:10242000686AB0EE005AA6EE459AB3EE001A66EE60
:10243000017AF5EE001A29EE279AC4EDF98A69EEC1
:10244000210A84EDFA9AC4EDFB0AC4EDF80AB6EE4F
:10245000003AB4EEC37AF1EE10FA40F3568137EE4B
:10246000437AB3EE004AF7EE009AF0EE003AF0EE4F
:10247000694AE7EE634A04F2344E04F5896227EEB6
:10248000040AB5EE006A20EE245A002525EE061A4D
:102490004FF07C58704E7148714984EDFE5A84EDBE
:1024A000FF1A84EDFC1AC4F8F48304F25C43CEF8FE
:1024B0000060CEF80400CEF81050CEF80C50CEF8E4
:1024C00008101660506004F58D6604F58C60DFF826
:1024D000C0E191601561D5601D6004F26442356011
:1024E000C0F800E004F26C4EDFF8A8C1CEF800504E
:1024F00004F27443C2F800C004F58F6604F58E6CD4
:1025000004F27C40CCF8005004F5906E1D6004F598
:102510009562356004F2A44304F5976C04F2AC466E
:102520000021C0F80080CEF800800120A4F88414B7
:102530001560CCF800501D60356004F59665C5ED5A
:10254000009A842284F8B40407F10C0003F00EFC16
:10255000C7ED099ABDEC048B424C4349434A444BB6
:10256000444E454D4548F960BA614549454A3B628C
:102570007C65454BFC66454CBE65FD61C7F8148023
:10258000F862F964C7F88480C7F888803B677A6787
:10259000C7F87C80C7F880807C63C7F81080BDE8EE
:1025A000F081B0EE003AA8EE439ABBEE004A68EE26
:1025B000049AF5EE003A69EE294AB5EEC07A24EEA7
:1025C000A30AF1EE10FAC4EDF98AC4EDFA4A84EDDB
:1025D000FB0A84EDF80A40F19880B1EE477AB3EE39
:1025E000004A40E7B0EE002AA8EE029AF3EE002A75
:1025F00068EE625AF5EE006A25EE898AC4EDF98A22
:10260000B5EEC07A68EE268AF1EE10FA84EDFA8A09
:10261000C4EDFB8AC4EDF88A7FF519AFB1EE477AB5
:10262000B3EE004A1FE700BFCFCC4C3ED1CCCC3D2F
:102630008988883DDBCCCC3CD4CC4C3D16D7233D9F
:102640008A88083DC10EEA3C0080BB453333333FE6
:102650009A99993E0000004222BA003D0AD7233CD5
:10266000CAAA7F3FCDCCCC3E48E1FA3E48E13A3F92
:10267000C3F5283FAE47E13EC3F5683FA4707D3FF8
:1026800052B85E3FCDCC4C3E9A99193F9A99593F2A
:10269000FA7EAA3EFA7E2A3FC4EDCA0AC4EDCB0AEE
:1026A0004FF07E55C4F830534FF07E50C4F83403D9
:1026B0004FF07E51C4F838134FF07E52C4F83C23DB
:1026C0004FF07E58C4F840834FF07E5EC4F844E378
:1026D0004FF07E5CC4F848C34FF07E53C4F84C33CF
:1026E0004FF07E55C4F850534FF07E50C4F8540359
:1026F0004FF07E51C4F858134FF07E52C4F85C235B
:10270000B7EE000AB0EE401ACFE4BBEE004AAAE6EC
:10271000C4EDCB0AC4E700BF2DE9F04F00F5A034AB
:10272000D0ED057AD4F8C03490ED230A9FEDF32A5A
:10273000B1EE087A67EE870A01EE103AFDEEE01A74
:10274000F8EEC12A11EE905A70EE626A2DED0A8BF6
:10275000F5EEC06A052DA8BF0525F1EE10FA48BFB9
:10276000F1EE666A87B090ED088A0591F4EEC26AD0
:10277000B2EE086AF1EE10FA68EE068A804603921D
:1027800009DD03F045FBBDEEC00A10EE100AF8EEBD
:10279000C02AC4F8C00403EE105AF8EEC33AB2EEF1
:1027A000084AE3EE848A08F5004508F5005ADFED93
:1027B000D44A9FEDD4AA9FEDD4BA9FEDD48A38EEC7
:1027C000A25AB0EE000A65EE240A03F083FBDFEDA7
:1027D000D05A98ED071AD8ED030A20EE259A08F191
:1027E0009000B0EE490A0490FEF7A6FED8ED0BAAC1
:1027F0009FEDC87ADFEDC80AF7EE009A79EEEABAE3
:10280000B6EE00CA6BEE8CCAAAEE8ABA08F5804909
:1028100008F5C04679EEEC7A8AED27BA89ED3BBA25
:1028200086ED4FBA85ED63BACAED287ACAED29CA9A
:10283000C9ED3C7AC9ED3DCAC6ED507AC6ED51CA24
:10284000C5ED647AC5ED65CAD8F83010CAF8C01075
:10285000C9F81011C6F8601195ED761AC5F8B011D7
:1028600069EE016AD8ED018A26EE8C6A04F58D6264
:1028700066EE281A04F26C47C2ED001A95ED772A2D
:1028800069EE022A04F58E6B22EE8C3A28EE880A55
:1028900063EE073A23EEA84A87ED004AD5ED784A61
:1028A00029EE245A65EE0C5A9FED9CCA25EEA0BA7B
:1028B0006BEE28BACBED00BA03F0D0FAD8ED040ADB
:1028C00079EEC0CAF4EECC0A04F59463F1EE10FA86
:1028D000C3ED00CAACBF0123002384F89034B1EEED
:1028E000040A019303F0F6FA04F5916104F28C40B6
:1028F00091ED001A90ED007ADFED890ADFED897A1B
:10290000B4F88424019B77EE416A20EE270AA6EEF4
:10291000A01A013297B228EE808A71EE299A04F546
:102920008F6B68EE29BA4A2F81ED001ACBED00BA01
:1029300000F22B87A4F88474D8ED0E5A9FED7ABA72
:1029400098ED18CADFED797A98ED168A9FED780A2E
:1029500095EDEC7AD5EDEA6A6AEEAAAA04F2A440F3
:10296000D0ED009A65EEA5CA6AEE8B0A69EE8C1A64
:10297000ECEEA70A08F50342283221EE882AB3EECE
:10298000041AE2EE000A96460021B4EE419ACAED1E
:102990002F0AF1EE10FA08F5014AC9ED430A58BFB3
:1029A000B0EE491A0AF1E80927EE0B9AC6ED570A6C
:1029B000C5ED6B0A85EDEB1A4E46013102EE901A19
:1029C000F8EEE23AB7EE005A63EE894A33EEC56A92
:1029D00021EE23AAA4EE865A9FED67BA9FED693ACD
:1029E0009FED694ADFED695ADFED650A9FED630AE5
:1029F0006AEE05AA2AEEA6CAB4EECBCAF1EE10FA28
:102A000009DC6CEE0CCAACEE834AECEE845A6CEE38
:102A1000250A20EEA00AFEEC017ADFED579AC6EDFA
:102A2000000AB7EE007AC7EE271A013106F1140C3E
:102A3000F0EE475AE1EEA05A02EE101A75EE80AAA7
:102A4000F8EEC22A87EE2ACA62EE893A32EEC75AF7
:102A5000B0EE474AA3EE854A61EE224A9FED482A2E
:102A6000DFED462AC6ED011A24EE84AA86ED02CADD
:102A70002AEE26BAB4EEE9BAF1EE10FA0FDC6BEEEC
:102A80000B0A9FED403ADFED40CA9FED406AE0EE51
:102A900083CAA0EEAC6A2BEE062A62EE022ABEECD6
:102AA000017A8CED002AB7EE000AC0EE079A1029D1
:102AB0000CF11406F0EE407AE9EE827ACCED019A40
:102AC00077EEA21AC0EE213ACCED023A7FF475AF50
:102AD00095EDED5A9FED21AA164FC5F8B87365EE36
:102AE0000A4AF4EEC04AF1EE10FA40F37B869FEDFD
:102AF000124AC5EDCA4A25EE04BA49E06666263F89
:102B0000ABAAAA3D0AD7233CA4707D3F959E6BC516
:102B1000DFCF02420326803F9F8E7F3F0AD7A33B31
:102B20000AD7A33C00004842A69B443C9A99193E10
:102B3000CDCCCC3D9A99193FEC51783FD7A3703F4B
:102B4000C3F5683FAE47613F9A99593F85EB513FC6
:102B5000713D4A3F5C8F423F48E13A3FEC51383F7C
:102B60003333333F1E852B3F0AD7233FF6281C3FC4
:102B7000E27A143FCDCC0C3F6666E63E271735411E
:102B8000CF4F574049265F428FBA2141DB0F494062
:102B90006BEE0A5AF4EEC05AF1EE10FA40F37E865C
:102BA0005FED1AAAC5EDCB5A25EE2ACA2CEE0A3AD9
:102BB000B4EEC03AF1EE10FA40F318865FED20CA89
:102BC00085EDCC3A65EE2C0A20EE8A6AB4EEC06A36
:102BD000F1EE10FA40F30E861FED262A85EDCD6A40
:102BE00065EE022A22EE8A7AB4EEC07AF1EE10FA8D
:102BF00040F304865FED2C9A85EDCE7A65EE297A56
:102C000067EE8A1AF4EEC01AF1EE10FA40F3FA8574
:102C10005FED323AC5EDCF1A65EE234A24EE8ABA4B
:102C2000B4EEC0BAF1EE10FA40F3F0851FED384A69
:102C300085EDD0BA65EE045A65EE8AAAF4EEC0AA14
:102C4000F1EE10FA40F3E6851FED3ECAC5EDD1AABC
:102C500025EE0C3A23EE0AAAB4EEC0AAF1EE10FA61
:102C600040F3DC851FED440A5FED44CA85EDD2AA2E
:102C700065EE000AB7EE006A20EEAC2AB4EEC62A72
:102C8000F1EE10FA40F3CE855FED4B2A85EDD32AA5
:102C900025EE227A67EE2C9AF4EEC69AF1EE10FA3F
:102CA00040F3C4855FED517AC5EDD49A65EE271ADD
:102CB00061EEAC3AF4EEC63AF1EE10FA40F3BA85A2
:102CC0005FED574AC5EDD53A25EE24BA2BEE2C4AD6
:102CD000B4EEC64AF1EE10FA40F3B0855FED5D5AEE
:102CE00085EDD64A65EE25AA2AEEACCAB4EEC6CA70
:102CF000F1EE10FA40F3A6851FED633A85EDD7CAD1
:102D000025EE03AA2AEE2C0AB4EEC60AF1EE10FA5A
:102D100040F39C855FED690A25EE205A65EE2CCACA
:102D2000F4EEC6CAF1EE10FAD8BFF0EE46CA85ED51
:102D3000D80AC5EDD9CA4E4611460020013006EE2C
:102D4000100AB8EEC62AF7EE002A29EE027A72EED1
:102D5000629A61EE027AE7EE292A5FED793A5FED39
:102D6000771A1FED77BA1FED774A1FED7BCA1FED6B
:102D70007DAA67EEA25A65EEA6AAF4EEE3AAF1EEEA
:102D800010FA09DC6AEEAA4AA4EEA1BAA4EE8B4AB4
:102D90002AEE84CA2CEE0CAAB1EC013A5FED8A0A45
:102DA00086ED00CAB7EE000A80EE035A013006F144
:102DB0001407F0EE407AE5EE0C7A0CEE900A77EE0E
:102DC0008A3AB8EEEC2A80EE234A69EE022A32EE05
:102DD000406AF0EE409AE2EE869A21EE027A1FED0A
:102DE000993A5FED99CA86ED015A67EE291A86ED88
:102DF000024A21EEA6BAB4EEE0BAF1EE10FA0FDC08
:102E00006BEE0B4A5FEDA1AA5FEDA15A1FEDA1CABF
:102E1000E4EEAA5AA4EEA5CA6BEE0CCA2CEEAC3AAC
:102E2000B1EC010AC7ED00CAB7EE00AACAEE000A6B
:102E3000102807F11406B0EE4A5AA0EEAC5AC7EDBE
:102E4000010A35EE032ACAEE022AC7ED022A7FF4F0
:102E500075AFF049C5F8B013CB460027013709EE2E
:102E6000107ADFEDED9A9FEDED4ADFEDED3ADFED03
:102E7000EDAADFEDED5A9FEDEDAA9FEDED3AB8EE2C
:102E8000C97AB7EE006A67EE291A37EE46BA61EEE4
:102E9000077AA1EE8B6A67EE864A24EEA6CAB4EEE4
:102EA000C4CAF1EE10FA09DC6CEE0CCAECEEA3AA6F
:102EB000ECEEAA5A2CEE25AA2AEE0A3AB2EC015AF6
:102EC000DFEDD50A9FEDD57A8BED00AAB7EE000AAB
:102ED00080EE052A01370BF1140CF0EE405AE2EEB9
:102EE0000A5A02EE907A35EE834AB8EEE29AC0EEC4
:102EF000044A69EE209A39EE406AB0EE40BAA9EE73
:102F000086BA61EE091A9FEDCA5ADFEDC80A8BED49
:102F1000012A61EE8BAACBED024A6AEEA67AF4EEA4
:102F2000C77AF1EE10FA0FDC67EEA7CADFEDBC3A04
:102F30009FEDBCCA9FEDBCAAACEEA3CAACEE8CAAB6
:102F400067EE8A0A20EEA05AB2EC013ACCED000AF4
:102F5000B7EE009A89EE030A102F0CF1140BB0EEB5
:102F6000492AA0EE202A8CED010A72EE052A89EE8C
:102F7000227A8CED027A7FF471AFAE4AAE480193AB
:102F8000AE4BD8ED060AAE4EAE49C5F8BC73C5F8D7
:102F90007C33AD4FC5F8A033C5F86C23AB4BAC4ABE
:102FA000C5F870039FEDABBAAB48C5F87463C5F8BC
:102FB0007813C5F88073A949C5F88433C5F8882308
:102FC000A74BA84AC5F88C03A74EA84FC5F89C3359
:102FD0004FF07C50C5F89413C5F8A423C5F8C0037E
:102FE000B0EE4B0A85EDDA9AC5F89063C5F8987390
:102FF00002F070FFD8ED099ADFED9D6AB0EE401A3D
:1030000079EE690A9FED9B0A61EE26AA02F062FF43
:103010009FED996AD8ED0D0A019BF4EEC60AF3EE16
:10302000041AF1EE10FA20EE21CAC0F21584012133
:1030300084F8B414DFED91CAD8ED0A3A9FED90AA56
:10304000DFED786A9FED762A9FED777A9FED8D4AC6
:10305000D8ED192AD8ED131ADFED8B5A9FED8B6A44
:103060000399B0EE6C5AA3EE8A5A04F2344E04F57A
:10307000896CF7EE000A80EE850A04F2044B04F531
:10308000816704F20C4204F5826004F2144628EED3
:10309000AA3A68EE8C8A23EE039A28EEA8BAB0EE1C
:1030A000661AA9EE021AEBEE026AF0EE479AE9EE12
:1030B000019AABEE267A63EE299A28EE879AF0EE13
:1030C00060AAF0EE607AE9EE80AAE9EE007AE9EE15
:1030D000A9AAE9EE097A80EEAABAC0EEA7AA98EDED
:1030E00015CAD8ED143ACEED009AF5EE004AB0EECE
:1030F00044AAA1EEAC6AACEE2CAAE2EEA45ADFED33
:1031000064CA8EED010A63EEAC0A8EED02BA8CED54
:10311000009A8CED010ACCED02AA8BED008AC7ED76
:10312000005A82ED006AC0ED000A86ED00AA00296F
:1031300000F0FF8208F5014A08F5034E08F5034C3C
:1031400028460027059E0AF1D00B4246B1EE40AA60
:10315000F1EE698AB1EE498A0EF1680E0CF1A80A07
:103160003D46804696ED013A9FED462A9FED495A2D
:10317000DFED491A96ED000AB5EEC03A04F5976105
:10318000D1ED006AF1EE10FA48BFB1EE433A04F215
:103190007C4704F2744C04F59060D7ED005ADCEDE6
:1031A000002A90ED00CAF4EEC36AF1EE10FA33EE95
:1031B000667A7BEEA2BA58BFB0EE452A7CEE657AFD
:1031C000B7EE001AE7EE026AF4EEC1BAE7EEA15AD2
:1031D000F1EE10FAA8BF7BEEC1BAC1ED006A04F2AD
:1031E0007441C1ED00BAC7ED005A002B00F09D827A
:1031F00091ED006ADFED29CA9FED294AF4EEC65A27
:10320000F1EE10FAD8BFF0EE44CADFED264A049B77
:1032100058E000BF8FC2F53D62BEBC3A6666E63E2E
:1032200049265F428FBA2141DB0F4940CF4F5740BB
:1032300027173541CFCC4C3EABAAAA3E8988883DA2
:10324000D1CCCC3DCDCC4C3E2549123ED4CC4C3DCE
:10325000398EE33D0000484316D7233D8A88083D58
:10326000C10EEA3CDBCCCC3C8C2EBA3DD9899D3DCD
:10327000000070420000484477BE7F3F3333333F45
:10328000CDCC1441CDCC4C3E9A99193E9A99993E99
:103290003333733F6F12033B6F12833ACDCCCC3C78
:1032A000CDCCCCBCCDCCCC3D0AD7A33DABAAAA3E5D
:1032B0009A99593FCDCC4C3D0000003800000000E9
:1032C00000FEFF465FED03BAE0EE24CACDE901241B
:1032D00077461C462046B0EE6C0AFDF7A9FF04F5C0
:1032E00001541034A3457BEE80BAF3D1DDE901240B
:1032F00004F25C4C04F58D60DCED003A90ED000AC0
:103300001FED127ABE4604F26C4104F58C6733EE71
:10331000802AD1ED006AD7ED005AB7EE003A04F2E8
:10332000644C04F58E6136EEA5CA9CED004AD1EDE1
:10333000003A5FED236AB4EEC32AF1EE10FAF7EE1D
:10334000002AF5EE000AA8BF32EE432AB4EEE2CA24
:103350006BEEA07A74EE230AF1EE10FAB0EE005A8A
:10336000F7EE004ABFEE001AA2EE051A04F25C4323
:1033700004F5946CA8BF3CEE62CAF4EEE40AF1EEE8
:1033800010FAF0EE00CABFEE006AA8BF70EEE40AC1
:10339000ACEE2C6A04F58C6004F26447B0EE003A9F
:1033A000BFEE000A71EE071AA0EE830A714683EDA4
:1033B000002A76EE21BA04F29C4393ED007A1FEDC9
:1033C000452ADCED001A80ED00CA30EE2B1AB0EE73
:1033D000475A91EE025AAAEB0E004007C7ED000AC9
:1033E000A1EE857A5FED4B2A83ED007AE7EE267A2F
:1033F0004B462BD599ED03CAD9ED01CAD9ED005A38
:1034000099ED046AD9ED024AB0EE674AACEECC4AB7
:1034100009F11403ACEE654A74EE46BA6BEEA43AB9
:10342000A5EEA3CAA5EE8C6AF0EE4C0AE5EEA30A5F
:10343000A5EE8C6AC9ED030A89ED046AB1EC010AB4
:103440002CEE8C3A8A45E0EE032A54D093ED032A01
:1034500093ED011A93ED005AD3ED041AD3ED08BA97
:10346000D3ED060A93ED027A93ED05CA93ED096A4E
:10347000D3ED073AF0EE676AE1EE426A0F46283371
:10348000B0EE673AE2EE456AA0EEEB3A76EEE1CABC
:10349000ABEECC3A6CEE875A33EE460AA5EE252AFF
:1034A000E5EE021A61EE024AE5EE021AB0EE424A79
:1034B00020EE232AA5EE254AECEE02BA03ED074AD8
:1034C000ACEE2B6AB0EE6B1A43ED061AACEE021AA4
:1034D000ACEE2B6AF7EC016A03ED021AE6EEA42AC1
:1034E00003ED016AD1ED011A20EEAB5A391D8A4570
:1034F000E1EE852AAAD1B6EE007A62EE872A92ED35
:103500001BCA94F8B404ECEE227A78B904F2AC4CFD
:10351000DCED00CA04F5966177EEEC5A91ED004AB5
:10352000F0EE6C7AE4EE257ACCED007A04F23443C6
:10353000D3ED03BA93ED046AD4EDF20AD4EDF5CAE3
:10354000D4EDF44AD4EDF35A1FEDA72A1FEDA7CA14
:10355000D4F8C4135FEDA81A5FEDA82AEBEE8A7ABF
:1035600004F5896745F6FF70B0EE464AEBEEA87A9F
:10357000BDEEE00A77EEC63AB8EEC03A23EE8B1AFB
:1035800070EEC36AE9EE81BAA4EE82CAB0EE6B7A3D
:10359000A9EE817AA9EEAB4A83ED037A97ED036A2F
:1035A000F0EE447AAAEE064AE9EEAB7AA8EE064AB5
:1035B000C3ED047A97ED043A5FEDBFBA74EE434A67
:1035C00010EE103A64EEAA3AB3EE0B5AA9EE236A53
:1035D000F2EE020AA9EE063AB0EE462AA9EE232A36
:1035E000A9EE063A87ED032A87ED043ACF1A07447D
:1035F00007403B18034008EB430C08EB4703BCF9BA
:10360000C473B3F9C4C3A94B9FEDA96A9FEDA92A5E
:1036100000EE107A07EE10CAB8EEC01AB8EEC74A2C
:1036200061EE217A08EB410CE4EE617A0131014050
:1036300047F6FF7066EEA76A9FED9F0AE4EE216AE7
:1036400076EEEC1AECEE21CAB0EE63CAACEEA5CA77
:10365000ECEEA23AC4EDF5CAF0EE45CA6CEE205A83
:10366000ECEE0CCAACEE255A6CEE2C0AF4EEE23A03
:1036700080EE853A23EE2B5AFDEEC5BA1BEE907A0A
:103680009F42B8BF1F468742A8BF0746ACF8C47325
:10369000C4F8C41304F29441D1ED002AF1EE10FAFB
:1036A0004CBFB1EE633AB0EE633A73EE624A04F592
:1036B0009363E4EE862A93ED001AC1ED002A32EE00
:1036C000C17AF4EEC02AA7EE021AF1EE10FA83EDE9
:1036D000001A0ADD81EE224AF7EE007AB4EEE74ADC
:1036E000F1EE10FAD8BF63EE843AF3EE0B1AF0EE67
:1036F000616AB2EE02CA63EE8CCAE3EEA36A039F6C
:10370000ECEEA31A0135083666EEA33AAF42C3EEDB
:10371000A15A46ED025A46ED015A09D004F58F6CC4
:10372000DCED00BA94F890341CE5DFED64CA6CE57A
:103730009046039E059909EE906A08F5A139324634
:1037400009F5EC7004F5866BFEF7AEF8B8EEE99A71
:103750009BED00BA8BEE090AB5EE400AF1EE10FAC5
:1037600000F19F80F1EEC0AA04F2A44A9AED00AAEB
:10377000DFED538A3AEECA8AA8EE28AA8AED00AA9B
:1037800007B0BDEC0A8BBDE8F08F4E4FDFF850E17B
:103790003A684D49DFED4D1ADFED4D2A9FED4D6A38
:1037A0000EFB021C0EFB0C1203EE10CA04EE102AD4
:1037B000F8EE433AF8EE444ABEEE002AA4EEA12AFF
:1037C0003A6004F5906B23EEA15A22EE0AAAA5EE08
:1037D000226A0027A4F884748BED006A80ED00AAA9
:1037E000FFF7AAB885EDCA0A85EDCB0A4FF07E50E7
:1037F000C5F830034FF07E5BC5F834B34FF07E5A06
:10380000C5F838A34FF07E5EC5F83CE34FF07E511B
:10381000C5F840134FF07E56C5F844634FF07E570D
:10382000C5F848734FF07E50C5F84C034FF07E5CEE
:10383000C5F850C34FF07E5BC5F854B34FF07E5AC5
:10384000C5F858A34FF07E5EC5F85CE3B7EE000AFA
:10385000F0EE40CAFFF76BBA00269FED1F0A84F80E
:10386000B464019302F036FBDFED1C7A60EE0B5A74
:1038700004F5966A25EEA74A24EE280A02F0EEFA2D
:1038800079EE404A019BF5EEC04AF1EE10FA48BFCE
:10389000DFED0A4ACAED004AFFF7CCBB85EDCB0A43
:1038A000A4E702F075FBF0EE40AA5DE70180FFFFA0
:1038B00017B7D139ACC52737BD37863500000000B2
:1038C000CDCCCC3D000000205FF36E3C0000802F8B
:1038D000CDCC4C3ECDCCCC3E0000A042DB0FC9C0CD
:1038E0000D6619002DE9F0419B4D80460F460146BB
:1038F0009A481646FDF7CAFA98482B7F6A7F98497E
:10390000FCF7FCFD2846FDF727FC002E00F0E381C4
:10391000B1000A1F9108934C0131404611F0030297
:103920004FEA860800EB860E23464FD0012A32D09C
:10393000022A18D0B0F900C0B0F902309FED8A7A9F
:1039400001EE103A07EE90CAF8EEC11AB8EEE70A97
:1039500021EE872A60EE070A0430C4ED000A84EDE8
:10396000012A04F10803B0F90010B0F90220DFEDDC
:103970007E2A03EE101A04EE902AF8EEC33AB8EE4F
:10398000E45A23EEA24A65EE225A83ED004AC3EDC3
:10399000015A04300833B0F900C0B0F902109FEDAD
:1039A000726A06EE90CA00EE101AB8EEE67AF8EEE9
:1039B000C00A67EE067A20EE861A04308645C3ED0B
:1039C000007A83ED011A03F1080356D0B0F9002004
:1039D000B0F902C0B0F904109FED632A01EE902AFD
:1039E00003EE10CAB0F90620B0F90CC0F8EEE12AD7
:1039F000B8EEC34A05EE101AB0F9081062EE823A2A
:103A000064EE024A06EE902A00EE101AB0F90A207F
:103A1000B0F90E10C3ED003AF8EEC55AC3ED014AF5
:103A200001EE902A03EE90CA04EE901A25EE826A07
:103A3000B8EEE67AF8EEC00AF8EEE12AB8EEE34A0C
:103A4000F8EEE45A67EE027A20EE821A22EE823A0B
:103A500024EE025A103025EE822A864583ED026A52
:103A6000C3ED037A83ED041A83ED053A83ED065A1C
:103A700083ED072A03F12003A8D13A493B48324697
:103A80003B4EFEF749FE002018F0040FDFED395AD7
:103A900086F8BD043B4607EB080100F0BB8094EDBF
:103AA000007AD4ED017A9FED345AF3EE0B6AB2EE50
:103AB000020AF0EE660AB0EE661AE7EE070A3B1D50
:103AC0000834A7EEA71A67EE001A67EE802AB0EE58
:103AD000663AA1EE873AE2EEA76AB5EEC07AF1EE59
:103AE00010FA20EE874AF5EEC07A61EE274ACCBF85
:103AF000B0EE476AB1EE476AF1EE10FACCBFF0EED5
:103B0000673AF1EE673A84EE032AC4EEA67AB5EE80
:103B1000406AF1EE10FAC8BFF0EE465A22EE057A7E
:103B200027EE856AFDEEC76AFDEEC67AF4EE635AAB
:103B3000F1EE10FA16EE908A17EE90EA48BFF0EE1A
:103B4000635A8B42A7F80080A7F802E062D1C5ED66
:103B50000A5ABDE8F08100BF140100205001002086
:103B600080030020100000200000003874030020B3
:103B7000744301200000000000FEFF46F0EE663AAC
:103B8000B3EE0B2AB2EE023AB0EE427AF0EE424ABF
:103B9000A6EEA67A3B1D0834E1EE014A66EE832AC2
:103BA00021EE035AB0EE420AA2EEA60AA5EE012AC1
:103BB000B5EEC01A67EE260A24EE816AF1EE10FA1D
:103BC000CCBFF0EE415AF1EE415AC0EE806A86EE6B
:103BD000021AF4EE673AF1EE10FAC8BFF0EE637A1B
:103BE000F4EE657A5FED1C1AF1EE10FA58BFF0EEB4
:103BF000675A26EEA14A61EE217ABDEEC42AFDEE97
:103C0000E77A12EE10CA17EE900A8B42A7F800C0AE
:103C100078809CD094ED000AD4ED010A1FED2A6A49
:103C2000D4ED026AB3EE0B1AF2EE021AB0EE414A7C
:103C3000F0EE414AA0EE004A08341F1D60EE212A32
:103C400020EEA12AE0EEA04AB0EE413AA2EE803A80
:103C5000A2EE201AB5EEC00AF1EE10FA24EE005AD8
:103C6000F5EEC00A24EEA07AD4BFF1EE407AF0EE71
:103C7000407AF1EE10FAD4BFF1EE603AF0EE603A1D
:103C800085EE030AC7EE010AF4EE657AF1EE10FA4A
:103C9000D8BFF0EE657AF4EE637AF1EE10FA48BF21
:103CA000F0EE637A60EE861A60EE063ABDEEE14A07
:103CB000FDEEE35A14EE106A15EE902AF5EEC06A96
:103CC000F1EE10FA94ED011A1A805E803FF756AFBC
:103CD000F1EE663A54E7074907483246FEF71CFD05
:103CE000064BDFED075A83F8BD64C5ED0A5ABDE8FF
:103CF000F08100BF100000207403002074430120F5
:103D000000000000704700BFFEE700BFFEE700BFF5
:103D1000FEE700BFFEE700BF704700BF704700BF6F
:103D2000704700BF10B53048304C84B0002100F01F
:103D30005DFF0121022001F0FFFC01224FF08073A2
:103D40002B4802A9CDE9022301F05CFA294A92E846
:103D5000030084E8030060782378A1781289034483
:103D6000E0780B442179034460790B44A179034442
:103D7000E0790B44034483F47F4383F0FF018A42DC
:103D800003D01D481D4A206062609FED1D0A1D4939
:103D90001D48FDF761FF15491C48FCF7F9F91C4A5D
:103DA0001A4B1C480094A2F10C01FDF771F8012197
:103DB0000F4801F039FB0446211E18BF01211648A7
:103DC0004BF6803200F04AFC00B9FEE7134A124875
:103DD000202100F08DFC00B9FEE70F48182104B047
:103DE000BDE8104000F002BD444801203C480120DD
:103DF00000040240008000080000F0C20000704291
:103E000000803B4700000010740300205001002098
:103E1000800300201401002048480120E5380008F4
:103E200008B5FFF77FFF0248FCF792FEFBE700BFF3
:103E3000500100202DE9F04301219DB004464FF4CC
:103E4000800001F079FC0121084601F075FC012198
:103E50004FF48070002501F087FC4FF00308FF232A
:103E600001A94548DFF8189101938DF80B508DF8A2
:103E7000088001F0C7F941480F944FF400524FF405
:103E800080614FF48076CDE915264FF4003301268A
:103E90000827CDE90D50CDE912514FF400640DA96A
:103EA000484617931494CDE91057CDE91A55189543
:103EB000199601F071F83146484601F099F84FF42F
:103EC000403004904FF4706103A806910395059566
:103ED00000F048FF0B9404F1804404F58C3907A9E5
:103EE0004846CDE909550795ADF820608DF830704A
:103EF00000F00EFF324631464846072300F052FFDD
:103F0000022211464846072300F04CFF424648462D
:103F10000723042100F046FF4146484607230422B8
:103F200000F040FF052211464846072300F03AFF03
:103F3000062211464846072300F034FF072329468E
:103F40001A46484600F02EFF072319463A464846CF
:103F500000F028FF3146484600F07EFF31464846D3
:103F600000F016FF3146484600F06CFF484600F06E
:103F700063FF1DB0BDE8F083000002404C2001400B
:103F800010640240014800F057BF00BF002001400C
:103F900030B5012183B0224C062001F0CDFB214B2E
:103FA0004FF4406269462046CDE9002301F02AF92A
:103FB000204604220A2101F043FA042220460B2164
:103FC00001F03EFA40F202254FF47040CDE90005C1
:103FD000154D6946204601F015F9402369462846EB
:103FE000009301F00FF9204605220C2101F028FA78
:103FF000204605220D2101F023FA204605220F213B
:1040000001F01EFA204605220E2101F019FA284679
:104010000522062101F014FA012003B030BD00BFD3
:1040200000040240020201000008024070B50020B6
:1040300084B014460E4601F079FB002001F028FB05
:104040004BF680339C420CD04AF64440844267D001
:10405000B4F5FA4F6AD038498C425BD0002004B0E6
:1040600070BD03214FF4817001F008FB012001F0C5
:104070000FFB3B2001F09CFB4FF4805548BB3B20DD
:1040800001F096FB02463B201ABB01F091FB034670
:104090003B20F3B901F08CFB01463B20C9B901F08C
:1040A00087FB02463B20A2B901F082FB03463B207E
:1040B0007BB901F07DFB01463B2051B901F078FB53
:1040C00002463B202AB901F073FB10B9083DD6D156
:1040D000C4E701214FF4804001F03AFB174801F09A
:1040E00081FB75020020AEB26946ADF80200ADF862
:1040F0000400ADF80C0011480294ADF80060ADF872
:10410000066001F0D7FB0E48694601F057FC01201C
:1041100004B070BD042140F2891001F0AFFAA5E7A8
:10412000062140F20F1001F0A9FA9FE704214FF495
:10413000D57001F0A3FA99E700770100003800403C
:104140000034004070B583480E464FF400311546E8
:1041500001F078FA4FF4961400283AD04FF4003169
:104160007C4801F06FFA03464FF40031794883B37D
:1041700001F068FA02464FF4003176484AB301F084
:1041800061FA03464FF40031724813B301F05AFA52
:1041900002464FF400316F48DAB101F053FA03469A
:1041A0004FF400316B48A3B101F04CFA02464FF4D2
:1041B000003168486AB101F045FA03464FF4003116
:1041C000644833B101F03EFA18B1083CC6D1002072
:1041D00070BD6048012101F0FFF95F495D4801F0C1
:1041E00023FA4FF48054002831D15B49594801F03B
:1041F0001BFA0246584957484ABB01F015FA0346D4
:10420000554954481BBB01F00FFA02465249514828
:10421000EAB901F009FA03464F494E48BBB901F02B
:1042200003FA02464C494B488AB901F0FDF90346AE
:10423000494948485BB901F0F7F902464649454803
:104240002AB901F0F1F910B9083CCED1BFE74148D5
:104250000022342101F0DCF940493E4801F0E4F944
:104260004FF48054002831D13C493A4801F0DCF940
:1042700003463A4937484BBB01F0D6F90246374965
:1042800034481ABB01F0D0F9034634493148EBB940
:1042900001F0CAF9024631492E48BAB901F0C4F911
:1042A00003462E492B488BB901F0BEF902462B4933
:1042B00028485AB901F0B8F90346284925482BB9CE
:1042C00001F0B2F910B9083CCED180E7C5F3002166
:1042D00041EA46041F48E1B201F0A4F920491D4813
:1042E00001F0A2F94FF4805600283BD11C4919482F
:1042F00001F09AF902461A491648002A32D101F013
:1043000093F903461649134863BB01F08DF904463F
:104310001349104834BB01F087F9024610490D4893
:1043200002BB01F081F903460D490A48D3B901F0F7
:104330007BF904460A490748A4B901F075F9024619
:104340000749044872B901F06FF958B9083ECDD158
:104350003DE700BF00580040010003008200070055
:10436000800007003E48E9B201F05CF93D493C4855
:1043700001F05AF94FF48056002831D139493848B4
:1043800001F052F90546374935484DBB01F04CF96B
:104390000346344932481BBB01F046F90446314913
:1043A0002F48ECB901F040F902462E492C48BAB921
:1043B00001F03AF905462B4929488DB901F034F945
:1043C0000346284926485BB901F02EF904462549E1
:1043D00023482CB901F028F910B9083ECED1F6E6F1
:1043E00021491F4801F02EF94FF49616002831D1CB
:1043F0001D491B4801F026F902461B4918484ABBD3
:1044000001F020F90546184915481DBB01F01AF9BD
:10441000034615491248EBB901F014F90446124954
:104420000F48BCB901F00EF902460F490C488AB991
:1044300001F008F905460C4909485DB901F002F997
:104440000346094906482BB901F0FCF810B9083EAB
:10445000CED1BCE60248012101F0CCF8012070BDAC
:1044600000580040800007000400001070B5154699
:104470000E4600220F210446FFF764FE08B9002013
:1044800070BD172200212046FFF75CFE0028F6D001
:10449000172201212046FFF755FE0028EFD0002209
:1044A00002212046FFF74EFE0028E8D0002203211B
:1044B0002046FFF747FE0028E1D0122204212046C3
:1044C000FFF740FE0028DAD0002205212046FFF742
:1044D00039FE0028D3D08EBB422206212046FFF7AA
:1044E00031FE0028CBD0422207212046FFF72AFECA
:1044F0000028C4D04AF644439D421BD014DCB5F5D5
:10450000FA5F19D0B5F5FA4F14BF0022182208211E
:104510002046FFF717FE0028B1D020460022BDE854
:1045200070400921FFF70EBE0F4A95420CBF1C22B6
:104530000022ECE72022EAE70C22E8E762220621CB
:104540002046FFF7FFFD002899D0022207212046D0
:10455000FFF7F8FD002892D04AF64440291AB1FA34
:1045600081F56E097201D2E7007701002DE9F84F5D
:10457000344E044601214FF4001001F0DDF8002113
:10458000304600F035FD304600F070FC2E4A002524
:1045900040234FF4806B4FF4006A4FF400594FF4FE
:1045A00080784FF400374FF6FE70C4E90753C4E932
:1045B0000552C4E90905C4E91055C4E91255C4E916
:1045C0000CA9C4E90E87C4F82CB0304604F11401DC
:1045D000183E00F0E1FC2946304600F009FD304667
:1045E00000F044FC194A6566C4E91655C4E91F5534
:1045F000C4E921554FF6FE714FF0C065C4E914526D
:10460000C4E91ABAC4E91D872166C4F8709004F1A0
:104610005001304600F0C0FC0D4C304601221821FC
:1046200000F0F0FC4FF4804323600A48012202218D
:1046300001F0F2F901220848114601F0EDF90120DC
:10464000BDE8F88F706002400C3800400C34004028
:1046500000E100E0003800400034004070B51F4B1E
:1046600084B01860002303614260017004460E4666
:104670001546FFF78DFC10B9002004B070BD012174
:104680004FF4800001F064F8154800F0EDFE154A83
:104690001548164B00934FF48041CDE90120ADF849
:1046A0000C100F48694600F015FF0D48012100F07D
:1046B00085FF2A4631462046FFF7B8FC0028DBD0AC
:1046C0002A4631462046FFF7D1FE0028D4D02046A6
:1046D00004B0BDE87040FFF749BF00BFD4600120BF
:1046E000005800400000FFBF33000004A086010016
:1046F000F8B517460E46012209210446FFF722FDB0
:10470000054600283DD0602E53D82378002B3AD0A0
:1047100030482761818B4A0555D52F48828B530538
:104720004DD5207804F18C0704F68C43E761A3652E
:10473000B70078B962684BF6803C62453CD02749A7
:104740008A4244D0B2F5FA4F04D106EB4600870006
:10475000032300E00123E3602148A66004F1140173
:104760006762276600F018FC1E4804F1500100F053
:1047700013FC1B48012100F03BFC1A48012100F00A
:1047800037FC2846F8BD18484FF4805100F04CFE25
:104790000028F8D114484FF4805100F045FE00285D
:1047A000B6D111484FF4805100F03EFE0028F1D000
:1047B000AEE700252846F8BDF7000223CBE701212C
:1047C00001F0EEF8ADE7012101F0EAF8A5E73701C5
:1047D0000423C0E7003800400034004000770100A7
:1047E00070600240586002400004024038B58CB24C
:1047F000224600210546FFF7A5FC00B938BD224638
:1048000028460121BDE83840FFF79CBC0369002B16
:1048100000F0E8802DE9F041D0E9022602FB01F129
:1048200006FB01F4A400054604F68C408C342844B1
:104830002C44002E6CD05100012969D900EB820E66
:10484000AEF1020EAEEB000CACF102074FEA5708D6
:1048500008F1010C770000EB46011CF007068046CA
:104860002CD0012E23D0022E1CD0032E15D0042EC6
:104870000ED0052E07D0062E40F0BB80B1F90060A7
:1048800028F8026F3944B1F900C028F802CF394442
:10489000B1F9006028F8026F3944B1F900C028F876
:1048A00002CF3944B1F9006028F8026F3944B1F9F8
:1048B00000C028F802CFF045394429D0B1F9006092
:1048C000A8F8026031F907C0A8F804C031F91760F0
:1048D000A8F8066001EB470101EB470631F907C074
:1048E000A8F808C031F91710A8F80A1036F907C05F
:1048F000A8F80CC036F91710A8F80E1006EB4706FA
:1049000006EB470136F907C028F810CFF045D5D19E
:1049100021469847EA68002A62D0A86883009E1E54
:1049200004EB800702FB06430234C2EBC2753A1B5C
:10493000901E69004508013515F0070627D0012EA5
:104940001FD0022E19D0032E13D0042E0DD0052E09
:1049500006D0062E47D137F9028DA3F800800B440C
:1049600037F902CDA3F800C00B4437F9022D1A80A5
:104970000B4437F9020D18800B4437F9025D1D8096
:104980000B4437F9026D1E80BC420B4428D037F926
:1049900002ECA3F800E037F9048C23F8018037F922
:1049A000062C23F8112003EB410C37F9083C2CF8B6
:1049B000013037F90A0C2CF811000CEB410537F9DE
:1049C0000C6C6E5237F90E2C25F8112037F9103D7A
:1049D00005EB410EBC422EF801300EEB4103D6D15F
:1049E000BDE8F081704737F902EDA3F800E00B4411
:1049F000B1E7B1F900C028F802CF39443EE700BF63
:104A000008B5114B1A6812F0C05F05D10E4B1A6839
:104A100012F0A05F0DD108BD0C484FF0C051996055
:104A200000680121FFF7F2FE074B1A6812F0A05F41
:104A3000F1D006484FF0A05199600068BDE80840E9
:104A40000021FFF7E3BE00BF00600240D4600120F8
:104A5000F0B501218BB00646042000F06DFE012167
:104A6000022000F069FE0121042000F071FE304CAC
:104A70003048302301276946CDE9003700F0C2FBFA
:104A80004FF4E0700225694600902046019500F041
:104A9000B9FB2A462046062100F0D2FC2A462046D1
:104AA000072100F0CDFC2A460821204600F0C8FC72
:104AB00002A8A4F5FE3401F013F8FF2100250391AC
:104AC000204602A9ADF8105002958DF8125000F062
:104AD000ADFF05A801F002F9174A059205A9204685
:104AE0000795ADF82050ADF8245001F01DF8204690
:104AF000082101F0FBF805A9204601F059F82046ED
:104B0000082101F0FBF805A9204601F09DF8204698
:104B1000082101F0FFF83946204600F0E9FF394648
:104B2000204600F0F3FF3560B5800BB0F0BD00BF4C
:104B300000040240000802406000010010B5174B5D
:104B40000278DA634178596382789A634179C3784D
:104B50001031CAB2FF2B0446427115D09A422CBFC5
:104B6000002201220E48102100F064FC2079FF2869
:104B70000CD062798242BDE8104009482CBF002267
:104B80000122202100F056BC0122EBE7BDE81040D5
:104B900003480122202100F04DBC00BF0008004066
:104BA0000008024010B5012182B00446022000F046
:104BB000C3FD02224FF0807304486946CDE900230B
:104BC00000F020FBFF20207002B010BD0004024066
:104BD00038B5044602210448257800F025FC40EA57
:104BE0004500207038BD00BF0004024001B9704785
:104BF0004FF400414FF0006000F080B83A483B4B62
:104C0000D0F8882042F4700282B0C0F888201A6878
:104C1000002142F001021A6099601A68A0F1BC2CD0
:104C200022F08472ACF1F00022F480321A605860F5
:104C3000186820F480221A60D960009101911968E7
:104C400041F48030186003E0009AB2F5A04F0AD01A
:104C5000264B1A6802F4003101910098013000904F
:104C6000019B002BF0D02149086810F4003318BFD5
:104C700001230193019A012A05D01B494FF00063DB
:104C80008B6002B07047194B19491A6C194842F0F1
:104C900080521A640A6842F440420A609968996036
:104CA0009A6842F4004199609A6842F4A051996070
:104CB0005860186840F080721A600C4B19688A01BD
:104CC000FBD50D4840F205620260996821F00300AF
:104CD00098609A6842F002019960044B986800F06D
:104CE0000C02082AF9D1C8E700ED00E000380240C4
:104CF0000070004008544007003C024021F0604131
:104D0000024B21F07F0202439A60704700ED00E001
:104D100010B443680C790A6823F0407C2CF480734B
:104D200043EA04241443D1E9032313438A6844600B
:104D3000846813430A4A22404C79134343EA4403EC
:104D40008360097DC46A01F1FF3C24F470035FFABB
:104D50008CF243EA02515DF8044BC162704700BF18
:104D6000FDF7FFC042680368074910B413434C685D
:104D7000064A2240D0E902401343234303435DF82F
:104D8000044B4B60704700BF00230140E030FCFF44
:104D9000836819B143F001028260704723F001017A
:104DA00081607047092910B52CD9A1F10A0E0EEBCC
:104DB0004E0CC4684FF0070E03FA0CF30EFA0CFC0D
:104DC00024EA0C042343C360062A0CD802F1FF3CFA
:104DD000446B0CEB8C021F23934024EA03049140A4
:104DE0002143416310BD0C2A1AD8A2F1070C036BB2
:104DF0000CEB8C021F24944023EA040391401943D6
:104E0000016310BD046901EB410E4FF0070C0CFA71
:104E10000EFC03FA0EF324EA0C0423430361D3E7E8
:104E20000D3AC36A02EB82021F24944023EA040372
:104E300091401943C16210BD836843F08041816095
:104E4000704700BF836819B143F480728260704775
:104E500023F4807181607047836819B143F4007254
:104E60008260704723F400718160704702683649A0
:104E700010B4002322F00102212488420260036062
:104E800043608360C3600361446138D02F4B984214
:104E90002ED02F4CA0423CD02E49884240D02E4BE1
:104EA000984232D02D4CA04241D02D49884246D064
:104EB0002C4B984217D02C4988423CD02B4B98421F
:104EC00016D02B4CA04224D02A49884228D02A4B05
:104ED00098421AD0294CA04229D0294988422ED084
:104EE000284B984208D14FF03D5243F8AC2C03E0D8
:104EF0004FF4746443F8204C5DF8044B704722492A
:104F00005DF8044B3D2088607047204843F8640CEE
:104F1000F2E74FF4741244F8382C5DF8044B7047F4
:104F20004FF074635DF8044B41F8503C70471849EA
:104F300044F87C1CE0E73D2041F8080CDCE7154C08
:104F400041F8944CD8E700BF10600240286002404E
:104F50004060024058600240706002408860024039
:104F6000A0600240B8600240106402402864024021
:104F70004064024058640240706402408864024009
:104F8000A0640240B8640240006002403D0000207E
:104F9000400F002000003D2030B40B68CC684A6907
:104FA0002343D1E9065413432B43D1E90852234349
:104FB0002B438C6A056813434A6B23438C6B134362
:104FC00023430A4CCA6A2C4023430D6B0360436998
:104FD0000C692A43D1E9011523F0070C42EA0C03BE
:104FE000436144608160C56030BC70473F801CF005
:104FF000036819B143F001020260704723F0010118
:10500000016070470B060CD54369AAB143F08003D9
:10501000802943610FD0026801F01E011143016035
:105020007047802907D0002AF5D1036801F01E01DE
:1050300023EA01020260704723F080028029426166
:10504000F3D17047044B1A69002A03DA0349044874
:1050500059605860704700BF003C0240230167451B
:10506000AB89EFCD014BD860704700BF003C0240D8
:105070000E4BDA68D20310D4D968C9060FD4DA68A7
:10508000D20510D4D96811F0E00F0AD1DB6813F013
:10509000020F0CBF0920082070470120704706202E
:1050A0007047072070470220704700BF003C024055
:1050B00000B583B009238DF80730FFF7D9FF8DF8CD
:1050C00007009DF80700012813D022E0D868C20528
:1050D00024D4DA6812F0E00F22D1DB6813F0020F5B
:1050E0000CBF092208228DF807209DF8071001291E
:1050F0000FD10C4BD968C8034FF00102F3D4DA6822
:10510000D106E3D506228DF807209DF80710012966
:10511000EFD09DF8070003B05DF804FB0222E2E740
:105120000722E0E7003C024070B5022994BF0C0260
:105130004FF440740546FFF7BBFF092800D070BD4F
:105140000F4E336923F4407030613169214331617E
:10515000326922F0F804346133692B4343F00205CD
:105160003561306940F480313161FFF7A1FF326968
:1051700022F002043461336923F0F805356170BD13
:10518000003C024070B505460C46FFF791FF092828
:1051900000D070BD0A4E336923F44070306131692C
:1051A00041F400723261336943F0010030612C60D8
:1051B000FFF77EFF356925F00104346170BD00BF43
:1051C000003C024070B505460C46FFF771FF092808
:1051D00000D070BD0A4E336923F4407030613169EC
:1051E00041F480723261336943F0010030612C80F8
:1051F000FFF75EFF356925F00104346170BD00BF23
:10520000003C024000232DE9F0430C689E4624E058
:105210000EF1010C012606FA0CF939EA040503F136
:10522000020300F0CF800CF101070122BA4032EAFC
:10523000040603F1020500F08E800CF10207012242
:10524000BA4032EA040603F1040541D0BCF10D0F67
:105250000CF1030E03F106037BD0012202FA0EF8D3
:1052600038EA0405D4D1066803259D4026EA0507DF
:10527000076091F80490D0F800C009FA03F609F12C
:10528000FF37EA43012F46EA0C05056014D886680B
:10529000324082604A7985689A402A438260476832
:1052A00027EA0806466091F80680456808FA0EFC71
:1052B0001FFA8CF22A434260C76803269E4027EA01
:1052C0000602C260CF79C5689F402F43C7609FE741
:1052D00006684FF0030808FA05F926EA0906066091
:1052E00091F804E06FEA0906D0F800900EFA05F88C
:1052F0000EF1FF3E48EA0909BEF1010FC0F8009027
:1053000015D8D0F8088006EA080686604E79D0F8ED
:105310000890AE4046EA09068660466826EA020220
:1053200042608E794268BE40B7B217434760C76893
:105330000326AE4027EA0602C260CF79C668AF40B6
:105340003743BCF10D0FC7600CF1030E03F10603E8
:1053500083D1BDE8F083D0F800800326AE4028EA70
:105360000609C0F800906FEA060E0E79D0F800909A
:1053700006FA05F8013E48EA0909012EC0F8009036
:1053800014D886680EEA060686604E79D0F808E0E2
:10539000AE4046EA0E068660466826EA0202426091
:1053A0008E794268BE40B7B217434760C76803268C
:1053B000AE4027EA0602C260CF79C668AF403743E5
:1053C000C7603AE70268032707FA03F622EA0605F0
:1053D000056091F804E00268F7430EF1FF350EFA1C
:1053E00003F61643012D066012D8826817408760C5
:1053F0004D7986689D4035438560426822EA0907F9
:1054000047608D79476805FA0CF6B2B23A434260BC
:10541000C66803259D4026EA0502C260CF79C668AA
:105420009F403743C760FEE60369194214BF01205D
:10543000002070470AB1018370474183704700BF65
:10544000CB0800EB830001F00701036A89004FF0ED
:105450000F0C0CFA01FC23EA0C030362036A8A4076
:105460001A430262704700BF08B5174B984206D036
:10547000164988420FD0164A904218D008BD012123
:105480004FF4001000F07CF9BDE8084000214FF413
:10549000001000F075B901214FF4800000F070F9A0
:1054A000BDE8084000214FF4800000F069B90121F7
:1054B0004FF4000000F064F9BDE8084000214FF40B
:1054C000000000F05DB900BF0054004000580040EB
:1054D000005C004070B5868884B026F03F02044628
:1054E000130468461E0C0D4600F0D8F830480299A7
:1054F000A0FB013246EA9243A380268826F00100F1
:1055000003041E0C26802B682A4EB3424FEA9240B9
:1055100026D85B00B1FBF3F6B1B20130042938BFE5
:1055200004212084A1832288A9886E8990B240F04A
:10553000010CA4F800C0B4F800E02EF4816323F05D
:10554000020231431004AE892D89030C2E430B4314
:1055500099B21FFA86FC2180A4F808C004B070BD7F
:10556000B5F806C04BF6FF7EF4451AD003EB830274
:1055700002EB8203B1FBF3F18EB246F4804ECEF320
:105580000B0109B94EF0010E0B4E4FF4967303FB5D
:1055900000F0A6FB0020820901324EF40041228473
:1055A000C0E703EB4302B1FBF2FC1FFA8CFEE6E717
:1055B00083DE1B43A0860100D34D6210038821B116
:1055C00099B241F001020280704723F001010A0400
:1055D000130C0380704700BF038821B199B241F4D6
:1055E00080720280704723F480710A04130C0380D8
:1055F000704700BF038821B199B241F40072028064
:10560000704723F400710A04130C0380704700BF35
:105610001AB141F001010182704701F0FE010182DF
:10562000704700BF01827047838A028B98B240EABC
:1056300002430B4023F07F42511AB1FA81F0400936
:10564000704700BF82B000230A0F009301930190BE
:105650000092009B21F07F4153B1019B14330193D1
:10566000019A13680B4214BF0120002002B070475A
:10567000019A1832090C0192F2E700BF034B0907A7
:1056800041EA8010C3F88400704700BF0038024030
:10569000014B9866704700BF000047421F4A93685D
:1056A00003F00C01042910B436D008291BD01C4B80
:1056B0001A4A036094681B49C4F3031C11F80C4098
:1056C000E34043609468C4F3822C11F80C4023FA41
:1056D00004F484609268C2F34234095D5DF8044BBF
:1056E000CB40C360704754685368516803F03F0C67
:1056F0000A4B14F4800FC1F38814596814BF0A4A86
:10570000074AB2FBFCF202FB04F4C1F3014201328E
:105710005300B4FBF3F3CBE7034BC9E70038024077
:105720000024F4009C6A000800127A00014BC3F8C0
:105730005C01704700004742044A136B11B10343F8
:105740001363704723EA000010637047003802407B
:10575000044A136C11B103431364704723EA000039
:105760001064704700380240044A536C11B103437F
:105770005364704723EA00005064704700380240C9
:10578000044A136A11B103431362704723EA00000D
:105790001062704700380240044A536A11B1034353
:1057A0005362704723EA000050627047003802409D
:1057B0004309012B0BD00A49022B0CBF096F496F1B
:1057C00000F01F0021FA00F303F001007047044AC3
:1057D000116800F01F0021FA00F303F00100704788
:1057E0000038024008B52D4B98421BD02C49884206
:1057F00024D02C4A90422DD02B4B984206D02B49D6
:10580000884233D02A4A90423CD008BD01214FF44F
:105810000050FFF7C1FFBDE8084000214FF40050E1
:10582000FFF7BABF01214FF48050FFF7B5FFBDE885
:10583000084000214FF48050FFF7AEBF01214FF424
:105840008040FFF79DFFBDE8084000214FF48040F5
:10585000FFF796BF01214FF40040FFF791FFBDE82D
:10586000084000214FF40040FFF78ABF01214FF4A8
:105870008010FFF791FFBDE8084000214FF4801031
:10588000FFF78ABF01214FF40010FFF785FFBDE845
:10589000084000214FF40010FFF77EBF00300140A8
:1058A00000380040003C00400034014000500140FE
:1058B00000540140838BB1F804C023F47B622DE9CE
:1058C000F04322F00F0425042E0C022786838C68F7
:1058D0000784838BB1F806E0022C9AB23BD02C4EA1
:1058E000B568BCF1000F14BF4FF002084FF001087B
:1058F0002D0244D4264DD5F88460D5F88470C7F3C2
:1059000002736F68D5F8049019F4800F07F03F0513
:10591000C6F3881614BF1F4F1F4FB7FBF5F7BEF530
:10592000007F06FB07F7B7FBF3F60EBF360A4FEA18
:105930004818B6FBF8F606EB86035D00174EB5FB7C
:10594000F4F40534A7B2A6FB07431C09A51EFD2DE0
:10595000C3F3C00718D90226B1F800904C88898992
:105960004CEA09031A4322430A4397B246EA0E0857
:1059700047F40065A0F820808583BDE8F083B76810
:1059800027F40003B360B5E744EA0726E4E700BF65
:105990000038024000127A000024F400CDCCCCCCB8
:1059A000838B21B199B241F480628283704723F4E2
:1059B00080610A04130C8383704700BF838B23F438
:1059C0007B6222F00F031A04130C4FF0020C00B597
:1059D00083830B88A0F820C0B0F81CE0B1F802C0A7
:1059E000B3F5007F1FFA8EF218BFB3FA83F3B1F854
:1059F00004E089891ABF5B091B024FF480734CEAEB
:105A00000E0C43EA0C030B4313439AB242F40061B9
:105A100081835DF804FB00BF83889BB212B10B4306
:105A20008380704723EA01018180704730B4284D9C
:105A300003884C680A88A8429BB23CD0254DA842F6
:105A400018D0B0F1804F27D0A5F5803C604523D019
:105A50000CF58065A8421FD005F5806C60452DD0FF
:105A60001D4DA8422FD10380C4620285012230BCA3
:105A70008282704723F07005ABB24D882B430D89AD
:105A800023F440732B430380C46202858C7A04861E
:105A9000012230BC828270474D8823F070039BB294
:105AA0002B43098923F4407C1FFA8CF30B430380BA
:105AB000C4620285DAE723F07003DEE74D8823F045
:105AC00070032B43EDE7054DA842CCD0E9E700BFBA
:105AD000000001400004014000100040001400409C
