:020000040800F2
:1000000000000220ED640008CD440008D14400083F
:10001000D5440008D9440008DD4400080000000071
:10002000000000000000000000000000E1440008A3
:10003000E544000800000000E944000831650008BC
:100040003165000831650008316500083165000838
:100050003165000831650008316500083165000828
:100060003165000831650008316500083165000818
:100070003165000831650008C95100083165000884
:1000800031650008316500083165000831650008F8
:1000900031650008316500083165000831650008E8
:1000A00031650008316500083165000831650008D8
:1000B00031650008316500083165000831650008C8
:1000C00031650008316500083165000831650008B8
:1000D00031650008316500083165000831650008A8
:1000E0003165000831650008316500083165000898
:1000F0003165000831650008316500083165000888
:100100003165000831650008316500083165000877
:100110003165000831650008316500083165000867
:100120003165000831650008316500083165000857
:100130003165000831650008316500083165000847
:100140003165000831650008316500083165000837
:100150003165000831650008316500083165000827
:100160003165000831650008316500083165000817
:100170003165000831650008316500083165000807
:100180003165000831650008000000000000000033
:100190002DE9F04F0446A5B0DFF854A3016304F045
:1001A0002DFA00224FF07C5322626262A262E26268
:1001B000A361E36123616361BAE80F000DF11009E7
:1001C000A9E80F009AE80F00DFF82883DFF828C3BA
:1001D000C34EDFF810B389E80F00B8E80F000DF147
:1001E000300EAEE80F0098E80F008EE80F00BCE874
:1001F0000F0014AF0FC79CE80F0087E80F000FCE69
:100200001CAD0FC596E80F0085E80F00DBF8000075
:10021000431C6FD0BBF800104DF67522914260D19F
:100220005B461E884DF67527BE4264D15D881F2D42
:1002300061D815F0070909D0E80809EBC00A0DF1EB
:10024000900808EB8A0E59684EF8801C1F894DF6FD
:1002500075260833B7429C464DD15A881F2A4AD882
:1002600012F0070B08D0D50858680BEBC50924AB72
:1002700003EB890A4AF8800CBCF808704DF6752823
:1002800047450CF1080336D159881F2933D811F09E
:10029000070E09D0CE080EEBC6020DF1900B0BEB4A
:1002A00082095D6849F8805CBCF810004DF675273E
:1002B000B8420CF110031ED159881F291BD811F028
:1002C000070A08D0CE085D680AEBC60224AB03EB30
:1002D000820848F8805C0CF11803B3F1016FA0D1DB
:1002E00009E005F093FAF32005F0A0FA0221582066
:1002F00005F0FEFA7B4BC4F86431204604F026FA80
:1003000000200390039F78498F4207D800BF039EC7
:10031000754A01360396039D9542F7D9B4F80CC08F
:10032000B4F80EE09FED717AB4F80890B4F80AA022
:1003300007EE90CA01EE10EAB8EE670AF8EE411A2D
:1003400060EE070A21EE872ACDED040A8DED0C2A16
:1003500002EE909A04EE10AA0DF1100BBBE80F000C
:10036000B8EE623AF8EE444A63EE073A24EE875A52
:10037000CDED143A8DED1C5A6063A163E2632364F2
:10038000BBE80F00C4ED0A0A84ED0B2AC4ED083A5D
:1003900084ED095A6064A164E26423652822002187
:1003A00004F1540006F0C6F8BBE80F00C4F8800062
:1003B000C4F88410C4F88820C4F88C30BBE80F005F
:1003C0004FF0FF37C4F89000C4F89410C4F8982098
:1003D000C4F89C3028220021E76704F1A00006F051
:1003E000A9F8BBE80F00C4F8CC00C4F8D010C4F8DA
:1003F000D420C4F8D830BBE80F00C4F8C870C4F8E3
:10040000DC00C4F8E010C4F8E420C4F8E830282286
:10041000002104F1EC0006F08DF8BBE80F00C4F8F1
:100420001801C4F81C11C4F82021C4F82431BBE819
:100430000F00C4F81471C4F82801C4F82C11C4F8D2
:100440003021C4F834310021282204F59C7006F0D4
:1004500071F86FF4B37004F28711C4F8607104F29C
:1004600067130191001B00EB03085D1C00EB050EF8
:1004700041194746464608F1620B0EF1620908F140
:10048000660A08F1650E673701F1630868360022D5
:1004900040F2EE21DD1D5A70054444F82B109A708D
:1004A00044F82910DA7044F828101A7144F82E1014
:1004B0005A7144F82A109A7144F82710DA71019F92
:1004C00044F8261003F8082F6235BB4244F8251083
:1004D000C9D1C4F8082284F80C2225B0BDE8F08FF9
:1004E000EC73000800000E089F86010000008037B2
:1004F0004C7400082C7400080C74000830B5C589D1
:100500008489D0ED0B4AB0F806C0DFED793A90ED62
:100510000A4A90ED077AB0F800E0D0ED041ADFED5A
:10052000752AD0ED087A90ED053A90ED096AD0ED84
:10053000066A05EE105A05EE904AB8EE450A2DED12
:10054000028BB8EE652A08EE10CAF0EE640AD0EE0F
:10055000230A05894488DFED688AB0F80AC0B0EE46
:10056000441A92EE231A43EA420300EB8302B8EEE8
:10057000485AB0EE470A95EE230AE0EEA84A05EE87
:1005800090EA00EE905AA1EE284AB0F804E001EE9D
:10059000104AB8EE652AF8EE605AA0EE227AC46FCF
:1005A000B8EE415AB0EE618A01EE10CAB0EE670AA9
:1005B00092EE238AA34200EB030495EEA30AB0EE69
:1005C000432A05EE90EA95EE232AB8EE415AF0EE62
:1005D000460AB8EE651AD5EE230AB0EE615AF0EE7F
:1005E000661AD1EE231AE0EE287AA0EEA86AF0EEA1
:1005F000438AA8EE225AE2EE228AE1EEA26A80ED58
:100600000A4AC0ED0B4AC0ED087A80ED096AC0EDD8
:10061000066A80ED077A80ED045AC0ED058A92EDF6
:100620000D3AD2ED202A92ED338A92ED462A17D068
:100630004FF0000C82ED154AF0EE443A84F874C095
:10064000C36734EE630ADFED2D5AB4EEE50AF1EE2E
:1006500010FA40F33D824FF0010E84F874E004E09C
:1006600094F87450002D00F0728282ED0D4AD0F89B
:10067000C850AB4218D04FF0000CC2ED284AB0EE83
:10068000644A84F8C0C0C0F8C83034EEC41ADFED44
:100690001B1AB4EEE11AF1EE10FA40F30C824FF09F
:1006A000010E84F8C0E004E094F8C050002D00F082
:1006B0004B82C2ED204AD0F81451AB4220D04FF00B
:1006C000000CC2ED3B7AF0EE674A84F80CC1C0F82A
:1006D000143137EEE40ADFED095AB4EEE50AF1EE23
:1006E00010FA40F3DB814FF0010E84F80CE10CE0CE
:1006F000000080370AD7A33DD044D83C0AD7A33B9B
:1007000094F80C51002D00F01C82C2ED337AD0F821
:100710006051AB4200F0BB814FF0000C82ED4E6A9D
:10072000F0EE467A84F858C1C0F8603136EE674A78
:100730001FED0E1AB4EEC14AF1EE10FA40F3DC815F
:100740004FF0010E84F858E182ED466A7BB3D2ED9A
:100750000D3AD2ED204A92ED336A92ED460AF4EE5C
:10076000433AF1EE10FA05D00123002584F86831F0
:10077000C2F88851F4EE624AF1EE10FA06D04FF05A
:10078000010C002384F870C1C2F8A831B4EE486AA5
:10079000F1EE10FA05D00125002384F87851C2F853
:1007A000C831B4EE420AF1EE10FA40F09E8100F238
:1007B000671200F2871E5578531C85B1121A6FF428
:1007C000B37C624400EB820240F2ED24D2F88851FF
:1007D000A54204D8D2F888410134C2F888415D7836
:1007E0005A1C8DB16FF4B374A3EB000CA44400EB5E
:1007F0008C0C40F2ED24DCF88851A54204D8DCF8DA
:1008000088410134CCF888419D7803F1020C85B110
:100810006FF4B374121A224400EB820240F2ED240A
:10082000D2F88851A54204D8D2F888410134C2F8E0
:100830008841DD78DA1C8DB16FF4B374ACEB000C39
:10084000A44400EB8C0C40F2ED24DCF88851A54266
:1008500004D8DCF888410134CCF888411D7903F1D3
:10086000040C85B16FF4B374121A224400EB8202B7
:1008700040F2ED24D2F88851A54204D8D2F888413C
:100880000134C2F888415D795A1D8DB16FF4B3749B
:10089000ACEB000CA44400EB8C0C40F2ED24DCF833
:1008A0008851A54204D8DCF888410134CCF888414D
:1008B0009D7903F1060C85B16FF4B374121A2244CA
:1008C00000EB820240F2ED24D2F88851A54204D810
:1008D000D2F888410134C2F88841DD79DA1D8DB142
:1008E000ACEB00036FF4B37C634400EB830340F292
:1008F000ED24D3F88851A54204D8D3F888410134B7
:10090000C3F8884172457FF456AFB6EE003A73EEF5
:10091000666AD0ED0D2AD0F8082236EEA22A0132FE
:10092000B5EEC02AF1EE10FA33EE477A73EE688A1C
:10093000C0F8082200F1FF80B7EE008AB4EE482A22
:10094000F1EE10FAC8BFB0EE482AD0ED205A81ED82
:10095000002A77EE257AF5EEC07AF1EE10FA00F172
:10096000E780F7EE000AF4EE607AF1EE10FAC8BF05
:10097000F0EE607A90ED331AC1ED017AB5EEC01A4F
:10098000F1EE10FA00F1D180B7EE004AB4EE441A4D
:10099000F1EE10FAC8BFB0EE441AD0ED461A81ED60
:1009A000021A78EEA14AF5EEC04AF1EE10FA00F113
:1009B000B980F7EE003AF4EE634AF1EE10FAC8BFE0
:1009C000F0EE634A036BC1ED034A002B00F0A180F7
:1009D000D3ED006A93ED013AA5EE263A856BD0F887
:1009E00084E0D0F8D040C26BD0F81CC1D0F8D4302D
:1009F0000D61C1F814E0D0F88850D0F820E18C6186
:100A00000A62D0F88C40026CC1F81CC04D62D0F86C
:100A100024C1D0F8D8508B62C1F82CE0436CD0F8D8
:100A200090E0CA650C63D0F8DC20D0F828414D6313
:100A3000C1F838C0CB63C1F840E04A6481ED203A88
:100A40008C64BDEC028B856CD0F894C0D0F8E0E0EB
:100A5000D0F82C31C26CD0F8E440CD64C1F850C05D
:100A6000D0F89850D0F830C1C1F854E08B65D0F878
:100A70009CE0D0F83431CD660C67C1F878E08A6626
:100A8000BDE83040C1F874C0CB6703F05FBE94F896
:100A90005851002D52D082ED466A57E6DFED2D0AFF
:100AA000B4EEE00AF1EE10FA7FF531AE4FF0010E30
:100AB00084F80CE129E6DFED273AB4EEE31AF1EE13
:100AC00010FA7FF5F8AD4FF0010E84F8C0E0F0E5C4
:100AD000DFED200AB4EEE00AF1EE10FA7FF5C7ADC3
:100AE0004FF0010E84F874E0BFE5012584F88051D1
:100AF0000024C2F8E8415AE6DFED161AB4EEE14AE6
:100B0000F1EE10FA7FF522AE4FF0010E84F858E1B5
:100B10001AE6B6EE006A36EE455A9FED0F0A25EE4C
:100B2000003A5BE7DFED0D4A4CE79FED0C1A34E726
:100B3000DFED0A7A1EE79FED092A06E7D2ED4E7A2D
:100B4000F4E5D2ED3B4AC4E592ED284A9DE5D2EDAD
:100B5000153A76E50AD7A3BB0000F042000000007A
:100B60002DE9F04F90F80C32012B83B0044600F0D1
:100B7000A880022B00F08880002B40F0828000F2D9
:100B8000671600F28717314648784B1C60B16FF446
:100B9000B3752D1B6A1802F1620940F2ED2A54F870
:100BA0002900504500F2A1805A78591C62B16FF4B7
:100BB000B3752D1BEA1802F1620B40F2ED2854F8D0
:100BC0002BC0C44500F291809A78981C62B16FF4F2
:100BD000B3752D1B6A1802F1620940F2ED2154F839
:100BE00029A08A4500F28180DA78D91C5AB16FF4C5
:100BF000B3752D1B2A1802F1620B40F2ED2854F850
:100C00002BC0C44571D81A79181D5AB16FF4B37549
:100C10002D1B6A1802F1620940F2ED2154F829A057
:100C20008A4562D85A79591D5AB16FF4B3752D1B94
:100C30002A1802F1620B40F2ED2854F82BC0C4458B
:100C400053D89A79981D5AB16FF4B3752D1B6A1851
:100C500002F1620940F2ED2154F829A08A4544D8F6
:100C6000DA79D91D5AB16FF4B3731D1B2A1802F13A
:100C7000620040F2ED2B54F82000584535D8B942B7
:100C800082D103B0BDE8F08FD0F80862D0F82072AE
:100C9000BE42F6D0D0F81402D4F80832D4F81C12B0
:100CA000C4F82032043004F051FED4F8102222445B
:100CB0004FF0000882F8688184F80C8203B0BDE828
:100CC000F08FD0F80822D0F820028242D9D0D4F890
:100CD0000852C4F82052D4E9850104F037FE0221FD
:100CE00084F80C1203B0BDE8F08FD4F8640100F171
:100CF0000801B1F1016F2BD8D71002F00706022FBF
:100D000004EB860E00F0C480032F00F0BE80012F9C
:100D100014BFDEF83470DEF88070C4F864114DF64C
:100D2000752C4CEA0243C4E98420C4F81832C4F894
:100D30001C7204F06BFDF32004F078FDD4F8082257
:100D4000C4F82022012584F80C5203B0BDE8F08FCE
:100D500004F05CFDF32004F069FD0221582004F04A
:100D6000C7FDB91B4C48C4F8640111F0070351D00A
:100D7000012B42D0022B37D0032B2BD0042B20D0B9
:100D8000052B14D0062B09D0A81962304FF00108AA
:100D900040F2EE2206F8018F44F82020A9196231B2
:100DA000012340F2EE2006F8013F44F82100A91982
:100DB00062314FF0010940F2EE2206F8019F44F83B
:100DC0002120AB196233012040F2EE2106F8010F19
:100DD00044F82310AB1962334FF0010A40F2EE22BF
:100DE00006F801AF44F82320A8196230012140F22F
:100DF000EE2306F8011F44F820304FF0010BA8192C
:100E000006F801BF623040F2EE22BE4244F82020D4
:100E10003FF437AF0197711C05EB060EAF1905EBD8
:100E2000060C6B180EF1620BA81907F1650E05EBA5
:100E30000108AF190CF1660A673703F1630C6830DB
:100E400008F16209012240F2EE23F11D727029447B
:100E500044F82B30B27044F82930F27044F82C304A
:100E6000327144F82E30727144F82A30B27144F86D
:100E70002730F271019F44F8203006F8082F6231C4
:100E8000BE4244F82130C6D1FBE6DEF8187144E7D3
:100E9000DEF8CC7041E700BF00000E08704700BFCD
:100EA000F8B505460C461E46174604F05FFA681C66
:100EB00004F0B2F9069BAC600024C5E90376114842
:100EC0006B616C83AC83EC85022104F091FE80B9E8
:100ED0001027284604F060FA013FFAD12978B1FAC8
:100EE00081F60122700985F82C20287685F83820B3
:100EF000F8BD2046224685F82C40287685F8382013
:100F0000F8BD00BF0004024038B590F82C300269EB
:100F1000012BD2ED047A04464FD0D0ED0D6A37EEA6
:100F2000E60ABEEE007AB4EEC70AF1EE10FA07DC6C
:100F3000042040F6980C84F82C00A4F82EC038BD8C
:100F4000DFED210AB4EEE00AF1EE10FAF0D5B3EECF
:100F5000081AC1EE001A4569C5ED001A90ED0C2A79
:100F600061EEC22AC5ED012A04F050FCF32004F022
:100F70005DFC0221102004F0BBFC2968134804F03A
:100F8000E5FC6968124804F0E1FC2A786978AB78DE
:100F900010481144EA7819442B7911446A791944AC
:100FA0001144AA79ED791144294481F47F4181F0FB
:100FB000FF0104F0EBFC0320BBE70220C4ED0D7A37
:100FC00084F82C0038BD00BFCDCC4CBD008000089B
:100FD0000480000808800008026A838C013210B483
:100FE00002620BB1591E8184DFED6F7A90ED0A7AAF
:100FF000B4EEE77AF1EE10FA21DC047F002C42D146
:10100000C3689FED6A0AD3ED000A816820EE801A5A
:1010100001F5C04CFCEEC11A9CF8801111EE904A0B
:10102000A4F17403DBB200295BD09CF881C10CF100
:10103000FF31032955D8DFE801F05A665E570024D6
:10104000A446FF2390F82C1080F802C001F1FF3C69
:101050004370C470BCF1030F5ED8DFE80CF0332797
:101060000B020021FF22027141715DF8044B013037
:1010700004F048B9FF210022027141715DF8044B70
:10108000013004F03FB9437F3BBB816801F5C04CA0
:101090009CF88041631ED9B204291ED8444C454BAC
:1010A00014F801C0444C5B5C645CCBE712F48071C3
:1010B0000BD0DC21FF22027141715DF8044B01303D
:1010C00004F020B942F30022D1B200220271417132
:1010D0005DF8044B013004F015B9FF24A446234603
:1010E000B0E71C469C46ADE70024A446AAE79C4610
:1010F00000231C46A6E731499C00A1FB0414C4F35D
:10110000C70C00249EE72D49C3EBC304A1FB0414C4
:10111000C4F3C70C002495E7C2F30B0340F6FF7439
:10112000120548BFE31A02EE103ADFED252A417F8F
:10113000BAEEEA2A022922EE223AFCEEC33A13EE74
:10114000902A02F10D02D2B20BD003291ED0012940
:101150004FF0FF3C18BF4FF0000C5FFA8CF10022FB
:1011600081E7C4689FED174AD4ED126AF4EEC46AB1
:10117000F1EE10FA9DDCDFED144A22EE245AFCEE6B
:10118000C55A15EE903A0B33D9B26CE7C4689FED9F
:101190000D6AD4ED1A7AF4EEC67AF1EE10FA4FF039
:1011A0000001C8BFFF225EE73333733F0000E64211
:1011B000747400087C7400086C740008CDCCCCCC2E
:1011C000000018420AD7A33B0000044238B5044689
:1011D00004F0E2F82278002A0CBF0125002521D175
:1011E000207E94F82C3088B1002B55D01046114643
:1011F000013B012B35D9E28D002A3FD0501EE085FE
:1012000025762046BDE83840FFF7E6BE0121002BD9
:10121000EED121770133638325762046BDE838403F
:10122000FFF7DABE94F82C30207EABB90028E7D067
:10123000608B2377B0F5967F04D2617F013101F096
:10124000030262774FF0000CA4F81AC025762046FE
:10125000BDE83840FFF7C0BE013B012B4FF0000155
:10126000C9D894F838308BB10028C9D021694FF023
:10127000000C0A69226384F838C0C1E784F82C2086
:1012800025762046BDE83840FFF7A6BE0029B7D036
:101290002046FFF739FEB3E7638B4FF6FF7E7345B9
:1012A000AED0B7E700F5005393ED027A1968D3ED9D
:1012B000015A93ED052AD3ED042AFDEEC76A70B4F6
:1012C00016EE902A8C1A04F2FF75C5F30A0606F290
:1012D000FF72C2F30A0400EB860C00EB8405DCED20
:1012E000007A95ED006A93F82860F8EEE60A36EE8B
:1012F000671A77EE601A22EE255AE1EE217A2DED7B
:10130000028BA2EEA75AF0EE404AC3ED017A002EFE
:1013100040F0AF80DFED8F8A93ED0B3AB5EEC03A27
:10132000F1EE10FA40F391808B4C8C4D8C4A26687C
:101330009FED8C7ADFED8C7A9FED8C1A9FED8C8A75
:1013400093ED0E0ADFED8B2A9FED8B2AD3ED0F0A6A
:10135000DFED8A3A05FB062606EE106AF8EE466ACD
:10136000FFEE005A66EE871AB0EE004AF0EE656AAC
:10137000E1EE846A05FB0625256093ED0D6AD3ED49
:10138000111A66EEA77A26EE822AE6EE087A26EE93
:10139000818A9FED7B1A9FED7B6AC3ED0D7AA0EEEB
:1013A000228AA0EEA32A93ED100ADFED770ADFED83
:1013B000773A83ED0E8A66EE812A66EEA33AE0EE76
:1013C000202A9FED731AD3ED120A9FED720A83ED66
:1013D0000F2A77EE887AE1EE813A66EE661A37EEEA
:1013E000821A06EE105AE0EE801A31EE220AF8EE6A
:1013F000460A70EE237A20EE877A37EEA10AE7EEEE
:10140000045A93ED134A9FED641A93ED0C6ADFEDD5
:10141000637AC3ED102A70EE040A26EE254AE6EE42
:10142000810AB7EE001A31EE467A20EEA70ADFED08
:101430005C5AC3ED113AA7EE004A66EEA56AE3EEE8
:10144000048AC3ED121AC3ED136A93ED033AE3EE77
:10145000058A4C1C00EB8100B0EE450A38EEA45A18
:10146000BDEC028BC4F30A0180ED005A70BC196018
:101470007047D3E9072C624503DB002483F828403A
:1014800048E700EE10CA04EE102AB8EEC03AB8EEF3
:10149000C48AD3ED097ADFED435AC8EE038AF7EE2A
:1014A000003AB6EE007AF4EEC78A73EEE86AF1EE1F
:1014B00010FAF4EEE57A4CBF38EEA88A36EEA68A2A
:1014C000F1EE10FA30D49FED386AF4EEC67AF1EE00
:1014D00010FA34D577EEE52AB0EE080A38EE663A0F
:1014E00062EE803AB0EE668AA3EE238A1A4C1B4E57
:1014F0002568DFED1C5AD3ED066A0132DA61184A1D
:1015000006FB052500EE905AB8EE601AB0EE006AB0
:1015100061EE251AFFEE007AE1EE867A256028EE6C
:10152000268A68EE278AF7E6B7EE008AB0EE084A08
:1015300076EEC88A27EE847AA8EE878AD6E777EE19
:10154000C60AB0EE081A78EEC81A20EE812AA1EE7B
:10155000828ACBE700000000000000200D66190021
:101560005FF36E3C0000802FBD66633D65C1993D11
:101570004AB57F3F384A7E3F618B1D3E6210783FFF
:10158000F8F79E3EAD6D8A3CF2D25D3F8E6F083F0C
:10159000CDCC0C3F38F842BF6744093FAE47E13D30
:1015A0009C6AED3D9FAAAA3EB0AA2A3FF1EE087AB6
:1015B00021EE271A2DE9F041FDEEC11A2DED028B27
:1015C00011EE902A052A134600F5C044A8BF052352
:1015D0000546002A23EAE37084B0B0EE408A84F81E
:1015E000F4007BDCF5EEC00A0021F1EE10FA84F87D
:1015F000F510B7EE007A00F1DA80F4EEC70AF1EEEA
:1016000010FA40F3DE80DFEDC10A9FEDC14A9FED85
:10161000C17A8DED017A8DED024ACDED030ADDED43
:10162000012A94ED3C1A68EE223AB3EE073AF4EE42
:10163000433AF1EE10FA48BFF0EE433AC1EE237A96
:10164000F1EE004AF4EEE47AF1EE10FA73D5F0EE22
:10165000647A9DED025A68EE058AB3EE076AF4EEED
:10166000468A05F50053F1EE10FAC3ED027A48BF41
:10167000F0EE468AC4ED3E2AC1EE286AF1EE001A69
:10168000F4EEE16AF1EE10FA6DD5F0EE616ADDED8F
:10169000030A20EE884AF3EE072AB4EE624A05F503
:1016A0008040F1EE10FAC0ED166A48BFB0EE624A13
:1016B00084ED3F5A81EE042AB1EE003AB4EEC32A1B
:1016C000F1EE10FA69D5B0EE432A84ED2A2AC4ED72
:1016D000400A04B0BDEC028BBDE8F081B1EE040A13
:1016E00060EE800A411EBDEEE02AC1EB011712EE4A
:1016F000106A042EA8BF042626EAE67808EB480202
:10170000854884F8F580930003EB8706064401AF13
:101710000DF11008F6EC012A9FED803AF8EEE23A5E
:10172000B0EE000A63EE830A04F0B8FFA7EC010AEA
:10173000B845EFD173E7DFED7A5AF4EEE57AF1EED2
:1017400010FA86DD9DED025A68EE058A05F5005C0B
:10175000F4EEC38AF1EE10FACCED025AC4ED3E2A43
:101760008AD5C1EE036A9FED6E0AF4EEC06AF1EE0F
:1017700010FA8CDDDDED030A28EE204AB3EE077A7D
:10178000B4EEC74A05F58046F1EE10FA86ED160A6A
:1017900084ED3F5A8ED581EE072ADFED613AB4EE33
:1017A000632AF1EE10FAC8BFB0EE632A8DE7B0EEFF
:1017B000472A4FF07E528DED012A02928DED037A79
:1017C0002DE79FED584AF4EEC40AF1EE10FA67D403
:1017D000DFED556AF4EEE60AF1EE10FA45D4DFEDDE
:1017E000534AF4EEE40AF1EE10FA25D49FED505A74
:1017F000F4EEC50AF1EE10FA63D530EEE44AF1EEEC
:10180000046A64EE264AB3EE045AF3EE0E5AE4EE8E
:10181000855ADFED488A8DED017A25EEA81AF0EEA3
:10182000471AB0EE006AE1EE061A31EE077ACDED06
:10183000031A8DED027AF2E670EEE67AB1EE040A52
:1018400067EE800AB2EE0E2AA0EE822ADFED392A78
:101850008DED027AB0EE473AA2EE623AA2EE227A1B
:101860008DED013A8DED037AD9E670EEC43AB1EE12
:10187000044A63EE844AF2EE086AB0EE085AA4EE17
:10188000A65ADFED2C5A8DED027AF0EE478AE5EE8E
:10189000658AA5EE257ACDED018A8DED037ABEE647
:1018A000B1EE046A20EE861AF0EE081A61EE217A93
:1018B0009FED200AB0EE472AA7EEC02AA7EE807A55
:1018C00077E770EEC55AB1EE046A65EE868A9FED41
:1018D0001A1ADFED181ADFED197ADFED192AA8EED2
:1018E000811A68EEA70A21EE212AB7EE040A77EEE4
:1018F000603A32EE073A60EE800AB0EE474AA2EE56
:10190000224AE3EE230A37EE427A82E6CDCC8C3FC0
:101910003333833FABAA6A3F9C740008ABAAAA3D4D
:1019200000C0FF44CDCC4C3ECDCCCC3E9A99193F63
:10193000CDCC4C3F0E745A3A00004842CDCCCC3D41
:101940009A99993ED0ED167A90ED0E7ADFED176AEE
:10195000D0ED0F1ADFED162A90ED0D1AD0ED0B0A1F
:10196000D0ED123A90ED134AD0ED144A90ED155A8D
:1019700037EE670A2DE9F043E0EE267A2DED048B71
:1019800090ED0C0AC0ED167A61EEA29A002A00F0E2
:101990003C829FED092A541EF0EE422AD0E9003223
:1019A000B1EE677A01F1080E05E200BF0AD7A33C49
:1019B0009A99193F00007042000000000000204288
:1019C0000000FA4490ED039AD0ED078AD0ED085A52
:1019D00090ED048A80ED029AD8EEA56A99EE086A25
:1019E000B6EE003A79EE035A38EE833A80ED036A98
:1019F000C0ED076AC0ED068A90ED106A1FED139ADC
:101A00001FED138A66EE098AF2EE046AE8EEA56A13
:101A100003F16407C7F30D0502EB8508BDEEE66A26
:101A200003F1700616EE101A19444F1CC7F30D0C83
:101A3000C1F30D0902EB890102EB8C05D1ED005ACF
:101A400095ED009AB8EEC66A79EE658A76EEC66ABA
:101A5000C6F30D06E6EEA85A02EB8607C3F30D099E
:101A600003F2131C75EE885A02EB8905C8ED005A83
:101A70001EED029A5EED018A97ED006A79EE286A02
:101A8000CCF30D0826EE809A02EB8801A5EE889A29
:101A900003F17206C6F30D0703F20529A7EE869A35
:101AA00002EB870CC9F30D0802EB8806A9EE076A62
:101AB000013C0EF1080E85ED009A91ED008A1FEDB4
:101AC000419AF0EE466AE7EE886A03F21515C5F30F
:101AD0000D0703F29331A6EE878A02EB870903F222
:101AE0000725CCED006AD6ED006A1FED4B6AA7EE24
:101AF000A68AC1F30D0602EB860CC5F30D07E8EECE
:101B0000076A02EB870803F2CB4689ED008ADCED19
:101B1000005AE7EEA56AC6F30D0943F2B53102EBB0
:101B2000890CC8ED006AD0ED108A28EE898AE6EEAD
:101B3000875A03F29537F0EE466AE8EE036A9CEDA9
:101B4000003ABDEEE66A16EE105A05EB030808F5FA
:101B50004E5636368844C8F30D09C6F30D0502EB20
:101B6000890C02EB85089CED008A98ED009AF8EE4E
:101B7000C68A39EE486A76EEE86AB0EE659AA6EE55
:101B8000868AC7F30D0603F2EF6502EB860CA1EE21
:101B9000089AC5F30D0902EB890703F2CD4639EE29
:101BA000638AC6F30D05E1EE883A03F62D2802EBB1
:101BB0008509C8F30D0673EEE48A02EB8606E9EEAA
:101BC000A84A03F2F16803F58355C8F30D08B0EE97
:101BD000646AA3EE076A153502EB8808C5F30D05A4
:101BE000A7EE863A02EB850519448CED006AD7ED25
:101BF000006AA7EEA63A03F62F2C03F5C257CCF3E2
:101C00000D0CE3EE076A1737C1F30D0189ED003AB9
:101C100096ED003AE3EE076A02EB8C09C7F30D0676
:101C200002EB8607A7EEA63A03F583561736C8EDF2
:101C3000006A95ED009AA7EE893A03F5C255193569
:101C4000C6F30D08A3EE079AC5F30D0602EB880C48
:101C500089ED003A97ED008AA8EE079A02EB860913
:101C600003F5F1571337A7EE898AC7F30D0502EB89
:101C700085088CED009A89ED008A5EED048A38EEC5
:101C8000086A03F5FD5676EE686A0F36E6EEA08A1E
:101C9000C6F30D0702EB870C03F5F1564EED048AEF
:101CA00098ED003A9CED009AE1EE035A03F50855D1
:101CB0001536273575EEC45AC6F30D07A1EEA54AB1
:101CC000C5F30D0602EB870902EB860834EE458A60
:101CD00003F5FD5CA9EE885A0CF1110703F51655C2
:101CE000C7F30D06F0EE458AE7EE898A3F3502EB31
:101CF000860703F5085CA8EE879A0CF1290603F520
:101D00004E5CC9ED008A98ED003AA3EE079AC5F340
:101D10000D0902EB890803F53055A7EE893A3F35E6
:101D200087ED009AD8ED006AA7EEA63AC6F30D0734
:101D300002EB8709C5F30D06E3EE076A02EB86089E
:101D400003F5175589ED003A98ED009AE9EE076A18
:101D50000135C5F30D070CF1330602EB8709C6F315
:101D60000D05A7EEA69A02EB850803F5315CC9EDD7
:101D7000006A98ED008AA7EE889A0CF10107C7F374
:101D80000D0602EB8105A9EE078A02EB8609611CAC
:101D900089ED009A85ED008A5EED035A78EE088A97
:101DA000E6EE062A38EEE53AA8EEA82AE3EE205A37
:101DB0004EED035A15D0591E45BF03F57F533F33EF
:101DC0000B461946DD0690ED026AD0ED066A016009
:101DD0003FF4F8ADB6EE008A76EE085A36EE883A51
:101DE0000AE672EE821AF6EE007A21EEA73ABDEC10
:101DF000048BC0ED123A80ED134AC0ED144A80ED19
:101E0000155A80ED173ABDE8F0839FED013AEEE7F1
:101E1000000000002DE9F84FF7EE007A2DED068B5B
:101E200087EE808A00F5C04400F5025600F5014AAD
:101E300080460F4628360AF1980A80ED000A80EDA8
:101E4000018AF0EE408A84ED5F0AA6F500509FED0E
:101E5000EE9A4FF4005200211C3804F06BFB002571
:101E60004FF00009F6EE009AE84B46F81C9C4FF044
:101E7000010BC6E9009B46F8185C06ED059A46F88A
:101E8000103C46ED039A46ED029A46F8045CB560B4
:101E900086F80C903563F562B56275623562F5615E
:101EA000B56106F5015610365645CED108F52440E9
:101EB00008F5404A49464FF40052883004F03AFB96
:101EC00008F5444298ED01AA9FEDD10ACAF888941A
:101ED000C2E9299B0AF2BC4BDFF88CC3CD48CE493E
:101EE000CE4EC2F88C50C2F8A050C2F8AC5082ED71
:101EF000249A2AEE000A8AF8B094CBF81850CBF84E
:101F00001450CBF81050CBF80C50CBF80850CBF84D
:101F10000450CBF80050C2F894C0C2F89C60C2F8DC
:101F20009800C2F8B410C2F8B85004F07BFBF7EE8A
:101F300000AA7AEEC00A0AF59D624FF0FF33C2EDA7
:101F4000000A0AF2F45BCAF8D8340AF2FC520AF228
:101F5000EC539FEDB31A0AF2DC400AF59C61C0ED28
:101F600000AA2AEE010AC1ED00AACBF800501560C4
:101F70001D608AF8F09504F055FB7AEEC01AA94965
:101F8000A94AAA4BDFF8E4B2DFF8E492DFF8E4E212
:101F9000DFF8E4C2A648DFEDA76A9FEDA72A08F59F
:101FA000464ACAED001AC4F89011C4F89421C4F846
:101FB000A051C4F89C51C4F8A411C4F8A821C4F8D5
:101FC000B451C4F8B051C4F8B811C4F8BC21C4F875
:101FD000C851C4F8C451C4F8CC11C4F8D021C4F815
:101FE000DC51C4F8D851C4F8E011C4F8E421C4F8B5
:101FF000F051C4F8EC51C4F8F411C4F8F821C4F855
:1020000018B3C4F8209384EDD48AC4F89831C4ED91
:10201000C4AAC4F8AC31C4F8C031C4F8D431C4F88F
:10202000E831C4F8FC31C4F80452C4F80052C4F8D2
:102030000812C4F80C22C4F81852C4F81452C4F898
:102040001C12C4F82022C4F82C52C4F82852C4F838
:102050003012C4F83422C4F84052C4F83C52C4F8D8
:102060004412C4F84822C4F85452C4F85052C4F878
:102070005812C4F85C22C4F86852C4F86452C4F818
:102080006C12C4F87022C4F828E3C4F830C3C4F852
:102090003803C4F81032C4F82432C4F83832C4F813
:1020A0004C32C4F86032C4F8743294EDD86AC4F883
:1020B0007C52A6EE262AC4F87852C4F88012B3EEF9
:1020C000047A62EE072AC4F88422F4EEEA2AC4F8FD
:1020D0009052C4F88C52C4F89412C4F89822C4F8F0
:1020E000A452C4F8A052C4F8A812C4F8BC12C4F890
:1020F000AC225249C4F8C022C4F8B852504AC4F8BD
:10210000B452C4F8CC52C4F8C852F1EE10FA4D4D96
:10211000C4EDDA9A08F52046C4F88832C4F89C3237
:10212000C4F8B032C4F8C43284EDD77AC4F854533A
:10213000C4F84013C4F8482340F384859FED423A25
:10214000C4EDB42A62EE033AF4EEEA3AF1EE10FA84
:1021500040F3B5859FED3D4AC4EDB53A62EE044AC1
:10216000F4EEEA4AF1EE10FA40F370859FED385A2A
:10217000C4EDB64A62EE055AF4EEEA5AF1EE10FAF0
:1021800040F36885DFED337AC4EDB75A22EE279A23
:10219000B4EEEA9AF1EE10FA40F36085F3EE019A9C
:1021A00022EE290A84EDB89AB4EEEA0AF1EE10FAAA
:1021B00040F358859FED28AA84EDB90A62EE0A0A19
:1021C000F4EEEA0AF1EE10FA40F350859FED231A7F
:1021D000C4EDBA0A62EE011AF4EEEA1AF1EE10FA50
:1021E00040F34885DFED1E6AC4EDBB1A62EE262A75
:1021F000F4EEEA2AF1EE10FA40F34085DFED19AA79
:10220000C4EDBC2A52E000BF0000484352B87E3FF4
:10221000EFB630C66666463F8FC2753C6666663E60
:102220007C5944C522BA003D0AD7233CCAAA7F3F45
:102230008C2EBA3D3333333F9A99993ED9899D3DCF
:102240008988883D0000DC4234339B4166669641B4
:102250009A999141CDCC8C4133338341CDCC7C4193
:10226000333373419A996941EE7C7F3FABAAAA3E12
:10227000CDCC4C3E2549123E398EE33D6666564133
:10228000CCCC4C41343343419A9939410000000091
:102290000000DC426666E63E27173541CF4F5740C7
:1022A00049265F428FBA2141DB0F494022EE2A6A5C
:1022B000B7EE007AB4EEC76AF1EE10FA40F3E284AA
:1022C000B2EE0C3A62EE033A84EDBD6AF4EEC73A20
:1022D000F1EE10FA40F3DA841FED184AC4EDBE3A6D
:1022E00062EE044AF4EEC74AF1EE10FA40F3D284EB
:1022F0001FED1D5AC4EDBF4A62EE055AF4EEC75AEF
:10230000F1EE10FA40F3CA845FED227AC4EDC05AB0
:1023100022EE279AB4EEC79AF1EE10FA40F3C28487
:102320005FED279A84EDC19A22EE290AB4EEC70A1E
:10233000F1EE10FA40F3BA84B2EE06AA22EE0A2AAF
:10234000B4EEC72AF1EE10FAD8BFB0EE472A08F56E
:10235000C54308F5C3405033103084EDC20A84ED04
:10236000C32A05461A460021013100EE901A5FED9E
:10237000391A1FED397A1FED395A1FED373A5FEDE3
:10238000373A5FED374A1FED3B9A5FED3D9AB8EE65
:10239000E01AF7EE002A61EE216A71EE62AA21EEE0
:1023A000076AE6EEAA2A26EE224A64EE085AF4EEFE
:1023B000C55AF1EE10FA09DC65EEA57AE7EE833A2C
:1023C000E7EEA34A25EEA49A69EE099AB2EC012A37
:1023D0001FED52AA5FED522A5FED523A85ED009A49
:1023E000B7EE000AC0EE020A013105F1140BB0EE9F
:1023F000404AA0EE894A01EE101A74EE297AF8EEEE
:10240000C11AC0EE275A61EE8A6A71EEC0AAB0EE18
:10241000407AA6EEAA7A21EEA23A1FED612A1FEDBC
:1024200061AAC5ED010A23EE076AC5ED025A26EE40
:10243000085AB4EEE35AF1EE10FA0FDC65EE059A95
:102440005FED694A1FED699A1FED690AA9EEA49A2A
:10245000A9EE890A25EE00AA2AEE0A2AB2EC011A90
:102460008BED00AAF7EE000AC0EE811A10290BF1DD
:102470001405F0EE602AE1EE8A2ACBED011A72EE25
:10248000826AC0EEA6AACBED02AA7FF46DAF8446A5
:1024900099460022013203EE102A1FED846A5FED97
:1024A000847A1FED840A5FED824A5FED825A1FED48
:1024B000829A1FED861A5FED881AF8EEC33AB7EEDE
:1024C000007A23EE865A33EEC74A63EEA79AA5EE4A
:1024D000047A29EE87AA2AEE082AB4EEC02AF1EE81
:1024E00010FA09DC62EE020AE0EEA45AA0EEA59A08
:1024F00022EE091A61EE011AF9EC01AA5FED9D6A5C
:102500001FED9D5A1FED9D9A8CED001AF7EE002AE3
:1025100082EEAA3A01320CF1140EB0EE620AA3EE7A
:10252000010A03EE902A30EE21AAB8EEE36A82EEA9
:102530008A2A26EE267A36EE624AF0EE625AE7EEF4
:10254000045A66EE054A5FEDAC3A5FEDACAA8CED3D
:10255000013A64EEA57A8CED022A67EE889AF4EED1
:10256000C99AF1EE10FA0FDC69EEA91A5FEDB40A10
:102570001FEDB41A5FEDB42AA1EEA01AE1EE812A94
:1025800069EEA2AA6AEEAA3AB9EC013ACEED00AA27
:10259000F7EE006A86EE836A102A0EF1140CB0EE94
:1025A000665AA6EE2A5A8EED016A35EE234A86EE69
:1025B000847A8EED027A7FF46DAFDF49DF4DE04A19
:1025C000C4F81413DF49C4F81C53C4F82423DE4DA7
:1025D000DE4AC4F82C13DE49C4F83453C4F83C2353
:1025E000DC4DDD4AC4F844130821C4F85823C4F86C
:1025F0004C53C4F8641381469A460022013204EE1B
:10260000902ADFEDD65ADFEDD60ADFEDD62A9FED10
:10261000D6AA9FEDD62A9FEDD61A9FEDD63A9FED0A
:10262000D66AB8EEE49AF7EE009A69EE257A39EEAA
:10263000690A69EE201AE7EE809A61EEA9AA6AEEAD
:10264000883AF4EEE23AF1EE10FA09DC63EEA36A9E
:10265000A6EE8A2AA6EE821A23EE813A23EE036AB8
:10266000FAEC014A9FEDBD7ADFEDBD5ADFEDBD0A00
:1026700089ED003AB7EE004A84EE245A013209F19E
:10268000140BF0EE442AE5EE032A09EE102A72EE4E
:1026900086AAF8EEC99AC4EE2A3A29EE870A39EEDC
:1026A000C4AAB0EE442AA0EE0A2A69EEA57ADFEDAC
:1026B000B24A9FEDB07A89ED015A27EE821AC9ED30
:1026C000023A61EE081AF4EEE01AF1EE10FA0FDCAD
:1026D00021EEA16A9FEDA43ADFEDA46A9FEDA44A22
:1026E000E6EE036AA6EE264A21EE847A67EE074AF2
:1026F000BAEC019A8BED007AB7EE005AC5EE099A52
:10270000102A0BF11409F0EE455AE9EE875ACBED89
:10271000019A35EEA40A85EE00AA8BED02AA7FF499
:102720006DAF964D9649974AC4F86053C4F8D012DD
:10273000954D9649C4F8D422C4F8D852944A954D80
:10274000C4F8DC129449C4F8E022C4F8E452934A75
:10275000934DC4F8E8129349C4F8EC22C4F8F0523F
:10276000914A924DC4F8F4129149C4F8F822C4F881
:10277000FC52904A904DC4F800139049C4F80423C9
:10278000C4F80853C4F80C130022013207EE902A53
:10279000DFED720A9FED723A9FED727ADFED72AA59
:1027A000DFED723ADFED726A9FED729ADFED729A99
:1027B000B8EEE72AB7EE001A62EE201A72EE412A4E
:1027C00022EE036AA1EEA21A26EE014A64EE084A3E
:1027D000F4EEC74AF1EE10FA09DC24EEA45AE5EE55
:1027E0002A3AE5EE236A24EEA69A69EE099AF3ECFA
:1027F000015A80ED009AB7EE000A80EE252A0132D8
:1028000000F1140EB0EE406AA2EE096A07EE902ABB
:1028100036EE295AF8EEE70A80EE059A9FED4FAAA8
:102820009FED4F1ADFED4F3ADFED535A80ED012A4D
:1028300060EE8A1A70EEC02AB0EE403AA1EEA23ADB
:1028400060EE81AA9FED4BAA80ED029A6AEE836A40
:1028500026EE884AB4EEE34AF1EE10FA0FDC24EEDD
:10286000040ADFED414ADFED419A9FED417AE0EE47
:10287000249AA0EE297A24EE07AA6AEE0A5AB3EC4B
:10288000012A8EED00AAF7EE00AACAEE820A102AEB
:102890000EF11400F0EE6A7AE0EE8A7ACEED010ACB
:1028A00037EEA51ACAEE811ACEED021A7FF46DAF8B
:1028B000B6EE008AC4F8707338464FF480320021B7
:1028C00003F038FE88EE283A00273D4BC4F8A833C1
:1028D0000020C4F86C03C4F8A433C4F8A033C4F8CF
:1028E000B473C4F8B873C4F8BC73C4F8C073DFED34
:1028F000352ADFED356AC4EDE58AC2EEA83ABDEEB1
:10290000007AF0EE478AE3EE268AA3EEA67AF5EE89
:10291000C08AF1EE10FA84EDE68A84EDE78AC4ED10
:10292000EBAAC4EDECAA00F16C81F4EEC88AF1EEDA
:1029300010FA40F346814BE0CFCC4C3ED1CCCC3D9D
:102940008988883DD4CC4C3D16D7233D8A88083DE4
:10295000C10EEA3CDBCCCC3C9A99193EFBEDEB3A3C
:102960000000DC426666E63E49265F428FBA21419E
:10297000DB0F4940CF4F5740271735419A99193FF0
:1029800067666641EF7C5F4175935841FDA95141EF
:1029900084C04A410BD7434192ED3C411904364172
:1029A000A01A2F4128312841AE472141355E1A41F6
:1029B000BC741341458B0C41CBA10541A470FD4073
:1029C0003333333F9A99993E000000421D4313C6AA
:1029D00038EEC80AB0EE00AAE0EE4AAAF3EE005ABA
:1029E00020EE252AF5EE000A62EE2AAA84EDDE8AA0
:1029F0006AEEA07AC4EDDFAAC4EDE07AC4EDDD7A18
:102A0000F6EE006AB4EEE67AF1EE10FA40F3548185
:102A100037EE667AF3EE008AF7EE009AB0EE004ADF
:102A2000B0EE696AA7EE446A4FF07C5AC4F888A3F6
:102A300027EE285AB5EE009A65EE064A1FED1DAA4C
:102A4000A049A14AA14D24EE890A06F5886C84EDBF
:102A5000E10AD8ED015AC4EDE34A65EE8AAA06F20E
:102A60005C4B0027C4F8D013C4F8E413C4F8D42393
:102A7000C4F8E82384EDE40AC4F8CC53C4F8E05366
:102A8000C4F8DC73C4F8D873C4F8F073C4F8EC73FA
:102A9000B0EE6A0ACCF81870CCF81470CCF810704C
:102AA000CCF80C70CCF80870CCF80470CCF800703E
:102AB000CBF8007003F0B6FD39EEC02A06F58C693C
:102AC00089ED002AB0EE6A0A03F0ACFD04F2044975
:102AD00079EEC00A06F58D6208F5C84B06F26C4027
:102AE0007B4D7C4BC0ED000A176004F58260C4F892
:102AF000F47304F21442CBF80070C4F8F85304F5F0
:102B0000836BC9F8007004F58165C4F8FC3304F2E6
:102B10000C4300212F6006F234491F6006F2744511
:102B20000760C2F800A0CBF800A0A4F81C1406F5BA
:102B30008E6401232760C9F800702F6006F58F6747
:102B4000C7ED009A842286F87C3408F1080003F06F
:102B5000F1FC88ED069AC8ED089AC8ED1D9AC8EDFB
:102B60001E9ABDEC068B5C4E5C495D4A5D485E4C2E
:102B70005E4D5F4F5F4BC8F80860C8F84810C8F852
:102B80006810C8F884605C49C8F840605B4EC8F8BB
:102B90001400C8F810A0C8F84C20C8F86420C8F881
:102BA00060A0C8F82C40C8F83050C8F80CA0C8F88D
:102BB0005070C8F82460C8F82810C8F84430BDE840
:102BC000F88FB0EE004AE8EEC4AABBEE006A28EE29
:102BD000865AB5EE009A65EE2A4AB5EEC07A64EEE2
:102BE000899AF1EE10FA84EDDE8AC4EDDF4AC4ED75
:102BF000E09AC4EDDD9A5FD5B1EE477AF3EE008A34
:102C00000AE7B0EE001AE8EE81AAF3EE001A68EEC9
:102C1000E12AB5EE003A62EEAA3A84EDDE8AB5EE1C
:102C2000C07A23EE838AF1EE10FAC4EDDF3A84ED28
:102C3000E08A84EDDD8A7FF5E3AEB1EE477AF3EE0C
:102C4000008AE9E6C4EDB4AAC4EDB5AA4FF07E53FC
:102C5000C4F8D8324FF07E50C4F8DC024FF07E55F5
:102C6000C4F8E0524FF07E51C4F8E4124FF07E52A7
:102C7000C4F8E8224FF07E5BC4F8ECB24FF07E5906
:102C8000C4F8F0924FF07E5EC4F8F4E24FF07E5C40
:102C9000C4F8F8C24FF07E5AC4F8FCA24FF07E533D
:102CA000C4F800334FF07E50C4F80403B7EE000AB6
:102CB000B0EE402AFFF74BBBFBEE008AACE6C4ED5A
:102CC000B5AAC3E70AD7233CCAAA7F3F22BA003D70
:102CD000FA7EAA3EFA7E2A3F9A99993E9A99193F1E
:102CE000CDCCCC3E48E13A3F3333B33E9A99593F7D
:102CF000AE47E13E52B85E3FA4707D3F9A99193EBF
:102D00002DE9F04F00F52045D0ED047AD5F8843454
:102D100090ED220ADFEDF02AB1EE087A67EE870A1D
:102D200001EE903ABDEEE01AB8EEE13A11EE104A2B
:102D300030EE432A2DED108BB5EEC02A052CA8BF2E
:102D40000524F1EE10FA48BFB1EE422A8DB0B4EE80
:102D5000E22AF1EE10FA06460891039209DD03F02B
:102D60003BFCBDEEC00A10EE100AB8EEC03AC5F842
:102D7000840403EE904AB8EEE34AF2EE084AA4EE69
:102D8000243A9FEDD65AB0EE000A63EE050A03F02E
:102D900085FCDFEDD35A96ED061AD6ED020A60EEF9
:102DA000259A06F18C00B0EE690A0490FEF7FEFB4E
:102DB00096ED0A9AB6EE006AB4EEC69AF1EE10FAF3
:102DC00040F1B88679EE09BAF7EE00CA9FEDC5CAA0
:102DD000DFEDDADA9FEDC4AAB0EE6CDAABEECCDA56
:102DE000ABEEADAA2DEE06BA7CEECBAA06F5C0443A
:102DF00006F5005906F5804889ED26AA88ED3AAA1D
:102E000084ED4EAA89ED28BAC9ED27AA88ED3CBA0F
:102E1000C8ED3BAA84ED50BAC4ED4FAA316CC9F895
:102E2000BC10C8F80C11D4ED617AC4F85C1129EE1D
:102E3000A77AB6EE00EA96ED018ADFEDACEA9FEDE7
:102E4000ACFADFEDACFADFEDAC8A67EE0E0A06F500
:102E5000C84220EE881A04F2044782ED001AD4ED2D
:102E6000621A059229EEA12A04F5816A62EE0E2A01
:102E700028EE2F0A22EEAE3A04F5846B63EE083A90
:102E8000B3EE09AAC7ED003A94ED634A69EE844AAD
:102E900024EE8E5A65EE0F5A25EE886A8AED006A96
:102EA00003F0C0FB04F224429BED00BAD2ED00BA5D
:102EB000B4F81C343BEECBCAF7EE006AACEE28BA8D
:102EC00001339FB268EE0AAA7BEE26CA36EEC00A2C
:102ED0002AEEACDA05F23C4004F582614A2F80ED1F
:102EE000000A8BED00BA81ED00DA00F23386A4F817
:102EF0001C7496ED033A94F88071F1EE0C3A23EECF
:102F0000234A0122FDEEC44A84F8282414EE90AA34
:102F1000BAF1000FC0F28087BAF1060F00F34A86BB
:102F2000BAF1020F41F35C80AAF1030B0C21734B41
:102F30009FED6A5ADFED6A8A03EB870CB0EE000A58
:102F40001CF90B00084405EE900AB8EEE56A06F598
:102F5000404766EE050A03F0A1FB20EE280A03F0C5
:102F60002DFC97F8F025B0EE40FA002A40F040879B
:102F700007F2EC51012381ED000A87F8F035B0EE3D
:102F80004F0A03F015FCD6ED000AC0EE807AF1EE90
:102F900000FAF4EEEF7AF1EE10FA00F125879FEDDA
:102FA000587AF4EE477AF1EE10FAC8BFF0EE477A9D
:102FB000D6ED0E8A9FED531ADFED531AD7F8D804D9
:102FC000E8EE811A05F5125C07F5BF6228EE002ACB
:102FD0005045CCED047A82ED002ACCED051A19D0CB
:102FE000421C17D0D6ED092AF5EEC02AF1EE10FAF0
:102FF000B7EE003A0AD4F4EEC32AF1EE10FAD6BFC7
:103000009FED451A9FED413AA2EEC13A07F59C6B40
:103010008BED003AF3EE046AD6ED0D3A9FED3C4A93
:10302000C7F8D8A4F4EE669A29EE099A05F58E6AD7
:10303000F1EE10FAD6ED164A9FED466AD6ED14BAB7
:103040009FED34AAD4EDD6AA94EDD4CA4CBFB0EE0D
:1030500066BAB0EE69BA23EEA35ADAED009A69EEC9
:10306000045A69EEA4CAE5EE065A06F5C543503384
:103070006CEEABDA2AEE840AEDEE8A5A0022C9ED34
:103080002E5A06F5C34909F1100AC8ED425AD64630
:10309000C4ED565A84EDD5BA01320EEE102AF8EE80
:1030A000CEEAB7EE00FA6EEE80FA7EEECF0A2BEE95
:1030B0002E7AAFEEA0FADFED182A9FED1F1ADFED92
:1030C000241A9FED222A9FED169A9FED145A67EE5F
:1030D0000F7A27EE8C3A4BE06666263FABAAAA3DF4
:1030E000DFCF0242EC51783FA4707D3F0326803F42
:1030F0009F8E7F3F959E6BC50AD7A33C84740008C2
:1031000000C0FF440AD7233B643B7F3FCDCC0C3F3C
:10311000A69B443CCDCCCC3D6666E63E27173541A8
:10312000CF4F5740000048430000704277BE7F3FBA
:103130003333333FCDCC144149265F420AD7A33BFA
:1031400000803B4500000000CDCC4C3DDB0F4940EA
:103150008FBA21419A99193ED7A3303F9A99993E47
:10316000CDCC4C3E3333733F0000C843DB0FC9C0A6
:10317000B4EEE23AF1EE10FA09DC63EE033AE3EE64
:10318000811AA3EEA12A23EE029A29EE095AB3EC82
:10319000014A5FED1F6A1FED1F3A5FED1F2A8EED9A
:1031A000009AB7EE00AACAEE044A01320EF11408E2
:1031B000B0EE4AFAA4EE89FA05EE902A7FEE05FAFF
:1031C000B8EEE56ACAEE2F0A66EE00AA76EE4A9AD3
:1031D000F0EE4ADAEAEEA9DA6BEE06CACEED014A63
:1031E0002CEEADEACEED020A6EEE0CEAF4EEE6EA63
:1031F000F1EE10FA0FDC2EEEAE2A1FED311A5FED64
:103200002C1A1FED2E7AE2EE011AA2EE217A6EEE52
:10321000872A22EEA23AF3EC017AC8ED002AF7EEF3
:10322000009AC9EEA73A102A08F1140EB0EE699A76
:10323000A3EEA29AC8ED013A39EE035A89EE85AAA7
:1032400088ED02AA7FF428AF96ED059A1FED4BBAE0
:103250001FED4BCAF0EE490AB0EE4B0A03F01EFA1E
:10326000D6ED0C0A5FED4F6AF4EEE60AF1EE10FAC5
:1032700060EE0CAAC0F268864FF0010C85F87CC4A1
:103280005FED55CA96ED0F6A5FED56DA5FED56FABF
:103290001FED511A5FED531A5FED582A96ED152A6E
:1032A0001FED593A1FED597A5FED596A96ED184AAC
:1032B00096ED175AD6ED115AD4EDEC4AF0EE6CEAC1
:1032C000E6EE2DEA05F5866B05F59069B7EE00EAA6
:1032D00028EE2AFACEEE2EAA06F5C6436C330993E1
:1032E0006FEE0F0AF0EE4E7AA0EEAF1ADBED003A69
:1032F000D9ED00EAC4EDF4AAE0EE811AF4EEE2BAE8
:103300002FEE21AAB0EE63CAEAEE2A7AF1EE10FAA5
:10331000EAEE0A7A92EE03CA8EEE27BAC8BFB0EE82
:103320004E7A37EE6EFAF5EE009AECEE263AEFEEB4
:1033300022EAB7EE0C0AF0EE69DAE4EE00DA84ED88
:10334000F3AA84EDF8AAC4EDF9AA84EDF5BA84EDE8
:10335000FABA1FED806ACBED003A1FED81EAC9EDA4
:1033600000EA5FED82FA5FED820AC4EDE6BAD6EDBF
:1033700013BA96ED121AF4EE66DAF1EE10FAEBEEED
:10338000AC0AA5EE296AE5EE8EFA5FED8ACA84EDF5
:10339000E76A48BFF0EE66DA61EE2C1AF4EE6D4A89
:1033A000F1EE10FAC4EDE8FAC4EDE91AC4EDEA0A48
:1033B00040F03885D6ED219AB2EE0E0AF0EE690A99
:1033C00003F06CF95FED981A1FED982A60EE212A40
:1033D00005F58C6822EE823A23EE080A03F022F902
:1033E000B7EE008A38EE405A039988ED005A00295A
:1033F00000F0F0850898DFF8608406F5444300F19A
:10340000040EEC3306F5C24206F524417C328831C5
:10341000CDE90AE302920791002206F54641F34600
:10342000019301200092069104F2144904F20C4C1D
:1034300004F5836399ED004ADCED007AD3ED006A70
:103440009FEDF0CA5BED013A3DEE27DA36EEC40A95
:10345000B7EE007AB4EEC7DAA0EE0C4A04F20C4ED6
:10346000F1EE10FAA8BF3DEE47DA8EED00DA89EDF5
:10347000004A002800F0A483DEED005ADFEDE2DA16
:103480009FEDE2EAB4EEE54AF1EE10FAD8BFF0EEB5
:103490004EDA9FEDDF6A9FEDDFFADDF81090F0EE77
:1034A0006DEAE3EE86EA4846B0EE6E0AFDF7FAFEF4
:1034B000029A09F5015000F110094A453FEE00FA61
:1034C000F1D10599D4EDFDBAD1ED004A94EDFE2A73
:1034D00094EDFFCADFEDCF2ADFEDCFFA9FEDCF6A83
:1034E00004F2044C74EEAB0A9CED007AB7EE001ABD
:1034F00004F5816377EE023A93ED000AF4EEC10A17
:10350000B7EE003AF1EE10FA3CEE00EAA8BF70EE1A
:10351000C10AF4EEC33AB7EE004AF1EE10FAF0EE4B
:1035200000CAFFEE001AA8BF73EEC33AB4EEC4EAB5
:10353000E0EEAC1A05F5876E05F23C40F1EE10FAAC
:10354000F0EE007ABFEE00DAA8BF3EEE44EAA3EE4A
:10355000A7DA07F2F459F0EE005AFFEE00EAEEEEB9
:1035600025EA31EEA25AB0EE6D0A7DEE056ADEED77
:1035700000DAC4EDFD0A7EEEA64A2FEE2F8A9FEDFB
:10358000A6FAD0ED00FAC4EDFE3AF0EE6DBAD4EE34
:103590008FBA079884EDFFEAEFEEABDAB7EE00DA08
:1035A000CEED00DAADEE868AFDF77CFE07F5BF6250
:1035B000D9ED00CAD2ED001A0699D6ED0B7A91ED3D
:1035C000007A9FEDB13A9FED964A3CEEA12AF7EEC4
:1035D000000AB4EEE02AF1EE10FAA8BF32EE602A3B
:1035E000F0EE002ABFEE005AA2EE225A07F2FC5378
:1035F00007F2F45093ED00EA80ED002A75EE4E5A82
:10360000B0EE401AA7EE25EAF0EE4D3A6EEE27EA4C
:10361000B1EE00CAAEEE831AE8EE8C3AF0EE4D6AD7
:1036200021EE23FA9FED7F0A83ED00EAAFEE0FDA79
:10363000E8EE806AB1EECD6AB4EEC49ACFEE064AE7
:10364000F1EE10FA26EEA41AC0F2EF82019AD4F835
:103650006413A2EC011A0029019240F3058306F5D8
:10366000C642103202EB810CC907DFED6A2A5346CD
:103670002BD5DAED037A9AED013A9AED00DA9AED5C
:1036800004CA9AED025AB0EE487AA3EE677A0AF1BC
:103690001403A7EECD7A77EE4C3A23EE850AEDEED1
:1036A000007AADEE27CAB0EE674AADEE004AADEE45
:1036B00027CA8AED034A8AED04CAB2EC01EA63EE36
:1036C000276A9445EEEE262A54D0D3ED03EA93ED13
:1036D00001FAD3ED005AD3ED081A93ED062A93EDC3
:1036E000056AD3ED04DAD3ED02BAD3ED097A93ED8E
:1036F00007DAF0EE484AEFEE6E4A10462833B0EE95
:10370000483AEEEEE54AA2EE613A74EEEDFAA1EE29
:10371000C63A6FEEAB0A33EE677AE5EEA0EA27EE23
:103720000DCAE5EEAEDAE6EE0C1AB0EE6E1AA5EEB4
:10373000A01AE5EEAEDAE6EE217AB0EE615A03EDBC
:10374000071A43ED06DAA6EE0C5AE6EE217AB0EC43
:10375000010A03ED025A6FEE2ECA43ED017AE0EE44
:103760002C2A92ED014A62EE213A021D9445E4EEC4
:10377000232AAAD1F6EE006A22EEA62AD6ED192A4D
:1037800095F87C14A2EE828A79B905F2744E9EED0A
:1037900000EA05F58F6938EE4E8AD9ED00EAAEEE03
:1037A00088EAB0EE4E8A8EED00EA9FED1DFAB4EE87
:1037B000CF9AF1EE10FAC0F21982F7EE002A72EEFB
:1037C000E91AB0EE043AF0EE626A96ED1F7A9FEDC8
:1037D000166AD8F800301549154A96ED1C0ADFED37
:1037E00015FA9FED151ADFED157A9FED15FADFED4D
:1037F000153ADFED15EA9FED154A9FED15EADFED6D
:10380000154A4DE06F12833A0AD7A33C0AD7A3BCEE
:10381000CDCCCC3D00000000ABAAAA3E0AD7233D88
:1038200077BE7F3F9A99193E8FC2753D0D6619008C
:103830005FF36E3C0AD7A33B0000802FBD66633D5B
:103840004AB57F3F65C1993D384A7E3F618B1D3E39
:103850006210783FF8F79E3E00000020F2D25D3FF4
:103860008E6F083FCDCC0C3FAD6D8A3C38F842BF1F
:103870006744093FAE47E13D6F12833A9C6AED3DD4
:10388000000000002DB27D3F3333B33E3480373A21
:103890006F12833B52B87E3FF6287C3F80C2753C56
:1038A0005FED12DA1FED125A1FED12DA5FED125AB8
:1038B0005FED12CA1FED12CA5FED12BAE1EE836A24
:1038C00001FB032005F5886C27EE066AB4EEEF0ACB
:1038D00026EE266A0FEE900A5FED196A1FED193A7F
:1038E00021EEA60AF8EE6F6ABFEE002A66EE81FAB4
:1038F000F0EE000AF0EE426AEFEEA06A05F25C4ECE
:1039000001FB0023DCED00FAC8F8003066EEA77A70
:1039100066EEA33AEFEE8F7A05F58C699CED01FA1D
:10392000DCED02FACCED007AEFEE2E3A26EE844A78
:10393000DCED03EA9CED06FACCED013AAFEE8E4ADF
:1039400066EEA44A9CED04EA8CED024AEEEEAD4A26
:1039500026EE855A77EEA37AAEEE0D5ADCED05DA47
:10396000CCED034A37EE84DA65EEE65AF1EE10FA52
:10397000EDEEAC5A7DEE24CA5FED3FDA8CED045AD1
:103980007CEE85FAD8BFF0EE6D2A7FEEA57A26EEA2
:10399000833A37EE8FDA0EEE903AA6EE8CDA26EE08
:1039A00022CA9EED006ACCED055AF0EE466ADDEEC5
:1039B0002B6AB8EE6EEAD9ED00BA8CED063AABEEA2
:1039C000A66A6EEE01CA8EED006AB4EEEC0AF1EE64
:1039D00010FA00F3F88005F26441D1ED001A1FEDF2
:1039E000574A5FED575A01995FED58FA009805F56F
:1039F0008D63D3ED00EA21EE84FA05F26C4C9CED68
:103A000000EA3FEE6E3A05F2644EEEEE03EA05F28E
:103A1000344905F586628EED00FA27EE2E7AC3ED65
:103A200000EA67EE222AB3EE0B5A62EEA57AF2EEB6
:103A3000024AE6EE0C7A01300090F0EE45CAC1ED84
:103A40001F7AD9ED00DAD2ED006AD5F82C0438EEF1
:103A50006DDABDEEE60AEDEE2FDAA0F5707110EE2C
:103A6000103A38EE6D8ACA1A28EE24CAE8EE08CA5F
:103A7000C31A03F6FF71A8EE0C5AC3F30B0CC1F383
:103A80000B0E28EE2C6AC9ED00DAC6EE05BA41F637
:103A90000A19CC4402F6FF7106EB8C03C2F30B0249
:103AA000C1F30B0C4A44CE44CC44814406EB890953
:103AB00006EB8E0E05F59061F8EEC03AC9ED01BA3D
:103AC000D3ED010A9EED012AD1ED004A06EB8203F7
:103AD00006EB8C0ED3ED011A9EED014A009B36EEEB
:103AE000E31A32EE60FA74EE615AEFEE010A013029
:103AF000C0F30B00E5EE811A5A460BF1080B70EE8D
:103B0000EBFA31EEEB5AF0EE6BEAEFEEA4EAE5EEFB
:103B100024BA4BED03EAC2ED00BAC5F82C040398B1
:103B2000984200F0A48004F5826393ED00DA94F8E3
:103B3000280479E439EE468A5FEDAB6A1FEDABAA43
:103B40005FEDABAA1FEDABBA78EE088AA8EEA6AA85
:103B5000FFF74CB9EB48EC4F0368EC49DFEDECDACA
:103B60009FEDECFADFEDECEADFEDECFA07FB031C6E
:103B700007FB0C1707EE90CA07EE107AF8EE670AFB
:103B8000B8EE471ABEEE00EAA1EE2DEA076004F592
:103B9000836E60EEAD1AB0EE4F2AA1EEAE2A002081
:103BA000A4F81C046EEE2F2A8EED002AC2ED002A26
:103BB000FFF79FB94FF0030B4FF0060AFFF7B6B9B6
:103BC000DFEDE0DA65E401FB032200EE102AF8EEF7
:103BD000403AC8F8002023EE811AA1EE202A62EEB6
:103BE000020A20EE822A62EE211AF8E6D4EDF65A95
:103BF000D4EDF74AAAEEE58AAAEE658A78EE64DA91
:103C00006DEE8BBAEAEE2B5AEAEE254AB0EE656A03
:103C1000F0EE64FAAAEE2B6AEAEE25FAB0EE648AB8
:103C200084EDF66AC4EDF7FAC7E5D4EDFBDAD4ED1E
:103C3000FCBAAAEEED1AAAEE6D1A71EE6BFAB0EEAE
:103C40006B1A6FEE8B0AEAEE20DAAAEE2D1AF0EE6E
:103C50006DCAF0EE411AEAEE20CAEAEE2D1AC4ED62
:103C6000FBCAC4EDFC1AF1E49FEDB62A86E5DDE956
:103C70000A91DDF80CA0DDF82080099800915246E9
:103C80004146FDF75FFE07F59C6BD6ED088A96ED81
:103C9000099A9BED00AA009807F2DC461AF0010F82
:103CA0004246D6ED00AA08EBCA0828D0B0EC01BA0B
:103CB000D2ED017A90ED1FEA19ED013ADFED982A75
:103CC0009FED988AABEE09EA083209F10809F7EE90
:103CD000009A68EEAADA39EECA7AB0EE4EDAA7EEAA
:103CE00022AAA3EE2DDAA7EEADEA7AEE6ACA09EDB2
:103CF00003DA02ED01EA4245ECEE88AA4BD0014618
:103D0000B1EC01CA92ED010AD1ED1FBA59ED016A79
:103D1000DFED830ADFED831AECEE09BA02F1080C3D
:103D20001032B7EE006A68EEAA3A36EE4A1AB0EEE2
:103D30006B2AA1EE20AA09F11009A6EEA32AE0EE53
:103D400023BA09ED052A3AEE6A4A42ED03BA90ED2C
:103D500001FAD1ED205A12ED01BA59ED03EAE4EE71
:103D600021AA424501F10400EFEE095A76EE4AFA23
:103D700028EEAA5AAFEEA0AAF0EE654AEEEE854A0A
:103D8000EBEE055A7AEE6A9A49ED034AE9EEA1AAEA
:103D9000CCED015AB3D107F59C6E07F2DC478EEDEE
:103DA00000AAC7ED00AADDED038AD4EDF2AAB8EEB1
:103DB000E89A8AEE890AB5EE400AF1EE10FA00F1AF
:103DC0001381B1EEC0AA05F58E6595ED00EADFED31
:103DD000562A3AEE4E7AA7EE22EA85ED00EA0DB0B9
:103DE000BDEC108BBDE8F08FF0EE6F7AFFF7E0B816
:103DF00096ED07AADFED4D6ADFED4DAA2AEE26BA51
:103E0000B4EEEABAF1EE10FA40F1C38007F2EC5ECC
:103E10008EED000AFFF7B3B84FF0000BDA465946B3
:103E2000FFF785B8B6EE002AD4EDE52ADFED419A1A
:103E3000C4EDECDA2DEE823ABDEE007A83EE225A22
:103E4000A5EE297AB5EEC07AF1EE10FA00F19C8069
:103E5000B4EEC27AF1EE10FAC6BF37EE427AF3EE54
:103E6000004AFBEE004ADFED347A2DEEA7CAF0EEF1
:103E7000003A8CEE224AF7EE006AE7EE636ADFED65
:103E80002DDAFDEE005A27EE240AE4EE2D5A20EE3C
:103E900026EAB5EE006A6EEE064AF5EEC05AF6EE78
:103EA00000EAF1EE10FA84EDDFEAC4EDE04AC4ED79
:103EB000DD4AC4EDDEEA00F18880F4EEEE5AF1EE60
:103EC00010FACABF75EEEE5AFBEE00EAF3EE00EA16
:103ED000B0EE00FAF7EE00BAE5EECFBA4FF07C5242
:103EE000C4F8882365EEAEFAF5EE000A2FEEAB1AA1
:103EF00061EE20CA84EDE31AC4EDE4CAC4EDE1CA60
:103F0000FFF758BA000000200D6619005FF36E3C01
:103F10000000802FCDCCCC3ECDCC4C3E0AD7233CEC
:103F2000F7CC12386F12033BCDCCCC3D295C0F3E51
:103F30000AD7A33B000000429A99993E0000A04294
:103F4000DB0FC9C000000000002185F87C141FEDC4
:103F5000050A02F0A3FB1FED064A20EE0B0A60EEF5
:103F6000044A24EE880A02F05DFB79EEC05A05F59A
:103F70008F60F5EEC05AF1EE10FA48BF5FED0F5AB0
:103F8000C0ED005AFFF77CB9B1EE477AF3EE004A74
:103F900069E79DED030AF8EE40BA07F2EC5B28EE04
:103FA0006BCAF7EE00CA8CEE0B0A02F03BFB9BEDEE
:103FB00000EA7CEEC0DA7FEE4EEAAEEEADEAB0EE9D
:103FC0004EFA8BED00EAFEF7DABFF1EE655AF3EE3A
:103FD00000EA7DE7DDE90810039AFDF7B3FCE2E6AD
:103FE000D3460021FEF7A3BF02F0B6FBB0EE40AA15
:103FF000E9E600BF2DE9F041A54D2DED068B064603
:104000000C460146A3481746FCF748FFA1482B7F02
:104010006A7FA149FCF772FA2846FDF7D7F8002F0E
:1040200000F02482B800021F90080130314610F0E1
:1040300003029A4B4FEA870601EB870C4ED0012A08
:1040400031D0022A17D0B1F900E0B1F902809FED1A
:10405000947A00EE10EA01EE908AF8EEC00AB8EE0B
:10406000E12A20EE871A62EE072A83ED001AC3EDDB
:10407000012A04310833B1F90000B1F902209FEDA3
:10408000883A03EE900A05EE102AB8EEE34AF8EEFD
:10409000C55A64EE034A25EE836AC3ED004A83EDF8
:1040A000016A04310833B1F900E0B1F90280DFEDB3
:1040B0007C6A08EE90EA0AEE108AB8EEE89AF8EE0A
:1040C000CAAA69EE269A6AEEA67A04316145C3ED62
:1040D000009AC3ED017A03F1080356D0B1F900004C
:1040E000B1F90220B1F904E0B1F906809FED6C0A44
:1040F00008EE100A07EE102AB1F90800B1F90A20FB
:1041000001EE10EA02EE908AB1F90CE0B1F90E80EE
:1041100003EE100A03EE902A04EE10EA04EE908AF1
:10412000F8EEC80AF8EEC71AB8EEC12AB8EEE25A9D
:10413000F8EEC35AB8EEE36AF8EEC46AF8EEE48A21
:1041400020EE809A61EE809A22EE00AA65EE00AA27
:1041500025EE808A26EE007A66EE800A68EE807A86
:10416000103183ED009AC3ED019A83ED02AAC3EDED
:1041700003AA83ED048A83ED057A614503F12003E8
:1041800043ED020A43ED017AA8D1DFF824814349C7
:104190003A464046FEF7B4FD9FED420A98ED1C8A70
:1041A000B4EEC08AF1EE10FA00F38C809FED3E8AE7
:1041B0003A4FDFED3D8A2644D7ED009AD7ED01AAAC
:1041C0009FED3A4AB3EE0B9AB2EE02AAF0EE490A1C
:1041D000E9EEA90A0434083729EE8A0AB0EE493A12
:1041E000B0EE495AA9EE803AAAEEAA5A6AEE8A2A95
:1041F00029EEA02AAAEEA29AC2EE037A6AEE854AB6
:1042000039EEE76A84EE897AE8EE067A7AEEC76AD2
:10421000F5EEC07AA8EE267AF1EE10FAF1EE671A02
:10422000B5EEC07AC8BFF0EE671A67EE843AF1EED9
:1042300010FA67EE045AF4EEE81AB0EE491AD4BF49
:10424000B1EE471AB0EE471AF1EE10FAC8BFF0EE21
:10425000618AFDEEE39ABDEEE59AF4EEC18AF1EED5
:1042600010FA19EE900A00F30F0119EE103A03F359
:104270000F0824F8041C24F8028C48BFF0EE418A91
:10428000A64299D1C5ED0A8ABDEC068BBDE8F08146
:1042900014010020500100207C03002010000020A9
:1042A000000000380AD7A33B0000000000FEFF46D4
:1042B00074030020CDCCCC3E0000B4420000484343
:1042C0001F4209B998ED201A5FED061A98ED1D2AD4
:1042D000D8ED1E0A1FED080A61EE218AF7EE00AA4A
:1042E000F0EE6A2AE8EEA82AB2EE003AF1EEE23ADF
:1042F000B2EE065AA2EE435AF0EE6A9A88EEA3AAEC
:10430000E5EE089A3AEEC29A02F0C8F95FED155A46
:104310001FED154A20EE256A26EE040A02F082F906
:104320007AEEC00A002F00F0B280DFF89081DFF84B
:1043300090E1DFF890C15A4E5A485B495B4B98EDCB
:10434000003A9EED002A9CED005AD6ED002A90ED31
:10435000000AD1ED00AA03EBC702F0EE434AF0EEEB
:10436000457A93ED003A93ED015ADFED516A33EE51
:10437000647A35EE671AA2EE267AA2EEA61AF0EE5D
:10438000684AB0EE686AE9EE874AA9EE816AF7EEFC
:10439000003AF0EE631AF0EE636AE4EEA41AE6EE79
:1043A000066AF1EEE17AF0EE412AB1EEE61AF4EE99
:1043B000E34AF1EE10FAB0EE472AC6EE011A84EE97
:1043C000A77AFFEE005AB0EE634A08DCF4EE654AC5
:1043D000F1EE10FA4CBFB0EE654AB0EE644AF7EE6B
:1043E000005AB4EEE56AF1EE10FAFFEE003A08DC8E
:1043F000B4EE636AF1EE10FA4CBFF0EE635AF0EEE1
:10440000465A74EE474A35EEE16AA9EE247A08333B
:104410009342E9EE061A77EE4A6A71EECA7A36EEF0
:10442000C01A37EEEA7AA0EE810AE0EE87AA70EEB3
:10443000431A3AEEC54AF0EE433AF0EE455AE8EE3A
:10444000213AE8EE045A43ED023A43ED015A84D191
:10445000C6ED002A88ED003A8EED002A8CED005A58
:1044600080ED000AC1ED00AABE00A1E6DFF8588089
:104470000E493A464046FEF743FCDFED0E7A98EDD2
:104480001C8AB4EEE78AF1EE10FA3FF71BAFDFEDBE
:104490000A8AC5ED0A8ABDEC068BBDE8F08100BF33
:1044A00018E2002014E2002010E20020100000209A
:1044B0003BDF7F3F0AD7A33B0000000024E200203F
:1044C00020E200201CE2002074030020704700BF9F
:1044D000FEE700BFFEE700BFFEE700BFFEE700BF4C
:1044E000704700BF704700BF704700BF10B530482D
:1044F000304C84B0002100F05DFF0121022001F06A
:10450000FFFC01224FF080732B4802A9CDE9022362
:1045100001F05CFA294A92E8030084E8030060781D
:104520002378A17812890344E0780B44217903446D
:1045300060790B44A1790344E0790B44034483F48C
:104540007F4383F0FF018A4203D01D481D4A20604B
:1045500062609FED1D0A1D491D48FDF75BFC154972
:104560001C48FBF715FE1C4A1A4B1C480094A2F18C
:104570000801FCF795FC01210F4801F039FB0446C6
:10458000211E18BF012116484BF6803200F04AFC6C
:1045900000B9FEE7134A1248202100F08DFC00B953
:1045A000FEE70F48182104B0BDE8104000F002BD3E
:1045B00080C9002078C90020000402400080000863
:1045C0000000F0C20000704200803B470000001075
:1045D00074030020500100207C03002014010020FF
:1045E00084C90020F53F000808B5FFF77FFF0248A7
:1045F000FCF7B6FAFBE700BF500100202DE9F043BD
:1046000001219DB004464FF4800001F079FC0121A6
:10461000084601F075FC01214FF48070002501F07F
:1046200087FC4FF00308FF2301A94548DFF81891E4
:1046300001938DF80B508DF8088001F0C7F94148BF
:104640000F944FF400524FF480614FF48076CDE91F
:1046500015264FF4003301260827CDE90D50CDE98A
:1046600012514FF400640DA9484617931494CDE9F4
:104670001057CDE91A551895199601F071F8314681
:10468000484601F099F84FF4403004904FF47061BF
:1046900003A806910395059500F048FF0B9404F1DB
:1046A000804404F58C3907A94846CDE9095507959A
:1046B000ADF820608DF8307000F00EFF32463146C4
:1046C0004846072300F052FF0222114648460723BE
:1046D00000F04CFF424648460723042100F046FF05
:1046E000414648460723042200F040FF05221146B8
:1046F0004846072300F03AFF0622114648460723A2
:1047000000F034FF072329461A46484600F02EFFE2
:10471000072319463A46484600F028FF31464846E6
:1047200000F07EFF3146484600F016FF314648460D
:1047300000F06CFF484600F063FF1DB0BDE8F08359
:10474000000002404C20014010640240014800F08B
:1047500057BF00BF0020014030B5012183B0224C7B
:10476000062001F0CDFB214B4FF440626946204604
:10477000CDE9002301F02AF9204604220A2101F0A4
:1047800043FA042220460B2101F03EFA40F20225B2
:104790004FF47040CDE90005154D6946204601F003
:1047A00015F9402369462846009301F00FF9204689
:1047B00005220C2101F028FA204605220D2101F0E6
:1047C00023FA204605220F2101F01EFA2046052279
:1047D0000E2101F019FA28460522062101F014FAEB
:1047E000012003B030BD00BF0004024002020100FE
:1047F0000008024070B5002084B014460E4601F057
:1048000079FB002001F028FB4BF680339C420CD052
:104810004AF64440844267D0B4F5FA4F6AD038492A
:104820008C425BD0002004B070BD03214FF4817036
:1048300001F008FB012001F00FFB3B2001F09CFB85
:104840004FF4805548BB3B2001F096FB02463B20CD
:104850001ABB01F091FB03463B20F3B901F08CFB3E
:1048600001463B20C9B901F087FB02463B20A2B9B3
:1048700001F082FB03463B207BB901F07DFB014642
:104880003B2051B901F078FB02463B202AB901F0E8
:1048900073FB10B9083DD6D1C4E701214FF4804025
:1048A00001F03AFB174801F081FB75020020AEB21F
:1048B0006946ADF80200ADF80400ADF80C001148EF
:1048C0000294ADF80060ADF8066001F0D7FB0E4829
:1048D000694601F057FC012004B070BD042140F28C
:1048E000891001F0AFFAA5E7062140F20F1001F0A0
:1048F000A9FA9FE704214FF4D57001F0A3FA99E7D4
:1049000000770100003800400034004070B5834853
:104910000E464FF40031154601F078FA4FF4961424
:1049200000283AD04FF400317C4801F06FFA03467A
:104930004FF40031794883B301F068FA02464FF42E
:10494000003176484AB301F061FA03464FF4003172
:10495000724813B301F05AFA02464FF400316F481F
:10496000DAB101F053FA03464FF400316B48A3B1BA
:1049700001F04CFA02464FF4003168486AB101F088
:1049800045FA03464FF40031644833B101F03EFA72
:1049900018B1083CC6D1002070BD6048012101F06B
:1049A000FFF95F495D4801F023FA4FF48054002875
:1049B00031D15B49594801F01BFA02465849574822
:1049C0004ABB01F015FA0346554954481BBB01F098
:1049D0000FFA024652495148EAB901F009FA034672
:1049E0004F494E48BBB901F003FA02464C494B48C7
:1049F0008AB901F0FDF90346494948485BB901F01D
:104A0000F7F90246464945482AB901F0F1F910B9CB
:104A1000083CCED1BFE741480022342101F0DCF947
:104A200040493E4801F0E4F94FF48054002831D168
:104A30003C493A4801F0DCF903463A4937484BBB58
:104A400001F0D6F90246374934481ABB01F0D0F9D3
:104A5000034634493148EBB901F0CAF902463149FD
:104A60002E48BAB901F0C4F903462E492B488BB938
:104A700001F0BEF902462B4928485AB901F0B8F9AD
:104A80000346284925482BB901F0B2F910B9083C72
:104A9000CED180E7C5F3002141EA46041F48E1B2C8
:104AA00001F0A4F920491D4801F0A2F94FF4805605
:104AB00000283BD11C49194801F09AF902461A49CD
:104AC0001648002A32D101F093F9034616491348DB
:104AD00063BB01F08DF904461349104834BB01F063
:104AE00087F9024610490D4802BB01F081F90346DF
:104AF0000D490A48D3B901F07BF904460A49074831
:104B0000A4B901F075F902460749044872B901F0E9
:104B10006FF958B9083ECDD13DE700BF00580040BD
:104B20000100030082000700800007003E48E9B250
:104B300001F05CF93D493C4801F05AF94FF48056C8
:104B4000002831D13949384801F052F90546374932
:104B500035484DBB01F04CF90346344932481BBB84
:104B600001F046F9044631492F48ECB901F040F90B
:104B700002462E492C48BAB901F03AF905462B49AC
:104B800029488DB901F034F90346284926485BB914
:104B900001F02EF90446254923482CB901F028F9E3
:104BA00010B9083ECED1F6E621491F4801F02EF992
:104BB0004FF49616002831D11D491B4801F026F903
:104BC00002461B4918484ABB01F020F9054618491E
:104BD00015481DBB01F01AF9034615491248EBB9F7
:104BE00001F014F9044612490F48BCB901F00EF95E
:104BF00002460F490C488AB901F008F905460C49EC
:104C000009485DB901F002F90346094906482BB984
:104C100001F0FCF810B9083ECED1BCE602480121F3
:104C200001F0CCF8012070BD005800408000070062
:104C30000400001070B515460E4600220F210446F0
:104C4000FFF764FE08B9002070BD1722002120463E
:104C5000FFF75CFE0028F6D0172201212046FFF75F
:104C600055FE0028EFD0002202212046FFF74EFE1D
:104C70000028E8D0002203212046FFF747FE002845
:104C8000E1D0122204212046FFF740FE0028DAD0AE
:104C9000002205212046FFF739FE0028D3D08EBB25
:104CA000422206212046FFF731FE0028CBD04222C7
:104CB00007212046FFF72AFE0028C4D04AF64443C5
:104CC0009D421BD014DCB5F5FA5F19D0B5F5FA4F4B
:104CD00014BF0022182208212046FFF717FE0028E3
:104CE000B1D020460022BDE870400921FFF70EBE7A
:104CF0000F4A95420CBF1C220022ECE72022EAE773
:104D00000C22E8E7622206212046FFF7FFFD00287B
:104D100099D0022207212046FFF7F8FD002892D003
:104D20004AF64440291AB1FA81F56E097201D2E7B8
:104D3000007701002DE9F84F344E044601214FF46D
:104D4000001001F0DDF80021304600F035FD30465E
:104D500000F070FC2E4A002540234FF4806B4FF486
:104D6000006A4FF400594FF480784FF400374FF643
:104D7000FE70C4E90753C4E90552C4E90905C4E952
:104D80001055C4E91255C4E90CA9C4E90E87C4F84A
:104D90002CB0304604F11401183E00F0E1FC294625
:104DA000304600F009FD304600F044FC194A6566C3
:104DB000C4E91655C4E91F55C4E921554FF6FE71E3
:104DC0004FF0C065C4E91452C4E91ABAC4E91D879A
:104DD0002166C4F8709004F15001304600F0C0FC28
:104DE0000D4C30460122182100F0F0FC4FF48043B6
:104DF00023600A480122022101F0F2F90122084849
:104E0000114601F0EDF90120BDE8F88F7060024015
:104E10000C3800400C34004000E100E00038004055
:104E20000034004070B51F4B84B01860002303614C
:104E30004260017004460E461546FFF78DFC10B91E
:104E4000002004B070BD01214FF4800001F064F82F
:104E5000154800F0EDFE154A1548164B00934FF427
:104E60008041CDE90120ADF80C100F48694600F0F3
:104E700015FF0D48012100F085FF2A4631462046E6
:104E8000FFF7B8FC0028DBD02A4631462046FFF762
:104E9000D1FE0028D4D0204604B0BDE87040FFF712
:104EA00049BF00BF28E20020005800400000FFBFBB
:104EB00033000004A0860100F8B517460E46012213
:104EC00009210446FFF722FD054600283DD0602E4B
:104ED00053D82378002B3AD030482761818B4A057C
:104EE00055D52F48828B53054DD5207804F18C077A
:104EF00004F68C43E761A365B70078B962684BF6A6
:104F0000803C62453CD027498A4244D0B2F5FA4FF2
:104F100004D106EB46008700032300E00123E36091
:104F20002148A66004F114016762276600F018FCAE
:104F30001E4804F1500100F013FC1B48012100F051
:104F40003BFC1A48012100F037FC2846F8BD184800
:104F50004FF4805100F04CFE0028F8D114484FF473
:104F6000805100F045FE0028B6D111484FF4805121
:104F700000F03EFE0028F1D0AEE700252846F8BD3F
:104F8000F7000223CBE7012101F0EEF8ADE70121A4
:104F900001F0EAF8A5E737010423C0E70038004034
:104FA0000034004000770100706002405860024009
:104FB0000004024038B58CB2224600210546FFF7B6
:104FC000A5FC00B938BD224628460121BDE838407D
:104FD000FFF79CBC0369002B00F0E8802DE9F0414D
:104FE000D0E9022602FB01F106FB01F4A40005460C
:104FF00004F68C408C3428442C44002E6CD0510094
:10500000012969D900EB820EAEF1020EAEEB000C65
:10501000ACF102074FEA570808F1010C770000EBEA
:1050200046011CF0070680462CD0012E23D0022E0C
:105030001CD0032E15D0042E0ED0052E07D0062E20
:1050400040F0BB80B1F9006028F8026F3944B1F933
:1050500000C028F802CF3944B1F9006028F8026F87
:105060003944B1F900C028F802CF3944B1F90060E1
:1050700028F8026F3944B1F900C028F802CFF04592
:10508000394429D0B1F90060A8F8026031F907C0AD
:10509000A8F804C031F91760A8F8066001EB4701D1
:1050A00001EB470631F907C0A8F808C031F917101D
:1050B000A8F80A1036F907C0A8F80CC036F917107E
:1050C000A8F80E1006EB470606EB470136F907C0B5
:1050D00028F810CFF045D5D121469847EA68002A34
:1050E00062D0A86883009E1E04EB800702FB064383
:1050F0000234C2EBC2753A1B901E690045080135A7
:1051000015F0070627D0012E1FD0022E19D0032E2E
:1051100013D0042E0DD0052E06D0062E47D137F918
:10512000028DA3F800800B4437F902CDA3F800C02C
:105130000B4437F9022D1A800B4437F9020D188001
:105140000B4437F9025D1D800B4437F9026D1E8058
:10515000BC420B4428D037F902ECA3F800E037F941
:10516000048C23F8018037F9062C23F8112003EB77
:10517000410C37F9083C2CF8013037F90A0C2CF8AF
:1051800011000CEB410537F90C6C6E5237F90E2CFF
:1051900025F8112037F9103D05EB410EBC422EF8E1
:1051A00001300EEB4103D6D1BDE8F081704737F9ED
:1051B00002EDA3F800E00B44B1E7B1F900C028F814
:1051C00002CF39443EE700BF08B5114B1A6812F010
:1051D000C05F05D10E4B1A6812F0A05F0DD108BD5B
:1051E0000C484FF0C051996000680121FFF7F2FEB2
:1051F000074B1A6812F0A05FF1D006484FF0A0519B
:1052000099600068BDE808400021FFF7E3BE00BFD9
:105210000060024028E20020F0B501218BB0064674
:10522000042000F06DFE0121022000F069FE012142
:10523000042000F071FE304C3048302301276946CD
:10524000CDE9003700F0C2FB4FF4E070022569465B
:1052500000902046019500F0B9FB2A462046062121
:1052600000F0D2FC2A462046072100F0CDFC2A4659
:105270000821204600F0C8FC02A8A4F5FE3401F085
:1052800013F8FF2100250391204602A9ADF8105024
:1052900002958DF8125000F0ADFF05A801F002F95B
:1052A000174A059205A920460795ADF82050ADF89C
:1052B000245001F01DF82046082101F0FBF805A953
:1052C000204601F059F82046082101F0FBF805A915
:1052D000204601F09DF82046082101F0FFF83946EC
:1052E000204600F0E9FF3946204600F0F3FF356024
:1052F000B5800BB0F0BD00BF0004024000080240C2
:105300006000010010B5174B0278DA6341785963E9
:1053100082789A634179C3781031CAB2FF2B044670
:10532000427115D09A422CBF002201220E48102152
:1053300000F064FC2079FF280CD062798242BDE83D
:10534000104009482CBF00220122202100F056BC49
:105350000122EBE7BDE8104003480122202100F0C4
:105360004DBC00BF000800400008024010B50121FC
:1053700082B00446022000F0C3FD02224FF0807389
:1053800004486946CDE9002300F020FBFF2020708F
:1053900002B010BD0004024038B5044602210448A2
:1053A000257800F025FC40EA4500207038BD00BF9C
:1053B0000004024001B970474FF400414FF0006013
:1053C00000F080B83A483B4BD0F8882042F4700295
:1053D00082B0C0F888201A68002142F001021A60E9
:1053E00099601A68A0F1BC2C22F08472ACF1F00034
:1053F00022F480321A605860186820F480221A6003
:10540000D96000910191196841F48030186003E07F
:10541000009AB2F5A04F0AD0264B1A6802F4003168
:105420000191009801300090019B002BF0D02149A0
:10543000086810F4003318BF01230193019A012A70
:1054400005D01B494FF000638B6002B07047194BC9
:1054500019491A6C194842F080521A640A6842F4D9
:1054600040420A60996899609A6842F400419960E4
:105470009A6842F4A05199605860186840F08072B0
:105480001A600C4B19688A01FBD50D4840F2056281
:105490000260996821F0030098609A6842F0020166
:1054A0009960044B986800F00C02082AF9D1C8E70B
:1054B00000ED00E000380240007000400854400752
:1054C000003C024021F06041024B21F07F02024388
:1054D0009A60704700ED00E010B443680C790A68E8
:1054E00023F0407C2CF4807343EA04241443D1E974
:1054F000032313438A684460846813430A4A2240A2
:105500004C79134343EA44038360097DC46A01F183
:10551000FF3C24F470035FFA8CF243EA02515DF819
:10552000044BC162704700BFFDF7FFC042680368CB
:10553000074910B413434C68064A2240D0E90240A0
:105540001343234303435DF8044B4B60704700BF94
:1055500000230140E030FCFF836819B143F00102F1
:105560008260704723F0010181607047092910B5FE
:105570002CD9A1F10A0E0EEB4E0CC4684FF0070EA9
:1055800003FA0CF30EFA0CFC24EA0C042343C36068
:10559000062A0CD802F1FF3C446B0CEB8C021F2353
:1055A000934024EA030491402143416310BD0C2A37
:1055B0001AD8A2F1070C036B0CEB8C021F24944049
:1055C00023EA040391401943016310BD046901EB10
:1055D000410E4FF0070C0CFA0EFC03FA0EF324EA0E
:1055E0000C0423430361D3E70D3AC36A02EB820242
:1055F0001F24944023EA040391401943C16210BD63
:10560000836843F080418160704700BF836819B1AF
:1056100043F480728260704723F480718160704728
:10562000836819B143F400728260704723F40071FB
:10563000816070470268364910B4002322F00102ED
:10564000212488420260036043608360C360036179
:10565000446138D02F4B98422ED02F4CA0423CD0E2
:105660002E49884240D02E4B984232D02D4CA04239
:1056700041D02D49884246D02C4B984217D02C4916
:1056800088423CD02B4B984216D02B4CA04224D0C1
:105690002A49884228D02A4B98421AD0294CA04245
:1056A00029D0294988422ED0284B984208D14FF062
:1056B0003D5243F8AC2C03E04FF4746443F8204CA3
:1056C0005DF8044B704722495DF8044B3D2088602B
:1056D0007047204843F8640CF2E74FF4741244F822
:1056E000382C5DF8044B70474FF074635DF8044B41
:1056F00041F8503C7047184944F87C1CE0E73D20D5
:1057000041F8080CDCE7154C41F8944CD8E700BF91
:105710001060024028600240406002405860024031
:105720007060024088600240A0600240B8600240A1
:105730001064024028640240406402405864024001
:105740007064024088640240A0640240B864024071
:10575000006002403D000020400F002000003D207E
:1057600030B40B68CC684A692343D1E9065413432B
:105770002B43D1E9085223432B438C6A056813431A
:105780004A6B23438C6B134323430A4CCA6A2C4055
:1057900023430D6B036043690C692A43D1E901156A
:1057A00023F0070C42EA0C03436144608160C5604A
:1057B00030BC70473F801CF0036819B143F0010210
:1057C0000260704723F00101016070470B060CD5A1
:1057D0004369AAB143F08003802943610FD0026876
:1057E00001F01E01114301607047802907D0002A93
:1057F000F5D1036801F01E0123EA0102026070473F
:1058000023F0800280294261F3D17047044B1A696A
:10581000002A03DA0349044859605860704700BF02
:10582000003C024023016745AB89EFCD014BD860B6
:10583000704700BF003C02400E4BDA68D20310D420
:10584000D968C9060FD4DA68D20510D4D96811F026
:10585000E00F0AD1DB6813F0020F0CBF092008200B
:1058600070470120704706207047072070470220CC
:10587000704700BF003C024000B583B009238DF89B
:105880000730FFF7D9FF8DF807009DF807000128C2
:1058900013D022E0D868C20524D4DA6812F0E00FF1
:1058A00022D1DB6813F0020F0CBF092208228DF809
:1058B00007209DF8071001290FD10C4BD968C803A8
:1058C0004FF00102F3D4DA68D106E3D506228DF851
:1058D00007209DF807100129EFD09DF8070003B0BD
:1058E0005DF804FB0222E2E70722E0E7003C024009
:1058F00070B5022994BF0C024FF440740546FFF7BF
:10590000BBFF092800D070BD0F4E336923F44070EF
:105910003061316921433161326922F0F804346128
:1059200033692B4343F002053561306940F480311F
:105930003161FFF7A1FF326922F00204346133695B
:1059400023F0F805356170BD003C024070B5054696
:105950000C46FFF791FF092800D070BD0A4E33694D
:1059600023F440703061316941F40072326133696F
:1059700043F0010030612C60FFF77EFF356925F0B0
:105980000104346170BD00BF003C024070B50546A3
:105990000C46FFF771FF092800D070BD0A4E33692D
:1059A00023F440703061316941F4807232613369AF
:1059B00043F0010030612C80FFF75EFF356925F070
:1059C0000104346170BD00BF003C024000232DE99A
:1059D000F0430C689E4624E00EF1010C012606FA05
:1059E0000CF939EA040503F1020300F0CF800CF151
:1059F00001070122BA4032EA040603F1020500F071
:105A00008E800CF102070122BA4032EA040603F14B
:105A1000040541D0BCF10D0F0CF1030E03F1060398
:105A20007BD0012202FA0EF838EA0405D4D10668C8
:105A300003259D4026EA0507076091F80490D0F8F9
:105A400000C009FA03F609F1FF37EA43012F46EADD
:105A50000C05056014D88668324082604A798568F2
:105A60009A402A438260476827EA0806466091F810
:105A70000680456808FA0EFC1FFA8CF22A43426041
:105A8000C76803269E4027EA0602C260CF79C56830
:105A90009F402F43C7609FE706684FF0030808FA4E
:105AA00005F926EA0906066091F804E06FEA09069E
:105AB000D0F800900EFA05F80EF1FF3E48EA090909
:105AC000BEF1010FC0F8009015D8D0F8088006EAA2
:105AD000080686604E79D0F80890AE4046EA09067E
