:020000040800F2
:1080000000000220A9EB00085DCB000861CB00084E
:1080100065CB000869CB00086DCB000800000000AC
:1080200000000000000000000000000071CB00080C
:1080300075CB00080000000079CB0008EDEB0008CC
:10804000EDEB0008EDEB0008EDEB0008EDEB0008B0
:10805000EDEB0008EDEB0008EDEB0008EDEB0008A0
:10806000EDEB0008EDEB0008EDEB0008EDEB000890
:10807000EDEB0008EDEB000885D80008EDEB0008FB
:10808000EDEB0008EDEB0008EDEB0008EDEB000870
:10809000EDEB0008EDEB0008EDEB0008EDEB000860
:1080A000EDEB0008EDEB0008EDEB0008EDEB000850
:1080B000EDEB0008EDEB0008EDEB0008EDEB000840
:1080C000EDEB0008EDEB0008EDEB0008EDEB000830
:1080D000EDEB0008EDEB0008EDEB0008EDEB000820
:1080E000EDEB0008EDEB0008EDEB0008EDEB000810
:1080F000EDEB0008EDEB0008EDEB0008EDEB000800
:10810000EDEB0008EDEB0008EDEB0008EDEB0008EF
:10811000EDEB0008EDEB0008EDEB0008EDEB0008DF
:10812000EDEB0008EDEB0008EDEB0008EDEB0008CF
:10813000EDEB0008EDEB0008EDEB0008EDEB0008BF
:10814000EDEB0008EDEB0008EDEB0008EDEB0008AF
:10815000EDEB0008EDEB0008EDEB0008EDEB00089F
:10816000EDEB0008EDEB0008EDEB0008EDEB00088F
:10817000EDEB0008EDEB0008EDEB0008EDEB00087F
:10818000EDEB0008EDEB000800000000000000002F
:108190002DE9F04F0446A5B0DFF86CB3016304F09D
:1081A0008BFD00224FF07C5322626262A262E26287
:1081B000A361E36123616361BBE80F000DF1100A65
:1081C000AAE80F009BE80F00DFF84093DFF840E3D8
:1081D000C94FCA4D8AE80F00B9E80F000DF1300809
:1081E000A8E80F0099E80F0088E80F00BEE80F002C
:1081F0000DF1500CACE80F009EE80F008CE80F006A
:108200000FCF1CAE0FC697E80F0086E80F00286856
:10821000431C50D029884DF67522914242D12B46FD
:108220001F884DF67526B74246D159880DF1900A40
:108230001F290AEB810B3FD85D684BF8805CB3F8CF
:1082400008900833B945984636D158880DF1900EFC
:108250001F280EEB800C2FD85A6833F8087F4CF893
:10826000802C4F4528D15E8824A91F2E01EB860A59
:1082700022D8B8F810505B684AF8803CBD4208F13B
:10828000100319D15A880DF1900B1F2A0BEB8209AC
:1082900012D8586849F8800C08F11803B3F1016F3F
:1082A000BED109E005F010FEF32005F01DFE02210D
:1082B000582005F07BFE914BC4F87431204600270E
:1082C00004F0A2FD0397039E8D498E4207D800BF9C
:1082D000039D8B4A0135039503989042F7D9B4F872
:1082E0000C80B4F80EE0B4F808C0B4F80AA0B4F8F2
:1082F00004B0B4F8069023886788DFED827A266B95
:1083000007EE108A01EE10EA02EE90CAB8EE470AB4
:10831000F8EE411AB8EE623A04EE10AA05EE90BAF1
:1083200007EE109A01EE103A02EE907A60EE270AFC
:1083300021EEA72A63EE273AF8EE444AB8EE656AC2
:10834000B8EE470AF8EE411AB8EE623A24EEA75AA0
:1083500066EE276AC4ED0A0A84ED0B2A60EE270A4E
:1083600021EEA72A63EE277AC4ED083A84ED095A74
:10837000C4ED066AC4ED070A84ED042AC4ED057A4B
:108380007EB1D6ED003A96ED014AD6ED024A96ED61
:10839000035AA2EE234AA0EEA45A84ED0D4A84EDBE
:1083A0000E5A002104ADE16321640FCD6064A16425
:1083B000E26423650FCD6065A165E265236628222E
:1083C000002104F1640006F013FC0FCDC4F8900006
:1083D000C4F89410C4F89820C4F89C300FCD4FF026
:1083E000FF37C4F8A000C4F8A410C4F8A820C4F84B
:1083F000AC3028220021C4F88C7004F1B00006F0E3
:10840000F7FB0FCDC4F8DC00C4F8E010C4F8E4209A
:10841000C4F8E8300FCDC4F8D870C4F8EC00C4F844
:10842000F010C4F8F420C4F8F8302822002104F138
:10843000FC0006F0DDFB0FCDC4F82801C4F82C11B8
:10844000C4F83021C4F834310FCDC4F82471C4F815
:108450003801C4F83C11C4F84021C4F84431282242
:10846000002104F5A47006F0C3FB6FF4BB7004F2A6
:108470009712C4F8707104F277130192001B00EB9D
:1084800003085D1C41194746464600EB050A08F102
:10849000660B08F1690E08F16A0C6B3701F1670889
:1084A0000AF166096C36002240F2EE21DD1D5A7099
:1084B000054444F82B109A7044F82910DA7044F8F7
:1084C00028101A7144F82E105A7144F82C109A7121
:1084D00044F82710DA71019F44F8261003F8082F9A
:1084E0006635BB4244F82510C9D1C4F8182284F877
:1084F0001C2225B0BDE8F08F5CFA000800000E08D1
:108500009F86010000008037BCFA00089CFA000832
:108510007CFA000830B5C5898489D0ED0B4AB0F8E3
:1085200006C0DFED8C3A90ED0A4A90ED075AB0F89C
:1085300000E0D0ED041ADFED882AD0ED086A90ED56
:10854000053AD0ED097A90ED067A05EE905A06EEDE
:10855000104AB8EE650A2DED028BB8EE462A08EEF9
:1085600010CAF0EE640AD0EE230A05894488DFEDD4
:108570007B8AB0F80AC0B0EE441A92EE231A43EA9E
:108580004203D0F88C20F8EE485AB0EE450A95EE3A
:10859000A30A934200EB0302E0EEA84A06EE10EABB
:1085A00000EE905AA1EE284AB0F804E001EE104A1D
:1085B000B8EE462AB8EE606AA0EE225A00EB8305B8
:1085C000F8EE415AB0EE618A01EE10CAB0EE660ACA
:1085D00092EE238A96EE230AB0EE432A06EE10EAC4
:1085E00095EEA32AF8EE415AF0EE670AB8EE461A65
:1085F000D5EEA30AF0EE615AF0EE471AD1EE231A37
:10860000E0EE286AE0EEA87AF0EE438AE8EE225A1D
:10861000E2EE228AA1EEA27A80ED0A4AC0ED0B4A70
:10862000C0ED086AC0ED097A80ED067A80ED075A40
:10863000C0ED045AC0ED058A95ED113AD5ED242A16
:1086400095ED378A95ED4A2A18D04FF0000C85ED4C
:10865000194AF0EE443A82F884C0C0F88C3034EE07
:10866000630A9FED3F6AB4EEC60AF1EE10FA40F3DA
:1086700056824FF0010E82F884E004E092F88440C4
:10868000002C00F08B8285ED114AD0F8D840A3422F
:1086900018D04FF0000CC5ED2C4AB0EE644A82F8B9
:1086A000D0C0C0F8D83034EEC41ADFED2D1AB4EEC5
:1086B000E11AF1EE10FA40F325824FF0010E82F834
:1086C000D0E004E092F8D040002C00F06482C5EDC8
:1086D000244AD0F82441A34218D04FF0000CC5ED35
:1086E0003F6AF0EE664A82F81CC1C0F8243136EECB
:1086F000E40A9FED1B6AB4EEC60AF1EE10FA40F3ED
:108700001B824FF0010E82F81CE104E092F81C413C
:10871000002C00F03A82C5ED376AD0F87041A342D0
:1087200022D04FF0000CC5ED527AF0EE676A82F865
:1087300068C1C0F8703137EEE64A9FED091AB4EE11
:10874000C14AF1EE10FA40F30482012482F8684134
:108750000FE000BF000080370AD7A33DD044D83CCB
:108760000AD7A33B8FC2F53C92F86831002B00F08A
:108770000F82C5ED4A7AD5ED113AD5ED244A95ED33
:10878000370AB4EE633AF1EE10FA06D04FF0010E5C
:10879000002382F878E1C5F89831F4EE642AF1EE0E
:1087A00010FA05D00124002382F88041C5F8B831C1
:1087B000B4EE408AF1EE10FA05D00124002382F8CD
:1087C0008841C5F8D831F4EE427AF1EE10FA05D0BE
:1087D000012482F890410022C5F8F82100F27712B6
:1087E00000F2971E5578531C85B1141A6FF4BB7CA8
:1087F000644400EB840240F2ED24D2F89851A54283
:1088000004D8D2F898410134C2F898415D785A1CD6
:108810008DB16FF4BB74A3EB000CA44400EB8C0C83
:1088200040F2ED24DCF89851A54204D8DCF89841D8
:108830000134CCF898419D7803F1020C85B16FF4B6
:10884000BB74121A224400EB820240F2ED24D2F8EB
:108850009851A54204D8D2F898410134C2F8984101
:10886000DD78DA1C8DB16FF4BB74ACEB000CA44462
:1088700000EB8C0C40F2ED24DCF89851A54204D8B2
:10888000DCF898410134CCF898411D7903F1040CCF
:1088900085B16FF4BB74121A224400EB820240F2DD
:1088A000ED24D2F89851A54204D8D2F89841013469
:1088B000C2F898415D795A1D8DB16FF4BB74ACEB71
:1088C000000CA44400EB8C0C40F2ED24DCF8985131
:1088D000A54204D8DCF898410134CCF898419D7940
:1088E00003F1060C85B16FF4BB74121A224400EB3D
:1088F000820240F2ED24D2F89851A54204D8D2F871
:1089000098410134C2F89841DD79DA1D8DB1ACEBA4
:1089100000036FF4BB7C634400EB830340F2ED245F
:10892000D3F89851A54204D8D3F898410134C3F83C
:10893000984196457FF456AFF6EE007A37EEC77A47
:1089400090ED113AD0F8182237EE038A0132B5EED5
:10895000C08AF1EE10FA77EEE88AC0F8182200F12A
:108960000B81F7EE002AB4EE628AF1EE10FAC8BF6E
:10897000B0EE628A90ED246A81ED008AB5EEC06A9D
:10898000F1EE10FA00F1F580B7EE002AB4EE426A7B
:10899000F1EE10FAC8BFB0EE426A90ED374A81EDB1
:1089A000016AB5EEC04AF1EE10FA00F1EB80F7EE85
:1089B000000AB4EE604AF1EE10FAC8BFB0EE604AA9
:1089C000D0ED4A6A81ED024A78EEA61AF5EEC01A99
:1089D000F1EE10FA00F1D380B7EE001AF4EE411A6E
:1089E000F1EE10FAC8BFF0EE411A036BC1ED031AA5
:1089F000002B00F0B980D3ED004A93ED010A93ED0E
:108A0000027AD3ED037A90ED0D3AD0ED0F3AD0ED26
:108A1000108A1FEDAC2AA5EEA40AE5EE077AD0ED88
:108A20000E5A70EE432A37EEE58A32EEE36A78EEAC
:108A3000680AB0EE685AE6EE023AA0EE825AC0ED3D
:108A40000F3A80ED105A856CD0F8E020C46CD0F855
:108A500094E0D0F82CC1D0F8E4300D618A61D0F8F0
:108A60009850D0F89C200C62046DC1F814E0C1F855
:108A70001CC0D0F830E1D0F834C14D628B62D0F820
:108A8000E850436DCC650A63D0F8A040D0F8EC20E4
:108A9000C1F82CE0C1F838C0CB630C644A64C1ED66
:108AA000213A81ED225A4D63D0F83851D0F858E080
:108AB000D0F8A4C0D0F8F030D0F83C418D64BDECC3
:108AC000028BC56DD0F8A820C1F84CE0C1F850C0A9
:108AD000D0F8F4E0D0F840C14B658C65D0F8AC30EC
:108AE000D0F844418D66D0F8F850C1F870E0CC67FA
:108AF000C1F88050CA66BDE83040C1F874C08B67C9
:108B000004F082B9DFED273AB4EEE31AF1EE10FA81
:108B10007FF5DFAD4FF0010E82F8D0E0D7E5DFED55
:108B2000210AB4EEE00AF1EE10FA7FF5AEAD4FF097
:108B3000010E82F884E0A6E5DFED1A0AB4EEE00A41
:108B4000F1EE10FA7FF5E9AD4FF0010E82F81CE16D
:108B5000E1E5DFED141AB4EEE14AF1EE10FA3FF56B
:108B6000F4ADD5ED4A7A06E6DFED0F3AB0EE635A82
:108B700069E79FED0D6A10E79FED0B8AFAE6DFEDDE
:108B80000A1A32E79FED084A1AE7D5ED3F4AAEE5EB
:108B9000D5ED526ACFE595ED2C4A84E5D5ED193A2D
:108BA0005DE500BF0AD7A3BB000000002DE9F04F30
:108BB00090F81C32012B83B0044600F0A880022BF1
:108BC00000F08880002B40F0828000F2771600F2DF
:108BD0009717314648784B1C60B16FF4BB752D1B5D
:108BE0006A1802F1660940F2ED2A54F8290050454E
:108BF00000F2A1805A78591C62B16FF4BB752D1B2D
:108C0000EA1802F1660B40F2ED2854F82BC0C44577
:108C100000F291809A78981C62B16FF4BB752D1B9D
:108C20006A1802F1660940F2ED2154F829A08A453C
:108C300000F28180DA78D91C5AB16FF4BB752D1B14
:108C40002A1802F1660B40F2ED2854F82BC0C445F7
:108C500071D81A79181D5AB16FF4BB752D1B6A189B
:108C600002F1660940F2ED2154F829A08A4562D844
:108C70005A79591D5AB16FF4BB752D1B2A1802F190
:108C8000660B40F2ED2854F82BC0C44553D89A79AE
:108C9000981D5AB16FF4BB752D1B6A1802F1660955
:108CA00040F2ED2154F829A08A4544D8DA79D91D3B
:108CB0005AB16FF4BB731D1B2A1802F1660040F213
:108CC000ED2B54F82000584535D8B94282D103B075
:108CD000BDE8F08FD0F81862D0F83072BE42F6D0FE
:108CE000D0F82402D4F81832D4F82C12C4F8303258
:108CF000043005F089F9D4F8202222444FF000080E
:108D000082F8788184F81C8203B0BDE8F08FD0F837
:108D10001822D0F830028242D9D0D4F81852C4F8C0
:108D20003052D4E9890105F06FF9022184F81C1250
:108D300003B0BDE8F08FD4F8740100F10801B1F17F
:108D4000016F2BD8D71002F00706022F04EB860E16
:108D500000F0C480032F00F0BE80012F14BFDEF8A6
:108D60004470DEF89070C4F874114DF6752C4CEA1E
:108D70000243C4E98820C4F82832C4F82C7205F0F4
:108D8000A3F8F32005F0B0F8D4F81822C4F8302284
:108D9000012584F81C5203B0BDE8F08F05F094F86B
:108DA000F32005F0A1F80221582005F0FFF8B91BC7
:108DB0004C48C4F8740111F0070351D0012B42D084
:108DC000022B37D0032B2BD0042B20D0052B14D013
:108DD000062B09D0A81966304FF0010840F2EE22A8
:108DE00006F8018F44F82020A9196631012340F2CA
:108DF000EE2006F8013F44F82100A91966314FF032
:108E0000010940F2EE2206F8019F44F82120AB1937
:108E10006633012040F2EE2106F8010F44F82310DA
:108E2000AB1966334FF0010A40F2EE2206F801AFAB
:108E300044F82320A8196630012140F2EE2306F8F9
:108E4000011F44F820304FF0010BA81906F801BFAC
:108E5000663040F2EE22BE4244F820203FF437AFA5
:108E60000197711C05EB060EAF1905EB060C6B188C
:108E70000EF1660BA81907F1690E05EB0108AF1991
:108E80000CF16A0A6B3703F1670C6C3008F1660964
:108E9000012240F2EE23F11D7270294444F82B3078
:108EA000B27044F82930F27044F82C30327144F832
:108EB0002E30727144F82A30B27144F82730F271C2
:108EC000019F44F8203006F8082F6631BE4244F86E
:108ED0002130C6D1FBE6DEF8287144E7DEF8DC700D
:108EE00041E700BF00000E08704700BFF8B5054617
:108EF0000F461C46164604F097FD681C04F0EAFC79
:108F0000C5E903640021069BAF606B616983A98397
:108F1000E9851027284604F09DFD013FFAD1287805
:108F200085F82C70B0FA80F256092E7685F84070DC
:108F300085F85470F8BD00BFF8B590F82C300446A1
:108F4000581E042819D8DFE800F04B201819030038
:108F50002169D4ED0D6AD1ED077A37EEE60ABEEE4F
:108F6000007AB4EEC70AF1EE10FA40DC072140F6B1
:108F7000980C84F82C10A4F82EC0F8BD20690527A1
:108F8000C569656384F82C70F8BD266994ED0C3AC8
:108F9000D6ED043A73EEC34ABEEE004AF4EEC44A7C
:108FA000F1EE10FAE2DD9FED415AF4EEC54AF1EE22
:108FB00010FADBD5B3EE086AC6EE245A032040F25D
:108FC000DC52012384F82C00E28584F84030F2EE74
:108FD000086AE3EE656AC4ED0E5AC4ED0F6AF8BD87
:108FE000276902253E69266384F82C50F8BDDFED21
:108FF0002F0AB4EEE00AF1EE10FAB7D5B3EE081A74
:10900000C1EE001A6669A26B3260E56B7560284D8F
:109010003746B2EE082AC6ED021AD4ED0D2AA1EEAB
:10902000E22A86ED032A04F04FFFF32004F05CFFF0
:109030000221282004F0BAFF284657F8041B04F048
:10904000E3FF1C4B04359D42F6D196F800E096F8FC
:1090500001C0B178F2783779B379F4448C4428466A
:109060009444757996F807E0317A727ABC44AC443E
:109070009C44F444B77A337B8C44944417FA8CF5BF
:1090800096F80BC0727B1CFA85FE13FA8EF1B57B45
:10909000F67B12FA81F715FA87F316FA83F1CA43C1
:1090A00091B204F0D1FF062161E700BFCDCC4CBDE9
:1090B0000000020810000208036A828C0133F0B439
:1090C00003620AB1511E818490F82C40002C66D1B5
:1090D000DFEDA57A90ED0A7A457FB4EEE77AF1EEFE
:1090E00010FA37DD27462646FF22032D4270867090
:1090F000C77062D01E0540F6FF77C3F30B0240F144
:109100008780B91A02EE101ABAEEEA2AB2EE044AC1
:1091100062EE044A022DBCEEE45A15EE106A06F126
:109120000306F3B22DD1C568DFED905AD5ED126A72
:10913000F4EEE56AF1EE10FA00F3AD80B2EE026AE9
:1091400062EE067A1C46BCEEE77A17EE107A02371A
:10915000FAB21EE0067F002E6BD0002D40F0978003
:10916000816801F5C04C9CF888717E1EF2B2042A19
:1091700040F2CE80FF221146164646708170C270C2
:10918000B8E7032D31D0012D4FF0FF3318BF002376
:10919000DAB204714271F0BC013004F011BC04F188
:1091A000FF3C03F48076BCF1060F00F2D780DFE8C5
:1091B0000CF097A992A08B8678000278002A56D0EE
:1091C000C3F30B071B0540F6FF755DD5EA1B00EEE8
:1091D000102ABAEEEA0AF2EE040A20EE201AFCEE99
:1091E000C11A11EE903A0333DBB2C1689FED5F2ADA
:1091F000D1ED1A2AF4EEC22AF1EE10FACCBFFF2408
:109200001C46002204714271F0BC013004F0D8BB4E
:10921000022DB8D102EE102ABAEEEA2AF2EE042AA2
:1092200022EE223AFCEEC33A13EE904A0334E3B244
:1092300079E7C7689FED4E0AD7ED000A816820EEF6
:10924000801A01F5C047FCEEC11A97F8886111EE4B
:1092500090CAACF17402D2B206B397F889C10CF18E
:10926000FF3103291AD8DFE801F05A69615E90F8EE
:1092700054100029A4D1448B42F6DF66B4429FD932
:109280005F0668D4144684E700EE107AA1E7FF2752
:109290003E463A4629E7DC22FF247AE7174616467F
:1092A00023E70026FF2537462C46447000248770AC
:1092B000C47005714671F0BC013004F081BBFF261B
:1092C000002537462C46F0E7002E40D000263546D4
:1092D000DC27FF24E9E7B6B93546FF273446E4E743
:1092E000311E18BF012100254E42F6B22F462C46F2
:1092F000DBE7321E18BF012200265342DFB235469B
:109300003446D2E71EB30027DC26FF253C46CCE7D7
:109310001849194F8E5CB95C184FBA5C2DE70027CD
:1093200016463A46E1E600273E46DEE61449970037
:10933000A1FB0716C6F3C7060027D6E61049C2EB05
:10934000C207A1FB0716C6F3C7060027CDE63546C0
:1093500037463446A9E7C82422461AE70026354690
:1093600037463446A1E700BF3333733F0AD7A33BE8
:109370000000E642ECFA0008E4FA0008DCFA000813
:10938000CDCCCCCC38B5044604F064FB2378002B5C
:109390000CBF0125002517D194F818C094F82C00B3
:1093A0008CF00103052800F2E980DFE800F050D4DA
:1093B000D403D4D4E38D43B3581EE08525762046EC
:1093C000BDE83840FFF778BE94F82C00227E0528CF
:1093D00000F2D48001A151F820F000BF23940008CE
:1093E000F5930008F5930008B5930008F59300087D
:1093F000F593000894F840100029DFD0002ADDD052
:109400004FF0000C84F840C0D8E74FF0040E84F809
:109410002CE084F8403025762046BDE83840FFF740
:109420004BBE002ACAD0B4F81AE00023BEF5967FDE
:10943000237704D2607F013000F0030262770021BD
:10944000618325762046BDE83840FFF735BE002B06
:1094500071D02369617FD3F828C0C4F844C0D3F821
:109460002CE0C4F848E0186AE0640122D3F824C074
:109470002277628303294FF00002C4F850C084F8B9
:1094800054209BD1D3ED0A7A94ED117AD3ED0B0AD7
:10949000D4ED126AD3ED081A94ED136AD3ED092ABC
:1094A000D4ED145ADFED393A37EEC70A30EEE61A3A
:1094B000B5EEC00A31EEC62AF1EE10FA32EEE53A08
:1094C000B5EEC01A48BFB1EE400AF1EE10FAB5EEA3
:1094D000C02A48BFB1EE411AF1EE10FAB5EEC03A1B
:1094E00048BFB1EE422AF1EE10FAB4EEE30A48BFEB
:1094F000B1EE433AF1EE10FA3CDCB4EEE31AF1EED1
:1095000010FA37DCB4EEE32AF1EE10FA32DCB4EEF6
:10951000E33AF1EE10FA2DDC618B43F69723994282
:109520007FF64CAF0120002284F82C0084F8400024
:109530002277628342E7618B4FF6FF70814216D13A
:10954000637F032B7FF43AAF94F85420002A7FF412
:1095500035AF236996E794F84020002A7FF42EAFB8
:10956000002B3FF42BAF2046FFF7E6FC26E7013146
:109570006183E5E7012184F854101FE7E38D002B98
:109580007FF41AAF84F82C3018E700BF0AD7233CC9
:1095900000F5005393ED027A1968D3ED015A93ED6B
:1095A000052AD3ED042AFDEEC76A70B416EE902AA0
:1095B0008C1A04F2FF75C5F30A0606F2FF72C2F3B5
:1095C0000A0400EB860C00EB8405DCED007A95EDD7
:1095D000006A93F82860F8EEE60A36EE671A77EE2E
:1095E000601A22EE255AE1EE217A2DED028BA2EED1
:1095F000A75AF0EE404AC3ED017A002E40F0AF804A
:10960000DFED8F8A93ED0B3AB5EEC03AF1EE10FA2A
:1096100040F391808B4C8C4D8C4A26689FED8C7A60
:10962000DFED8C7A9FED8C1A9FED8C8A93ED0E0AFC
:10963000DFED8B2A9FED8B2AD3ED0F0ADFED8A3AFF
:1096400005FB062606EE106AF8EE466AFFEE005AA3
:1096500066EE871AB0EE004AF0EE656AE1EE846AC3
:1096600005FB0625256093ED0D6AD3ED111A66EE14
:10967000A77A26EE822AE6EE087A26EE818A9FED08
:109680007B1A9FED7B6AC3ED0D7AA0EE228AA0EED5
:10969000A32A93ED100ADFED770ADFED773A83ED29
:1096A0000E8A66EE812A66EEA33AE0EE202A9FED4E
:1096B000731AD3ED120A9FED720A83ED0F2A77EE2B
:1096C000887AE1EE813A66EE661A37EE821A06EE85
:1096D000105AE0EE801A31EE220AF8EE460A70EED9
:1096E000237A20EE877A37EEA10AE7EE045A93ED4B
:1096F000134A9FED641A93ED0C6ADFED637AC3EDB4
:10970000102A70EE040A26EE254AE6EE810AB7EE2C
:10971000001A31EE467A20EEA70ADFED5C5AC3ED5F
:10972000113AA7EE004A66EEA56AE3EE048AC3ED9D
:10973000121AC3ED136A93ED033AE3EE058A4C1C4B
:1097400000EB8100B0EE450A38EEA45ABDEC028B66
:10975000C4F30A0180ED005A70BC19607047D3E968
:10976000072C624503DB002483F8284048E700EE1D
:1097700010CA04EE102AB8EEC03AB8EEC48AD3ED8F
:10978000097ADFED435AC8EE038AF7EE003AB6EEE7
:10979000007AF4EEC78A73EEE86AF1EE10FAF4EE9E
:1097A000E57A4CBF38EEA88A36EEA68AF1EE10FABA
:1097B00030D49FED386AF4EEC67AF1EE10FA34D563
:1097C00077EEE52AB0EE080A38EE663A62EE803AA5
:1097D000B0EE668AA3EE238A1A4C1B4E2568DFED95
:1097E0001C5AD3ED066A0132DA61184A06FB0525D8
:1097F00000EE905AB8EE601AB0EE006A61EE251ADB
:10980000FFEE007AE1EE867A256028EE268A68EE81
:10981000278AF7E6B7EE008AB0EE084A76EEC88AE5
:1098200027EE847AA8EE878AD6E777EEC60AB0EEEE
:10983000081A78EEC81A20EE812AA1EE828ACBE7B8
:1098400000000000000000200D6619005FF36E3C70
:109850000000802FBD66633D65C1993D4AB57F3FDD
:10986000384A7E3F618B1D3E6210783FF8F79E3E7E
:10987000AD6D8A3CF2D25D3F8E6F083FCDCC0C3F80
:1098800038F842BF6744093FAE47E13D9C6AED3D71
:109890009FAAAA3EB0AA2A3FF1EE087A21EE271A23
:1098A0002DE9F041FDEEC11A2DED028B11EE902A4B
:1098B000052A134600F5C044A8BF05230546002A23
:1098C00023EAE37084B0B0EE408A84F8F4007BDCD5
:1098D000F5EEC00A0021F1EE10FA84F8F510B7EEAB
:1098E000007A00F1DA80F4EEC70AF1EE10FA40F3E4
:1098F000DE80DFEDC10A9FEDC14A9FEDC17A8DED9B
:10990000017A8DED024ACDED030ADDED012A94EDD9
:109910003C1A68EE223AB3EE073AF4EE433AF1EE1F
:1099200010FA48BFF0EE433AC1EE237AF1EE004A56
:10993000F4EEE47AF1EE10FA73D5F0EE647A9DED70
:10994000025A68EE058AB3EE076AF4EE468A05F518
:109950000053F1EE10FAC3ED027A48BFF0EE468AEA
:10996000C4ED3E2AC1EE286AF1EE001AF4EEE16A77
:10997000F1EE10FA6DD5F0EE616ADDED030A20EE2E
:10998000884AF3EE072AB4EE624A05F58040F1EE0C
:1099900010FAC0ED166A48BFB0EE624A84ED3F5A35
:1099A00081EE042AB1EE003AB4EEC32AF1EE10FAC9
:1099B00069D5B0EE432A84ED2A2AC4ED400A04B0EA
:1099C000BDEC028BBDE8F081B1EE040A60EE800AC6
:1099D000411EBDEEE02AC1EB011712EE106A042E03
:1099E000A8BF042626EAE67808EB4802854884F8F2
:1099F000F580930003EB8706064401AF0DF11008D4
:109A0000F6EC012A9FED803AF8EEE23AB0EE000A59
:109A100063EE830A05F07AF9A7EC010AB845EFD1A5
:109A200073E7DFED7A5AF4EEE57AF1EE10FA86DDAF
:109A30009DED025A68EE058A05F5005CF4EEC38AD6
:109A4000F1EE10FACCED025AC4ED3E2A8AD5C1EEF1
:109A5000036A9FED6E0AF4EEC06AF1EE10FA8CDD37
:109A6000DDED030A28EE204AB3EE077AB4EEC74ACA
:109A700005F58046F1EE10FA86ED160A84ED3F5AA0
:109A80008ED581EE072ADFED613AB4EE632AF1EE5E
:109A900010FAC8BFB0EE632A8DE7B0EE472A4FF048
:109AA0007E528DED012A02928DED037A2DE79FED16
:109AB000584AF4EEC40AF1EE10FA67D4DFED556AA5
:109AC000F4EEE60AF1EE10FA45D4DFED534AF4EE77
:109AD000E40AF1EE10FA25D49FED505AF4EEC50ACF
:109AE000F1EE10FA63D530EEE44AF1EE046A64EE6A
:109AF000264AB3EE045AF3EE0E5AE4EE855ADFED31
:109B0000488A8DED017A25EEA81AF0EE471AB0EEDC
:109B1000006AE1EE061A31EE077ACDED031A8DEDFB
:109B2000027AF2E670EEE67AB1EE040A67EE800A97
:109B3000B2EE0E2AA0EE822ADFED392A8DED027AEE
:109B4000B0EE473AA2EE623AA2EE227A8DED013AE9
:109B50008DED037AD9E670EEC43AB1EE044A63EEB5
:109B6000844AF2EE086AB0EE085AA4EEA65ADFED77
:109B70002C5A8DED027AF0EE478AE5EE658AA5EE65
:109B8000257ACDED018A8DED037ABEE6B1EE046A49
:109B900020EE861AF0EE081A61EE217A9FED200A77
:109BA000B0EE472AA7EEC02AA7EE807A77E770EEDC
:109BB000C55AB1EE046A65EE868A9FED1A1ADFED8A
:109BC000181ADFED197ADFED192AA8EE811A68EE6E
:109BD000A70A21EE212AB7EE040A77EE603A32EEA8
:109BE000073A60EE800AB0EE474AA2EE224AE3EE60
:109BF000230A37EE427A82E6CDCC8C3F3333833F63
:109C0000ABAA6A3F0CFB0008ABAAAA3D00C0FF4408
:109C1000CDCC4C3ECDCCCC3E9A99193FCDCC4C3FCF
:109C20000E745A3A00004842CDCCCC3D9A99993EE8
:109C3000D0ED167A90ED0E7ADFED176AD0ED0F1A9F
:109C4000DFED162A90ED0D1AD0ED0B0AD0ED123A89
:109C500090ED134AD0ED144A90ED155A37EE670A8D
:109C60002DE9F043E0EE267A2DED048B90ED0C0A01
:109C7000C0ED167A61EEA29A002A00F03C829FEDB8
:109C8000092A541EF0EE422AD0E90032B1EE677A7A
:109C900001F1080E05E200BF0AD7A33C9A99193FCB
:109CA0000000704200000000000020420000FA4462
:109CB00090ED039AD0ED078AD0ED085A90ED048A12
:109CC00080ED029AD8EEA56A99EE086AB6EE003ADF
:109CD00079EE035A38EE833A80ED036AC0ED076AE5
:109CE000C0ED068A90ED106A1FED139A1FED138ADE
:109CF00066EE098AF2EE046AE8EEA56A03F16407EB
:109D0000C7F30D0502EB8508BDEEE66A03F17006A8
:109D100016EE101A19444F1CC7F30D0CC1F30D09B0
:109D200002EB890102EB8C05D1ED005A95ED009A0A
:109D3000B8EEC66A79EE658A76EEC66AC6F30D0697
:109D4000E6EEA85A02EB8607C3F30D0903F2131CD3
:109D500075EE885A02EB8905C8ED005A1EED029A8D
:109D60005EED018A97ED006A79EE286ACCF30D0862
:109D700026EE809A02EB8801A5EE889A03F172061E
:109D8000C6F30D0703F20529A7EE869A02EB870CAE
:109D9000C9F30D0802EB8806A9EE076A013C0EF133
:109DA000080E85ED009A91ED008A1FED419AF0EEC4
:109DB000466AE7EE886A03F21515C5F30D0703F24C
:109DC0009331A6EE878A02EB870903F20725CCEDD3
:109DD000006AD6ED006A1FED4B6AA7EEA68AC1F3B2
:109DE0000D0602EB860CC5F30D07E8EE076A02EBE1
:109DF000870803F2CB4689ED008ADCED005AE7EED6
:109E0000A56AC6F30D0943F2B53102EB890CC8ED22
:109E1000006AD0ED108A28EE898AE6EE875A03F2AE
:109E20009537F0EE466AE8EE036A9CED003ABDEE27
:109E3000E66A16EE105A05EB030808F54E5636365C
:109E40008844C8F30D09C6F30D0502EB890C02EB3B
:109E500085089CED008A98ED009AF8EEC68A39EEE6
:109E6000486A76EEE86AB0EE659AA6EE868AC7F38F
:109E70000D0603F2EF6502EB860CA1EE089AC5F31E
:109E80000D0902EB890703F2CD4639EE638AC6F36A
:109E90000D05E1EE883A03F62D2802EB8509C8F39B
:109EA0000D0673EEE48A02EB8606E9EEA84A03F299
:109EB000F16803F58355C8F30D08B0EE646AA3EEAC
:109EC000076A153502EB8808C5F30D05A7EE863A3B
:109ED00002EB850519448CED006AD7ED006AA7EE08
:109EE000A63A03F62F2C03F5C257CCF30D0CE3EE84
:109EF000076A1737C1F30D0189ED003A96ED003A74
:109F0000E3EE076A02EB8C09C7F30D0602EB860746
:109F1000A7EEA63A03F583561736C8ED006A95ED0D
:109F2000009AA7EE893A03F5C2551935C6F30D0814
:109F3000A3EE079AC5F30D0602EB880C89ED003AF3
:109F400097ED008AA8EE079A02EB860903F5F15710
:109F50001337A7EE898AC7F30D0502EB85088CED50
:109F6000009A89ED008A5EED048A38EE086A03F5EE
:109F7000FD5676EE686A0F36E6EEA08AC6F30D0748
:109F800002EB870C03F5F1564EED048A98ED003A8A
:109F90009CED009AE1EE035A03F508551536273576
:109FA00075EEC45AC6F30D07A1EEA54AC5F30D061A
:109FB00002EB870902EB860834EE458A03F5FD5C67
:109FC000A9EE885A0CF1110703F51655C7F30D06D3
:109FD000F0EE458AE7EE898A3F3502EB860703F506
:109FE000085CA8EE879A0CF1290603F54E5CC9EDD2
:109FF000008A98ED003AA3EE079AC5F30D0902EB2B
:10A00000890803F53055A7EE893A3F3587ED009A68
:10A01000D8ED006AA7EEA63AC6F30D0702EB870952
:10A02000C5F30D06E3EE076A02EB860803F5175544
:10A0300089ED003A98ED009AE9EE076A0135C5F31B
:10A040000D070CF1330602EB8709C6F30D05A7EEE9
:10A05000A69A02EB850803F5315CC9ED006A98ED1C
:10A06000008AA7EE889A0CF10107C7F30D0602EBF0
:10A070008105A9EE078A02EB8609611C89ED009A29
:10A0800085ED008A5EED035A78EE088AE6EE062A30
:10A0900038EEE53AA8EEA82AE3EE205A4EED035A30
:10A0A00015D0591E45BF03F57F533F330B46194664
:10A0B000DD0690ED026AD0ED066A01603FF4F8AD6E
:10A0C000B6EE008A76EE085A36EE883A0AE672EE66
:10A0D000821AF6EE007A21EEA73ABDEC048BC0EDB1
:10A0E000123A80ED134AC0ED144A80ED155A80ED06
:10A0F000173ABDE8F0839FED013AEEE7000000005B
:10A100002DE9F84FF7EE007A2DED068BC7EE808A29
:10A1100000F5C04400F5025600F5014A80460F469E
:10A1200030360AF1A00A80ED000AC0ED018AB0EED7
:10A13000408A84ED610AA6F500509FEDEC9A4FF439
:10A14000005200211C3804F053FD00254FF0000997
:10A15000F6EE009AE64B46F81C9C4FF0010BC6E960
:10A16000009B46F8185C06ED059A46F8103C46ED53
:10A17000039A46ED029A46F8045CB56086F80C90A6
:10A180003563F562B56275623562F561B56106F5F4
:10A19000015610365645CED108F5244008F5404A00
:10A1A00049464FF40052AC3004F022FD08F5444219
:10A1B00098ED01AA9FEDCF0ACAF8AC94C2E9329B90
:10A1C0000AF59C6BDFF894C3CB48CC49CC4EC2F85F
:10A1D000B050C2F8C450C2F8D05082ED2D9A2AEE89
:10A1E000000A8AF8D494CBF81850CBF81450CBF866
:10A1F0001050CBF80C50CBF80850CBF80450CBF8EB
:10A200000050C2F8B8C0C2F8C060C2F8BC00C2F8C2
:10A21000D810C2F8DC5004F03DFDF7EE00AA7AEE4B
:10A22000C00A0AF20C524FF0FF33C2ED000A9FED54
:10A23000B51ACAF8FC340AF5C4620AF5C2630AF515
:10A24000C36B08F545400AF20451C0ED00AA2AEE9E
:10A25000010AC1ED00AACBF8005015601D608AF814
:10A26000149604F017FD7AEEC01AA748A749A84A29
:10A27000A84BDFEDA96A9FEDA92A0AF22469C9ED6E
:10A28000001AC4F82003A648C4F82803A548C4F857
:10A29000A851C4F8A451C4F8BC51C4F8B851C4F8CA
:10A2A000D051C4F8CC51C4F8E451C4F8E051C4F81A
:10A2B000F851C4F8F451C4F89811C4F8AC11C4F8BA
:10A2C000C011C4F8D411C4F8E811C4F8FC11C4F8E2
:10A2D0009C21C4F8B021C4F8C421C4F8D821C4F822
:10A2E000EC21C4F80022C4EDD68AC4EDC6AAC4F895
:10A2F000A031C4F8B431C4F8C831C4F8DC31C4F8B2
:10A30000F031C4F80432C4F830038748C4F8380385
:10A310008648C4F80C52C4F80852C4F81012C4F8A5
:10A320001422C4F82052C4F81C52C4F82412C4F8F1
:10A330002822C4F83452C4F83052C4F83812C4F891
:10A340003C22C4F84852C4F84452C4F84C12C4F831
:10A350005022C4F85C52C4F85852C4F86012C4F8D1
:10A360006422C4F87052C4F86C52C4F87412C4F871
:10A370007822C4F81832C4F82C32C4F84032C4F839
:10A380005432C4F86832C4F84003C4F87C3294ED07
:10A39000DA6AC4F88452A6EE262AC4F88052C4F8B9
:10A3A0008812B3EE047A62EE072AC4F88C22F4EE27
:10A3B000EA2AC4F89852C4F89452C4F89C12C4F81B
:10A3C000A022C4F8AC52C4F8A852C4F8B012C4F821
:10A3D000C412C4F8B4225649C4F8C822C4F8C05202
:10A3E000544AC4F8BC52C4F8D452C4F8D052F1EE66
:10A3F00010FA514DC4EDDC9A08F52046C4F89032AD
:10A40000C4F8A432C4F8B832C4F8CC3284EDD97A96
:10A41000C4F85C53C4F84813C4F8502340F3A38530
:10A420009FED463AC4EDB62A62EE033AF4EEEA3AFC
:10A43000F1EE10FA40F3D4859FED414AC4EDB73AEE
:10A4400062EE044AF4EEEA4AF1EE10FA40F38F8528
:10A450009FED3C5AC4EDB84A62EE055AF4EEEA5A52
:10A46000F1EE10FA40F38785DFED377AC4EDB95A83
:10A4700022EE279AB4EEEA9AF1EE10FA40F37F85C5
:10A48000F3EE019A22EE290A84EDBA9AB4EEEA0AB2
:10A49000F1EE10FA40F377859FED2CAA84EDBB0A0C
:10A4A00062EE0A0AF4EEEA0AF1EE10FA40F36F8562
:10A4B0009FED271AC4EDBC0A62EE011AF4EEEA1A07
:10A4C000F1EE10FA40F36785DFED226AC4EDBD1AA4
:10A4D00062EE262AF4EEEA2AF1EE10FA40F35F85E6
:10A4E000DFED1DAAC4EDBE2A52E000BF00004843C4
:10A4F00052B87E3FEFB630C66666463F8FC2753CA7
:10A500006666663E7C5944C5ABAAAA3E22BA003DA7
:10A510000AD7233CCAAA7F3F3333333F9A99993EE7
:10A52000CDCC4C3E2549123E398EE33D8C2EBA3DB2
:10A53000D9899D3D8988883D0000DC4234339B41A8
:10A54000666696419A999141CDCC8C4133338341D3
:10A55000CDCC7C41333373419A996941EE7C7F3F86
:10A5600066665641CCCC4C41343343419A993941CB
:10A57000000000000000DC426666E63E2717354119
:10A58000CF4F574049265F428FBA2141DB0F4940E8
:10A5900022EE2A6AB7EE007AB4EEC76AF1EE10FA3C
:10A5A00040F30185B2EE0C3A62EE033A84EDBF6AE5
:10A5B000F4EEC73AF1EE10FA40F3F9841FED184AB1
:10A5C000C4EDC03A62EE044AF4EEC74AF1EE10FA66
:10A5D00040F3F1841FED1D5AC4EDC14A62EE055AE5
:10A5E000F4EEC75AF1EE10FA40F3E9845FED227AF7
:10A5F000C4EDC25A22EE279AB4EEC79AF1EE10FAD1
:10A6000040F3E1845FED279A84EDC39A22EE290A94
:10A61000B4EEC70AF1EE10FA40F3D984B2EE06AAFE
:10A6200022EE0A2AB4EEC72AF1EE10FAD8BFB0EE35
:10A63000472A08F5C54308F5C3405833183084ED60
:10A64000C40A84EDC52A81469B460021013100EEF3
:10A65000901A5FED391A1FED397A1FED395A1FED47
:10A66000373A5FED373A5FED374A1FED3B9A5FEDC2
:10A670003D9AB8EEE01AF7EE002A61EE216A71EE1B
:10A6800062AA21EE076AE6EEAA2A26EE224A64EEC4
:10A69000285AF4EEC55AF1EE10FA09DC65EEA57AF7
:10A6A000E7EE833AE7EEA34A25EEA49A69EE099A0B
:10A6B000BBEC012A1FED52AA5FED522A5FED523A20
:10A6C00089ED009AB7EE000AC0EE020A013109F1E5
:10A6D000140CB0EE404AA0EE894A01EE101A74EE56
:10A6E000297AF8EEC11AC0EE275A61EE8A6A71EE35
:10A6F000C0AAB0EE407AA6EEAA7A21EEA23A1FEDE9
:10A70000612A1FED61AAC9ED010A23EE076AC9EDAE
:10A71000025A26EE285AB4EEE35AF1EE10FA0FDC94
:10A7200065EE059A5FED694A1FED699A1FED690AAA
:10A73000A9EEA49AA9EE890A25EE00AA2AEE0A2A11
:10A74000BBEC011A8CED00AAF7EE000AC0EE811AEC
:10A7500010290CF11409F0EE602AE1EE8A2ACCED02
:10A76000011A72EE826AC0EEA6AACCED02AA7FF4AC
:10A770006DAF05461A460021013103EE101A1FED98
:10A78000846A5FED847A1FED840A5FED824A5FED93
:10A79000825A1FED829A1FED861A5FED881AF8EE35
:10A7A000C33AB7EE007A23EE865A33EEC74A63EE19
:10A7B000A79AA5EE047A29EE87AA2AEE282AB4EEF3
:10A7C000C02AF1EE10FA09DC62EE020AE0EEA45AA9
:10A7D000A0EEA59A22EE091A61EE011AF2EC01AA86
:10A7E0005FED9D6A1FED9D5A1FED9D9A85ED001A44
:10A7F000F7EE002A82EEAA3A013105F1140EB0EE0E
:10A80000620AA3EE010A03EE901A30EE21AAB8EE16
:10A81000E36A82EE8A2A26EE267A36EE624AF0EE65
:10A82000625AE7EE045A66EE054A5FEDAC3A5FED18
:10A83000ACAA85ED013A64EEA57A85ED022A67EEB1
:10A84000A89AF4EEC99AF1EE10FA0FDC69EEA91A93
:10A850005FEDB40A1FEDB41A5FEDB42AA1EEA01AA1
:10A86000E1EE812A69EEA2AA6AEEAA3AB2EC013AB6
:10A87000CEED00AAF7EE006A86EE836A10290EF18B
:10A880001405B0EE665AA6EE2A5A8EED016A35EE30
:10A89000234A86EE847A8EED027A7FF46DAFDF4A2A
:10A8A000DF49E04DC4F81C23DF4AC4F82413C4F880
:10A8B0002C53DE49DE4DC4F83423DE4AC4F83C1381
:10A8C000C4F84453DC49DD4DC4F84C230822C4F8D5
:10A8D0005413C4F86053C4F86C2384469A4600218C
:10A8E000013104EE901ADFEDD65ADFEDD60ADFED26
:10A8F000D62A9FEDD6AA9FEDD62A9FEDD61A9FEDB8
:10A90000D63A9FEDD66AB8EEE49AF7EE009A69EE71
:10A91000257A39EE690A69EE201AE7EE809A61EE2F
:10A92000A9AA6AEEA83AF4EEE23AF1EE10FA09DCCE
:10A9300063EEA36AA6EE8A2AA6EE821A23EE813A75
:10A9400023EE036AFAEC014A9FEDBD7ADFEDBD5AB2
:10A95000DFEDBD0A8CED003AB7EE004A84EE245AD2
:10A9600001310CF1140BF0EE442AE5EE032A09EE56
:10A97000101A72EE86AAF8EEC99AC4EE2A3A29EEA7
:10A98000870A39EEC4AAB0EE442AA0EE0A2A69EE7C
:10A99000A57ADFEDB24A9FEDB07A8CED015A27EE31
:10A9A000821ACCED023A61EE281AF4EEE01AF1EECA
:10A9B00010FA0FDC21EEA16A9FEDA43ADFEDA46A44
:10A9C0009FEDA44AE6EE036AA6EE264A21EE847ABB
:10A9D00067EE074ABAEC019A8BED007AB7EE005A9F
:10A9E000C5EE099A10290BF1140CF0EE455AE9EE68
:10A9F000875ACBED019A35EEA40A85EE00AA8BEDBD
:10AA000002AA7FF46DAF964D964A9749C4F86853F1
:10AA1000C4F8D822954D964AC4F8DC12C4F8E05226
:10AA20009449954DC4F8E422944AC4F8E812C4F855
:10AA3000EC529349934DC4F8F022934AC4F8F412AF
:10AA4000C4F8F8529149924DC4F8FC22914AC4F8D6
:10AA50000013C4F804539049904DC4F80823904A59
:10AA6000C4F81053C4F80C13C4F81423002501359E
:10AA700007EE905ADFED720A9FED723A9FED727AFF
:10AA8000DFED72AADFED723ADFED726A9FED729A26
:10AA9000DFED729AB8EEE72AB7EE001A62EE201ADE
:10AAA00072EE412A22EE036AA1EEA21A26EE014AB4
:10AAB00064EE284AF4EEC74AF1EE10FA09DC24EEFF
:10AAC000A45AE5EE2A3AE5EE236A24EEA69A69EE48
:10AAD000099AF3EC015A80ED009AB7EE000A80EE75
:10AAE000252A013500F11409B0EE406AA2EE096A88
:10AAF00007EE905A36EE295AF8EEE70A80EE059AEC
:10AB00009FED4FAA9FED4F1ADFED4F3ADFED535AFD
:10AB100080ED012A60EE8A1A70EEC02AB0EE403A4B
:10AB2000A1EEA23A60EE81AA9FED4BAA80ED029AB7
:10AB30006AEE836A26EEA84AB4EEE34AF1EE10FA12
:10AB40000FDC24EE040ADFED414ADFED419A9FED70
:10AB5000417AE0EE249AA0EE297A24EE07AA6AEE62
:10AB60000A5AB3EC012A89ED00AAF7EE00AACAEE50
:10AB7000820A102D09F11400F0EE6A7AE0EE8A7A6A
:10AB8000C9ED010A37EEA51ACAEE811AC9ED021AFB
:10AB90007FF46DAFF6EE008AC4F8787338464FF450
:10ABA0008032002104F024F888EE883A00273D4BDB
:10ABB000C4F8B0330020C4F87403C4F8AC33C4F84C
:10ABC000A833C4F8BC73C4F8C073C4F8C473C4F821
:10ABD000C873DFED352ADFED356A84EDE78AC2EE12
:10ABE000883ABDEE007AB0EE478AA3EE268AA3EE3D
:10ABF000A67AB5EEC08AF1EE10FAC4EDE88AC4ED8B
:10AC0000E98AC4EDEDAAC4EDEEAA00F18B81B4EEA1
:10AC1000E88AF1EE10FA40F365814BE0CFCC4C3E70
:10AC2000D1CCCC3D8988883DD4CC4C3D16D7233D32
:10AC30008A88083DC10EEA3CDBCCCC3C9A99193E8F
:10AC4000FBEDEB3A0000DC426666E63E49265F42D9
:10AC50008FBA2141DB0F4940CF4F5740271735416D
:10AC60009A99193F67666641EF7C5F417593584139
:10AC7000FDA9514184C04A410BD7434192ED3C416B
:10AC800019043641A01A2F4128312841AE472141ED
:10AC9000355E1A41BC741341458B0C41CBA1054173
:10ACA000A470FD403333333F9A99993E000000422F
:10ACB0001D4313C638EE680AB0EE00AAE0EE4AAAB9
:10ACC000F3EE005A20EE252AF5EE000A62EE2AAADB
:10ACD000C4EDE08A6AEEA07AC4EDE1AAC4EDE27A9E
:10ACE000C4EDDF7AF6EE006AB4EEE67AF1EE10FA21
:10ACF00040F3738137EE667AB3EE004AB7EE008A0E
:10AD0000B0EE006AB0EE485AA7EE465A4FF07C5AB1
:10AD1000C4F890A327EE049AF5EE004A69EE059A6E
:10AD20001FED1DAAB049B14AB14DB24F29EEA40A98
:10AD300006F5896E84EDE30AD8ED015AC4F8D41300
:10AD400065EE8AAA06F2644C4FF0000BC4F8E813D3
:10AD5000C4F8D823C4F8EC23C4EDE59A84EDE60AE0
:10AD6000C4F8E4B3C4F8E0B3C4F8F8B3C4F8F4B377
:10AD7000C4F8DC53C4F8F053B0EE6A0ACEF818B049
:10AD8000CEF814B0CEF810B0CEF80CB0CEF808B0B3
:10AD9000CEF804B0CEF800B0CCF800B003F07AFFE3
:10ADA00038EE402A06F58D6989ED002AB0EE6A0A70
:10ADB00003F070FF04F5816578EE400A06F58E62B7
:10ADC00008F5C84906F27443C3ED000AC2F800B0A2
:10ADD00004F20443C4F8FCB3C5F800B0C9F800702D
:10ADE00004F20C478448C7F800B004F2144218601B
:10ADF00004F5836504F5826004F21C4904F5846758
:10AE00000021C0F800B006F27C43C2F800B0C5F8DB
:10AE100000B0C9F800A0C7F800A0A4F8241406F2F6
:10AE20003C4A06F58F640120C4F800B0CAF800B0AF
:10AE3000C3F800B006F5906B8BED008A8C2286F883
:10AE4000840408F1080003F0D3FE88ED048A88ED3D
:10AE5000088A88ED0C8A88ED138A88ED148A88EDBB
:10AE60001D8A88ED1E8ABDEC068B644E6449654AD6
:10AE7000654D664F664C674B6748C8F81460C8F864
:10AE80006460664EC8F808104FF07D596449C8F8F0
:10AE90000C20C8F82C40634A634CC8F81850C8F816
:10AEA0002470624D624FC8F83400C8F838306148E9
:10AEB000614BC8F84060614EC8F82890C8F844500B
:10AEC000C8F84810C8F85420C8F85890C8F86070FE
:10AED000C8F87C40C8F88000C8F88460C8F86830BA
:10AEE000BDE8F88FB0EE004AE8EE44AABBEE006A77
:10AEF00028EE065AB5EE009A65EE2A4AB5EEC07AFB
:10AF000064EE899AF1EE10FAC4EDE08AC4EDE14AEC
:10AF1000C4EDE29AC4EDDF9A5FD5B1EE477AB3EEA5
:10AF2000004AEBE6B0EE001AE8EE01AAF3EE001AD2
:10AF300068EE612AB5EE003A62EEAA3AC4EDE08A04
:10AF4000B5EEC07A63EE838AF1EE10FAC4EDE13A11
:10AF5000C4EDE28AC4EDDF8A7FF5C4AEB1EE477A74
:10AF6000B3EE004ACAE6C4EDB6AAC4EDB7AA4FF0E4
:10AF70007E5EC4F8E0E24FF07E5AC4F8E4A24FF0DF
:10AF80007E5CC4F8E8C24FF07E5BC4F8ECB24FF0D0
:10AF90007E59C4F8F0924FF07E53C4F8F4324FF06B
:10AFA0007E50C4F8F8024FF07E55C4F8FC524FF0C2
:10AFB0007E51C4F800134FF07E52C4F804234FF0C2
:10AFC0007E5EC4F808E34FF07E5AC4F80CA3B7EED7
:10AFD000000AB0EE402AFFF72CBBBBEE004A8DE61C
:10AFE000C4EDB7AAC3E700BF22BA003D0AD7233C8D
:10AFF000CAAA7F3FFA7EAA3EFA7E2A3FF6285C3F25
:10B0000085EBD13ECDCC0C3F5C8F423EA470BD3E63
:10B01000295C8F3E8FC2753D6666263FAE47613E16
:10B02000295C4F3F3D0A573F713D8A3E0AD7633F37
:10B03000E17A943E5C8F023F9A99193F7B14AE3EB1
:10B04000D0ED047A90ED231ADFEDEF2AB1EE087A05
:10B0500027EE870A2DE9F04FFDEEC00AF2EE086AEE
:10B0600010EE903A052BA8BF052301EE903AB8EEFA
:10B07000E12A2DED108BA2EE261A8DB00646B0EE19
:10B08000000A61EE220A0891049203F03FFE9FED50
:10B09000DF3A96ED061AD6ED020A60EE038A06F153
:10B0A0009400B0EE680A0590FEF7F6FBD6ED0A9A1A
:10B0B000D74AD849B6EE006A06F54440F4EEC69A7F
:10B0C0000024F1EE10FA06F52045C0F8C020C0F8C3
:10B0D000BC10C0F8DC4040F1598379EEA95AF7EE74
:10B0E00000AA9FEDCD5ADFEDE2BA9FEDCC8AB0EE1B
:10B0F0006ABAA5EEC5BAA5EEAB8A2BEE06AA3AEE61
:10B10000CA9A06F5C04406F5005906F5804889ED4F
:10B11000288A88ED3C8A84ED508A89ED2AAA89ED37
:10B12000299A88ED3EAA88ED3D9A84ED52AA84EDD5
:10B13000519A376CC9F8C470C8F8147194ED63EA79
:10B14000C4F8647168EE8EEAB6EE00CA96ED018A24
:10B15000DFEDB3CA9FEDB3DADFEDB3DA2EEE8CFA92
:10B1600004F5816A6FEE08FA04F20C4BCAED00FA9E
:10B17000D4ED647A28EEA77A04F5826C27EE0C1AD7
:10B1800028EE2D0A61EE2C0A04F5836A60EE886AC7
:10B19000CBED006AD4ED651A28EEA12A62EE0C2AE6
:10B1A00022EE8D3A23EE086A8CED006A03F072FD00
:10B1B00004F5856104F22C4291ED00AAD2ED005A0B
:10B1C000DFEDB63AB4F8243435EECA5AB7EE004A89
:10B1D000A5EE23AA01339FB2F3EE094A28EE249A82
:10B1E0007AEE04AA34EE400A29EE2ACA05F2444057
:10B1F0004A2F80ED000A81ED00AA8AED00CA00F214
:10B20000D482A4F82474D6ED030A94F88871F1EE80
:10B210000C6A60EEA61A0122BDEEE12A84F8302401
:10B2200012EE10AABAF1000FC1F23C81BAF1060F7A
:10B2300000F3EA82BAF1020F41F31082AAF1030C83
:10B240000C217A4BD6ED242A9FED6F3A03EB870E43
:10B25000B0EE000A1EF90C00084406EE100AF8EEE3
:10B26000C63A06F5404733EEA24A64EE030A03F0FD
:10B270004DFDDFED664A20EE240A03F0D7FD97F876
:10B280001426B0EE40EA002A41F0F88007F5C261CA
:10B29000012381ED000A87F81436B0EE4E0A03F060
:10B2A000BFFD96ED00FACFEE007AF1EE00EAF4EE83
:10B2B000EE7AF1EE10FA01F1DD80DFED5DFAF4EEE9
:10B2C0006F7AF1EE10FAC8BFF0EE6F7A96ED0E9A33
:10B2D0009FED581A9FED587AD7F8FC04A9EE017A31
:10B2E00005F5125E07F21C6268EE000A8245CEED9B
:10B2F0000D7AC2ED000A8EED0E7A10D0B0F1004F3B
:10B300000DD0DFED5E6AD6ED091AF4EEE61AF1EE25
:10B3100010FA04DD07F2045B4849CBF80010C7F8C7
:10B32000FCA405F58F6A96ED0D2AD6ED162ADAED06
:10B3300000AA9FED436A96ED0CAADFED423A9FED1D
:10B34000594ADFED515A9FED405A29EEA93A62EE73
:10B35000024AD6ED149A23EE060A2AEEA2BAAAEE03
:10B36000234A05F29441A4EEA50A6BEE29BA6BEECE
:10B3700085CAE0EE04CAC9ED30CAC8ED44CAC4EDBE
:10B3800058CA91ED00DAB5EEC0DAF1EE10FA0DD937
:10B39000DFED37DA38EECDEA6DEE2DEAB0EECEFA1B
:10B3A000B4EEEEFAF1EE10FA40F30281F3EE04FA95
:10B3B000F4EEEF8A94EDD81ADFED217AD4EDD61AA7
:10B3C000F1EE10FA58BFF0EE68FA06F5C54306F53F
:10B3D000C34061EE270AC4EDD7FA58331830002273
:10B3E000013207EE102AB8EEC72AF7EE002A22EE45
:10B3F000206A72EE626A2FEE824AE6EE262A9FEDFE
:10B40000130A9FED1A3A57E0ABAAAA3DDFCF0242DA
:10B410006666663E6666463FEC51783FA4707D3FA7
:10B420000326803F9F8E7F3F959E6BC5F4FA0008F0
:10B4300000C0FF440AD7233B643B7F3FCDCC0C3F89
:10B44000A69B443CCDCC4C3FCDCCCC3D6666E63E85
:10B4500027173541CF4F57400000484377BE7F3F05
:10B46000000070423333333FCDCC144149265F4254
:10B470000AD7A33B00803B4500000000CDCC4C3DEB
:10B48000DB0F49408FBA21419A99193ED7A3303F2B
:10B490009A99993E3333733F0AD7233C0AD7A33C8A
:10B4A0006666E63FCDCC4C3E6F12833B52B87E3F82
:10B4B000F6287C3F80C2753C5FED0E3A5FED104A86
:10B4C0001FED1CBA5FED1EBA64EE225A25EEA15A9A
:10B4D000B4EEC05AF1EE10FA09DC65EE05AAEAEE08
:10B4E000833AEAEEA34A25EE24BA6BEE0BBAF3ECEC
:10B4F00001DA1FED2ADA5FED2AAA1FED2A5A80ED44
:10B5000000BAF7EE00CA8CEEADEA013200F1140980
:10B51000B0EE6C6AAEEE0B6A0EEE902A76EE2B6AF7
:10B52000B8EEEEFA8CEEA64A2FEE201A3FEE6C7AB9
:10B53000B0EE6C2AA1EE072A6FEE8F7A80ED01EA59
:10B5400067EE822A80ED024A62EEA13AF4EECD3A2D
:10B55000F1EE10FA0FDC23EEA30A1FED3C3A5FED8B
:10B56000374A5FED395AE0EE034AE0EE245A23EE03
:10B57000A55A65EE05AAF3EC01BA89ED005AB7EEBB
:10B5800000BACBEE2BCA102A09F11400B0EE4BDA48
:10B59000ACEE85DAC9ED01CA7DEE2ADA8BEE2DEA32
:10B5A00089ED02EA7FF41CAF05F29441C1ED008AF7
:10B5B000D6ED1CFA5FED520AD6ED058A5FED5AEA28
:10B5C0001FED5AFAF4EEE0FAF1EE10FACCBF0421C6
:10B5D0000821F0EE680AB0EE6E0AC4F86C13079109
:10B5E00003F094FB5FED621AB4EECFAAF1EE10FA0D
:10B5F00060EE21AAC0F2CB874FF0010C85F884C41D
:10B600001FED680AD6ED0F3A1FED696A1FED694A12
:10B610005FED64BA5FED66CA1FED6B5A96ED15DA01
:10B620005FED6CDA5FED6CEA1FED6C1A96ED182A8F
:10B6300096ED17FAF0EE406AE3EE866A05F5876E3E
:10B6400005F5916AF7EE005A85EEA6BA06F5C643EF
:10B650007433099328EE2A3AB0EE65EA63EE034AA2
:10B660009EED00AA9AED007A84EDF6BAE4EE84BA73
:10B67000F4EEC59AE4EEABCAF0EE4A0A63EE2CAAE9
:10B68000F1EE10FAAAEE8BEADDEE2D0AAAEEAAEA96
:10B69000F5EE001AC5EE8EBAD8BFF0EE6E5A75EE12
:10B6A000C77AA0EE81AAA7EE857AF7EE0C2AB0EE53
:10B6B000613AA2EE223AD6ED115AC4EDF5AAC4EDD4
:10B6C000FAAA84EDFBBAC4EDF7BAC4EDFCBA1FEDDB
:10B6D000926A8EED00AA5FED933A8AED007A5FEDF3
:10B6E000944A5FED90CAC4EDE89AD6ED139AD6ED70
:10B6F000126A94EDEE4AB4EE413AF1EE10FAE9EE38
:10B7000080CAAFEE216AE5EEA34A1FED9E0A84EDE2
:10B71000E96A48BFB0EE413A26EE80DAB4EE434A19
:10B72000F1EE10FAC4EDEA4A84EDEBDAC4EDECCAAE
:10B7300040F0BE86D6ED22DA1FEDA9EAF4EECEDAAD
:10B74000F1EE10FA7CD91FEDABAAD6ED1F0AF4EE8C
:10B75000CA0AF1EE10FA73D4B6EE005AF4EEC5DA66
:10B76000F1EE10FA40F13D877DEEAD2A1FEDB43ABF
:10B770001FEDB47AA2EE837A012105F59468A5F84D
:10B78000981468EE077AC8ED007A63E079EEC63A5D
:10B790001FEDBB4A1FEDBB8A1FEDBB9A1FEDBBAA75
:10B7A00073EEA34AA4EE848AABE41A481A4F0368E6
:10B7B0001A499FED1BBA9FED1BDADFED1BCADFEDC7
:10B7C0001BDA07FB031E07FB0E170EEE10EA0FEE47
:10B7D000107AF8EE4EEAF8EE4FFAFEEE00BAEFEE0F
:10B7E0008BBA076004F5846B6EEE8B7AB0EE4D7AFF
:10B7F000A7EEAC7A0020A4F824042BEEAD1A8BED52
:10B80000007A82ED001AFEE44FF0030C4FF0060AB6
:10B8100016E500BF000000200D6619005FF36E3CC6
:10B820000000802FCDCCCC3ECDCC4C3E0AD7233C63
:10B830000000C843DB0FC9C00AD7A33B00000000CB
:10B8400005F5946C4FF0000B4FF0000ECCF800B0F3
:10B85000A5F898E4D6ED219AB2EE0E0AF0EE690A48
:10B8600003F054FA5FED0E5A1FED0E6A60EE253AB2
:10B8700005F58D6A23EE864A24EE080A03F00AFADB
:10B88000B7EE008A78EE404A049BCAED004A002BCE
:10B8900000F0DE865FED18CADDF820B05FED196AB2
:10B8A000DFF8D48306F545411031F4EEECFA06F5E5
:10B8B000C34206F52440CDE90A1BAC30F1EE10FA84
:10B8C00002F104094FF0000306F5C8420690D8BF04
:10B8D000B0EE668AF1EE49FA0291012001930392DB
:10B8E00004F21C4A04F2144E04F584619AED00EA55
:10B8F0009EED00DA91ED00AADFEDD7DA3CEE0DCA3D
:10B900007AEE4E0AB7EE000AB4EEC0CAA0EEADEA77
:10B9100004F2144CF1EE10FAA8BF3CEE40CA8CEDD4
:10B9200000CA8AED00EA002800F039849CED005A34
:10B93000DFEDCAEADFEDCA1AB4EEC5EAF1EE10FA9D
:10B94000D8BFF0EE61EA9FEDC7FADDF814A05046CB
:10B95000B0EE6E0AFDF71CFE0AF5015000F1100A68
:10B96000CA453FEE00FAF2D104F5816393ED003A47
:10B9700094EDFF1A039A9FEDBC2A92ED006ADFED69
:10B98000B93A039904F20C4E73EE017ADEED00CA67
:10B990009FEDB51AF7EE002A04F2044C04F582601C
:10B9A0003CEE860AD0ED000A9CED00AA0698F4EE63
:10B9B000E27AB7EE004AF1EE10FA7AEE201AB4EE0F
:10B9C000C40AA8BF77EEE27AF0EE005AF1EE10FA60
:10B9D000F7EE00DABFEE007AA8BF30EE440AF4EECC
:10B9E000ED1AA7EEA57A05F5886A05F24443F1EE53
:10B9F00010FAB0EE00DAFFEE006AA8BF71EEED1AA1
:10BA0000E0EE0D6A04F204422FEE02CAB0EE005AD4
:10BA1000BFEE00FAA1EE85FA77EE234ADAED002AAE
:10BA2000C4EDFF7A36EEA4EA81ED000AB0EE6E0AAC
:10BA30007FEE0EEAB0EE623A9EEE813AD3ED007AE6
:10BA40009FED8A2AC2ED001AE7EE832ABFEE00DAE4
:10BA5000CAED002AA2EE82CAFDF79AFD07F5C3617E
:10BA600007F21C6091ED007A90ED006AD6ED0B4A6A
:10BA7000DFED7F6A9FED7FAADFED800AF0EE40CA1E
:10BA800037EE060AF7EE005AB4EEE50AF1EE10FAC8
:10BA9000A8BF30EE650AF0EE003AA0EE23DA07F513
:10BAA000C46A07F224639AED00FA93ED001A3DEEA2
:10BAB0004F5AF7EE00DAA1EE05FA07F5C362B0EED1
:10BAC0006DEA2FEE242AB1EE004AA9EE04EAE2EE76
:10BAD00026CAF0EE6D1A6CEE8EEAEFEE8A1AEEEEE2
:10BAE000AEDAF4EEE08AF1EEED2AF1EE10FA8EEE27
:10BAF000A23A82ED000A21EE837A8AED00FAC0F2C2
:10BB0000BB830299A1EC017A94ED694A94ED67EA4E
:10BB100094ED66AA94ED6EFA94ED737AD4ED6C0A06
:10BB200094ED71DA94ED6A2AD4ED6BDA94ED701A23
:10BB3000D4ED787AD4ED76CAD4ED68EAD4ED751AEE
:10BB4000D4ED6F2A94ED743A94ED6D0AD4ED723A07
:10BB50000291F0EE4C6AE4EE4E6AF0EE4C4AEAEEE8
:10BB6000446AB0EE4C5AEFEE604AA7EE4D5A76EEBC
:10BB7000C25AB0EE4C6AEDEECF4AA1EE475AA7EE9C
:10BB8000EC6A65EEAE6AA1EEE76AA6EE8A4A74EE4A
:10BB9000E24A35EE435A64EE804A65EE235AD4ED0C
:10BBA000793AD4ED77EAA4EE0A2AA4EEADFA36EE9D
:10BBB000636AA5EE817A26EE2E6AF0EE44EAE6EE9E
:10BBC0008AEAA4EE0A2A24EE0EEA9FED26AA94ED54
:10BBD000C64AC4ED69EAEFEE2D2AE6EE217AA7EE19
:10BBE000013AA4EE0EAA2FEE200AF0EE4F6AD4ED31
:10BBF000C70A84ED6A2AEFEE2D2AE4EEAD6AF0EE74
:10BC000047DAA7EE013AE7EEA13AE5EE81DAA0EED7
:10BC100080AAB0EE671AA6EE211A94EDC8FAC4ED18
:10BC20006E6A27EE0D7AE7EEA13AAFEE07AAC4EDF1
:10BC30006F2AC4ED73DA84ED743A84ED781A0798AC
:10BC400094EDC9DAC4ED793A67EEAC7A0428ADEE2A
:10BC500027AA00F0B78013E06F12833A0AD7A33CFB
:10BC60000AD7A3BC00000000ABAAAA3E0AD7233D16
:10BC70003333B33ECDCC0C3F0000002077BE7F3F76
:10BC8000D4ED7D5A94ED825AD4ED7B6A94ED801AFE
:10BC900094ED7AFA94ED7F0AD4ED7E2A94ED834AEE
:10BCA000D4ED7C4AD4ED81DA94ED876AD4ED85CA6F
:10BCB000D4ED8C7AD4ED8A0A94ED88EAF0EE4C1A31
:10BCC000B0EE4C2AE5EEE61AA5EE412AEFEE651A33
:10BCD000A0EE452A31EEE23A72EE443A23EE243ADF
:10BCE00063EEAD4AF0EE4CEAA4EE805AE6EE6CEA62
:10BCF000B0EE4C7AE3EE0F5AD4ED841A94ED892A13
:10BD0000A0EEE77AA5EE004AE1EEC6EAA7EEC27A17
:10BD1000F0EE653AE3EE0F3AB0EE453AA4EE803A23
:10BD200025EEA6DAA5EE004A7EEECEEAD4EDCA6A8A
:10BD300094ED860AD4EDCB4A84ED823A25EE011AC1
:10BD400094ED8D5A94EDCD3AC4ED7D3AA6EE8DAAD0
:10BD500077EE45DA2EEE80DA94ED8B7AD4EDCCEAEC
:10BD600084ED834AADEE216A6DEE876AA4EE81AA66
:10BD7000E2EE267AE5EE8F2AA6EE21EA66EE2CCADE
:10BD8000A2EE275AAEEEACAAE5EE8F2AF0EE4E5A9E
:10BD9000E6EE215AB0EE46FA60EEA70AB0EE676A08
:10BDA000ADEE21FAA2EE266AA2EE275AA3EE20AA51
:10BDB000C4ED7E2A84ED87FAC4ED885A84ED8C6A3E
:10BDC00084ED8D5AF6EE002A2AEE22AAD6ED197AD3
:10BDD00095F88434B0EE4C7AA7EE8A7A7BB905F2F6
:10BDE0007C4E9EED00CA05F5906C77EE4C1A9CEDEA
:10BDF000004AA4EE21CAB0EE4C7A8EED00CA1FEDC7
:10BE0000612AF4EEC28AF1EE10FAC0F2CC81D8F8C1
:10BE10000020F448F449DFEDF52A9FEDF5AADFEDA7
:10BE2000F50ADFEDF5EA9FEDF5EA9FEDF53ADFED76
:10BE3000F5DADFEDF53A9FEDF5DADFEDF55ADFEDF6
:10BE4000F5CADFEDF56A9FEDF5CA9FEDF51A9FED96
:10BE5000F52ADFEDF51A00FB0213B7EE004A00EEFB
:10BE6000103A34EE695AF0EE047AF0EE444AE5EE08
:10BE7000274A05F5896A05F2644EF8EE407AB0EE7D
:10BE800000FA27EEA20ABFEE006AA0EE0F6A05F5DF
:10BE90008D6C95F89824DAED017A9AED00FAC8F8DD
:10BEA000003026EE0AAA66EE200AAFEE2EAAE7EED2
:10BEB0008E0ADAED02EA9AED03EA8AED00AA26EE8E
:10BEC000033A66EE233AAEEEAD3AEEEE0D3ADAED17
:10BED00004DA9AED05DACAED010A3AEE200A66EEB6
:10BEE000255A66EEC66AEDEEAC5A70EE03CAEDEE68
:10BEF0000C6A7CEEA37A9AED06CA8AED023A37EE16
:10BF0000A5FA26EE022A3FEE26AACAED033A7AEEF9
:10BF10000C0ACAED045AE6EE010A9EED001ACAEDBB
:10BF2000056AB0EE416A90EEA16ADCED001A8AED76
:10BF3000062AA1EE861A8EED001AE2B305F29C4A9B
:10BF400005F5946E9AED003ADEED003A95F89924E5
:10BF500073EE235AF4EEC45AF1EE10FACAED005A09
:10BF6000C0F2C38175EEC45ACAED005A002A00F02F
:10BF7000A48100FB031100EE101AB8EE40DA05F5BB
:10BF800095632DEE224AC8F8001083ED004A05F2B1
:10BF9000A44CDCED00DADFEDA5CA74EE6D7AE7EEB5
:10BFA000ACDA05F2A44A9FEDA2CA9FEDA24ACAEDFF
:10BFB00000DAADEE8C4A96ED1FFA9FED9FAA6FEE68
:10BFC0000A0AB5EEC08A60EEA44AF1EE10FA24EE39
:10BFD000886A66EE045A40F3DD80D8F80000814993
:10BFE000814ADFED961A9FED813A01FB002302EEB4
:10BFF000903AB8EE622A65EE213A62EE03EAC8F89A
:10C000000030F4EEEE3AF1EE10FA40F3C38001FB9B
:10C01000032006EE900AB8EE66EAB0EE000A6EEE75
:10C0200003DABFEE00DAADEE80DAC8F800006DEE9C
:10C030000DCA6CEE8D7A27EE85CA9FED815A9FED71
:10C0400081AA029B9FED806A019905F58E6CDCED5B
:10C05000003A6CEE050A05F2744ADAED001A70EE49
:10C06000E32A05F26C42E1EEA23A05F23C4E05F5F8
:10C070008760C2ED000A2FEE23FACCED003A2FEED6
:10C08000082AF3EE0B4A62EE0AEAB2EE023A2EEE0C
:10C09000844AF0EE64DAA1EE254A0131019141F6BD
:10C0A0000C1A83ED1F4A9EED001A90ED00DAD5F8C8
:10C0B000340477EE415AFDEECDCAA5EE861AA0F5FE
:10C0C00070720BF1080B1CEE901A37EE41EA431A1E
:10C0D0002EEE037AEEEE0EDA521AC3F30B0CEEEEEE
:10C0E000074A03F6FF71D4446EEE2D6A8EED001AF6
:10C0F00086EEA40AC1F30B0E02F6FF7106EB8C0369
:10C10000C2F30B02C1F30B0C5244D644D444824414
:10C1100006EB8A0A06EB8E0E05F591610130F8EE0A
:10C12000EC7A8AED010A93ED01AA9EED015A91ED98
:10C1300000FA06EB820306EB8C0ED3ED010A9EEDAE
:10C14000016A049A019B3DEE67CA35EE4A3A76EEE3
:10C15000603AA3EE0CAAC0F30B009A42E3EE8C0AFD
:10C160007AEE402A70EEC01AB0EE402AA2EE8F2A74
:10C17000A1EE8F0A0BED022A0BED010AC5F834047B
:10C1800000F0BA8004F5836E9EED00CA94F8300486
:10C19000FFF7A6BB05F26C4E9EED00CA4DE7DFED42
:10C1A00034EAFFF7D0BB94EDF81AD4EDF93AABEED0
:10C1B000417AAAEEC17A37EE635AB0EE637A25EE81
:10C1C0002B0AAAEE801AAAEE817AF0EE41DAB0EEDE
:10C1D00047DAEAEE80DAAAEE81DAC4EDF8DA84ED25
:10C1E000F9DA14E60D6619005FF36E3C0000802F4B
:10C1F000BD66633D65C1993D4AB57F3F384A7E3F84
:10C20000618B1D3E6210783FF8F79E3EF2D25D3F93
:10C210008E6F083FCDCC0C3FAD6D8A3C38F842BFE5
:10C220006744093F9C6AED3DAE47E13D17B7513A7F
:10C230009A99193E9A99593F8FC2753D6F12833A68
:10C240002DB27D3F3333B33E3480373AF7CC1238CA
:10C250006F12033BCDCCCC3D295C0F3E0AD7A33BEC
:10C260009A99993E000000420000A042DB0FC9C02D
:10C27000000000009A99D93FD4EDFDCAD4EDFE5AD2
:10C28000ABEE6C7AB0EE6C0AAAEEEC7A77EE657AD9
:10C29000B0EE657A27EEAB6AAAEE860AAAEE807A3D
:10C2A000F0EE403AB0EE47DAEAEE863AAAEE80DAED
:10C2B000C4EDFD3A84EDFEDA23E4F6EE002AF4EE56
:10C2C000E25AF1EE10FA5CBFF7EE002A72EEE55A80
:10C2D000F0EE00EA35EEA52AF0EE086AE2EE6E6AAC
:10C2E00022EE02EA6EEE26DA5BE6002AE5D005F5DC
:10C2F000956090ED004A4AE6DDF81090DDF8208068
:10C300000A9801904A4641460998DDF82CA0FDF7AD
:10C310008FFCD6ED098A96ED08BA4346B6EE009A30
:10C3200006F5454607F2045119F0010F03F1040226
:10C3300068EE89AAD6ED00BAD1ED009A019B08EB10
:10C34000C90B28D0F3EC01FA08981FED404A12ED12
:10C35000011A90ED01EA5FED426AB7EE008A78EECD
:10C3600069EA6FEEAADA6BEE2B5AEEEE849A00F1D0
:10C37000080ADA45B0EE6D7AA1EE257AEEEE25DAFE
:10C3800079EEEB4A02ED017AE4EEA6BA00F10C0276
:10C39000C0ED01DA47D01946F1EC017A5FED55CADC
:10C3A0009AED01CA12ED01AA5FED571AB7EE000A25
:10C3B00030EE69DA67EEAA3AEDEE2C9A0AF1080C33
:10C3C0000AF1100A6BEE2B0AB0EE635AAAEE205A5D
:10C3D0001032ECEE203A39EEEB3A02ED055AE3EE7C
:10C3E00021BA4AED033A93ED01FA1AED012A52ED12
:10C3F000032A30EE696A6FEE2A8A2BEE2B9AE6EE5C
:10C400002C9ADA4501F10403B0EE688AA2EE898A1B
:10C41000E2EE098A79EEEBFA02ED038AEFEEA1BAB9
:10C42000CCED018AB7D107F20457C7ED009AC6EDEB
:10C4300000BA9DED04BAD4EDF4BAF8EECBAA8BEEB7
:10C44000AA0AB5EE400AF1EE10FA00F10B81F1EE06
:10C45000C09A05F58F64D4ED00EA1FED824A39EEEB
:10C46000EE1AE1EE04EAC4ED00EA0DB0BDEC108B6B
:10C47000BDE8F08FF0EE6E7AFEF728BF96ED070A62
:10C480001FED8BAA5FED8B5A20EE0A5AB4EEE55AE7
:10C49000F1EE10FA40F1BB8007F5C26C8CED00EABA
:10C4A000FEF7FBBE4FF0000CE2466146FEF7C9BE48
:10C4B000F6EE00DA94EDE7EA5FED960A84EDEE3AE7
:10C4C00023EE2DAAFDEE00EA8AEE0E5AE5EE20EAF2
:10C4D000F5EEC0EAF1EE10FA7ED4F4EEEDEAF1EEFC
:10C4E00010FAC6BF7EEEEDEAF3EE003AFBEE003A3C
:10C4F0005FEDA51A23EE211AB0EE00FAC1EE0E2A66
:10C50000B7EE002AAEEECF2A1FEDAA3AFDEE007A72
:10C510002EEEA37AE2EE837A67EE025AB5EE006A57
:10C5200065EE869AF5EEC07AF6EE003AF1EE10FA74
:10C53000C4EDE15AC4EDE29AC4EDDF9AC4EDE03AED
:10C5400000F18180F4EEE37AF1EE10FACABF77EEE3
:10C55000E37AFBEE003AF3EE003AB0EE004AF7EE73
:10C56000004AE7EEC44A4FF07C52C4F8902367EECD
:10C57000A3CAF5EE006A2CEEA40A20EE26DA84EDBA
:10C58000E50A84EDE6DA84EDE3DAFFF7D3B84FF09D
:10C590000008F0EE4A0A1FEDCC0A85F8848402F008
:10C5A000B5FB1FEDCE1A20EE2E7A05F5906B67EEE7
:10C5B000017A27EE880A02F06DFBB7EE002A72EED0
:10C5C000402AF5EEC02AF1EE10FA48BF5FEDD82AF6
:10C5D000CBED002AFFF714B8F1EE6EEAF3EE003A65
:10C5E00086E77DEEC5EA5FEDDD1A3EEEAEFAB0EE0F
:10C5F000001AAFEE611A40F2011005F59469A5F832
:10C60000980428EE012A89ED002AFFF723B9DDED11
:10C6100004AAB8EE6ABA07F5C26B68EE4BBAF7EE39
:10C6200000CA8BEE850A02F035FBDBED00DA3CEE4A
:10C63000C0DA3EEE6D9AE9EE0DDAB0EE6DEACBEDC2
:10C6400000DAFEF72ABEF1EE677AF3EE003A84E7ED
:10C65000DDE90810049AFDF7EBFAEAE6D44600217A
:10C66000FEF7EFBD02F0B0FBF0EE409AF1E600BF3E
:10C670002DE9F041A94D2DED068B06460C460146ED
:10C68000A7481746FCF730FCA5482B7F6A7FA549D1
:10C69000FBF740FF2846FCF775FE002F00F02E82C6
:10C6A000B800021F90080130314610F003029E4B83
:10C6B0004FEA870601EB870C4ED0012A31D0022ABF
:10C6C00017D0B1F900E0B1F902809FED987A00EE41
:10C6D00010EA01EE908AF8EEC00AB8EEE12A20EEE8
:10C6E000871A62EE072A83ED001AC3ED012A04318E
:10C6F0000833B1F90000B1F902209FED8C3A03EE46
:10C70000900A05EE102AB8EEE34AF8EEC55A64EE38
:10C71000034A25EE836AC3ED004A83ED016A0431C2
:10C720000833B1F900E0B1F90280DFED806A08EE6C
:10C7300090EA0AEE108AB8EEE89AF8EECAAA69EE14
:10C74000269A6AEEA67A04318C45C3ED009AC3EDB1
:10C75000017A03F1080356D0B1F90000B1F90220C3
:10C76000B1F904E0B1F906809FED700A08EE100AF5
:10C7700007EE102AB1F90800B1F90A2001EE10EA1B
:10C7800002EE908AB1F90CE0B1F90E8003EE100AC6
:10C7900003EE902A04EE10EA04EE908AF8EEC80A3E
:10C7A000F8EEC71AB8EEC12AB8EEE25AF8EEC35A4C
:10C7B000B8EEE36AF8EEC46AF8EEE48A20EE809AF6
:10C7C00061EE809A22EE00AA65EE00AA25EE808A2C
:10C7D00026EE007A66EE800A68EE807A103183EDEC
:10C7E000009AC3ED019A83ED02AAC3ED03AA83ED7B
:10C7F000048A83ED057A8C4503F1200343ED020A98
:10C8000043ED017AA8D1DFF8388147493A464046DE
:10C81000FEF716FC9FED460A98ED1C8AB4EEC08A1E
:10C82000F1EE10FA00F396809FED428A3E48DFED6C
:10C83000418A2746404C3E44D0ED009AD0ED010A93
:10C84000B4EC017AB3EE0B9AB2EE02AAB0EE490A4A
:10C85000A9EEA90A0437083069EE8AAAB0EE493A6F
:10C86000B0EE495A20EE8A2AA0EEA03AA9EEAA5AC2
:10C87000A0EE829A69EE802A20EE836AC2EE857A63
:10C88000C6EE094A79EEE76A70EEE41AE8EE267A17
:10C89000E8EE214A37EE274A77EE245AB5EEC04A31
:10C8A000F1EE10FADFED259AF1EE443AF5EEC05ABA
:10C8B000C8BFF0EE443AB0EE491AF1EE10FA24EE99
:10C8C000299AF4EEE83A25EEA9AAD4BFB1EE651A8A
:10C8D000B0EE651AF1EE10FAC8BFF0EE638AFDEE15
:10C8E000C90ABDEECA0AF4EEC18AF1EE10FA10EEE2
:10C8F000901A01F30F0810EE103A03F30F0C27F80B
:10C90000048C27F802CC48BFF0EE418ABE4293D196
:10C91000C5ED0A8ABDEC068BBDE8F081140100204C
:10C920006C010020A8030020100000200000003847
:10C930000AD7A33B0000000030C9002000FEFF46DC
:10C94000A0030020CDCCCC3E0000B4420000484300
:10C950001F4209B998ED201A5FED061A98ED1D2ABD
:10C96000D8ED1E0A1FED080A61EE218AF7EE00AA33
:10C97000F0EE6A2AE8EEA82AB2EE003AF1EEE23AC8
:10C98000B2EE065AA2EE435AF0EE6A9A88EEA3AAD5
:10C99000E5EE089A3AEEC29A02F0B8F95FED155A40
:10C9A0001FED154A20EE256A26EE040A02F072F900
:10C9B0007AEEC00A002F00F0B280DFF89081DFF835
:10C9C00090E1DFF890C15A4E5A485B495B4B98EDB5
:10C9D000003A9EED002A9CED005AD6ED002A90ED1B
:10C9E000000AD1ED00AA03EBC702F0EE434AF0EED5
:10C9F000457A93ED003A93ED015ADFED516A33EE3B
:10CA0000647A35EE671AA2EE267AA2EEA61AF0EE46
:10CA1000684AB0EE686AE9EE874AA9EE816AF7EEE5
:10CA2000003AF0EE631AF0EE636AE4EEA41AE6EE62
:10CA3000066AF1EEE17AF0EE412AB1EEE61AF4EE82
:10CA4000E34AF1EE10FAB0EE472AC6EE011A84EE80
:10CA5000A77AFFEE005AB0EE634A08DCF4EE654AAE
:10CA6000F1EE10FA4CBFB0EE654AB0EE644AF7EE54
:10CA7000005AB4EEE56AF1EE10FAFFEE003A08DC77
:10CA8000B4EE636AF1EE10FA4CBFF0EE635AF0EECA
:10CA9000465A74EE474A35EEE16AA9EE247A083325
:10CAA0009342E9EE061A77EE4A6A71EECA7A36EEDA
:10CAB000C01A37EEEA7AA0EE810AE0EE87AA70EE9D
:10CAC000431A3AEEC54AF0EE433AF0EE455AE8EE24
:10CAD000213AE8EE045A43ED023A43ED015A84D17B
:10CAE000C6ED002A88ED003A8EED002A8CED005A42
:10CAF00080ED000AC1ED00AABE0097E6DFF858807D
:10CB00000E493A464046FEF79BFADFED0E7A98ED65
:10CB10001C8AB4EEE78AF1EE10FA3FF71BAFDFEDA7
:10CB20000A8AC5ED0A8ABDEC068BBDE8F08100BF1C
:10CB300070E200206CE2002068E20020100000207B
:10CB40003BDF7F3F0AD7A33B000000007CE20020D0
:10CB500078E2002074E20020A0030020704700BFAC
:10CB6000FEE700BFFEE700BFFEE700BFFEE700BF35
:10CB7000704700BF704700BF704700BF30B53B48EB
:10CB80003B4D3C4C85B0012100F072FF0121022099
:10CB900001F014FD01224FF08073374802A9CDE95E
:10CBA000022301F071FA95E80F0084E80F00617824
:10CBB0002078A278E3782D8A084410442179A2795C
:10CBC0001844637908441844E179237A10440844EE
:10CBD000617AA27A18440844E37A217B12FA80F041
:10CBE00013FA80F2637B11FA82F0A17B13FA80F2D0
:10CBF000E37B11FA82F013FA80F1CA4390B28542C6
:10CC000005D01E4D1E4B25606360A560E3609FED5F
:10CC10001D0A1D491D48FDF773FA16491C48FBF70C
:10CC2000B7FA1C4A1A4B1C480094A2F10801FCF701
:10CC30005DF90121104801F039FB0446211E18BF9F
:10CC4000012116484BF6803200F04AFC00B9FEE79D
:10CC5000134A1248202100F08DFC00B9FEE70F486E
:10CC6000182105B0BDE8304000F002BDD8C9002051
:10CC700000000208C8C900200004024048E1DAC2EE
:10CC8000D7A3C84200803B4700000010A00300204B
:10CC90006C010020A803002014010020DCC9002042
:10CCA00071C6000808B5FFF769FF0248FBF77EFF71
:10CCB000FBE700BF6C0100202DE9F04301219DB08E
:10CCC00004464FF4800001F079FC0121084601F090
:10CCD00075FC01214FF48070002501F087FC4FF0B6
:10CCE0000308FF2301A94548DFF8189101938DF847
:10CCF0000B508DF8088001F0C7F941480F944FF4AC
:10CD000000524FF480614FF48076CDE915264FF440
:10CD1000003301260827CDE90D50CDE912514FF41B
:10CD200000640DA9484617931494CDE91057CDE936
:10CD30001A551895199601F071F83146484601F0D8
:10CD400099F84FF4403004904FF4706103A80691B5
:10CD50000395059500F048FF0B9404F1804404F519
:10CD60008C3907A94846CDE909550795ADF82060EB
:10CD70008DF8307000F00EFF3246314648460723EA
:10CD800000F052FF022211464846072300F04CFFF4
:10CD9000424648460723042100F046FF41464846E4
:10CDA0000723042200F040FF0522114648460723CE
:10CDB00000F03AFF062211464846072300F034FFF0
:10CDC000072329461A46484600F02EFF0723194636
:10CDD0003A46484600F028FF3146484600F07EFFBC
:10CDE0003146484600F016FF3146484600F06CFFD9
:10CDF000484600F063FF1DB0BDE8F083000002402C
:10CE00004C20014010640240014800F057BF00BFB1
:10CE10000020014030B5012183B0224C062001F0F2
:10CE2000CDFB214B4FF4406269462046CDE90023FB
:10CE300001F02AF9204604220A2101F043FA0422D3
:10CE400020460B2101F03EFA40F202254FF47040DB
:10CE5000CDE90005154D6946204601F015F940233E
:10CE600069462846009301F00FF9204605220C215F
:10CE700001F028FA204605220D2101F023FA204670
:10CE800005220F2101F01EFA204605220E2101F095
:10CE900019FA28460522062101F014FA012003B0F0
:10CEA00030BD00BF00040240020201000008024041
:10CEB00070B5002084B014460E4601F079FB0020C6
:10CEC00001F028FB4BF680339C420CD04AF64440DC
:10CED000844267D0B4F5FA4F6AD038498C425BD0AF
:10CEE000002004B070BD03214FF4817001F008FBF5
:10CEF000012001F00FFB3B2001F09CFB4FF480551B
:10CF000048BB3B2001F096FB02463B201ABB01F0D8
:10CF100091FB03463B20F3B901F08CFB01463B201B
:10CF2000C9B901F087FB02463B20A2B901F082FBA0
:10CF300003463B207BB901F07DFB01463B2051B904
:10CF400001F078FB02463B202AB901F073FB10B9CF
:10CF5000083DD6D1C4E701214FF4804001F03AFBEF
:10CF6000174801F081FB75020020AEB26946ADF8AA
:10CF70000200ADF80400ADF80C0011480294ADF8C1
:10CF80000060ADF8066001F0D7FB0E48694601F07D
:10CF900057FC012004B070BD042140F2891001F05B
:10CFA000AFFAA5E7062140F20F1001F0A9FA9FE7BA
:10CFB00004214FF4D57001F0A3FA99E7007701003E
:10CFC000003800400034004070B583480E464FF4EE
:10CFD0000031154601F078FA4FF4961400283AD043
:10CFE0004FF400317C4801F06FFA03464FF40031F2
:10CFF000794883B301F068FA02464FF4003176486D
:10D000004AB301F061FA03464FF40031724813B39A
:10D0100001F05AFA02464FF400316F48DAB101F0DC
:10D0200053FA03464FF400316B48A3B101F04CFAB8
:10D0300002464FF4003168486AB101F045FA0346F0
:10D040004FF40031644833B101F03EFA18B1083CA6
:10D05000C6D1002070BD6048012101F0FFF95F4991
:10D060005D4801F023FA4FF48054002831D15B4928
:10D07000594801F01BFA0246584957484ABB01F08B
:10D0800015FA0346554954481BBB01F00FFA0246F6
:10D0900052495148EAB901F009FA03464F494E484E
:10D0A000BBB901F003FA02464C494B488AB901F07A
:10D0B000FDF90346494948485BB901F0F7F90246D2
:10D0C000464945482AB901F0F1F910B9083CCED1DA
:10D0D000BFE741480022342101F0DCF940493E48D5
:10D0E00001F0E4F94FF48054002831D13C493A482A
:10D0F00001F0DCF903463A4937484BBB01F0D6F959
:10D100000246374934481ABB01F0D0F90346344986
:10D110003148EBB901F0CAF9024631492E48BAB993
:10D1200001F0C4F903462E492B488BB901F0BEF932
:10D1300002462B4928485AB901F0B8F90346284954
:10D1400025482BB901F0B2F910B9083CCED180E7DF
:10D15000C5F3002141EA46041F48E1B201F0A4F9F9
:10D1600020491D4801F0A2F94FF4805600283BD118
:10D170001C49194801F09AF902461A491648002A32
:10D1800032D101F093F903461649134863BB01F00D
:10D190008DF904461349104834BB01F087F9024663
:10D1A00010490D4802BB01F081F903460D490A48B8
:10D1B000D3B901F07BF904460A490748A4B901F044
:10D1C00075F902460749044872B901F06FF958B978
:10D1D000083ECDD13DE700BF0058004001000300EC
:10D1E00082000700800007003E48E9B201F05CF9C8
:10D1F0003D493C4801F05AF94FF48056002831D19E
:10D200003949384801F052F90546374935484DBB90
:10D2100001F04CF90346344932481BBB01F046F992
:10D22000044631492F48ECB901F040F902462E4935
:10D230002C48BAB901F03AF905462B4929488DB96D
:10D2400001F034F90346284926485BB901F02EF96C
:10D250000446254923482CB901F028F910B9083EA5
:10D26000CED1F6E621491F4801F02EF94FF496166B
:10D27000002831D11D491B4801F026F902461B49FF
:10D2800018484ABB01F020F90546184915481DBB4E
:10D2900001F01AF9034615491248EBB901F014F9E7
:10D2A000044612490F48BCB901F00EF902460F4975
:10D2B0000C488AB901F008F905460C4909485DB9DE
:10D2C00001F002F90346094906482BB901F0FCF8C0
:10D2D00010B9083ECED1BCE60248012101F0CCF8DD
:10D2E000012070BD005800408000070004000010BD
:10D2F00070B515460E4600220F210446FFF764FE66
:10D3000008B9002070BD172200212046FFF75CFEFF
:10D310000028F6D0172201212046FFF755FE0028ED
:10D32000EFD0002202212046FFF74EFE0028E8D071
:10D33000002203212046FFF747FE0028E1D01222F9
:10D3400004212046FFF740FE0028DAD00022052104
:10D350002046FFF739FE0028D3D08EBB422206219B
:10D360002046FFF731FE0028CBD04222072120467D
:10D37000FFF72AFE0028C4D04AF644439D421BD042
:10D3800014DCB5F5FA5F19D0B5F5FA4F14BF0022D9
:10D39000182208212046FFF717FE0028B1D02046AA
:10D3A0000022BDE870400921FFF70EBE0F4A9542EA
:10D3B0000CBF1C220022ECE72022EAE70C22E8E75F
:10D3C000622206212046FFF7FFFD002899D00222A5
:10D3D00007212046FFF7F8FD002892D04AF6444086
:10D3E000291AB1FA81F56E097201D2E700770100BE
:10D3F0002DE9F84F344E044601214FF4001001F09E
:10D40000DDF80021304600F035FD304600F070FCBC
:10D410002E4A002540234FF4806B4FF4006A4FF4EE
:10D4200000594FF480784FF400374FF6FE70C4E98E
:10D430000753C4E90552C4E90905C4E91055C4E914
:10D440001255C4E90CA9C4E90E87C4F82CB03046C3
:10D4500004F11401183E00F0E1FC2946304600F0CA
:10D4600009FD304600F044FC194A6566C4E91655CA
:10D47000C4E91F55C4E921554FF6FE714FF0C06550
:10D48000C4E91452C4E91ABAC4E91D872166C4F874
:10D49000709004F15001304600F0C0FC0D4C304655
:10D4A0000122182100F0F0FC4FF4804323600A4869
:10D4B0000122022101F0F2F901220848114601F08F
:10D4C000EDF90120BDE8F88F706002400C38004093
:10D4D0000C34004000E100E000380040003400401F
:10D4E00070B51F4B84B01860002303614260017067
:10D4F00004460E461546FFF78DFC10B9002004B017
:10D5000070BD01214FF4800001F064F8154800F06F
:10D51000EDFE154A1548164B00934FF48041CDE9B6
:10D520000120ADF80C100F48694600F015FF0D48BA
:10D53000012100F085FF2A4631462046FFF7B8FC5E
:10D540000028DBD02A4631462046FFF7D1FE0028CE
:10D55000D4D0204604B0BDE87040FFF749BF00BFFB
:10D5600080E20020005800400000FFBF33000004AC
:10D57000A0860100F8B517460E460122092104468F
:10D58000FFF722FD054600283DD0602E53D82378B2
:10D59000002B3AD030482761818B4A0555D52F485A
:10D5A000828B53054DD5207804F18C0704F68C430B
:10D5B000E761A365B70078B962684BF6803C6245C5
:10D5C0003CD027498A4244D0B2F5FA4F04D106EB49
:10D5D00046008700032300E00123E3602148A660A2
:10D5E00004F114016762276600F018FC1E4804F17C
:10D5F000500100F013FC1B48012100F03BFC1A48CD
:10D60000012100F037FC2846F8BD18484FF480513E
:10D6100000F04CFE0028F8D114484FF4805100F07F
:10D6200045FE0028B6D111484FF4805100F03EFE6F
:10D630000028F1D0AEE700252846F8BDF700022308
:10D64000CBE7012101F0EEF8ADE7012101F0EAF8A6
:10D65000A5E737010423C0E700380040003400404C
:10D6600000770100706002405860024000040240F0
:10D6700038B58CB2224600210546FFF7A5FC00B95B
:10D6800038BD224628460121BDE83840FFF79CBC42
:10D690000369002B00F0E8802DE9F041D0E9022673
:10D6A00002FB01F106FB01F4A400054604F68C40E0
:10D6B0008C3428442C44002E6CD05100012969D9A7
:10D6C00000EB820EAEF1020EAEEB000CACF10207E5
:10D6D0004FEA570808F1010C770000EB46011CF0F7
:10D6E000070680462CD0012E23D0022E1CD0032EFC
:10D6F00015D0042E0ED0052E07D0062E40F0BB808C
:10D70000B1F9006028F8026F3944B1F900C028F877
:10D7100002CF3944B1F9006028F8026F3944B1F9F9
:10D7200000C028F802CF3944B1F9006028F8026F30
:10D730003944B1F900C028F802CFF045394429D066
:10D74000B1F90060A8F8026031F907C0A8F804C078
:10D7500031F91760A8F8066001EB470101EB4706B5
:10D7600031F907C0A8F808C031F91710A8F80A1055
:10D7700036F907C0A8F80CC036F91710A8F80E1033
:10D7800006EB470606EB470136F907C028F810CF2D
:10D79000F045D5D121469847EA68002A62D0A868AA
:10D7A00083009E1E04EB800702FB06430234C2EB9B
:10D7B000C2753A1B901E69004508013515F0070631
:10D7C00027D0012E1FD0022E19D0032E13D0042EE5
:10D7D0000DD0052E06D0062E47D137F9028DA3F8BD
:10D7E00000800B4437F902CDA3F800C00B4437F991
:10D7F000022D1A800B4437F9020D18800B4437F9BB
:10D80000025D1D800B4437F9026D1E80BC420B4443
:10D8100028D037F902ECA3F800E037F9048C23F89C
:10D82000018037F9062C23F8112003EB410C37F95E
:10D83000083C2CF8013037F90A0C2CF811000CEBDD
:10D84000410537F90C6C6E5237F90E2C25F8112072
:10D8500037F9103D05EB410EBC422EF801300EEBBE
:10D860004103D6D1BDE8F081704737F902EDA3F846
:10D8700000E00B44B1E7B1F900C028F802CF394409
:10D880003EE700BF08B5114B1A6812F0C05F05D122
:10D890000E4B1A6812F0A05F0DD108BD0C484FF076
:10D8A000C051996000680121FFF7F2FE074B1A682A
:10D8B00012F0A05FF1D006484FF0A05199600068C7
:10D8C000BDE808400021FFF7E3BE00BF0060024052
:10D8D00080E20020F0B501218BB00646042000F064
:10D8E0006DFE0121022000F069FE0121042000F0FC
:10D8F00071FE304C3048302301276946CDE90037AE
:10D9000000F0C2FB4FF4E07002256946009020460B
:10D91000019500F0B9FB2A462046062100F0D2FC12
:10D920002A462046072100F0CDFC2A460821204641
:10D9300000F0C8FC02A8A4F5FE3401F013F8FF21A2
:10D9400000250391204602A9ADF8105002958DF8EC
:10D95000125000F0ADFF05A801F002F9174A059238
:10D9600005A920460795ADF82050ADF8245001F0E8
:10D970001DF82046082101F0FBF805A9204601F01A
:10D9800059F82046082101F0FBF805A9204601F0CE
:10D990009DF82046082101F0FFF83946204600F0A6
:10D9A000E9FF3946204600F0F3FF3560B5800BB043
:10D9B000F0BD00BF0004024000080240600001000A
:10D9C00010B5174B0278DA634178596382789A630D
:10D9D0004179C3781031CAB2FF2B0446427115D089
:10D9E0009A422CBF002201220E48102100F064FC54
:10D9F0002079FF280CD062798242BDE810400948A6
:10DA00002CBF00220122202100F056BC0122EBE7AE
:10DA1000BDE8104003480122202100F04DBC00BFAA
:10DA2000000800400008024010B5012182B0044601
:10DA3000022000F0C3FD02224FF0807304486946C3
:10DA4000CDE9002300F020FBFF20207002B010BDC4
:10DA50000004024038B5044602210448257800F04D
:10DA600025FC40EA4500207038BD00BF000402409C
:10DA700001B970474FF400414FF0006000F080B8EA
:10DA80003A483B4BD0F8882042F4700282B0C0F88C
:10DA900088201A68002142F001021A6099601A6811
:10DAA000A0F1BC2C22F08472ACF1F00022F48032A0
:10DAB0001A605860186820F480221A60D9600091BA
:10DAC0000191196841F48030186003E0009AB2F5C2
:10DAD000A04F0AD0264B1A6802F400310191009839
